{
	"loop.sol": {
		"loop": {
			"abi": [
				{
					"inputs": [],
					"name": "_loop",
					"outputs": [],
					"stateMutability": "pure",
					"type": "function"
				}
			],
			"devdoc": {
				"kind": "dev",
				"methods": {},
				"version": 1
			},
			"evm": {
				"assembly": "    /* \"loop.sol\":62:565  contract loop{... */\n  mstore(0x40, 0x80)\n  callvalue\n  dup1\n  iszero\n  tag_1\n  jumpi\n  0x00\n  dup1\n  revert\ntag_1:\n  pop\n  dataSize(sub_0)\n  dup1\n  dataOffset(sub_0)\n  0x00\n  codecopy\n  0x00\n  return\nstop\n\nsub_0: assembly {\n        /* \"loop.sol\":62:565  contract loop{... */\n      mstore(0x40, 0x80)\n      callvalue\n      dup1\n      iszero\n      tag_1\n      jumpi\n      0x00\n      dup1\n      revert\n    tag_1:\n      pop\n      jumpi(tag_2, lt(calldatasize, 0x04))\n      shr(0xe0, calldataload(0x00))\n      dup1\n      0x67108f81\n      eq\n      tag_3\n      jumpi\n    tag_2:\n      0x00\n      dup1\n      revert\n        /* \"loop.sol\":84:560  function _loop() pure public {... */\n    tag_3:\n      tag_4\n      tag_5\n      jump\t// in\n    tag_4:\n      stop\n    tag_5:\n        /* \"loop.sol\":149:158  uint256 i */\n      0x00\n        /* \"loop.sol\":144:322  for (uint256 i = 0; i < 10; i++) {... */\n    tag_7:\n        /* \"loop.sol\":168:170  10 */\n      0x0a\n        /* \"loop.sol\":164:165  i */\n      dup2\n        /* \"loop.sol\":164:170  i < 10 */\n      lt\n        /* \"loop.sol\":144:322  for (uint256 i = 0; i < 10; i++) {... */\n      iszero\n      tag_8\n      jumpi\n        /* \"loop.sol\":200:201  3 */\n      0x03\n        /* \"loop.sol\":195:196  i */\n      dup2\n        /* \"loop.sol\":195:201  i == 3 */\n      sub\n        /* \"loop.sol\":192:245  if(i == 3){... */\n      iszero\n        /* \"loop.sol\":221:229  continue */\n      tag_9\n        /* \"loop.sol\":192:245  if(i == 3){... */\n      jumpi\n        /* \"loop.sol\":269:270  5 */\n      0x05\n        /* \"loop.sol\":264:265  i */\n      dup2\n        /* \"loop.sol\":264:270  i == 5 */\n      sub\n        /* \"loop.sol\":261:311  if(i == 5){... */\n      iszero\n        /* \"loop.sol\":290:295  break */\n      tag_8\n        /* \"loop.sol\":261:311  if(i == 5){... */\n      jumpi\n        /* \"loop.sol\":144:322  for (uint256 i = 0; i < 10; i++) {... */\n    tag_9:\n        /* \"loop.sol\":172:175  i++ */\n      dup1\n      dup1\n      0x01\n      add\n      swap2\n      pop\n      pop\n        /* \"loop.sol\":144:322  for (uint256 i = 0; i < 10; i++) {... */\n      jump(tag_7)\n    tag_8:\n      pop\n        /* \"loop.sol\":356:365  uint256 j */\n      0x00\n        /* \"loop.sol\":376:392  uint256 segurity */\n      dup1\n        /* \"loop.sol\":405:553  while( j < 10) ... */\n    tag_12:\n        /* \"loop.sol\":416:418  10 */\n      0x0a\n        /* \"loop.sol\":412:413  j */\n      dup3\n        /* \"loop.sol\":412:418  j < 10 */\n      lt\n        /* \"loop.sol\":405:553  while( j < 10) ... */\n      iszero\n      tag_13\n      jumpi\n        /* \"loop.sol\":445:448  j++ */\n      dup2\n      dup1\n      tag_14\n      swap1\n      tag_15\n      jump\t// in\n    tag_14:\n      swap3\n      pop\n      pop\n        /* \"loop.sol\":472:474  10 */\n      0x0a\n        /* \"loop.sol\":468:469  j */\n      dup3\n        /* \"loop.sol\":468:474  j < 10 */\n      lt\n        /* \"loop.sol\":494:499  break */\n      tag_13\n        /* \"loop.sol\":465:515  if(j < 10){... */\n      jumpi\n        /* \"loop.sol\":531:541  segurity++ */\n      dup1\n      dup1\n      tag_17\n      swap1\n      tag_15\n      jump\t// in\n    tag_17:\n      swap2\n      pop\n      pop\n        /* \"loop.sol\":405:553  while( j < 10) ... */\n      jump(tag_12)\n    tag_13:\n        /* \"loop.sol\":113:560  {... */\n      pop\n      pop\n        /* \"loop.sol\":84:560  function _loop() pure public {... */\n      jump\t// out\n        /* \"#utility.yul\":7:187   */\n    tag_18:\n        /* \"#utility.yul\":55:132   */\n      0x4e487b7100000000000000000000000000000000000000000000000000000000\n        /* \"#utility.yul\":52:53   */\n      0x00\n        /* \"#utility.yul\":45:133   */\n      mstore\n        /* \"#utility.yul\":152:156   */\n      0x11\n        /* \"#utility.yul\":149:150   */\n      0x04\n        /* \"#utility.yul\":142:157   */\n      mstore\n        /* \"#utility.yul\":176:180   */\n      0x24\n        /* \"#utility.yul\":173:174   */\n      0x00\n        /* \"#utility.yul\":166:181   */\n      revert\n        /* \"#utility.yul\":193:270   */\n    tag_19:\n        /* \"#utility.yul\":230:237   */\n      0x00\n        /* \"#utility.yul\":259:264   */\n      dup2\n        /* \"#utility.yul\":248:264   */\n      swap1\n      pop\n        /* \"#utility.yul\":193:270   */\n      swap2\n      swap1\n      pop\n      jump\t// out\n        /* \"#utility.yul\":276:509   */\n    tag_15:\n        /* \"#utility.yul\":315:318   */\n      0x00\n        /* \"#utility.yul\":338:362   */\n      tag_24\n        /* \"#utility.yul\":356:361   */\n      dup3\n        /* \"#utility.yul\":338:362   */\n      tag_19\n      jump\t// in\n    tag_24:\n        /* \"#utility.yul\":329:362   */\n      swap2\n      pop\n        /* \"#utility.yul\":384:450   */\n      0xffffffffffffffffffffffffffffffffffffffffffffffffffffffffffffffff\n        /* \"#utility.yul\":377:382   */\n      dup3\n        /* \"#utility.yul\":374:451   */\n      sub\n        /* \"#utility.yul\":371:474   */\n      tag_25\n      jumpi\n        /* \"#utility.yul\":454:472   */\n      tag_26\n      tag_18\n      jump\t// in\n    tag_26:\n        /* \"#utility.yul\":371:474   */\n    tag_25:\n        /* \"#utility.yul\":501:502   */\n      0x01\n        /* \"#utility.yul\":494:499   */\n      dup3\n        /* \"#utility.yul\":490:503   */\n      add\n        /* \"#utility.yul\":483:503   */\n      swap1\n      pop\n        /* \"#utility.yul\":276:509   */\n      swap2\n      swap1\n      pop\n      jump\t// out\n\n    auxdata: 0xa2646970667358221220350f1c66ad159c59f9cbd85c6bb457e59b774a520bae05c5c9ccedddb52400ed64736f6c63430008180033\n}\n",
				"bytecode": {
					"linkReferences": {},
					"object": "608060405234801561000f575f80fd5b5061014f8061001d5f395ff3fe608060405234801561000f575f80fd5b5060043610610029575f3560e01c806367108f811461002d575b5f80fd5b610035610037565b005b5f5b600a811015610062576003810315610055576005810315610062575b8080600101915050610039565b505f805b600a82101561009857818061007a906100d2565b925050600a8210610098578080610090906100d2565b915050610066565b5050565b7f4e487b71000000000000000000000000000000000000000000000000000000005f52601160045260245ffd5b5f819050919050565b5f6100dc826100c9565b91507fffffffffffffffffffffffffffffffffffffffffffffffffffffffffffffffff820361010e5761010d61009c565b5b60018201905091905056fea2646970667358221220350f1c66ad159c59f9cbd85c6bb457e59b774a520bae05c5c9ccedddb52400ed64736f6c63430008180033",
					"opcodes": "PUSH1 0x80 PUSH1 0x40 MSTORE CALLVALUE DUP1 ISZERO PUSH2 0xF JUMPI PUSH0 DUP1 REVERT JUMPDEST POP PUSH2 0x14F DUP1 PUSH2 0x1D PUSH0 CODECOPY PUSH0 RETURN INVALID PUSH1 0x80 PUSH1 0x40 MSTORE CALLVALUE DUP1 ISZERO PUSH2 0xF JUMPI PUSH0 DUP1 REVERT JUMPDEST POP PUSH1 0x4 CALLDATASIZE LT PUSH2 0x29 JUMPI PUSH0 CALLDATALOAD PUSH1 0xE0 SHR DUP1 PUSH4 0x67108F81 EQ PUSH2 0x2D JUMPI JUMPDEST PUSH0 DUP1 REVERT JUMPDEST PUSH2 0x35 PUSH2 0x37 JUMP JUMPDEST STOP JUMPDEST PUSH0 JUMPDEST PUSH1 0xA DUP2 LT ISZERO PUSH2 0x62 JUMPI PUSH1 0x3 DUP2 SUB ISZERO PUSH2 0x55 JUMPI PUSH1 0x5 DUP2 SUB ISZERO PUSH2 0x62 JUMPI JUMPDEST DUP1 DUP1 PUSH1 0x1 ADD SWAP2 POP POP PUSH2 0x39 JUMP JUMPDEST POP PUSH0 DUP1 JUMPDEST PUSH1 0xA DUP3 LT ISZERO PUSH2 0x98 JUMPI DUP2 DUP1 PUSH2 0x7A SWAP1 PUSH2 0xD2 JUMP JUMPDEST SWAP3 POP POP PUSH1 0xA DUP3 LT PUSH2 0x98 JUMPI DUP1 DUP1 PUSH2 0x90 SWAP1 PUSH2 0xD2 JUMP JUMPDEST SWAP2 POP POP PUSH2 0x66 JUMP JUMPDEST POP POP JUMP JUMPDEST PUSH32 0x4E487B7100000000000000000000000000000000000000000000000000000000 PUSH0 MSTORE PUSH1 0x11 PUSH1 0x4 MSTORE PUSH1 0x24 PUSH0 REVERT JUMPDEST PUSH0 DUP2 SWAP1 POP SWAP2 SWAP1 POP JUMP JUMPDEST PUSH0 PUSH2 0xDC DUP3 PUSH2 0xC9 JUMP JUMPDEST SWAP2 POP PUSH32 0xFFFFFFFFFFFFFFFFFFFFFFFFFFFFFFFFFFFFFFFFFFFFFFFFFFFFFFFFFFFFFFFF DUP3 SUB PUSH2 0x10E JUMPI PUSH2 0x10D PUSH2 0x9C JUMP JUMPDEST JUMPDEST PUSH1 0x1 DUP3 ADD SWAP1 POP SWAP2 SWAP1 POP JUMP INVALID LOG2 PUSH5 0x6970667358 0x22 SLT KECCAK256 CALLDATALOAD 0xF SHR PUSH7 0xAD159C59F9CBD8 TLOAD PUSH12 0xB457E59B774A520BAE05C5C9 0xCC 0xED 0xDD 0xB5 0x24 STOP 0xED PUSH5 0x736F6C6343 STOP ADDMOD XOR STOP CALLER "
				},
				"gasEstimates": {
					"creation": {
						"codeDepositCost": "67000",
						"executionCost": "115",
						"totalCost": "67115"
					},
					"external": {
						"_loop()": "infinite"
					}
				},
				"methodIdentifiers": {
					"_loop()": "67108f81"
				}
			},
			"storageLayout": {
				"storage": [],
				"types": null
			},
			"userdoc": {
				"kind": "user",
				"methods": {},
				"version": 1
			}
		}
	}
}