{
	"libreta.sol": {
		"libreta": {
			"abi": [
				{
					"inputs": [
						{
							"internalType": "string",
							"name": "_correo",
							"type": "string"
						}
					],
					"name": "guardar_correo",
					"outputs": [],
					"stateMutability": "nonpayable",
					"type": "function"
				},
				{
					"inputs": [
						{
							"internalType": "string",
							"name": "_nombre",
							"type": "string"
						}
					],
					"name": "guardar_nombre",
					"outputs": [],
					"stateMutability": "nonpayable",
					"type": "function"
				},
				{
					"inputs": [
						{
							"internalType": "uint256",
							"name": "_telefono",
							"type": "uint256"
						}
					],
					"name": "guardar_telefono",
					"outputs": [],
					"stateMutability": "nonpayable",
					"type": "function"
				},
				{
					"inputs": [],
					"name": "leer_correo",
					"outputs": [
						{
							"internalType": "string",
							"name": "",
							"type": "string"
						}
					],
					"stateMutability": "view",
					"type": "function"
				},
				{
					"inputs": [],
					"name": "leer_nombre",
					"outputs": [
						{
							"internalType": "string",
							"name": "",
							"type": "string"
						}
					],
					"stateMutability": "view",
					"type": "function"
				},
				{
					"inputs": [],
					"name": "leer_telefono",
					"outputs": [
						{
							"internalType": "uint256",
							"name": "",
							"type": "uint256"
						}
					],
					"stateMutability": "view",
					"type": "function"
				}
			],
			"devdoc": {
				"kind": "dev",
				"methods": {},
				"version": 1
			},
			"evm": {
				"assembly": "    /* \"libreta.sol\":62:776  contract libreta{... */\n  mstore(0x40, 0x80)\n    /* \"libreta.sol\":85:114  string nombre = \"Pablo Perez\" */\n  mload(0x40)\n  dup1\n  0x40\n  add\n  0x40\n  mstore\n  dup1\n  0x0b\n  dup2\n  mstore\n  0x20\n  add\n  0x5061626c6f20506572657a000000000000000000000000000000000000000000\n  dup2\n  mstore\n  pop\n  0x00\n  swap1\n  dup2\n  tag_1\n  swap2\n  swap1\n  tag_2\n  jump\t// in\ntag_1:\n  pop\n    /* \"libreta.sol\":121:150  string correo = \"nn@mail.com\" */\n  mload(0x40)\n  dup1\n  0x40\n  add\n  0x40\n  mstore\n  dup1\n  0x0b\n  dup2\n  mstore\n  0x20\n  add\n  0x6e6e406d61696c2e636f6d000000000000000000000000000000000000000000\n  dup2\n  mstore\n  pop\n  0x01\n  swap1\n  dup2\n  tag_3\n  swap2\n  swap1\n  tag_2\n  jump\t// in\ntag_3:\n  pop\n    /* \"libreta.sol\":176:186  1234567890 */\n  0x499602d2\n    /* \"libreta.sol\":157:186  uint256 telefono = 1234567890 */\n  0x02\n  sstore\n    /* \"libreta.sol\":62:776  contract libreta{... */\n  callvalue\n  dup1\n  iszero\n  tag_4\n  jumpi\n  0x00\n  dup1\n  revert\ntag_4:\n  pop\n  jump(tag_5)\n    /* \"#utility.yul\":7:106   */\ntag_6:\n    /* \"#utility.yul\":59:65   */\n  0x00\n    /* \"#utility.yul\":93:98   */\n  dup2\n    /* \"#utility.yul\":87:99   */\n  mload\n    /* \"#utility.yul\":77:99   */\n  swap1\n  pop\n    /* \"#utility.yul\":7:106   */\n  swap2\n  swap1\n  pop\n  jump\t// out\n    /* \"#utility.yul\":112:292   */\ntag_7:\n    /* \"#utility.yul\":160:237   */\n  0x4e487b7100000000000000000000000000000000000000000000000000000000\n    /* \"#utility.yul\":157:158   */\n  0x00\n    /* \"#utility.yul\":150:238   */\n  mstore\n    /* \"#utility.yul\":257:261   */\n  0x41\n    /* \"#utility.yul\":254:255   */\n  0x04\n    /* \"#utility.yul\":247:262   */\n  mstore\n    /* \"#utility.yul\":281:285   */\n  0x24\n    /* \"#utility.yul\":278:279   */\n  0x00\n    /* \"#utility.yul\":271:286   */\n  revert\n    /* \"#utility.yul\":298:478   */\ntag_8:\n    /* \"#utility.yul\":346:423   */\n  0x4e487b7100000000000000000000000000000000000000000000000000000000\n    /* \"#utility.yul\":343:344   */\n  0x00\n    /* \"#utility.yul\":336:424   */\n  mstore\n    /* \"#utility.yul\":443:447   */\n  0x22\n    /* \"#utility.yul\":440:441   */\n  0x04\n    /* \"#utility.yul\":433:448   */\n  mstore\n    /* \"#utility.yul\":467:471   */\n  0x24\n    /* \"#utility.yul\":464:465   */\n  0x00\n    /* \"#utility.yul\":457:472   */\n  revert\n    /* \"#utility.yul\":484:804   */\ntag_9:\n    /* \"#utility.yul\":528:534   */\n  0x00\n    /* \"#utility.yul\":565:566   */\n  0x02\n    /* \"#utility.yul\":559:563   */\n  dup3\n    /* \"#utility.yul\":555:567   */\n  div\n    /* \"#utility.yul\":545:567   */\n  swap1\n  pop\n    /* \"#utility.yul\":612:613   */\n  0x01\n    /* \"#utility.yul\":606:610   */\n  dup3\n    /* \"#utility.yul\":602:614   */\n  and\n    /* \"#utility.yul\":633:651   */\n  dup1\n    /* \"#utility.yul\":623:704   */\n  tag_31\n  jumpi\n    /* \"#utility.yul\":689:693   */\n  0x7f\n    /* \"#utility.yul\":681:687   */\n  dup3\n    /* \"#utility.yul\":677:694   */\n  and\n    /* \"#utility.yul\":667:694   */\n  swap2\n  pop\n    /* \"#utility.yul\":623:704   */\ntag_31:\n    /* \"#utility.yul\":751:753   */\n  0x20\n    /* \"#utility.yul\":743:749   */\n  dup3\n    /* \"#utility.yul\":740:754   */\n  lt\n    /* \"#utility.yul\":720:738   */\n  dup2\n    /* \"#utility.yul\":717:755   */\n  sub\n    /* \"#utility.yul\":714:798   */\n  tag_32\n  jumpi\n    /* \"#utility.yul\":770:788   */\n  tag_33\n  tag_8\n  jump\t// in\ntag_33:\n    /* \"#utility.yul\":714:798   */\ntag_32:\n    /* \"#utility.yul\":535:804   */\n  pop\n    /* \"#utility.yul\":484:804   */\n  swap2\n  swap1\n  pop\n  jump\t// out\n    /* \"#utility.yul\":810:951   */\ntag_10:\n    /* \"#utility.yul\":859:863   */\n  0x00\n    /* \"#utility.yul\":882:885   */\n  dup2\n    /* \"#utility.yul\":874:885   */\n  swap1\n  pop\n    /* \"#utility.yul\":905:908   */\n  dup2\n    /* \"#utility.yul\":902:903   */\n  0x00\n    /* \"#utility.yul\":895:909   */\n  mstore\n    /* \"#utility.yul\":939:943   */\n  0x20\n    /* \"#utility.yul\":936:937   */\n  0x00\n    /* \"#utility.yul\":926:944   */\n  keccak256\n    /* \"#utility.yul\":918:944   */\n  swap1\n  pop\n    /* \"#utility.yul\":810:951   */\n  swap2\n  swap1\n  pop\n  jump\t// out\n    /* \"#utility.yul\":957:1050   */\ntag_11:\n    /* \"#utility.yul\":994:1000   */\n  0x00\n    /* \"#utility.yul\":1041:1043   */\n  0x20\n    /* \"#utility.yul\":1036:1038   */\n  0x1f\n    /* \"#utility.yul\":1029:1034   */\n  dup4\n    /* \"#utility.yul\":1025:1039   */\n  add\n    /* \"#utility.yul\":1021:1044   */\n  div\n    /* \"#utility.yul\":1011:1044   */\n  swap1\n  pop\n    /* \"#utility.yul\":957:1050   */\n  swap2\n  swap1\n  pop\n  jump\t// out\n    /* \"#utility.yul\":1056:1163   */\ntag_12:\n    /* \"#utility.yul\":1100:1108   */\n  0x00\n    /* \"#utility.yul\":1150:1155   */\n  dup3\n    /* \"#utility.yul\":1144:1148   */\n  dup3\n    /* \"#utility.yul\":1140:1156   */\n  shl\n    /* \"#utility.yul\":1119:1156   */\n  swap1\n  pop\n    /* \"#utility.yul\":1056:1163   */\n  swap3\n  swap2\n  pop\n  pop\n  jump\t// out\n    /* \"#utility.yul\":1169:1562   */\ntag_13:\n    /* \"#utility.yul\":1238:1244   */\n  0x00\n    /* \"#utility.yul\":1288:1289   */\n  0x08\n    /* \"#utility.yul\":1276:1286   */\n  dup4\n    /* \"#utility.yul\":1272:1290   */\n  mul\n    /* \"#utility.yul\":1311:1408   */\n  tag_38\n    /* \"#utility.yul\":1341:1407   */\n  0xffffffffffffffffffffffffffffffffffffffffffffffffffffffffffffffff\n    /* \"#utility.yul\":1330:1339   */\n  dup3\n    /* \"#utility.yul\":1311:1408   */\n  tag_12\n  jump\t// in\ntag_38:\n    /* \"#utility.yul\":1429:1468   */\n  tag_39\n    /* \"#utility.yul\":1459:1467   */\n  dup7\n    /* \"#utility.yul\":1448:1457   */\n  dup4\n    /* \"#utility.yul\":1429:1468   */\n  tag_12\n  jump\t// in\ntag_39:\n    /* \"#utility.yul\":1417:1468   */\n  swap6\n  pop\n    /* \"#utility.yul\":1501:1505   */\n  dup1\n    /* \"#utility.yul\":1497:1506   */\n  not\n    /* \"#utility.yul\":1490:1495   */\n  dup5\n    /* \"#utility.yul\":1486:1507   */\n  and\n    /* \"#utility.yul\":1477:1507   */\n  swap4\n  pop\n    /* \"#utility.yul\":1550:1554   */\n  dup1\n    /* \"#utility.yul\":1540:1548   */\n  dup7\n    /* \"#utility.yul\":1536:1555   */\n  and\n    /* \"#utility.yul\":1529:1534   */\n  dup5\n    /* \"#utility.yul\":1526:1556   */\n  or\n    /* \"#utility.yul\":1516:1556   */\n  swap3\n  pop\n    /* \"#utility.yul\":1245:1562   */\n  pop\n  pop\n    /* \"#utility.yul\":1169:1562   */\n  swap4\n  swap3\n  pop\n  pop\n  pop\n  jump\t// out\n    /* \"#utility.yul\":1568:1645   */\ntag_14:\n    /* \"#utility.yul\":1605:1612   */\n  0x00\n    /* \"#utility.yul\":1634:1639   */\n  dup2\n    /* \"#utility.yul\":1623:1639   */\n  swap1\n  pop\n    /* \"#utility.yul\":1568:1645   */\n  swap2\n  swap1\n  pop\n  jump\t// out\n    /* \"#utility.yul\":1651:1711   */\ntag_15:\n    /* \"#utility.yul\":1679:1682   */\n  0x00\n    /* \"#utility.yul\":1700:1705   */\n  dup2\n    /* \"#utility.yul\":1693:1705   */\n  swap1\n  pop\n    /* \"#utility.yul\":1651:1711   */\n  swap2\n  swap1\n  pop\n  jump\t// out\n    /* \"#utility.yul\":1717:1859   */\ntag_16:\n    /* \"#utility.yul\":1767:1776   */\n  0x00\n    /* \"#utility.yul\":1800:1853   */\n  tag_43\n    /* \"#utility.yul\":1818:1852   */\n  tag_44\n    /* \"#utility.yul\":1827:1851   */\n  tag_45\n    /* \"#utility.yul\":1845:1850   */\n  dup5\n    /* \"#utility.yul\":1827:1851   */\n  tag_14\n  jump\t// in\ntag_45:\n    /* \"#utility.yul\":1818:1852   */\n  tag_15\n  jump\t// in\ntag_44:\n    /* \"#utility.yul\":1800:1853   */\n  tag_14\n  jump\t// in\ntag_43:\n    /* \"#utility.yul\":1787:1853   */\n  swap1\n  pop\n    /* \"#utility.yul\":1717:1859   */\n  swap2\n  swap1\n  pop\n  jump\t// out\n    /* \"#utility.yul\":1865:1940   */\ntag_17:\n    /* \"#utility.yul\":1908:1911   */\n  0x00\n    /* \"#utility.yul\":1929:1934   */\n  dup2\n    /* \"#utility.yul\":1922:1934   */\n  swap1\n  pop\n    /* \"#utility.yul\":1865:1940   */\n  swap2\n  swap1\n  pop\n  jump\t// out\n    /* \"#utility.yul\":1946:2215   */\ntag_18:\n    /* \"#utility.yul\":2056:2095   */\n  tag_48\n    /* \"#utility.yul\":2087:2094   */\n  dup4\n    /* \"#utility.yul\":2056:2095   */\n  tag_16\n  jump\t// in\ntag_48:\n    /* \"#utility.yul\":2117:2208   */\n  tag_49\n    /* \"#utility.yul\":2166:2207   */\n  tag_50\n    /* \"#utility.yul\":2190:2206   */\n  dup3\n    /* \"#utility.yul\":2166:2207   */\n  tag_17\n  jump\t// in\ntag_50:\n    /* \"#utility.yul\":2158:2164   */\n  dup5\n    /* \"#utility.yul\":2151:2155   */\n  dup5\n    /* \"#utility.yul\":2145:2156   */\n  sload\n    /* \"#utility.yul\":2117:2208   */\n  tag_13\n  jump\t// in\ntag_49:\n    /* \"#utility.yul\":2111:2115   */\n  dup3\n    /* \"#utility.yul\":2104:2209   */\n  sstore\n    /* \"#utility.yul\":2022:2215   */\n  pop\n    /* \"#utility.yul\":1946:2215   */\n  pop\n  pop\n  pop\n  jump\t// out\n    /* \"#utility.yul\":2221:2294   */\ntag_19:\n    /* \"#utility.yul\":2266:2269   */\n  0x00\n    /* \"#utility.yul\":2221:2294   */\n  swap1\n  jump\t// out\n    /* \"#utility.yul\":2300:2489   */\ntag_20:\n    /* \"#utility.yul\":2377:2409   */\n  tag_53\n  tag_19\n  jump\t// in\ntag_53:\n    /* \"#utility.yul\":2418:2483   */\n  tag_54\n    /* \"#utility.yul\":2476:2482   */\n  dup2\n    /* \"#utility.yul\":2468:2474   */\n  dup5\n    /* \"#utility.yul\":2462:2466   */\n  dup5\n    /* \"#utility.yul\":2418:2483   */\n  tag_18\n  jump\t// in\ntag_54:\n    /* \"#utility.yul\":2353:2489   */\n  pop\n    /* \"#utility.yul\":2300:2489   */\n  pop\n  pop\n  jump\t// out\n    /* \"#utility.yul\":2495:2681   */\ntag_21:\n    /* \"#utility.yul\":2555:2675   */\ntag_56:\n    /* \"#utility.yul\":2572:2575   */\n  dup2\n    /* \"#utility.yul\":2565:2570   */\n  dup2\n    /* \"#utility.yul\":2562:2576   */\n  lt\n    /* \"#utility.yul\":2555:2675   */\n  iszero\n  tag_58\n  jumpi\n    /* \"#utility.yul\":2626:2665   */\n  tag_59\n    /* \"#utility.yul\":2663:2664   */\n  0x00\n    /* \"#utility.yul\":2656:2661   */\n  dup3\n    /* \"#utility.yul\":2626:2665   */\n  tag_20\n  jump\t// in\ntag_59:\n    /* \"#utility.yul\":2599:2600   */\n  0x01\n    /* \"#utility.yul\":2592:2597   */\n  dup2\n    /* \"#utility.yul\":2588:2601   */\n  add\n    /* \"#utility.yul\":2579:2601   */\n  swap1\n  pop\n    /* \"#utility.yul\":2555:2675   */\n  jump(tag_56)\ntag_58:\n    /* \"#utility.yul\":2495:2681   */\n  pop\n  pop\n  jump\t// out\n    /* \"#utility.yul\":2687:3230   */\ntag_22:\n    /* \"#utility.yul\":2788:2790   */\n  0x1f\n    /* \"#utility.yul\":2783:2786   */\n  dup3\n    /* \"#utility.yul\":2780:2791   */\n  gt\n    /* \"#utility.yul\":2777:3223   */\n  iszero\n  tag_61\n  jumpi\n    /* \"#utility.yul\":2822:2860   */\n  tag_62\n    /* \"#utility.yul\":2854:2859   */\n  dup2\n    /* \"#utility.yul\":2822:2860   */\n  tag_10\n  jump\t// in\ntag_62:\n    /* \"#utility.yul\":2906:2935   */\n  tag_63\n    /* \"#utility.yul\":2924:2934   */\n  dup5\n    /* \"#utility.yul\":2906:2935   */\n  tag_11\n  jump\t// in\ntag_63:\n    /* \"#utility.yul\":2896:2904   */\n  dup2\n    /* \"#utility.yul\":2892:2936   */\n  add\n    /* \"#utility.yul\":3089:3091   */\n  0x20\n    /* \"#utility.yul\":3077:3087   */\n  dup6\n    /* \"#utility.yul\":3074:3092   */\n  lt\n    /* \"#utility.yul\":3071:3120   */\n  iszero\n  tag_64\n  jumpi\n    /* \"#utility.yul\":3110:3118   */\n  dup2\n    /* \"#utility.yul\":3095:3118   */\n  swap1\n  pop\n    /* \"#utility.yul\":3071:3120   */\ntag_64:\n    /* \"#utility.yul\":3133:3213   */\n  tag_65\n    /* \"#utility.yul\":3189:3211   */\n  tag_66\n    /* \"#utility.yul\":3207:3210   */\n  dup6\n    /* \"#utility.yul\":3189:3211   */\n  tag_11\n  jump\t// in\ntag_66:\n    /* \"#utility.yul\":3179:3187   */\n  dup4\n    /* \"#utility.yul\":3175:3212   */\n  add\n    /* \"#utility.yul\":3162:3173   */\n  dup3\n    /* \"#utility.yul\":3133:3213   */\n  tag_21\n  jump\t// in\ntag_65:\n    /* \"#utility.yul\":2792:3223   */\n  pop\n  pop\n    /* \"#utility.yul\":2777:3223   */\ntag_61:\n    /* \"#utility.yul\":2687:3230   */\n  pop\n  pop\n  pop\n  jump\t// out\n    /* \"#utility.yul\":3236:3353   */\ntag_23:\n    /* \"#utility.yul\":3290:3298   */\n  0x00\n    /* \"#utility.yul\":3340:3345   */\n  dup3\n    /* \"#utility.yul\":3334:3338   */\n  dup3\n    /* \"#utility.yul\":3330:3346   */\n  shr\n    /* \"#utility.yul\":3309:3346   */\n  swap1\n  pop\n    /* \"#utility.yul\":3236:3353   */\n  swap3\n  swap2\n  pop\n  pop\n  jump\t// out\n    /* \"#utility.yul\":3359:3528   */\ntag_24:\n    /* \"#utility.yul\":3403:3409   */\n  0x00\n    /* \"#utility.yul\":3436:3487   */\n  tag_69\n    /* \"#utility.yul\":3484:3485   */\n  0x00\n    /* \"#utility.yul\":3480:3486   */\n  not\n    /* \"#utility.yul\":3472:3477   */\n  dup5\n    /* \"#utility.yul\":3469:3470   */\n  0x08\n    /* \"#utility.yul\":3465:3478   */\n  mul\n    /* \"#utility.yul\":3436:3487   */\n  tag_23\n  jump\t// in\ntag_69:\n    /* \"#utility.yul\":3432:3488   */\n  not\n    /* \"#utility.yul\":3517:3521   */\n  dup1\n    /* \"#utility.yul\":3511:3515   */\n  dup4\n    /* \"#utility.yul\":3507:3522   */\n  and\n    /* \"#utility.yul\":3497:3522   */\n  swap2\n  pop\n    /* \"#utility.yul\":3410:3528   */\n  pop\n    /* \"#utility.yul\":3359:3528   */\n  swap3\n  swap2\n  pop\n  pop\n  jump\t// out\n    /* \"#utility.yul\":3533:3828   */\ntag_25:\n    /* \"#utility.yul\":3609:3613   */\n  0x00\n    /* \"#utility.yul\":3755:3784   */\n  tag_71\n    /* \"#utility.yul\":3780:3783   */\n  dup4\n    /* \"#utility.yul\":3774:3778   */\n  dup4\n    /* \"#utility.yul\":3755:3784   */\n  tag_24\n  jump\t// in\ntag_71:\n    /* \"#utility.yul\":3747:3784   */\n  swap2\n  pop\n    /* \"#utility.yul\":3817:3820   */\n  dup3\n    /* \"#utility.yul\":3814:3815   */\n  0x02\n    /* \"#utility.yul\":3810:3821   */\n  mul\n    /* \"#utility.yul\":3804:3808   */\n  dup3\n    /* \"#utility.yul\":3801:3822   */\n  or\n    /* \"#utility.yul\":3793:3822   */\n  swap1\n  pop\n    /* \"#utility.yul\":3533:3828   */\n  swap3\n  swap2\n  pop\n  pop\n  jump\t// out\n    /* \"#utility.yul\":3833:5228   */\ntag_2:\n    /* \"#utility.yul\":3950:3987   */\n  tag_73\n    /* \"#utility.yul\":3983:3986   */\n  dup3\n    /* \"#utility.yul\":3950:3987   */\n  tag_6\n  jump\t// in\ntag_73:\n    /* \"#utility.yul\":4052:4070   */\n  0xffffffffffffffff\n    /* \"#utility.yul\":4044:4050   */\n  dup2\n    /* \"#utility.yul\":4041:4071   */\n  gt\n    /* \"#utility.yul\":4038:4094   */\n  iszero\n  tag_74\n  jumpi\n    /* \"#utility.yul\":4074:4092   */\n  tag_75\n  tag_7\n  jump\t// in\ntag_75:\n    /* \"#utility.yul\":4038:4094   */\ntag_74:\n    /* \"#utility.yul\":4118:4156   */\n  tag_76\n    /* \"#utility.yul\":4150:4154   */\n  dup3\n    /* \"#utility.yul\":4144:4155   */\n  sload\n    /* \"#utility.yul\":4118:4156   */\n  tag_9\n  jump\t// in\ntag_76:\n    /* \"#utility.yul\":4203:4270   */\n  tag_77\n    /* \"#utility.yul\":4263:4269   */\n  dup3\n    /* \"#utility.yul\":4255:4261   */\n  dup3\n    /* \"#utility.yul\":4249:4253   */\n  dup6\n    /* \"#utility.yul\":4203:4270   */\n  tag_22\n  jump\t// in\ntag_77:\n    /* \"#utility.yul\":4297:4298   */\n  0x00\n    /* \"#utility.yul\":4321:4325   */\n  0x20\n    /* \"#utility.yul\":4308:4325   */\n  swap1\n  pop\n    /* \"#utility.yul\":4353:4355   */\n  0x1f\n    /* \"#utility.yul\":4345:4351   */\n  dup4\n    /* \"#utility.yul\":4342:4356   */\n  gt\n    /* \"#utility.yul\":4370:4371   */\n  0x01\n    /* \"#utility.yul\":4365:4983   */\n  dup2\n  eq\n  tag_79\n  jumpi\n    /* \"#utility.yul\":5027:5028   */\n  0x00\n    /* \"#utility.yul\":5044:5050   */\n  dup5\n    /* \"#utility.yul\":5041:5118   */\n  iszero\n  tag_80\n  jumpi\n    /* \"#utility.yul\":5093:5102   */\n  dup3\n    /* \"#utility.yul\":5088:5091   */\n  dup8\n    /* \"#utility.yul\":5084:5103   */\n  add\n    /* \"#utility.yul\":5078:5104   */\n  mload\n    /* \"#utility.yul\":5069:5104   */\n  swap1\n  pop\n    /* \"#utility.yul\":5041:5118   */\ntag_80:\n    /* \"#utility.yul\":5144:5211   */\n  tag_81\n    /* \"#utility.yul\":5204:5210   */\n  dup6\n    /* \"#utility.yul\":5197:5202   */\n  dup3\n    /* \"#utility.yul\":5144:5211   */\n  tag_25\n  jump\t// in\ntag_81:\n    /* \"#utility.yul\":5138:5142   */\n  dup7\n    /* \"#utility.yul\":5131:5212   */\n  sstore\n    /* \"#utility.yul\":5000:5222   */\n  pop\n    /* \"#utility.yul\":4335:5222   */\n  jump(tag_78)\n    /* \"#utility.yul\":4365:4983   */\ntag_79:\n    /* \"#utility.yul\":4417:4421   */\n  0x1f\n    /* \"#utility.yul\":4413:4422   */\n  not\n    /* \"#utility.yul\":4405:4411   */\n  dup5\n    /* \"#utility.yul\":4401:4423   */\n  and\n    /* \"#utility.yul\":4451:4488   */\n  tag_82\n    /* \"#utility.yul\":4483:4487   */\n  dup7\n    /* \"#utility.yul\":4451:4488   */\n  tag_10\n  jump\t// in\ntag_82:\n    /* \"#utility.yul\":4510:4511   */\n  0x00\n    /* \"#utility.yul\":4524:4732   */\ntag_83:\n    /* \"#utility.yul\":4538:4545   */\n  dup3\n    /* \"#utility.yul\":4535:4536   */\n  dup2\n    /* \"#utility.yul\":4532:4546   */\n  lt\n    /* \"#utility.yul\":4524:4732   */\n  iszero\n  tag_85\n  jumpi\n    /* \"#utility.yul\":4617:4626   */\n  dup5\n    /* \"#utility.yul\":4612:4615   */\n  dup10\n    /* \"#utility.yul\":4608:4627   */\n  add\n    /* \"#utility.yul\":4602:4628   */\n  mload\n    /* \"#utility.yul\":4594:4600   */\n  dup3\n    /* \"#utility.yul\":4587:4629   */\n  sstore\n    /* \"#utility.yul\":4668:4669   */\n  0x01\n    /* \"#utility.yul\":4660:4666   */\n  dup3\n    /* \"#utility.yul\":4656:4670   */\n  add\n    /* \"#utility.yul\":4646:4670   */\n  swap2\n  pop\n    /* \"#utility.yul\":4715:4717   */\n  0x20\n    /* \"#utility.yul\":4704:4713   */\n  dup6\n    /* \"#utility.yul\":4700:4718   */\n  add\n    /* \"#utility.yul\":4687:4718   */\n  swap5\n  pop\n    /* \"#utility.yul\":4561:4565   */\n  0x20\n    /* \"#utility.yul\":4558:4559   */\n  dup2\n    /* \"#utility.yul\":4554:4566   */\n  add\n    /* \"#utility.yul\":4549:4566   */\n  swap1\n  pop\n    /* \"#utility.yul\":4524:4732   */\n  jump(tag_83)\ntag_85:\n    /* \"#utility.yul\":4760:4766   */\n  dup7\n    /* \"#utility.yul\":4751:4758   */\n  dup4\n    /* \"#utility.yul\":4748:4767   */\n  lt\n    /* \"#utility.yul\":4745:4924   */\n  iszero\n  tag_86\n  jumpi\n    /* \"#utility.yul\":4818:4827   */\n  dup5\n    /* \"#utility.yul\":4813:4816   */\n  dup10\n    /* \"#utility.yul\":4809:4828   */\n  add\n    /* \"#utility.yul\":4803:4829   */\n  mload\n    /* \"#utility.yul\":4861:4909   */\n  tag_87\n    /* \"#utility.yul\":4903:4907   */\n  0x1f\n    /* \"#utility.yul\":4895:4901   */\n  dup10\n    /* \"#utility.yul\":4891:4908   */\n  and\n    /* \"#utility.yul\":4880:4889   */\n  dup3\n    /* \"#utility.yul\":4861:4909   */\n  tag_24\n  jump\t// in\ntag_87:\n    /* \"#utility.yul\":4853:4859   */\n  dup4\n    /* \"#utility.yul\":4846:4910   */\n  sstore\n    /* \"#utility.yul\":4768:4924   */\n  pop\n    /* \"#utility.yul\":4745:4924   */\ntag_86:\n    /* \"#utility.yul\":4970:4971   */\n  0x01\n    /* \"#utility.yul\":4966:4967   */\n  0x02\n    /* \"#utility.yul\":4958:4964   */\n  dup9\n    /* \"#utility.yul\":4954:4968   */\n  mul\n    /* \"#utility.yul\":4950:4972   */\n  add\n    /* \"#utility.yul\":4944:4948   */\n  dup9\n    /* \"#utility.yul\":4937:4973   */\n  sstore\n    /* \"#utility.yul\":4372:4983   */\n  pop\n  pop\n  pop\n    /* \"#utility.yul\":4335:5222   */\ntag_78:\n  pop\n    /* \"#utility.yul\":3925:5228   */\n  pop\n  pop\n  pop\n    /* \"#utility.yul\":3833:5228   */\n  pop\n  pop\n  jump\t// out\n    /* \"libreta.sol\":62:776  contract libreta{... */\ntag_5:\n  dataSize(sub_0)\n  dup1\n  dataOffset(sub_0)\n  0x00\n  codecopy\n  0x00\n  return\nstop\n\nsub_0: assembly {\n        /* \"libreta.sol\":62:776  contract libreta{... */\n      mstore(0x40, 0x80)\n      callvalue\n      dup1\n      iszero\n      tag_1\n      jumpi\n      0x00\n      dup1\n      revert\n    tag_1:\n      pop\n      jumpi(tag_2, lt(calldatasize, 0x04))\n      shr(0xe0, calldataload(0x00))\n      dup1\n      0x178970b0\n      eq\n      tag_3\n      jumpi\n      dup1\n      0x2ce97e8c\n      eq\n      tag_4\n      jumpi\n      dup1\n      0x3ddce779\n      eq\n      tag_5\n      jumpi\n      dup1\n      0xbf7ec2b4\n      eq\n      tag_6\n      jumpi\n      dup1\n      0xe5c97169\n      eq\n      tag_7\n      jumpi\n      dup1\n      0xf1d9dbb0\n      eq\n      tag_8\n      jumpi\n    tag_2:\n      0x00\n      dup1\n      revert\n        /* \"libreta.sol\":390:479  function guardar_correo(string memory _correo) public {... */\n    tag_3:\n      tag_9\n      0x04\n      dup1\n      calldatasize\n      sub\n      dup2\n      add\n      swap1\n      tag_10\n      swap2\n      swap1\n      tag_11\n      jump\t// in\n    tag_10:\n      tag_12\n      jump\t// in\n    tag_9:\n      stop\n        /* \"libreta.sol\":684:773  function leer_telefono() public view returns (uint256) {... */\n    tag_4:\n      tag_13\n      tag_14\n      jump\t// in\n    tag_13:\n      mload(0x40)\n      tag_15\n      swap2\n      swap1\n      tag_16\n      jump\t// in\n    tag_15:\n      mload(0x40)\n      dup1\n      swap2\n      sub\n      swap1\n      return\n        /* \"libreta.sol\":195:284  function guardar_nombre(string memory _nombre) public {... */\n    tag_5:\n      tag_17\n      0x04\n      dup1\n      calldatasize\n      sub\n      dup2\n      add\n      swap1\n      tag_18\n      swap2\n      swap1\n      tag_11\n      jump\t// in\n    tag_18:\n      tag_19\n      jump\t// in\n    tag_17:\n      stop\n        /* \"libreta.sol\":487:577  function leer_correo()public view returns (string memory) {... */\n    tag_6:\n      tag_20\n      tag_21\n      jump\t// in\n    tag_20:\n      mload(0x40)\n      tag_22\n      swap2\n      swap1\n      tag_23\n      jump\t// in\n    tag_22:\n      mload(0x40)\n      dup1\n      swap2\n      sub\n      swap1\n      return\n        /* \"libreta.sol\":585:676  function guardar_telefono(uint256 _telefono) public {... */\n    tag_7:\n      tag_24\n      0x04\n      dup1\n      calldatasize\n      sub\n      dup2\n      add\n      swap1\n      tag_25\n      swap2\n      swap1\n      tag_26\n      jump\t// in\n    tag_25:\n      tag_27\n      jump\t// in\n    tag_24:\n      stop\n        /* \"libreta.sol\":292:382  function leer_nombre() public view returns (string memory){... */\n    tag_8:\n      tag_28\n      tag_29\n      jump\t// in\n    tag_28:\n      mload(0x40)\n      tag_30\n      swap2\n      swap1\n      tag_23\n      jump\t// in\n    tag_30:\n      mload(0x40)\n      dup1\n      swap2\n      sub\n      swap1\n      return\n        /* \"libreta.sol\":390:479  function guardar_correo(string memory _correo) public {... */\n    tag_12:\n        /* \"libreta.sol\":464:471  _correo */\n      dup1\n        /* \"libreta.sol\":455:461  correo */\n      0x01\n        /* \"libreta.sol\":455:471  correo = _correo */\n      swap1\n      dup2\n      tag_32\n      swap2\n      swap1\n      tag_33\n      jump\t// in\n    tag_32:\n      pop\n        /* \"libreta.sol\":390:479  function guardar_correo(string memory _correo) public {... */\n      pop\n      jump\t// out\n        /* \"libreta.sol\":684:773  function leer_telefono() public view returns (uint256) {... */\n    tag_14:\n        /* \"libreta.sol\":730:737  uint256 */\n      0x00\n        /* \"libreta.sol\":757:765  telefono */\n      sload(0x02)\n        /* \"libreta.sol\":750:765  return telefono */\n      swap1\n      pop\n        /* \"libreta.sol\":684:773  function leer_telefono() public view returns (uint256) {... */\n      swap1\n      jump\t// out\n        /* \"libreta.sol\":195:284  function guardar_nombre(string memory _nombre) public {... */\n    tag_19:\n        /* \"libreta.sol\":269:276  _nombre */\n      dup1\n        /* \"libreta.sol\":260:266  nombre */\n      0x00\n        /* \"libreta.sol\":260:276  nombre = _nombre */\n      swap1\n      dup2\n      tag_36\n      swap2\n      swap1\n      tag_33\n      jump\t// in\n    tag_36:\n      pop\n        /* \"libreta.sol\":195:284  function guardar_nombre(string memory _nombre) public {... */\n      pop\n      jump\t// out\n        /* \"libreta.sol\":487:577  function leer_correo()public view returns (string memory) {... */\n    tag_21:\n        /* \"libreta.sol\":530:543  string memory */\n      0x60\n        /* \"libreta.sol\":563:569  correo */\n      0x01\n        /* \"libreta.sol\":556:569  return correo */\n      dup1\n      sload\n      tag_38\n      swap1\n      tag_39\n      jump\t// in\n    tag_38:\n      dup1\n      0x1f\n      add\n      0x20\n      dup1\n      swap2\n      div\n      mul\n      0x20\n      add\n      mload(0x40)\n      swap1\n      dup2\n      add\n      0x40\n      mstore\n      dup1\n      swap3\n      swap2\n      swap1\n      dup2\n      dup2\n      mstore\n      0x20\n      add\n      dup3\n      dup1\n      sload\n      tag_40\n      swap1\n      tag_39\n      jump\t// in\n    tag_40:\n      dup1\n      iszero\n      tag_41\n      jumpi\n      dup1\n      0x1f\n      lt\n      tag_42\n      jumpi\n      0x0100\n      dup1\n      dup4\n      sload\n      div\n      mul\n      dup4\n      mstore\n      swap2\n      0x20\n      add\n      swap2\n      jump(tag_41)\n    tag_42:\n      dup3\n      add\n      swap2\n      swap1\n      0x00\n      mstore\n      keccak256(0x00, 0x20)\n      swap1\n    tag_43:\n      dup2\n      sload\n      dup2\n      mstore\n      swap1\n      0x01\n      add\n      swap1\n      0x20\n      add\n      dup1\n      dup4\n      gt\n      tag_43\n      jumpi\n      dup3\n      swap1\n      sub\n      0x1f\n      and\n      dup3\n      add\n      swap2\n    tag_41:\n      pop\n      pop\n      pop\n      pop\n      pop\n      swap1\n      pop\n        /* \"libreta.sol\":487:577  function leer_correo()public view returns (string memory) {... */\n      swap1\n      jump\t// out\n        /* \"libreta.sol\":585:676  function guardar_telefono(uint256 _telefono) public {... */\n    tag_27:\n        /* \"libreta.sol\":659:668  _telefono */\n      dup1\n        /* \"libreta.sol\":648:656  telefono */\n      0x02\n        /* \"libreta.sol\":648:668  telefono = _telefono */\n      dup2\n      swap1\n      sstore\n      pop\n        /* \"libreta.sol\":585:676  function guardar_telefono(uint256 _telefono) public {... */\n      pop\n      jump\t// out\n        /* \"libreta.sol\":292:382  function leer_nombre() public view returns (string memory){... */\n    tag_29:\n        /* \"libreta.sol\":336:349  string memory */\n      0x60\n        /* \"libreta.sol\":368:374  nombre */\n      0x00\n        /* \"libreta.sol\":361:374  return nombre */\n      dup1\n      sload\n      tag_46\n      swap1\n      tag_39\n      jump\t// in\n    tag_46:\n      dup1\n      0x1f\n      add\n      0x20\n      dup1\n      swap2\n      div\n      mul\n      0x20\n      add\n      mload(0x40)\n      swap1\n      dup2\n      add\n      0x40\n      mstore\n      dup1\n      swap3\n      swap2\n      swap1\n      dup2\n      dup2\n      mstore\n      0x20\n      add\n      dup3\n      dup1\n      sload\n      tag_47\n      swap1\n      tag_39\n      jump\t// in\n    tag_47:\n      dup1\n      iszero\n      tag_48\n      jumpi\n      dup1\n      0x1f\n      lt\n      tag_49\n      jumpi\n      0x0100\n      dup1\n      dup4\n      sload\n      div\n      mul\n      dup4\n      mstore\n      swap2\n      0x20\n      add\n      swap2\n      jump(tag_48)\n    tag_49:\n      dup3\n      add\n      swap2\n      swap1\n      0x00\n      mstore\n      keccak256(0x00, 0x20)\n      swap1\n    tag_50:\n      dup2\n      sload\n      dup2\n      mstore\n      swap1\n      0x01\n      add\n      swap1\n      0x20\n      add\n      dup1\n      dup4\n      gt\n      tag_50\n      jumpi\n      dup3\n      swap1\n      sub\n      0x1f\n      and\n      dup3\n      add\n      swap2\n    tag_48:\n      pop\n      pop\n      pop\n      pop\n      pop\n      swap1\n      pop\n        /* \"libreta.sol\":292:382  function leer_nombre() public view returns (string memory){... */\n      swap1\n      jump\t// out\n        /* \"#utility.yul\":7:82   */\n    tag_51:\n        /* \"#utility.yul\":40:46   */\n      0x00\n        /* \"#utility.yul\":73:75   */\n      0x40\n        /* \"#utility.yul\":67:76   */\n      mload\n        /* \"#utility.yul\":57:76   */\n      swap1\n      pop\n        /* \"#utility.yul\":7:82   */\n      swap1\n      jump\t// out\n        /* \"#utility.yul\":88:205   */\n    tag_52:\n        /* \"#utility.yul\":197:198   */\n      0x00\n        /* \"#utility.yul\":194:195   */\n      dup1\n        /* \"#utility.yul\":187:199   */\n      revert\n        /* \"#utility.yul\":211:328   */\n    tag_53:\n        /* \"#utility.yul\":320:321   */\n      0x00\n        /* \"#utility.yul\":317:318   */\n      dup1\n        /* \"#utility.yul\":310:322   */\n      revert\n        /* \"#utility.yul\":334:451   */\n    tag_54:\n        /* \"#utility.yul\":443:444   */\n      0x00\n        /* \"#utility.yul\":440:441   */\n      dup1\n        /* \"#utility.yul\":433:445   */\n      revert\n        /* \"#utility.yul\":457:574   */\n    tag_55:\n        /* \"#utility.yul\":566:567   */\n      0x00\n        /* \"#utility.yul\":563:564   */\n      dup1\n        /* \"#utility.yul\":556:568   */\n      revert\n        /* \"#utility.yul\":580:682   */\n    tag_56:\n        /* \"#utility.yul\":621:627   */\n      0x00\n        /* \"#utility.yul\":672:674   */\n      0x1f\n        /* \"#utility.yul\":668:675   */\n      not\n        /* \"#utility.yul\":663:665   */\n      0x1f\n        /* \"#utility.yul\":656:661   */\n      dup4\n        /* \"#utility.yul\":652:666   */\n      add\n        /* \"#utility.yul\":648:676   */\n      and\n        /* \"#utility.yul\":638:676   */\n      swap1\n      pop\n        /* \"#utility.yul\":580:682   */\n      swap2\n      swap1\n      pop\n      jump\t// out\n        /* \"#utility.yul\":688:868   */\n    tag_57:\n        /* \"#utility.yul\":736:813   */\n      0x4e487b7100000000000000000000000000000000000000000000000000000000\n        /* \"#utility.yul\":733:734   */\n      0x00\n        /* \"#utility.yul\":726:814   */\n      mstore\n        /* \"#utility.yul\":833:837   */\n      0x41\n        /* \"#utility.yul\":830:831   */\n      0x04\n        /* \"#utility.yul\":823:838   */\n      mstore\n        /* \"#utility.yul\":857:861   */\n      0x24\n        /* \"#utility.yul\":854:855   */\n      0x00\n        /* \"#utility.yul\":847:862   */\n      revert\n        /* \"#utility.yul\":874:1155   */\n    tag_58:\n        /* \"#utility.yul\":957:984   */\n      tag_97\n        /* \"#utility.yul\":979:983   */\n      dup3\n        /* \"#utility.yul\":957:984   */\n      tag_56\n      jump\t// in\n    tag_97:\n        /* \"#utility.yul\":949:955   */\n      dup2\n        /* \"#utility.yul\":945:985   */\n      add\n        /* \"#utility.yul\":1087:1093   */\n      dup2\n        /* \"#utility.yul\":1075:1085   */\n      dup2\n        /* \"#utility.yul\":1072:1094   */\n      lt\n        /* \"#utility.yul\":1051:1069   */\n      0xffffffffffffffff\n        /* \"#utility.yul\":1039:1049   */\n      dup3\n        /* \"#utility.yul\":1036:1070   */\n      gt\n        /* \"#utility.yul\":1033:1095   */\n      or\n        /* \"#utility.yul\":1030:1118   */\n      iszero\n      tag_98\n      jumpi\n        /* \"#utility.yul\":1098:1116   */\n      tag_99\n      tag_57\n      jump\t// in\n    tag_99:\n        /* \"#utility.yul\":1030:1118   */\n    tag_98:\n        /* \"#utility.yul\":1138:1148   */\n      dup1\n        /* \"#utility.yul\":1134:1136   */\n      0x40\n        /* \"#utility.yul\":1127:1149   */\n      mstore\n        /* \"#utility.yul\":917:1155   */\n      pop\n        /* \"#utility.yul\":874:1155   */\n      pop\n      pop\n      jump\t// out\n        /* \"#utility.yul\":1161:1290   */\n    tag_59:\n        /* \"#utility.yul\":1195:1201   */\n      0x00\n        /* \"#utility.yul\":1222:1242   */\n      tag_101\n      tag_51\n      jump\t// in\n    tag_101:\n        /* \"#utility.yul\":1212:1242   */\n      swap1\n      pop\n        /* \"#utility.yul\":1251:1284   */\n      tag_102\n        /* \"#utility.yul\":1279:1283   */\n      dup3\n        /* \"#utility.yul\":1271:1277   */\n      dup3\n        /* \"#utility.yul\":1251:1284   */\n      tag_58\n      jump\t// in\n    tag_102:\n        /* \"#utility.yul\":1161:1290   */\n      swap2\n      swap1\n      pop\n      jump\t// out\n        /* \"#utility.yul\":1296:1604   */\n    tag_60:\n        /* \"#utility.yul\":1358:1362   */\n      0x00\n        /* \"#utility.yul\":1448:1466   */\n      0xffffffffffffffff\n        /* \"#utility.yul\":1440:1446   */\n      dup3\n        /* \"#utility.yul\":1437:1467   */\n      gt\n        /* \"#utility.yul\":1434:1490   */\n      iszero\n      tag_104\n      jumpi\n        /* \"#utility.yul\":1470:1488   */\n      tag_105\n      tag_57\n      jump\t// in\n    tag_105:\n        /* \"#utility.yul\":1434:1490   */\n    tag_104:\n        /* \"#utility.yul\":1508:1537   */\n      tag_106\n        /* \"#utility.yul\":1530:1536   */\n      dup3\n        /* \"#utility.yul\":1508:1537   */\n      tag_56\n      jump\t// in\n    tag_106:\n        /* \"#utility.yul\":1500:1537   */\n      swap1\n      pop\n        /* \"#utility.yul\":1592:1596   */\n      0x20\n        /* \"#utility.yul\":1586:1590   */\n      dup2\n        /* \"#utility.yul\":1582:1597   */\n      add\n        /* \"#utility.yul\":1574:1597   */\n      swap1\n      pop\n        /* \"#utility.yul\":1296:1604   */\n      swap2\n      swap1\n      pop\n      jump\t// out\n        /* \"#utility.yul\":1610:1756   */\n    tag_61:\n        /* \"#utility.yul\":1707:1713   */\n      dup3\n        /* \"#utility.yul\":1702:1705   */\n      dup2\n        /* \"#utility.yul\":1697:1700   */\n      dup4\n        /* \"#utility.yul\":1684:1714   */\n      calldatacopy\n        /* \"#utility.yul\":1748:1749   */\n      0x00\n        /* \"#utility.yul\":1739:1745   */\n      dup4\n        /* \"#utility.yul\":1734:1737   */\n      dup4\n        /* \"#utility.yul\":1730:1746   */\n      add\n        /* \"#utility.yul\":1723:1750   */\n      mstore\n        /* \"#utility.yul\":1610:1756   */\n      pop\n      pop\n      pop\n      jump\t// out\n        /* \"#utility.yul\":1762:2187   */\n    tag_62:\n        /* \"#utility.yul\":1840:1845   */\n      0x00\n        /* \"#utility.yul\":1865:1931   */\n      tag_109\n        /* \"#utility.yul\":1881:1930   */\n      tag_110\n        /* \"#utility.yul\":1923:1929   */\n      dup5\n        /* \"#utility.yul\":1881:1930   */\n      tag_60\n      jump\t// in\n    tag_110:\n        /* \"#utility.yul\":1865:1931   */\n      tag_59\n      jump\t// in\n    tag_109:\n        /* \"#utility.yul\":1856:1931   */\n      swap1\n      pop\n        /* \"#utility.yul\":1954:1960   */\n      dup3\n        /* \"#utility.yul\":1947:1952   */\n      dup2\n        /* \"#utility.yul\":1940:1961   */\n      mstore\n        /* \"#utility.yul\":1992:1996   */\n      0x20\n        /* \"#utility.yul\":1985:1990   */\n      dup2\n        /* \"#utility.yul\":1981:1997   */\n      add\n        /* \"#utility.yul\":2030:2033   */\n      dup5\n        /* \"#utility.yul\":2021:2027   */\n      dup5\n        /* \"#utility.yul\":2016:2019   */\n      dup5\n        /* \"#utility.yul\":2012:2028   */\n      add\n        /* \"#utility.yul\":2009:2034   */\n      gt\n        /* \"#utility.yul\":2006:2118   */\n      iszero\n      tag_111\n      jumpi\n        /* \"#utility.yul\":2037:2116   */\n      tag_112\n      tag_55\n      jump\t// in\n    tag_112:\n        /* \"#utility.yul\":2006:2118   */\n    tag_111:\n        /* \"#utility.yul\":2127:2181   */\n      tag_113\n        /* \"#utility.yul\":2174:2180   */\n      dup5\n        /* \"#utility.yul\":2169:2172   */\n      dup3\n        /* \"#utility.yul\":2164:2167   */\n      dup6\n        /* \"#utility.yul\":2127:2181   */\n      tag_61\n      jump\t// in\n    tag_113:\n        /* \"#utility.yul\":1846:2187   */\n      pop\n        /* \"#utility.yul\":1762:2187   */\n      swap4\n      swap3\n      pop\n      pop\n      pop\n      jump\t// out\n        /* \"#utility.yul\":2207:2547   */\n    tag_63:\n        /* \"#utility.yul\":2263:2268   */\n      0x00\n        /* \"#utility.yul\":2312:2315   */\n      dup3\n        /* \"#utility.yul\":2305:2309   */\n      0x1f\n        /* \"#utility.yul\":2297:2303   */\n      dup4\n        /* \"#utility.yul\":2293:2310   */\n      add\n        /* \"#utility.yul\":2289:2316   */\n      slt\n        /* \"#utility.yul\":2279:2401   */\n      tag_115\n      jumpi\n        /* \"#utility.yul\":2320:2399   */\n      tag_116\n      tag_54\n      jump\t// in\n    tag_116:\n        /* \"#utility.yul\":2279:2401   */\n    tag_115:\n        /* \"#utility.yul\":2437:2443   */\n      dup2\n        /* \"#utility.yul\":2424:2444   */\n      calldataload\n        /* \"#utility.yul\":2462:2541   */\n      tag_117\n        /* \"#utility.yul\":2537:2540   */\n      dup5\n        /* \"#utility.yul\":2529:2535   */\n      dup3\n        /* \"#utility.yul\":2522:2526   */\n      0x20\n        /* \"#utility.yul\":2514:2520   */\n      dup7\n        /* \"#utility.yul\":2510:2527   */\n      add\n        /* \"#utility.yul\":2462:2541   */\n      tag_62\n      jump\t// in\n    tag_117:\n        /* \"#utility.yul\":2453:2541   */\n      swap2\n      pop\n        /* \"#utility.yul\":2269:2547   */\n      pop\n        /* \"#utility.yul\":2207:2547   */\n      swap3\n      swap2\n      pop\n      pop\n      jump\t// out\n        /* \"#utility.yul\":2553:3062   */\n    tag_11:\n        /* \"#utility.yul\":2622:2628   */\n      0x00\n        /* \"#utility.yul\":2671:2673   */\n      0x20\n        /* \"#utility.yul\":2659:2668   */\n      dup3\n        /* \"#utility.yul\":2650:2657   */\n      dup5\n        /* \"#utility.yul\":2646:2669   */\n      sub\n        /* \"#utility.yul\":2642:2674   */\n      slt\n        /* \"#utility.yul\":2639:2758   */\n      iszero\n      tag_119\n      jumpi\n        /* \"#utility.yul\":2677:2756   */\n      tag_120\n      tag_52\n      jump\t// in\n    tag_120:\n        /* \"#utility.yul\":2639:2758   */\n    tag_119:\n        /* \"#utility.yul\":2825:2826   */\n      0x00\n        /* \"#utility.yul\":2814:2823   */\n      dup3\n        /* \"#utility.yul\":2810:2827   */\n      add\n        /* \"#utility.yul\":2797:2828   */\n      calldataload\n        /* \"#utility.yul\":2855:2873   */\n      0xffffffffffffffff\n        /* \"#utility.yul\":2847:2853   */\n      dup2\n        /* \"#utility.yul\":2844:2874   */\n      gt\n        /* \"#utility.yul\":2841:2958   */\n      iszero\n      tag_121\n      jumpi\n        /* \"#utility.yul\":2877:2956   */\n      tag_122\n      tag_53\n      jump\t// in\n    tag_122:\n        /* \"#utility.yul\":2841:2958   */\n    tag_121:\n        /* \"#utility.yul\":2982:3045   */\n      tag_123\n        /* \"#utility.yul\":3037:3044   */\n      dup5\n        /* \"#utility.yul\":3028:3034   */\n      dup3\n        /* \"#utility.yul\":3017:3026   */\n      dup6\n        /* \"#utility.yul\":3013:3035   */\n      add\n        /* \"#utility.yul\":2982:3045   */\n      tag_63\n      jump\t// in\n    tag_123:\n        /* \"#utility.yul\":2972:3045   */\n      swap2\n      pop\n        /* \"#utility.yul\":2768:3055   */\n      pop\n        /* \"#utility.yul\":2553:3062   */\n      swap3\n      swap2\n      pop\n      pop\n      jump\t// out\n        /* \"#utility.yul\":3068:3145   */\n    tag_64:\n        /* \"#utility.yul\":3105:3112   */\n      0x00\n        /* \"#utility.yul\":3134:3139   */\n      dup2\n        /* \"#utility.yul\":3123:3139   */\n      swap1\n      pop\n        /* \"#utility.yul\":3068:3145   */\n      swap2\n      swap1\n      pop\n      jump\t// out\n        /* \"#utility.yul\":3151:3269   */\n    tag_65:\n        /* \"#utility.yul\":3238:3262   */\n      tag_126\n        /* \"#utility.yul\":3256:3261   */\n      dup2\n        /* \"#utility.yul\":3238:3262   */\n      tag_64\n      jump\t// in\n    tag_126:\n        /* \"#utility.yul\":3233:3236   */\n      dup3\n        /* \"#utility.yul\":3226:3263   */\n      mstore\n        /* \"#utility.yul\":3151:3269   */\n      pop\n      pop\n      jump\t// out\n        /* \"#utility.yul\":3275:3497   */\n    tag_16:\n        /* \"#utility.yul\":3368:3372   */\n      0x00\n        /* \"#utility.yul\":3406:3408   */\n      0x20\n        /* \"#utility.yul\":3395:3404   */\n      dup3\n        /* \"#utility.yul\":3391:3409   */\n      add\n        /* \"#utility.yul\":3383:3409   */\n      swap1\n      pop\n        /* \"#utility.yul\":3419:3490   */\n      tag_128\n        /* \"#utility.yul\":3487:3488   */\n      0x00\n        /* \"#utility.yul\":3476:3485   */\n      dup4\n        /* \"#utility.yul\":3472:3489   */\n      add\n        /* \"#utility.yul\":3463:3469   */\n      dup5\n        /* \"#utility.yul\":3419:3490   */\n      tag_65\n      jump\t// in\n    tag_128:\n        /* \"#utility.yul\":3275:3497   */\n      swap3\n      swap2\n      pop\n      pop\n      jump\t// out\n        /* \"#utility.yul\":3503:3602   */\n    tag_66:\n        /* \"#utility.yul\":3555:3561   */\n      0x00\n        /* \"#utility.yul\":3589:3594   */\n      dup2\n        /* \"#utility.yul\":3583:3595   */\n      mload\n        /* \"#utility.yul\":3573:3595   */\n      swap1\n      pop\n        /* \"#utility.yul\":3503:3602   */\n      swap2\n      swap1\n      pop\n      jump\t// out\n        /* \"#utility.yul\":3608:3777   */\n    tag_67:\n        /* \"#utility.yul\":3692:3703   */\n      0x00\n        /* \"#utility.yul\":3726:3732   */\n      dup3\n        /* \"#utility.yul\":3721:3724   */\n      dup3\n        /* \"#utility.yul\":3714:3733   */\n      mstore\n        /* \"#utility.yul\":3766:3770   */\n      0x20\n        /* \"#utility.yul\":3761:3764   */\n      dup3\n        /* \"#utility.yul\":3757:3771   */\n      add\n        /* \"#utility.yul\":3742:3771   */\n      swap1\n      pop\n        /* \"#utility.yul\":3608:3777   */\n      swap3\n      swap2\n      pop\n      pop\n      jump\t// out\n        /* \"#utility.yul\":3783:4029   */\n    tag_68:\n        /* \"#utility.yul\":3864:3865   */\n      0x00\n        /* \"#utility.yul\":3874:3987   */\n    tag_132:\n        /* \"#utility.yul\":3888:3894   */\n      dup4\n        /* \"#utility.yul\":3885:3886   */\n      dup2\n        /* \"#utility.yul\":3882:3895   */\n      lt\n        /* \"#utility.yul\":3874:3987   */\n      iszero\n      tag_134\n      jumpi\n        /* \"#utility.yul\":3973:3974   */\n      dup1\n        /* \"#utility.yul\":3968:3971   */\n      dup3\n        /* \"#utility.yul\":3964:3975   */\n      add\n        /* \"#utility.yul\":3958:3976   */\n      mload\n        /* \"#utility.yul\":3954:3955   */\n      dup2\n        /* \"#utility.yul\":3949:3952   */\n      dup5\n        /* \"#utility.yul\":3945:3956   */\n      add\n        /* \"#utility.yul\":3938:3977   */\n      mstore\n        /* \"#utility.yul\":3910:3912   */\n      0x20\n        /* \"#utility.yul\":3907:3908   */\n      dup2\n        /* \"#utility.yul\":3903:3913   */\n      add\n        /* \"#utility.yul\":3898:3913   */\n      swap1\n      pop\n        /* \"#utility.yul\":3874:3987   */\n      jump(tag_132)\n    tag_134:\n        /* \"#utility.yul\":4021:4022   */\n      0x00\n        /* \"#utility.yul\":4012:4018   */\n      dup5\n        /* \"#utility.yul\":4007:4010   */\n      dup5\n        /* \"#utility.yul\":4003:4019   */\n      add\n        /* \"#utility.yul\":3996:4023   */\n      mstore\n        /* \"#utility.yul\":3845:4029   */\n      pop\n        /* \"#utility.yul\":3783:4029   */\n      pop\n      pop\n      pop\n      jump\t// out\n        /* \"#utility.yul\":4035:4412   */\n    tag_69:\n        /* \"#utility.yul\":4123:4126   */\n      0x00\n        /* \"#utility.yul\":4151:4190   */\n      tag_136\n        /* \"#utility.yul\":4184:4189   */\n      dup3\n        /* \"#utility.yul\":4151:4190   */\n      tag_66\n      jump\t// in\n    tag_136:\n        /* \"#utility.yul\":4206:4277   */\n      tag_137\n        /* \"#utility.yul\":4270:4276   */\n      dup2\n        /* \"#utility.yul\":4265:4268   */\n      dup6\n        /* \"#utility.yul\":4206:4277   */\n      tag_67\n      jump\t// in\n    tag_137:\n        /* \"#utility.yul\":4199:4277   */\n      swap4\n      pop\n        /* \"#utility.yul\":4286:4351   */\n      tag_138\n        /* \"#utility.yul\":4344:4350   */\n      dup2\n        /* \"#utility.yul\":4339:4342   */\n      dup6\n        /* \"#utility.yul\":4332:4336   */\n      0x20\n        /* \"#utility.yul\":4325:4330   */\n      dup7\n        /* \"#utility.yul\":4321:4337   */\n      add\n        /* \"#utility.yul\":4286:4351   */\n      tag_68\n      jump\t// in\n    tag_138:\n        /* \"#utility.yul\":4376:4405   */\n      tag_139\n        /* \"#utility.yul\":4398:4404   */\n      dup2\n        /* \"#utility.yul\":4376:4405   */\n      tag_56\n      jump\t// in\n    tag_139:\n        /* \"#utility.yul\":4371:4374   */\n      dup5\n        /* \"#utility.yul\":4367:4406   */\n      add\n        /* \"#utility.yul\":4360:4406   */\n      swap2\n      pop\n        /* \"#utility.yul\":4127:4412   */\n      pop\n        /* \"#utility.yul\":4035:4412   */\n      swap3\n      swap2\n      pop\n      pop\n      jump\t// out\n        /* \"#utility.yul\":4418:4731   */\n    tag_23:\n        /* \"#utility.yul\":4531:4535   */\n      0x00\n        /* \"#utility.yul\":4569:4571   */\n      0x20\n        /* \"#utility.yul\":4558:4567   */\n      dup3\n        /* \"#utility.yul\":4554:4572   */\n      add\n        /* \"#utility.yul\":4546:4572   */\n      swap1\n      pop\n        /* \"#utility.yul\":4618:4627   */\n      dup2\n        /* \"#utility.yul\":4612:4616   */\n      dup2\n        /* \"#utility.yul\":4608:4628   */\n      sub\n        /* \"#utility.yul\":4604:4605   */\n      0x00\n        /* \"#utility.yul\":4593:4602   */\n      dup4\n        /* \"#utility.yul\":4589:4606   */\n      add\n        /* \"#utility.yul\":4582:4629   */\n      mstore\n        /* \"#utility.yul\":4646:4724   */\n      tag_141\n        /* \"#utility.yul\":4719:4723   */\n      dup2\n        /* \"#utility.yul\":4710:4716   */\n      dup5\n        /* \"#utility.yul\":4646:4724   */\n      tag_69\n      jump\t// in\n    tag_141:\n        /* \"#utility.yul\":4638:4724   */\n      swap1\n      pop\n        /* \"#utility.yul\":4418:4731   */\n      swap3\n      swap2\n      pop\n      pop\n      jump\t// out\n        /* \"#utility.yul\":4737:4859   */\n    tag_70:\n        /* \"#utility.yul\":4810:4834   */\n      tag_143\n        /* \"#utility.yul\":4828:4833   */\n      dup2\n        /* \"#utility.yul\":4810:4834   */\n      tag_64\n      jump\t// in\n    tag_143:\n        /* \"#utility.yul\":4803:4808   */\n      dup2\n        /* \"#utility.yul\":4800:4835   */\n      eq\n        /* \"#utility.yul\":4790:4853   */\n      tag_144\n      jumpi\n        /* \"#utility.yul\":4849:4850   */\n      0x00\n        /* \"#utility.yul\":4846:4847   */\n      dup1\n        /* \"#utility.yul\":4839:4851   */\n      revert\n        /* \"#utility.yul\":4790:4853   */\n    tag_144:\n        /* \"#utility.yul\":4737:4859   */\n      pop\n      jump\t// out\n        /* \"#utility.yul\":4865:5004   */\n    tag_71:\n        /* \"#utility.yul\":4911:4916   */\n      0x00\n        /* \"#utility.yul\":4949:4955   */\n      dup2\n        /* \"#utility.yul\":4936:4956   */\n      calldataload\n        /* \"#utility.yul\":4927:4956   */\n      swap1\n      pop\n        /* \"#utility.yul\":4965:4998   */\n      tag_146\n        /* \"#utility.yul\":4992:4997   */\n      dup2\n        /* \"#utility.yul\":4965:4998   */\n      tag_70\n      jump\t// in\n    tag_146:\n        /* \"#utility.yul\":4865:5004   */\n      swap3\n      swap2\n      pop\n      pop\n      jump\t// out\n        /* \"#utility.yul\":5010:5339   */\n    tag_26:\n        /* \"#utility.yul\":5069:5075   */\n      0x00\n        /* \"#utility.yul\":5118:5120   */\n      0x20\n        /* \"#utility.yul\":5106:5115   */\n      dup3\n        /* \"#utility.yul\":5097:5104   */\n      dup5\n        /* \"#utility.yul\":5093:5116   */\n      sub\n        /* \"#utility.yul\":5089:5121   */\n      slt\n        /* \"#utility.yul\":5086:5205   */\n      iszero\n      tag_148\n      jumpi\n        /* \"#utility.yul\":5124:5203   */\n      tag_149\n      tag_52\n      jump\t// in\n    tag_149:\n        /* \"#utility.yul\":5086:5205   */\n    tag_148:\n        /* \"#utility.yul\":5244:5245   */\n      0x00\n        /* \"#utility.yul\":5269:5322   */\n      tag_150\n        /* \"#utility.yul\":5314:5321   */\n      dup5\n        /* \"#utility.yul\":5305:5311   */\n      dup3\n        /* \"#utility.yul\":5294:5303   */\n      dup6\n        /* \"#utility.yul\":5290:5312   */\n      add\n        /* \"#utility.yul\":5269:5322   */\n      tag_71\n      jump\t// in\n    tag_150:\n        /* \"#utility.yul\":5259:5322   */\n      swap2\n      pop\n        /* \"#utility.yul\":5215:5332   */\n      pop\n        /* \"#utility.yul\":5010:5339   */\n      swap3\n      swap2\n      pop\n      pop\n      jump\t// out\n        /* \"#utility.yul\":5345:5525   */\n    tag_72:\n        /* \"#utility.yul\":5393:5470   */\n      0x4e487b7100000000000000000000000000000000000000000000000000000000\n        /* \"#utility.yul\":5390:5391   */\n      0x00\n        /* \"#utility.yul\":5383:5471   */\n      mstore\n        /* \"#utility.yul\":5490:5494   */\n      0x22\n        /* \"#utility.yul\":5487:5488   */\n      0x04\n        /* \"#utility.yul\":5480:5495   */\n      mstore\n        /* \"#utility.yul\":5514:5518   */\n      0x24\n        /* \"#utility.yul\":5511:5512   */\n      0x00\n        /* \"#utility.yul\":5504:5519   */\n      revert\n        /* \"#utility.yul\":5531:5851   */\n    tag_39:\n        /* \"#utility.yul\":5575:5581   */\n      0x00\n        /* \"#utility.yul\":5612:5613   */\n      0x02\n        /* \"#utility.yul\":5606:5610   */\n      dup3\n        /* \"#utility.yul\":5602:5614   */\n      div\n        /* \"#utility.yul\":5592:5614   */\n      swap1\n      pop\n        /* \"#utility.yul\":5659:5660   */\n      0x01\n        /* \"#utility.yul\":5653:5657   */\n      dup3\n        /* \"#utility.yul\":5649:5661   */\n      and\n        /* \"#utility.yul\":5680:5698   */\n      dup1\n        /* \"#utility.yul\":5670:5751   */\n      tag_153\n      jumpi\n        /* \"#utility.yul\":5736:5740   */\n      0x7f\n        /* \"#utility.yul\":5728:5734   */\n      dup3\n        /* \"#utility.yul\":5724:5741   */\n      and\n        /* \"#utility.yul\":5714:5741   */\n      swap2\n      pop\n        /* \"#utility.yul\":5670:5751   */\n    tag_153:\n        /* \"#utility.yul\":5798:5800   */\n      0x20\n        /* \"#utility.yul\":5790:5796   */\n      dup3\n        /* \"#utility.yul\":5787:5801   */\n      lt\n        /* \"#utility.yul\":5767:5785   */\n      dup2\n        /* \"#utility.yul\":5764:5802   */\n      sub\n        /* \"#utility.yul\":5761:5845   */\n      tag_154\n      jumpi\n        /* \"#utility.yul\":5817:5835   */\n      tag_155\n      tag_72\n      jump\t// in\n    tag_155:\n        /* \"#utility.yul\":5761:5845   */\n    tag_154:\n        /* \"#utility.yul\":5582:5851   */\n      pop\n        /* \"#utility.yul\":5531:5851   */\n      swap2\n      swap1\n      pop\n      jump\t// out\n        /* \"#utility.yul\":5857:5998   */\n    tag_73:\n        /* \"#utility.yul\":5906:5910   */\n      0x00\n        /* \"#utility.yul\":5929:5932   */\n      dup2\n        /* \"#utility.yul\":5921:5932   */\n      swap1\n      pop\n        /* \"#utility.yul\":5952:5955   */\n      dup2\n        /* \"#utility.yul\":5949:5950   */\n      0x00\n        /* \"#utility.yul\":5942:5956   */\n      mstore\n        /* \"#utility.yul\":5986:5990   */\n      0x20\n        /* \"#utility.yul\":5983:5984   */\n      0x00\n        /* \"#utility.yul\":5973:5991   */\n      keccak256\n        /* \"#utility.yul\":5965:5991   */\n      swap1\n      pop\n        /* \"#utility.yul\":5857:5998   */\n      swap2\n      swap1\n      pop\n      jump\t// out\n        /* \"#utility.yul\":6004:6097   */\n    tag_74:\n        /* \"#utility.yul\":6041:6047   */\n      0x00\n        /* \"#utility.yul\":6088:6090   */\n      0x20\n        /* \"#utility.yul\":6083:6085   */\n      0x1f\n        /* \"#utility.yul\":6076:6081   */\n      dup4\n        /* \"#utility.yul\":6072:6086   */\n      add\n        /* \"#utility.yul\":6068:6091   */\n      div\n        /* \"#utility.yul\":6058:6091   */\n      swap1\n      pop\n        /* \"#utility.yul\":6004:6097   */\n      swap2\n      swap1\n      pop\n      jump\t// out\n        /* \"#utility.yul\":6103:6210   */\n    tag_75:\n        /* \"#utility.yul\":6147:6155   */\n      0x00\n        /* \"#utility.yul\":6197:6202   */\n      dup3\n        /* \"#utility.yul\":6191:6195   */\n      dup3\n        /* \"#utility.yul\":6187:6203   */\n      shl\n        /* \"#utility.yul\":6166:6203   */\n      swap1\n      pop\n        /* \"#utility.yul\":6103:6210   */\n      swap3\n      swap2\n      pop\n      pop\n      jump\t// out\n        /* \"#utility.yul\":6216:6609   */\n    tag_76:\n        /* \"#utility.yul\":6285:6291   */\n      0x00\n        /* \"#utility.yul\":6335:6336   */\n      0x08\n        /* \"#utility.yul\":6323:6333   */\n      dup4\n        /* \"#utility.yul\":6319:6337   */\n      mul\n        /* \"#utility.yul\":6358:6455   */\n      tag_160\n        /* \"#utility.yul\":6388:6454   */\n      0xffffffffffffffffffffffffffffffffffffffffffffffffffffffffffffffff\n        /* \"#utility.yul\":6377:6386   */\n      dup3\n        /* \"#utility.yul\":6358:6455   */\n      tag_75\n      jump\t// in\n    tag_160:\n        /* \"#utility.yul\":6476:6515   */\n      tag_161\n        /* \"#utility.yul\":6506:6514   */\n      dup7\n        /* \"#utility.yul\":6495:6504   */\n      dup4\n        /* \"#utility.yul\":6476:6515   */\n      tag_75\n      jump\t// in\n    tag_161:\n        /* \"#utility.yul\":6464:6515   */\n      swap6\n      pop\n        /* \"#utility.yul\":6548:6552   */\n      dup1\n        /* \"#utility.yul\":6544:6553   */\n      not\n        /* \"#utility.yul\":6537:6542   */\n      dup5\n        /* \"#utility.yul\":6533:6554   */\n      and\n        /* \"#utility.yul\":6524:6554   */\n      swap4\n      pop\n        /* \"#utility.yul\":6597:6601   */\n      dup1\n        /* \"#utility.yul\":6587:6595   */\n      dup7\n        /* \"#utility.yul\":6583:6602   */\n      and\n        /* \"#utility.yul\":6576:6581   */\n      dup5\n        /* \"#utility.yul\":6573:6603   */\n      or\n        /* \"#utility.yul\":6563:6603   */\n      swap3\n      pop\n        /* \"#utility.yul\":6292:6609   */\n      pop\n      pop\n        /* \"#utility.yul\":6216:6609   */\n      swap4\n      swap3\n      pop\n      pop\n      pop\n      jump\t// out\n        /* \"#utility.yul\":6615:6675   */\n    tag_77:\n        /* \"#utility.yul\":6643:6646   */\n      0x00\n        /* \"#utility.yul\":6664:6669   */\n      dup2\n        /* \"#utility.yul\":6657:6669   */\n      swap1\n      pop\n        /* \"#utility.yul\":6615:6675   */\n      swap2\n      swap1\n      pop\n      jump\t// out\n        /* \"#utility.yul\":6681:6823   */\n    tag_78:\n        /* \"#utility.yul\":6731:6740   */\n      0x00\n        /* \"#utility.yul\":6764:6817   */\n      tag_164\n        /* \"#utility.yul\":6782:6816   */\n      tag_165\n        /* \"#utility.yul\":6791:6815   */\n      tag_166\n        /* \"#utility.yul\":6809:6814   */\n      dup5\n        /* \"#utility.yul\":6791:6815   */\n      tag_64\n      jump\t// in\n    tag_166:\n        /* \"#utility.yul\":6782:6816   */\n      tag_77\n      jump\t// in\n    tag_165:\n        /* \"#utility.yul\":6764:6817   */\n      tag_64\n      jump\t// in\n    tag_164:\n        /* \"#utility.yul\":6751:6817   */\n      swap1\n      pop\n        /* \"#utility.yul\":6681:6823   */\n      swap2\n      swap1\n      pop\n      jump\t// out\n        /* \"#utility.yul\":6829:6904   */\n    tag_79:\n        /* \"#utility.yul\":6872:6875   */\n      0x00\n        /* \"#utility.yul\":6893:6898   */\n      dup2\n        /* \"#utility.yul\":6886:6898   */\n      swap1\n      pop\n        /* \"#utility.yul\":6829:6904   */\n      swap2\n      swap1\n      pop\n      jump\t// out\n        /* \"#utility.yul\":6910:7179   */\n    tag_80:\n        /* \"#utility.yul\":7020:7059   */\n      tag_169\n        /* \"#utility.yul\":7051:7058   */\n      dup4\n        /* \"#utility.yul\":7020:7059   */\n      tag_78\n      jump\t// in\n    tag_169:\n        /* \"#utility.yul\":7081:7172   */\n      tag_170\n        /* \"#utility.yul\":7130:7171   */\n      tag_171\n        /* \"#utility.yul\":7154:7170   */\n      dup3\n        /* \"#utility.yul\":7130:7171   */\n      tag_79\n      jump\t// in\n    tag_171:\n        /* \"#utility.yul\":7122:7128   */\n      dup5\n        /* \"#utility.yul\":7115:7119   */\n      dup5\n        /* \"#utility.yul\":7109:7120   */\n      sload\n        /* \"#utility.yul\":7081:7172   */\n      tag_76\n      jump\t// in\n    tag_170:\n        /* \"#utility.yul\":7075:7079   */\n      dup3\n        /* \"#utility.yul\":7068:7173   */\n      sstore\n        /* \"#utility.yul\":6986:7179   */\n      pop\n        /* \"#utility.yul\":6910:7179   */\n      pop\n      pop\n      pop\n      jump\t// out\n        /* \"#utility.yul\":7185:7258   */\n    tag_81:\n        /* \"#utility.yul\":7230:7233   */\n      0x00\n        /* \"#utility.yul\":7185:7258   */\n      swap1\n      jump\t// out\n        /* \"#utility.yul\":7264:7453   */\n    tag_82:\n        /* \"#utility.yul\":7341:7373   */\n      tag_174\n      tag_81\n      jump\t// in\n    tag_174:\n        /* \"#utility.yul\":7382:7447   */\n      tag_175\n        /* \"#utility.yul\":7440:7446   */\n      dup2\n        /* \"#utility.yul\":7432:7438   */\n      dup5\n        /* \"#utility.yul\":7426:7430   */\n      dup5\n        /* \"#utility.yul\":7382:7447   */\n      tag_80\n      jump\t// in\n    tag_175:\n        /* \"#utility.yul\":7317:7453   */\n      pop\n        /* \"#utility.yul\":7264:7453   */\n      pop\n      pop\n      jump\t// out\n        /* \"#utility.yul\":7459:7645   */\n    tag_83:\n        /* \"#utility.yul\":7519:7639   */\n    tag_177:\n        /* \"#utility.yul\":7536:7539   */\n      dup2\n        /* \"#utility.yul\":7529:7534   */\n      dup2\n        /* \"#utility.yul\":7526:7540   */\n      lt\n        /* \"#utility.yul\":7519:7639   */\n      iszero\n      tag_179\n      jumpi\n        /* \"#utility.yul\":7590:7629   */\n      tag_180\n        /* \"#utility.yul\":7627:7628   */\n      0x00\n        /* \"#utility.yul\":7620:7625   */\n      dup3\n        /* \"#utility.yul\":7590:7629   */\n      tag_82\n      jump\t// in\n    tag_180:\n        /* \"#utility.yul\":7563:7564   */\n      0x01\n        /* \"#utility.yul\":7556:7561   */\n      dup2\n        /* \"#utility.yul\":7552:7565   */\n      add\n        /* \"#utility.yul\":7543:7565   */\n      swap1\n      pop\n        /* \"#utility.yul\":7519:7639   */\n      jump(tag_177)\n    tag_179:\n        /* \"#utility.yul\":7459:7645   */\n      pop\n      pop\n      jump\t// out\n        /* \"#utility.yul\":7651:8194   */\n    tag_84:\n        /* \"#utility.yul\":7752:7754   */\n      0x1f\n        /* \"#utility.yul\":7747:7750   */\n      dup3\n        /* \"#utility.yul\":7744:7755   */\n      gt\n        /* \"#utility.yul\":7741:8187   */\n      iszero\n      tag_182\n      jumpi\n        /* \"#utility.yul\":7786:7824   */\n      tag_183\n        /* \"#utility.yul\":7818:7823   */\n      dup2\n        /* \"#utility.yul\":7786:7824   */\n      tag_73\n      jump\t// in\n    tag_183:\n        /* \"#utility.yul\":7870:7899   */\n      tag_184\n        /* \"#utility.yul\":7888:7898   */\n      dup5\n        /* \"#utility.yul\":7870:7899   */\n      tag_74\n      jump\t// in\n    tag_184:\n        /* \"#utility.yul\":7860:7868   */\n      dup2\n        /* \"#utility.yul\":7856:7900   */\n      add\n        /* \"#utility.yul\":8053:8055   */\n      0x20\n        /* \"#utility.yul\":8041:8051   */\n      dup6\n        /* \"#utility.yul\":8038:8056   */\n      lt\n        /* \"#utility.yul\":8035:8084   */\n      iszero\n      tag_185\n      jumpi\n        /* \"#utility.yul\":8074:8082   */\n      dup2\n        /* \"#utility.yul\":8059:8082   */\n      swap1\n      pop\n        /* \"#utility.yul\":8035:8084   */\n    tag_185:\n        /* \"#utility.yul\":8097:8177   */\n      tag_186\n        /* \"#utility.yul\":8153:8175   */\n      tag_187\n        /* \"#utility.yul\":8171:8174   */\n      dup6\n        /* \"#utility.yul\":8153:8175   */\n      tag_74\n      jump\t// in\n    tag_187:\n        /* \"#utility.yul\":8143:8151   */\n      dup4\n        /* \"#utility.yul\":8139:8176   */\n      add\n        /* \"#utility.yul\":8126:8137   */\n      dup3\n        /* \"#utility.yul\":8097:8177   */\n      tag_83\n      jump\t// in\n    tag_186:\n        /* \"#utility.yul\":7756:8187   */\n      pop\n      pop\n        /* \"#utility.yul\":7741:8187   */\n    tag_182:\n        /* \"#utility.yul\":7651:8194   */\n      pop\n      pop\n      pop\n      jump\t// out\n        /* \"#utility.yul\":8200:8317   */\n    tag_85:\n        /* \"#utility.yul\":8254:8262   */\n      0x00\n        /* \"#utility.yul\":8304:8309   */\n      dup3\n        /* \"#utility.yul\":8298:8302   */\n      dup3\n        /* \"#utility.yul\":8294:8310   */\n      shr\n        /* \"#utility.yul\":8273:8310   */\n      swap1\n      pop\n        /* \"#utility.yul\":8200:8317   */\n      swap3\n      swap2\n      pop\n      pop\n      jump\t// out\n        /* \"#utility.yul\":8323:8492   */\n    tag_86:\n        /* \"#utility.yul\":8367:8373   */\n      0x00\n        /* \"#utility.yul\":8400:8451   */\n      tag_190\n        /* \"#utility.yul\":8448:8449   */\n      0x00\n        /* \"#utility.yul\":8444:8450   */\n      not\n        /* \"#utility.yul\":8436:8441   */\n      dup5\n        /* \"#utility.yul\":8433:8434   */\n      0x08\n        /* \"#utility.yul\":8429:8442   */\n      mul\n        /* \"#utility.yul\":8400:8451   */\n      tag_85\n      jump\t// in\n    tag_190:\n        /* \"#utility.yul\":8396:8452   */\n      not\n        /* \"#utility.yul\":8481:8485   */\n      dup1\n        /* \"#utility.yul\":8475:8479   */\n      dup4\n        /* \"#utility.yul\":8471:8486   */\n      and\n        /* \"#utility.yul\":8461:8486   */\n      swap2\n      pop\n        /* \"#utility.yul\":8374:8492   */\n      pop\n        /* \"#utility.yul\":8323:8492   */\n      swap3\n      swap2\n      pop\n      pop\n      jump\t// out\n        /* \"#utility.yul\":8497:8792   */\n    tag_87:\n        /* \"#utility.yul\":8573:8577   */\n      0x00\n        /* \"#utility.yul\":8719:8748   */\n      tag_192\n        /* \"#utility.yul\":8744:8747   */\n      dup4\n        /* \"#utility.yul\":8738:8742   */\n      dup4\n        /* \"#utility.yul\":8719:8748   */\n      tag_86\n      jump\t// in\n    tag_192:\n        /* \"#utility.yul\":8711:8748   */\n      swap2\n      pop\n        /* \"#utility.yul\":8781:8784   */\n      dup3\n        /* \"#utility.yul\":8778:8779   */\n      0x02\n        /* \"#utility.yul\":8774:8785   */\n      mul\n        /* \"#utility.yul\":8768:8772   */\n      dup3\n        /* \"#utility.yul\":8765:8786   */\n      or\n        /* \"#utility.yul\":8757:8786   */\n      swap1\n      pop\n        /* \"#utility.yul\":8497:8792   */\n      swap3\n      swap2\n      pop\n      pop\n      jump\t// out\n        /* \"#utility.yul\":8797:10192   */\n    tag_33:\n        /* \"#utility.yul\":8914:8951   */\n      tag_194\n        /* \"#utility.yul\":8947:8950   */\n      dup3\n        /* \"#utility.yul\":8914:8951   */\n      tag_66\n      jump\t// in\n    tag_194:\n        /* \"#utility.yul\":9016:9034   */\n      0xffffffffffffffff\n        /* \"#utility.yul\":9008:9014   */\n      dup2\n        /* \"#utility.yul\":9005:9035   */\n      gt\n        /* \"#utility.yul\":9002:9058   */\n      iszero\n      tag_195\n      jumpi\n        /* \"#utility.yul\":9038:9056   */\n      tag_196\n      tag_57\n      jump\t// in\n    tag_196:\n        /* \"#utility.yul\":9002:9058   */\n    tag_195:\n        /* \"#utility.yul\":9082:9120   */\n      tag_197\n        /* \"#utility.yul\":9114:9118   */\n      dup3\n        /* \"#utility.yul\":9108:9119   */\n      sload\n        /* \"#utility.yul\":9082:9120   */\n      tag_39\n      jump\t// in\n    tag_197:\n        /* \"#utility.yul\":9167:9234   */\n      tag_198\n        /* \"#utility.yul\":9227:9233   */\n      dup3\n        /* \"#utility.yul\":9219:9225   */\n      dup3\n        /* \"#utility.yul\":9213:9217   */\n      dup6\n        /* \"#utility.yul\":9167:9234   */\n      tag_84\n      jump\t// in\n    tag_198:\n        /* \"#utility.yul\":9261:9262   */\n      0x00\n        /* \"#utility.yul\":9285:9289   */\n      0x20\n        /* \"#utility.yul\":9272:9289   */\n      swap1\n      pop\n        /* \"#utility.yul\":9317:9319   */\n      0x1f\n        /* \"#utility.yul\":9309:9315   */\n      dup4\n        /* \"#utility.yul\":9306:9320   */\n      gt\n        /* \"#utility.yul\":9334:9335   */\n      0x01\n        /* \"#utility.yul\":9329:9947   */\n      dup2\n      eq\n      tag_200\n      jumpi\n        /* \"#utility.yul\":9991:9992   */\n      0x00\n        /* \"#utility.yul\":10008:10014   */\n      dup5\n        /* \"#utility.yul\":10005:10082   */\n      iszero\n      tag_201\n      jumpi\n        /* \"#utility.yul\":10057:10066   */\n      dup3\n        /* \"#utility.yul\":10052:10055   */\n      dup8\n        /* \"#utility.yul\":10048:10067   */\n      add\n        /* \"#utility.yul\":10042:10068   */\n      mload\n        /* \"#utility.yul\":10033:10068   */\n      swap1\n      pop\n        /* \"#utility.yul\":10005:10082   */\n    tag_201:\n        /* \"#utility.yul\":10108:10175   */\n      tag_202\n        /* \"#utility.yul\":10168:10174   */\n      dup6\n        /* \"#utility.yul\":10161:10166   */\n      dup3\n        /* \"#utility.yul\":10108:10175   */\n      tag_87\n      jump\t// in\n    tag_202:\n        /* \"#utility.yul\":10102:10106   */\n      dup7\n        /* \"#utility.yul\":10095:10176   */\n      sstore\n        /* \"#utility.yul\":9964:10186   */\n      pop\n        /* \"#utility.yul\":9299:10186   */\n      jump(tag_199)\n        /* \"#utility.yul\":9329:9947   */\n    tag_200:\n        /* \"#utility.yul\":9381:9385   */\n      0x1f\n        /* \"#utility.yul\":9377:9386   */\n      not\n        /* \"#utility.yul\":9369:9375   */\n      dup5\n        /* \"#utility.yul\":9365:9387   */\n      and\n        /* \"#utility.yul\":9415:9452   */\n      tag_203\n        /* \"#utility.yul\":9447:9451   */\n      dup7\n        /* \"#utility.yul\":9415:9452   */\n      tag_73\n      jump\t// in\n    tag_203:\n        /* \"#utility.yul\":9474:9475   */\n      0x00\n        /* \"#utility.yul\":9488:9696   */\n    tag_204:\n        /* \"#utility.yul\":9502:9509   */\n      dup3\n        /* \"#utility.yul\":9499:9500   */\n      dup2\n        /* \"#utility.yul\":9496:9510   */\n      lt\n        /* \"#utility.yul\":9488:9696   */\n      iszero\n      tag_206\n      jumpi\n        /* \"#utility.yul\":9581:9590   */\n      dup5\n        /* \"#utility.yul\":9576:9579   */\n      dup10\n        /* \"#utility.yul\":9572:9591   */\n      add\n        /* \"#utility.yul\":9566:9592   */\n      mload\n        /* \"#utility.yul\":9558:9564   */\n      dup3\n        /* \"#utility.yul\":9551:9593   */\n      sstore\n        /* \"#utility.yul\":9632:9633   */\n      0x01\n        /* \"#utility.yul\":9624:9630   */\n      dup3\n        /* \"#utility.yul\":9620:9634   */\n      add\n        /* \"#utility.yul\":9610:9634   */\n      swap2\n      pop\n        /* \"#utility.yul\":9679:9681   */\n      0x20\n        /* \"#utility.yul\":9668:9677   */\n      dup6\n        /* \"#utility.yul\":9664:9682   */\n      add\n        /* \"#utility.yul\":9651:9682   */\n      swap5\n      pop\n        /* \"#utility.yul\":9525:9529   */\n      0x20\n        /* \"#utility.yul\":9522:9523   */\n      dup2\n        /* \"#utility.yul\":9518:9530   */\n      add\n        /* \"#utility.yul\":9513:9530   */\n      swap1\n      pop\n        /* \"#utility.yul\":9488:9696   */\n      jump(tag_204)\n    tag_206:\n        /* \"#utility.yul\":9724:9730   */\n      dup7\n        /* \"#utility.yul\":9715:9722   */\n      dup4\n        /* \"#utility.yul\":9712:9731   */\n      lt\n        /* \"#utility.yul\":9709:9888   */\n      iszero\n      tag_207\n      jumpi\n        /* \"#utility.yul\":9782:9791   */\n      dup5\n        /* \"#utility.yul\":9777:9780   */\n      dup10\n        /* \"#utility.yul\":9773:9792   */\n      add\n        /* \"#utility.yul\":9767:9793   */\n      mload\n        /* \"#utility.yul\":9825:9873   */\n      tag_208\n        /* \"#utility.yul\":9867:9871   */\n      0x1f\n        /* \"#utility.yul\":9859:9865   */\n      dup10\n        /* \"#utility.yul\":9855:9872   */\n      and\n        /* \"#utility.yul\":9844:9853   */\n      dup3\n        /* \"#utility.yul\":9825:9873   */\n      tag_86\n      jump\t// in\n    tag_208:\n        /* \"#utility.yul\":9817:9823   */\n      dup4\n        /* \"#utility.yul\":9810:9874   */\n      sstore\n        /* \"#utility.yul\":9732:9888   */\n      pop\n        /* \"#utility.yul\":9709:9888   */\n    tag_207:\n        /* \"#utility.yul\":9934:9935   */\n      0x01\n        /* \"#utility.yul\":9930:9931   */\n      0x02\n        /* \"#utility.yul\":9922:9928   */\n      dup9\n        /* \"#utility.yul\":9918:9932   */\n      mul\n        /* \"#utility.yul\":9914:9936   */\n      add\n        /* \"#utility.yul\":9908:9912   */\n      dup9\n        /* \"#utility.yul\":9901:9937   */\n      sstore\n        /* \"#utility.yul\":9336:9947   */\n      pop\n      pop\n      pop\n        /* \"#utility.yul\":9299:10186   */\n    tag_199:\n      pop\n        /* \"#utility.yul\":8889:10192   */\n      pop\n      pop\n      pop\n        /* \"#utility.yul\":8797:10192   */\n      pop\n      pop\n      jump\t// out\n\n    auxdata: 0xa2646970667358221220851bfda4fffd207c6ca2d4cfb2feb65cf20821b6d393d2c456708c68a9f5526b64736f6c63430008180033\n}\n",
				"bytecode": {
					"linkReferences": {},
					"object": "60806040526040518060400160405280600b81526020017f5061626c6f20506572657a0000000000000000000000000000000000000000008152505f908162000049919062000310565b506040518060400160405280600b81526020017f6e6e406d61696c2e636f6d0000000000000000000000000000000000000000008152506001908162000090919062000310565b5063499602d2600255348015620000a5575f80fd5b50620003f4565b5f81519050919050565b7f4e487b71000000000000000000000000000000000000000000000000000000005f52604160045260245ffd5b7f4e487b71000000000000000000000000000000000000000000000000000000005f52602260045260245ffd5b5f60028204905060018216806200012857607f821691505b6020821081036200013e576200013d620000e3565b5b50919050565b5f819050815f5260205f209050919050565b5f6020601f8301049050919050565b5f82821b905092915050565b5f60088302620001a27fffffffffffffffffffffffffffffffffffffffffffffffffffffffffffffffff8262000165565b620001ae868362000165565b95508019841693508086168417925050509392505050565b5f819050919050565b5f819050919050565b5f620001f8620001f2620001ec84620001c6565b620001cf565b620001c6565b9050919050565b5f819050919050565b6200021383620001d8565b6200022b6200022282620001ff565b84845462000171565b825550505050565b5f90565b6200024162000233565b6200024e81848462000208565b505050565b5b818110156200027557620002695f8262000237565b60018101905062000254565b5050565b601f821115620002c4576200028e8162000144565b620002998462000156565b81016020851015620002a9578190505b620002c1620002b88562000156565b83018262000253565b50505b505050565b5f82821c905092915050565b5f620002e65f1984600802620002c9565b1980831691505092915050565b5f620003008383620002d5565b9150826002028217905092915050565b6200031b82620000ac565b67ffffffffffffffff811115620003375762000336620000b6565b5b62000343825462000110565b6200035082828562000279565b5f60209050601f83116001811462000386575f841562000371578287015190505b6200037d8582620002f3565b865550620003ec565b601f198416620003968662000144565b5f5b82811015620003bf5784890151825560018201915060208501945060208101905062000398565b86831015620003df5784890151620003db601f891682620002d5565b8355505b6001600288020188555050505b505050505050565b61081c80620004025f395ff3fe608060405234801561000f575f80fd5b5060043610610060575f3560e01c8063178970b0146100645780632ce97e8c146100805780633ddce7791461009e578063bf7ec2b4146100ba578063e5c97169146100d8578063f1d9dbb0146100f4575b5f80fd5b61007e600480360381019061007991906103b6565b610112565b005b610088610125565b6040516100959190610415565b60405180910390f35b6100b860048036038101906100b391906103b6565b61012e565b005b6100c2610140565b6040516100cf91906104a8565b60405180910390f35b6100f260048036038101906100ed91906104f2565b6101d0565b005b6100fc6101da565b60405161010991906104a8565b60405180910390f35b80600190816101219190610717565b5050565b5f600254905090565b805f908161013c9190610717565b5050565b60606001805461014f9061054a565b80601f016020809104026020016040519081016040528092919081815260200182805461017b9061054a565b80156101c65780601f1061019d576101008083540402835291602001916101c6565b820191905f5260205f20905b8154815290600101906020018083116101a957829003601f168201915b5050505050905090565b8060028190555050565b60605f80546101e89061054a565b80601f01602080910402602001604051908101604052809291908181526020018280546102149061054a565b801561025f5780601f106102365761010080835404028352916020019161025f565b820191905f5260205f20905b81548152906001019060200180831161024257829003601f168201915b5050505050905090565b5f604051905090565b5f80fd5b5f80fd5b5f80fd5b5f80fd5b5f601f19601f8301169050919050565b7f4e487b71000000000000000000000000000000000000000000000000000000005f52604160045260245ffd5b6102c882610282565b810181811067ffffffffffffffff821117156102e7576102e6610292565b5b80604052505050565b5f6102f9610269565b905061030582826102bf565b919050565b5f67ffffffffffffffff82111561032457610323610292565b5b61032d82610282565b9050602081019050919050565b828183375f83830152505050565b5f61035a6103558461030a565b6102f0565b9050828152602081018484840111156103765761037561027e565b5b61038184828561033a565b509392505050565b5f82601f83011261039d5761039c61027a565b5b81356103ad848260208601610348565b91505092915050565b5f602082840312156103cb576103ca610272565b5b5f82013567ffffffffffffffff8111156103e8576103e7610276565b5b6103f484828501610389565b91505092915050565b5f819050919050565b61040f816103fd565b82525050565b5f6020820190506104285f830184610406565b92915050565b5f81519050919050565b5f82825260208201905092915050565b5f5b8381101561046557808201518184015260208101905061044a565b5f8484015250505050565b5f61047a8261042e565b6104848185610438565b9350610494818560208601610448565b61049d81610282565b840191505092915050565b5f6020820190508181035f8301526104c08184610470565b905092915050565b6104d1816103fd565b81146104db575f80fd5b50565b5f813590506104ec816104c8565b92915050565b5f6020828403121561050757610506610272565b5b5f610514848285016104de565b91505092915050565b7f4e487b71000000000000000000000000000000000000000000000000000000005f52602260045260245ffd5b5f600282049050600182168061056157607f821691505b6020821081036105745761057361051d565b5b50919050565b5f819050815f5260205f209050919050565b5f6020601f8301049050919050565b5f82821b905092915050565b5f600883026105d67fffffffffffffffffffffffffffffffffffffffffffffffffffffffffffffffff8261059b565b6105e0868361059b565b95508019841693508086168417925050509392505050565b5f819050919050565b5f61061b610616610611846103fd565b6105f8565b6103fd565b9050919050565b5f819050919050565b61063483610601565b61064861064082610622565b8484546105a7565b825550505050565b5f90565b61065c610650565b61066781848461062b565b505050565b5b8181101561068a5761067f5f82610654565b60018101905061066d565b5050565b601f8211156106cf576106a08161057a565b6106a98461058c565b810160208510156106b8578190505b6106cc6106c48561058c565b83018261066c565b50505b505050565b5f82821c905092915050565b5f6106ef5f19846008026106d4565b1980831691505092915050565b5f61070783836106e0565b9150826002028217905092915050565b6107208261042e565b67ffffffffffffffff81111561073957610738610292565b5b610743825461054a565b61074e82828561068e565b5f60209050601f83116001811461077f575f841561076d578287015190505b61077785826106fc565b8655506107de565b601f19841661078d8661057a565b5f5b828110156107b45784890151825560018201915060208501945060208101905061078f565b868310156107d157848901516107cd601f8916826106e0565b8355505b6001600288020188555050505b50505050505056fea2646970667358221220851bfda4fffd207c6ca2d4cfb2feb65cf20821b6d393d2c456708c68a9f5526b64736f6c63430008180033",
					"opcodes": "PUSH1 0x80 PUSH1 0x40 MSTORE PUSH1 0x40 MLOAD DUP1 PUSH1 0x40 ADD PUSH1 0x40 MSTORE DUP1 PUSH1 0xB DUP2 MSTORE PUSH1 0x20 ADD PUSH32 0x5061626C6F20506572657A000000000000000000000000000000000000000000 DUP2 MSTORE POP PUSH0 SWAP1 DUP2 PUSH3 0x49 SWAP2 SWAP1 PUSH3 0x310 JUMP JUMPDEST POP PUSH1 0x40 MLOAD DUP1 PUSH1 0x40 ADD PUSH1 0x40 MSTORE DUP1 PUSH1 0xB DUP2 MSTORE PUSH1 0x20 ADD PUSH32 0x6E6E406D61696C2E636F6D000000000000000000000000000000000000000000 DUP2 MSTORE POP PUSH1 0x1 SWAP1 DUP2 PUSH3 0x90 SWAP2 SWAP1 PUSH3 0x310 JUMP JUMPDEST POP PUSH4 0x499602D2 PUSH1 0x2 SSTORE CALLVALUE DUP1 ISZERO PUSH3 0xA5 JUMPI PUSH0 DUP1 REVERT JUMPDEST POP PUSH3 0x3F4 JUMP JUMPDEST PUSH0 DUP2 MLOAD SWAP1 POP SWAP2 SWAP1 POP JUMP JUMPDEST PUSH32 0x4E487B7100000000000000000000000000000000000000000000000000000000 PUSH0 MSTORE PUSH1 0x41 PUSH1 0x4 MSTORE PUSH1 0x24 PUSH0 REVERT JUMPDEST PUSH32 0x4E487B7100000000000000000000000000000000000000000000000000000000 PUSH0 MSTORE PUSH1 0x22 PUSH1 0x4 MSTORE PUSH1 0x24 PUSH0 REVERT JUMPDEST PUSH0 PUSH1 0x2 DUP3 DIV SWAP1 POP PUSH1 0x1 DUP3 AND DUP1 PUSH3 0x128 JUMPI PUSH1 0x7F DUP3 AND SWAP2 POP JUMPDEST PUSH1 0x20 DUP3 LT DUP2 SUB PUSH3 0x13E JUMPI PUSH3 0x13D PUSH3 0xE3 JUMP JUMPDEST JUMPDEST POP SWAP2 SWAP1 POP JUMP JUMPDEST PUSH0 DUP2 SWAP1 POP DUP2 PUSH0 MSTORE PUSH1 0x20 PUSH0 KECCAK256 SWAP1 POP SWAP2 SWAP1 POP JUMP JUMPDEST PUSH0 PUSH1 0x20 PUSH1 0x1F DUP4 ADD DIV SWAP1 POP SWAP2 SWAP1 POP JUMP JUMPDEST PUSH0 DUP3 DUP3 SHL SWAP1 POP SWAP3 SWAP2 POP POP JUMP JUMPDEST PUSH0 PUSH1 0x8 DUP4 MUL PUSH3 0x1A2 PUSH32 0xFFFFFFFFFFFFFFFFFFFFFFFFFFFFFFFFFFFFFFFFFFFFFFFFFFFFFFFFFFFFFFFF DUP3 PUSH3 0x165 JUMP JUMPDEST PUSH3 0x1AE DUP7 DUP4 PUSH3 0x165 JUMP JUMPDEST SWAP6 POP DUP1 NOT DUP5 AND SWAP4 POP DUP1 DUP7 AND DUP5 OR SWAP3 POP POP POP SWAP4 SWAP3 POP POP POP JUMP JUMPDEST PUSH0 DUP2 SWAP1 POP SWAP2 SWAP1 POP JUMP JUMPDEST PUSH0 DUP2 SWAP1 POP SWAP2 SWAP1 POP JUMP JUMPDEST PUSH0 PUSH3 0x1F8 PUSH3 0x1F2 PUSH3 0x1EC DUP5 PUSH3 0x1C6 JUMP JUMPDEST PUSH3 0x1CF JUMP JUMPDEST PUSH3 0x1C6 JUMP JUMPDEST SWAP1 POP SWAP2 SWAP1 POP JUMP JUMPDEST PUSH0 DUP2 SWAP1 POP SWAP2 SWAP1 POP JUMP JUMPDEST PUSH3 0x213 DUP4 PUSH3 0x1D8 JUMP JUMPDEST PUSH3 0x22B PUSH3 0x222 DUP3 PUSH3 0x1FF JUMP JUMPDEST DUP5 DUP5 SLOAD PUSH3 0x171 JUMP JUMPDEST DUP3 SSTORE POP POP POP POP JUMP JUMPDEST PUSH0 SWAP1 JUMP JUMPDEST PUSH3 0x241 PUSH3 0x233 JUMP JUMPDEST PUSH3 0x24E DUP2 DUP5 DUP5 PUSH3 0x208 JUMP JUMPDEST POP POP POP JUMP JUMPDEST JUMPDEST DUP2 DUP2 LT ISZERO PUSH3 0x275 JUMPI PUSH3 0x269 PUSH0 DUP3 PUSH3 0x237 JUMP JUMPDEST PUSH1 0x1 DUP2 ADD SWAP1 POP PUSH3 0x254 JUMP JUMPDEST POP POP JUMP JUMPDEST PUSH1 0x1F DUP3 GT ISZERO PUSH3 0x2C4 JUMPI PUSH3 0x28E DUP2 PUSH3 0x144 JUMP JUMPDEST PUSH3 0x299 DUP5 PUSH3 0x156 JUMP JUMPDEST DUP2 ADD PUSH1 0x20 DUP6 LT ISZERO PUSH3 0x2A9 JUMPI DUP2 SWAP1 POP JUMPDEST PUSH3 0x2C1 PUSH3 0x2B8 DUP6 PUSH3 0x156 JUMP JUMPDEST DUP4 ADD DUP3 PUSH3 0x253 JUMP JUMPDEST POP POP JUMPDEST POP POP POP JUMP JUMPDEST PUSH0 DUP3 DUP3 SHR SWAP1 POP SWAP3 SWAP2 POP POP JUMP JUMPDEST PUSH0 PUSH3 0x2E6 PUSH0 NOT DUP5 PUSH1 0x8 MUL PUSH3 0x2C9 JUMP JUMPDEST NOT DUP1 DUP4 AND SWAP2 POP POP SWAP3 SWAP2 POP POP JUMP JUMPDEST PUSH0 PUSH3 0x300 DUP4 DUP4 PUSH3 0x2D5 JUMP JUMPDEST SWAP2 POP DUP3 PUSH1 0x2 MUL DUP3 OR SWAP1 POP SWAP3 SWAP2 POP POP JUMP JUMPDEST PUSH3 0x31B DUP3 PUSH3 0xAC JUMP JUMPDEST PUSH8 0xFFFFFFFFFFFFFFFF DUP2 GT ISZERO PUSH3 0x337 JUMPI PUSH3 0x336 PUSH3 0xB6 JUMP JUMPDEST JUMPDEST PUSH3 0x343 DUP3 SLOAD PUSH3 0x110 JUMP JUMPDEST PUSH3 0x350 DUP3 DUP3 DUP6 PUSH3 0x279 JUMP JUMPDEST PUSH0 PUSH1 0x20 SWAP1 POP PUSH1 0x1F DUP4 GT PUSH1 0x1 DUP2 EQ PUSH3 0x386 JUMPI PUSH0 DUP5 ISZERO PUSH3 0x371 JUMPI DUP3 DUP8 ADD MLOAD SWAP1 POP JUMPDEST PUSH3 0x37D DUP6 DUP3 PUSH3 0x2F3 JUMP JUMPDEST DUP7 SSTORE POP PUSH3 0x3EC JUMP JUMPDEST PUSH1 0x1F NOT DUP5 AND PUSH3 0x396 DUP7 PUSH3 0x144 JUMP JUMPDEST PUSH0 JUMPDEST DUP3 DUP2 LT ISZERO PUSH3 0x3BF JUMPI DUP5 DUP10 ADD MLOAD DUP3 SSTORE PUSH1 0x1 DUP3 ADD SWAP2 POP PUSH1 0x20 DUP6 ADD SWAP5 POP PUSH1 0x20 DUP2 ADD SWAP1 POP PUSH3 0x398 JUMP JUMPDEST DUP7 DUP4 LT ISZERO PUSH3 0x3DF JUMPI DUP5 DUP10 ADD MLOAD PUSH3 0x3DB PUSH1 0x1F DUP10 AND DUP3 PUSH3 0x2D5 JUMP JUMPDEST DUP4 SSTORE POP JUMPDEST PUSH1 0x1 PUSH1 0x2 DUP9 MUL ADD DUP9 SSTORE POP POP POP JUMPDEST POP POP POP POP POP POP JUMP JUMPDEST PUSH2 0x81C DUP1 PUSH3 0x402 PUSH0 CODECOPY PUSH0 RETURN INVALID PUSH1 0x80 PUSH1 0x40 MSTORE CALLVALUE DUP1 ISZERO PUSH2 0xF JUMPI PUSH0 DUP1 REVERT JUMPDEST POP PUSH1 0x4 CALLDATASIZE LT PUSH2 0x60 JUMPI PUSH0 CALLDATALOAD PUSH1 0xE0 SHR DUP1 PUSH4 0x178970B0 EQ PUSH2 0x64 JUMPI DUP1 PUSH4 0x2CE97E8C EQ PUSH2 0x80 JUMPI DUP1 PUSH4 0x3DDCE779 EQ PUSH2 0x9E JUMPI DUP1 PUSH4 0xBF7EC2B4 EQ PUSH2 0xBA JUMPI DUP1 PUSH4 0xE5C97169 EQ PUSH2 0xD8 JUMPI DUP1 PUSH4 0xF1D9DBB0 EQ PUSH2 0xF4 JUMPI JUMPDEST PUSH0 DUP1 REVERT JUMPDEST PUSH2 0x7E PUSH1 0x4 DUP1 CALLDATASIZE SUB DUP2 ADD SWAP1 PUSH2 0x79 SWAP2 SWAP1 PUSH2 0x3B6 JUMP JUMPDEST PUSH2 0x112 JUMP JUMPDEST STOP JUMPDEST PUSH2 0x88 PUSH2 0x125 JUMP JUMPDEST PUSH1 0x40 MLOAD PUSH2 0x95 SWAP2 SWAP1 PUSH2 0x415 JUMP JUMPDEST PUSH1 0x40 MLOAD DUP1 SWAP2 SUB SWAP1 RETURN JUMPDEST PUSH2 0xB8 PUSH1 0x4 DUP1 CALLDATASIZE SUB DUP2 ADD SWAP1 PUSH2 0xB3 SWAP2 SWAP1 PUSH2 0x3B6 JUMP JUMPDEST PUSH2 0x12E JUMP JUMPDEST STOP JUMPDEST PUSH2 0xC2 PUSH2 0x140 JUMP JUMPDEST PUSH1 0x40 MLOAD PUSH2 0xCF SWAP2 SWAP1 PUSH2 0x4A8 JUMP JUMPDEST PUSH1 0x40 MLOAD DUP1 SWAP2 SUB SWAP1 RETURN JUMPDEST PUSH2 0xF2 PUSH1 0x4 DUP1 CALLDATASIZE SUB DUP2 ADD SWAP1 PUSH2 0xED SWAP2 SWAP1 PUSH2 0x4F2 JUMP JUMPDEST PUSH2 0x1D0 JUMP JUMPDEST STOP JUMPDEST PUSH2 0xFC PUSH2 0x1DA JUMP JUMPDEST PUSH1 0x40 MLOAD PUSH2 0x109 SWAP2 SWAP1 PUSH2 0x4A8 JUMP JUMPDEST PUSH1 0x40 MLOAD DUP1 SWAP2 SUB SWAP1 RETURN JUMPDEST DUP1 PUSH1 0x1 SWAP1 DUP2 PUSH2 0x121 SWAP2 SWAP1 PUSH2 0x717 JUMP JUMPDEST POP POP JUMP JUMPDEST PUSH0 PUSH1 0x2 SLOAD SWAP1 POP SWAP1 JUMP JUMPDEST DUP1 PUSH0 SWAP1 DUP2 PUSH2 0x13C SWAP2 SWAP1 PUSH2 0x717 JUMP JUMPDEST POP POP JUMP JUMPDEST PUSH1 0x60 PUSH1 0x1 DUP1 SLOAD PUSH2 0x14F SWAP1 PUSH2 0x54A JUMP JUMPDEST DUP1 PUSH1 0x1F ADD PUSH1 0x20 DUP1 SWAP2 DIV MUL PUSH1 0x20 ADD PUSH1 0x40 MLOAD SWAP1 DUP2 ADD PUSH1 0x40 MSTORE DUP1 SWAP3 SWAP2 SWAP1 DUP2 DUP2 MSTORE PUSH1 0x20 ADD DUP3 DUP1 SLOAD PUSH2 0x17B SWAP1 PUSH2 0x54A JUMP JUMPDEST DUP1 ISZERO PUSH2 0x1C6 JUMPI DUP1 PUSH1 0x1F LT PUSH2 0x19D JUMPI PUSH2 0x100 DUP1 DUP4 SLOAD DIV MUL DUP4 MSTORE SWAP2 PUSH1 0x20 ADD SWAP2 PUSH2 0x1C6 JUMP JUMPDEST DUP3 ADD SWAP2 SWAP1 PUSH0 MSTORE PUSH1 0x20 PUSH0 KECCAK256 SWAP1 JUMPDEST DUP2 SLOAD DUP2 MSTORE SWAP1 PUSH1 0x1 ADD SWAP1 PUSH1 0x20 ADD DUP1 DUP4 GT PUSH2 0x1A9 JUMPI DUP3 SWAP1 SUB PUSH1 0x1F AND DUP3 ADD SWAP2 JUMPDEST POP POP POP POP POP SWAP1 POP SWAP1 JUMP JUMPDEST DUP1 PUSH1 0x2 DUP2 SWAP1 SSTORE POP POP JUMP JUMPDEST PUSH1 0x60 PUSH0 DUP1 SLOAD PUSH2 0x1E8 SWAP1 PUSH2 0x54A JUMP JUMPDEST DUP1 PUSH1 0x1F ADD PUSH1 0x20 DUP1 SWAP2 DIV MUL PUSH1 0x20 ADD PUSH1 0x40 MLOAD SWAP1 DUP2 ADD PUSH1 0x40 MSTORE DUP1 SWAP3 SWAP2 SWAP1 DUP2 DUP2 MSTORE PUSH1 0x20 ADD DUP3 DUP1 SLOAD PUSH2 0x214 SWAP1 PUSH2 0x54A JUMP JUMPDEST DUP1 ISZERO PUSH2 0x25F JUMPI DUP1 PUSH1 0x1F LT PUSH2 0x236 JUMPI PUSH2 0x100 DUP1 DUP4 SLOAD DIV MUL DUP4 MSTORE SWAP2 PUSH1 0x20 ADD SWAP2 PUSH2 0x25F JUMP JUMPDEST DUP3 ADD SWAP2 SWAP1 PUSH0 MSTORE PUSH1 0x20 PUSH0 KECCAK256 SWAP1 JUMPDEST DUP2 SLOAD DUP2 MSTORE SWAP1 PUSH1 0x1 ADD SWAP1 PUSH1 0x20 ADD DUP1 DUP4 GT PUSH2 0x242 JUMPI DUP3 SWAP1 SUB PUSH1 0x1F AND DUP3 ADD SWAP2 JUMPDEST POP POP POP POP POP SWAP1 POP SWAP1 JUMP JUMPDEST PUSH0 PUSH1 0x40 MLOAD SWAP1 POP SWAP1 JUMP JUMPDEST PUSH0 DUP1 REVERT JUMPDEST PUSH0 DUP1 REVERT JUMPDEST PUSH0 DUP1 REVERT JUMPDEST PUSH0 DUP1 REVERT JUMPDEST PUSH0 PUSH1 0x1F NOT PUSH1 0x1F DUP4 ADD AND SWAP1 POP SWAP2 SWAP1 POP JUMP JUMPDEST PUSH32 0x4E487B7100000000000000000000000000000000000000000000000000000000 PUSH0 MSTORE PUSH1 0x41 PUSH1 0x4 MSTORE PUSH1 0x24 PUSH0 REVERT JUMPDEST PUSH2 0x2C8 DUP3 PUSH2 0x282 JUMP JUMPDEST DUP2 ADD DUP2 DUP2 LT PUSH8 0xFFFFFFFFFFFFFFFF DUP3 GT OR ISZERO PUSH2 0x2E7 JUMPI PUSH2 0x2E6 PUSH2 0x292 JUMP JUMPDEST JUMPDEST DUP1 PUSH1 0x40 MSTORE POP POP POP JUMP JUMPDEST PUSH0 PUSH2 0x2F9 PUSH2 0x269 JUMP JUMPDEST SWAP1 POP PUSH2 0x305 DUP3 DUP3 PUSH2 0x2BF JUMP JUMPDEST SWAP2 SWAP1 POP JUMP JUMPDEST PUSH0 PUSH8 0xFFFFFFFFFFFFFFFF DUP3 GT ISZERO PUSH2 0x324 JUMPI PUSH2 0x323 PUSH2 0x292 JUMP JUMPDEST JUMPDEST PUSH2 0x32D DUP3 PUSH2 0x282 JUMP JUMPDEST SWAP1 POP PUSH1 0x20 DUP2 ADD SWAP1 POP SWAP2 SWAP1 POP JUMP JUMPDEST DUP3 DUP2 DUP4 CALLDATACOPY PUSH0 DUP4 DUP4 ADD MSTORE POP POP POP JUMP JUMPDEST PUSH0 PUSH2 0x35A PUSH2 0x355 DUP5 PUSH2 0x30A JUMP JUMPDEST PUSH2 0x2F0 JUMP JUMPDEST SWAP1 POP DUP3 DUP2 MSTORE PUSH1 0x20 DUP2 ADD DUP5 DUP5 DUP5 ADD GT ISZERO PUSH2 0x376 JUMPI PUSH2 0x375 PUSH2 0x27E JUMP JUMPDEST JUMPDEST PUSH2 0x381 DUP5 DUP3 DUP6 PUSH2 0x33A JUMP JUMPDEST POP SWAP4 SWAP3 POP POP POP JUMP JUMPDEST PUSH0 DUP3 PUSH1 0x1F DUP4 ADD SLT PUSH2 0x39D JUMPI PUSH2 0x39C PUSH2 0x27A JUMP JUMPDEST JUMPDEST DUP2 CALLDATALOAD PUSH2 0x3AD DUP5 DUP3 PUSH1 0x20 DUP7 ADD PUSH2 0x348 JUMP JUMPDEST SWAP2 POP POP SWAP3 SWAP2 POP POP JUMP JUMPDEST PUSH0 PUSH1 0x20 DUP3 DUP5 SUB SLT ISZERO PUSH2 0x3CB JUMPI PUSH2 0x3CA PUSH2 0x272 JUMP JUMPDEST JUMPDEST PUSH0 DUP3 ADD CALLDATALOAD PUSH8 0xFFFFFFFFFFFFFFFF DUP2 GT ISZERO PUSH2 0x3E8 JUMPI PUSH2 0x3E7 PUSH2 0x276 JUMP JUMPDEST JUMPDEST PUSH2 0x3F4 DUP5 DUP3 DUP6 ADD PUSH2 0x389 JUMP JUMPDEST SWAP2 POP POP SWAP3 SWAP2 POP POP JUMP JUMPDEST PUSH0 DUP2 SWAP1 POP SWAP2 SWAP1 POP JUMP JUMPDEST PUSH2 0x40F DUP2 PUSH2 0x3FD JUMP JUMPDEST DUP3 MSTORE POP POP JUMP JUMPDEST PUSH0 PUSH1 0x20 DUP3 ADD SWAP1 POP PUSH2 0x428 PUSH0 DUP4 ADD DUP5 PUSH2 0x406 JUMP JUMPDEST SWAP3 SWAP2 POP POP JUMP JUMPDEST PUSH0 DUP2 MLOAD SWAP1 POP SWAP2 SWAP1 POP JUMP JUMPDEST PUSH0 DUP3 DUP3 MSTORE PUSH1 0x20 DUP3 ADD SWAP1 POP SWAP3 SWAP2 POP POP JUMP JUMPDEST PUSH0 JUMPDEST DUP4 DUP2 LT ISZERO PUSH2 0x465 JUMPI DUP1 DUP3 ADD MLOAD DUP2 DUP5 ADD MSTORE PUSH1 0x20 DUP2 ADD SWAP1 POP PUSH2 0x44A JUMP JUMPDEST PUSH0 DUP5 DUP5 ADD MSTORE POP POP POP POP JUMP JUMPDEST PUSH0 PUSH2 0x47A DUP3 PUSH2 0x42E JUMP JUMPDEST PUSH2 0x484 DUP2 DUP6 PUSH2 0x438 JUMP JUMPDEST SWAP4 POP PUSH2 0x494 DUP2 DUP6 PUSH1 0x20 DUP7 ADD PUSH2 0x448 JUMP JUMPDEST PUSH2 0x49D DUP2 PUSH2 0x282 JUMP JUMPDEST DUP5 ADD SWAP2 POP POP SWAP3 SWAP2 POP POP JUMP JUMPDEST PUSH0 PUSH1 0x20 DUP3 ADD SWAP1 POP DUP2 DUP2 SUB PUSH0 DUP4 ADD MSTORE PUSH2 0x4C0 DUP2 DUP5 PUSH2 0x470 JUMP JUMPDEST SWAP1 POP SWAP3 SWAP2 POP POP JUMP JUMPDEST PUSH2 0x4D1 DUP2 PUSH2 0x3FD JUMP JUMPDEST DUP2 EQ PUSH2 0x4DB JUMPI PUSH0 DUP1 REVERT JUMPDEST POP JUMP JUMPDEST PUSH0 DUP2 CALLDATALOAD SWAP1 POP PUSH2 0x4EC DUP2 PUSH2 0x4C8 JUMP JUMPDEST SWAP3 SWAP2 POP POP JUMP JUMPDEST PUSH0 PUSH1 0x20 DUP3 DUP5 SUB SLT ISZERO PUSH2 0x507 JUMPI PUSH2 0x506 PUSH2 0x272 JUMP JUMPDEST JUMPDEST PUSH0 PUSH2 0x514 DUP5 DUP3 DUP6 ADD PUSH2 0x4DE JUMP JUMPDEST SWAP2 POP POP SWAP3 SWAP2 POP POP JUMP JUMPDEST PUSH32 0x4E487B7100000000000000000000000000000000000000000000000000000000 PUSH0 MSTORE PUSH1 0x22 PUSH1 0x4 MSTORE PUSH1 0x24 PUSH0 REVERT JUMPDEST PUSH0 PUSH1 0x2 DUP3 DIV SWAP1 POP PUSH1 0x1 DUP3 AND DUP1 PUSH2 0x561 JUMPI PUSH1 0x7F DUP3 AND SWAP2 POP JUMPDEST PUSH1 0x20 DUP3 LT DUP2 SUB PUSH2 0x574 JUMPI PUSH2 0x573 PUSH2 0x51D JUMP JUMPDEST JUMPDEST POP SWAP2 SWAP1 POP JUMP JUMPDEST PUSH0 DUP2 SWAP1 POP DUP2 PUSH0 MSTORE PUSH1 0x20 PUSH0 KECCAK256 SWAP1 POP SWAP2 SWAP1 POP JUMP JUMPDEST PUSH0 PUSH1 0x20 PUSH1 0x1F DUP4 ADD DIV SWAP1 POP SWAP2 SWAP1 POP JUMP JUMPDEST PUSH0 DUP3 DUP3 SHL SWAP1 POP SWAP3 SWAP2 POP POP JUMP JUMPDEST PUSH0 PUSH1 0x8 DUP4 MUL PUSH2 0x5D6 PUSH32 0xFFFFFFFFFFFFFFFFFFFFFFFFFFFFFFFFFFFFFFFFFFFFFFFFFFFFFFFFFFFFFFFF DUP3 PUSH2 0x59B JUMP JUMPDEST PUSH2 0x5E0 DUP7 DUP4 PUSH2 0x59B JUMP JUMPDEST SWAP6 POP DUP1 NOT DUP5 AND SWAP4 POP DUP1 DUP7 AND DUP5 OR SWAP3 POP POP POP SWAP4 SWAP3 POP POP POP JUMP JUMPDEST PUSH0 DUP2 SWAP1 POP SWAP2 SWAP1 POP JUMP JUMPDEST PUSH0 PUSH2 0x61B PUSH2 0x616 PUSH2 0x611 DUP5 PUSH2 0x3FD JUMP JUMPDEST PUSH2 0x5F8 JUMP JUMPDEST PUSH2 0x3FD JUMP JUMPDEST SWAP1 POP SWAP2 SWAP1 POP JUMP JUMPDEST PUSH0 DUP2 SWAP1 POP SWAP2 SWAP1 POP JUMP JUMPDEST PUSH2 0x634 DUP4 PUSH2 0x601 JUMP JUMPDEST PUSH2 0x648 PUSH2 0x640 DUP3 PUSH2 0x622 JUMP JUMPDEST DUP5 DUP5 SLOAD PUSH2 0x5A7 JUMP JUMPDEST DUP3 SSTORE POP POP POP POP JUMP JUMPDEST PUSH0 SWAP1 JUMP JUMPDEST PUSH2 0x65C PUSH2 0x650 JUMP JUMPDEST PUSH2 0x667 DUP2 DUP5 DUP5 PUSH2 0x62B JUMP JUMPDEST POP POP POP JUMP JUMPDEST JUMPDEST DUP2 DUP2 LT ISZERO PUSH2 0x68A JUMPI PUSH2 0x67F PUSH0 DUP3 PUSH2 0x654 JUMP JUMPDEST PUSH1 0x1 DUP2 ADD SWAP1 POP PUSH2 0x66D JUMP JUMPDEST POP POP JUMP JUMPDEST PUSH1 0x1F DUP3 GT ISZERO PUSH2 0x6CF JUMPI PUSH2 0x6A0 DUP2 PUSH2 0x57A JUMP JUMPDEST PUSH2 0x6A9 DUP5 PUSH2 0x58C JUMP JUMPDEST DUP2 ADD PUSH1 0x20 DUP6 LT ISZERO PUSH2 0x6B8 JUMPI DUP2 SWAP1 POP JUMPDEST PUSH2 0x6CC PUSH2 0x6C4 DUP6 PUSH2 0x58C JUMP JUMPDEST DUP4 ADD DUP3 PUSH2 0x66C JUMP JUMPDEST POP POP JUMPDEST POP POP POP JUMP JUMPDEST PUSH0 DUP3 DUP3 SHR SWAP1 POP SWAP3 SWAP2 POP POP JUMP JUMPDEST PUSH0 PUSH2 0x6EF PUSH0 NOT DUP5 PUSH1 0x8 MUL PUSH2 0x6D4 JUMP JUMPDEST NOT DUP1 DUP4 AND SWAP2 POP POP SWAP3 SWAP2 POP POP JUMP JUMPDEST PUSH0 PUSH2 0x707 DUP4 DUP4 PUSH2 0x6E0 JUMP JUMPDEST SWAP2 POP DUP3 PUSH1 0x2 MUL DUP3 OR SWAP1 POP SWAP3 SWAP2 POP POP JUMP JUMPDEST PUSH2 0x720 DUP3 PUSH2 0x42E JUMP JUMPDEST PUSH8 0xFFFFFFFFFFFFFFFF DUP2 GT ISZERO PUSH2 0x739 JUMPI PUSH2 0x738 PUSH2 0x292 JUMP JUMPDEST JUMPDEST PUSH2 0x743 DUP3 SLOAD PUSH2 0x54A JUMP JUMPDEST PUSH2 0x74E DUP3 DUP3 DUP6 PUSH2 0x68E JUMP JUMPDEST PUSH0 PUSH1 0x20 SWAP1 POP PUSH1 0x1F DUP4 GT PUSH1 0x1 DUP2 EQ PUSH2 0x77F JUMPI PUSH0 DUP5 ISZERO PUSH2 0x76D JUMPI DUP3 DUP8 ADD MLOAD SWAP1 POP JUMPDEST PUSH2 0x777 DUP6 DUP3 PUSH2 0x6FC JUMP JUMPDEST DUP7 SSTORE POP PUSH2 0x7DE JUMP JUMPDEST PUSH1 0x1F NOT DUP5 AND PUSH2 0x78D DUP7 PUSH2 0x57A JUMP JUMPDEST PUSH0 JUMPDEST DUP3 DUP2 LT ISZERO PUSH2 0x7B4 JUMPI DUP5 DUP10 ADD MLOAD DUP3 SSTORE PUSH1 0x1 DUP3 ADD SWAP2 POP PUSH1 0x20 DUP6 ADD SWAP5 POP PUSH1 0x20 DUP2 ADD SWAP1 POP PUSH2 0x78F JUMP JUMPDEST DUP7 DUP4 LT ISZERO PUSH2 0x7D1 JUMPI DUP5 DUP10 ADD MLOAD PUSH2 0x7CD PUSH1 0x1F DUP10 AND DUP3 PUSH2 0x6E0 JUMP JUMPDEST DUP4 SSTORE POP JUMPDEST PUSH1 0x1 PUSH1 0x2 DUP9 MUL ADD DUP9 SSTORE POP POP POP JUMPDEST POP POP POP POP POP POP JUMP INVALID LOG2 PUSH5 0x6970667358 0x22 SLT KECCAK256 DUP6 SHL REVERT LOG4 SELFDESTRUCT REVERT KECCAK256 PUSH29 0x6CA2D4CFB2FEB65CF20821B6D393D2C456708C68A9F5526B64736F6C63 NUMBER STOP ADDMOD XOR STOP CALLER "
				},
				"gasEstimates": {
					"creation": {
						"codeDepositCost": "415200",
						"executionCost": "infinite",
						"totalCost": "infinite"
					},
					"external": {
						"guardar_correo(string)": "infinite",
						"guardar_nombre(string)": "infinite",
						"guardar_telefono(uint256)": "22581",
						"leer_correo()": "infinite",
						"leer_nombre()": "infinite",
						"leer_telefono()": "2432"
					}
				},
				"methodIdentifiers": {
					"guardar_correo(string)": "178970b0",
					"guardar_nombre(string)": "3ddce779",
					"guardar_telefono(uint256)": "e5c97169",
					"leer_correo()": "bf7ec2b4",
					"leer_nombre()": "f1d9dbb0",
					"leer_telefono()": "2ce97e8c"
				}
			},
			"storageLayout": {
				"storage": [
					{
						"astId": 4,
						"contract": "libreta.sol:libreta",
						"label": "nombre",
						"offset": 0,
						"slot": "0",
						"type": "t_string_storage"
					},
					{
						"astId": 7,
						"contract": "libreta.sol:libreta",
						"label": "correo",
						"offset": 0,
						"slot": "1",
						"type": "t_string_storage"
					},
					{
						"astId": 10,
						"contract": "libreta.sol:libreta",
						"label": "telefono",
						"offset": 0,
						"slot": "2",
						"type": "t_uint256"
					}
				],
				"types": {
					"t_string_storage": {
						"encoding": "bytes",
						"label": "string",
						"numberOfBytes": "32"
					},
					"t_uint256": {
						"encoding": "inplace",
						"label": "uint256",
						"numberOfBytes": "32"
					}
				}
			},
			"userdoc": {
				"kind": "user",
				"methods": {},
				"version": 1
			}
		}
	}
}