{
	"Token_RY_flattened.sol": {
		"Reyes": {
			"abi": [
				{
					"inputs": [
						{
							"internalType": "address",
							"name": "initialOwner",
							"type": "address"
						}
					],
					"stateMutability": "nonpayable",
					"type": "constructor"
				},
				{
					"inputs": [],
					"name": "ECDSAInvalidSignature",
					"type": "error"
				},
				{
					"inputs": [
						{
							"internalType": "uint256",
							"name": "length",
							"type": "uint256"
						}
					],
					"name": "ECDSAInvalidSignatureLength",
					"type": "error"
				},
				{
					"inputs": [
						{
							"internalType": "bytes32",
							"name": "s",
							"type": "bytes32"
						}
					],
					"name": "ECDSAInvalidSignatureS",
					"type": "error"
				},
				{
					"inputs": [
						{
							"internalType": "address",
							"name": "spender",
							"type": "address"
						},
						{
							"internalType": "uint256",
							"name": "allowance",
							"type": "uint256"
						},
						{
							"internalType": "uint256",
							"name": "needed",
							"type": "uint256"
						}
					],
					"name": "ERC20InsufficientAllowance",
					"type": "error"
				},
				{
					"inputs": [
						{
							"internalType": "address",
							"name": "sender",
							"type": "address"
						},
						{
							"internalType": "uint256",
							"name": "balance",
							"type": "uint256"
						},
						{
							"internalType": "uint256",
							"name": "needed",
							"type": "uint256"
						}
					],
					"name": "ERC20InsufficientBalance",
					"type": "error"
				},
				{
					"inputs": [
						{
							"internalType": "address",
							"name": "approver",
							"type": "address"
						}
					],
					"name": "ERC20InvalidApprover",
					"type": "error"
				},
				{
					"inputs": [
						{
							"internalType": "address",
							"name": "receiver",
							"type": "address"
						}
					],
					"name": "ERC20InvalidReceiver",
					"type": "error"
				},
				{
					"inputs": [
						{
							"internalType": "address",
							"name": "sender",
							"type": "address"
						}
					],
					"name": "ERC20InvalidSender",
					"type": "error"
				},
				{
					"inputs": [
						{
							"internalType": "address",
							"name": "spender",
							"type": "address"
						}
					],
					"name": "ERC20InvalidSpender",
					"type": "error"
				},
				{
					"inputs": [
						{
							"internalType": "uint256",
							"name": "deadline",
							"type": "uint256"
						}
					],
					"name": "ERC2612ExpiredSignature",
					"type": "error"
				},
				{
					"inputs": [
						{
							"internalType": "address",
							"name": "signer",
							"type": "address"
						},
						{
							"internalType": "address",
							"name": "owner",
							"type": "address"
						}
					],
					"name": "ERC2612InvalidSigner",
					"type": "error"
				},
				{
					"inputs": [
						{
							"internalType": "address",
							"name": "account",
							"type": "address"
						},
						{
							"internalType": "uint256",
							"name": "currentNonce",
							"type": "uint256"
						}
					],
					"name": "InvalidAccountNonce",
					"type": "error"
				},
				{
					"inputs": [],
					"name": "InvalidShortString",
					"type": "error"
				},
				{
					"inputs": [
						{
							"internalType": "address",
							"name": "owner",
							"type": "address"
						}
					],
					"name": "OwnableInvalidOwner",
					"type": "error"
				},
				{
					"inputs": [
						{
							"internalType": "address",
							"name": "account",
							"type": "address"
						}
					],
					"name": "OwnableUnauthorizedAccount",
					"type": "error"
				},
				{
					"inputs": [
						{
							"internalType": "string",
							"name": "str",
							"type": "string"
						}
					],
					"name": "StringTooLong",
					"type": "error"
				},
				{
					"anonymous": false,
					"inputs": [
						{
							"indexed": true,
							"internalType": "address",
							"name": "owner",
							"type": "address"
						},
						{
							"indexed": true,
							"internalType": "address",
							"name": "spender",
							"type": "address"
						},
						{
							"indexed": false,
							"internalType": "uint256",
							"name": "value",
							"type": "uint256"
						}
					],
					"name": "Approval",
					"type": "event"
				},
				{
					"anonymous": false,
					"inputs": [],
					"name": "EIP712DomainChanged",
					"type": "event"
				},
				{
					"anonymous": false,
					"inputs": [
						{
							"indexed": true,
							"internalType": "address",
							"name": "previousOwner",
							"type": "address"
						},
						{
							"indexed": true,
							"internalType": "address",
							"name": "newOwner",
							"type": "address"
						}
					],
					"name": "OwnershipTransferred",
					"type": "event"
				},
				{
					"anonymous": false,
					"inputs": [
						{
							"indexed": true,
							"internalType": "address",
							"name": "from",
							"type": "address"
						},
						{
							"indexed": true,
							"internalType": "address",
							"name": "to",
							"type": "address"
						},
						{
							"indexed": false,
							"internalType": "uint256",
							"name": "value",
							"type": "uint256"
						}
					],
					"name": "Transfer",
					"type": "event"
				},
				{
					"inputs": [],
					"name": "DOMAIN_SEPARATOR",
					"outputs": [
						{
							"internalType": "bytes32",
							"name": "",
							"type": "bytes32"
						}
					],
					"stateMutability": "view",
					"type": "function"
				},
				{
					"inputs": [
						{
							"internalType": "address",
							"name": "owner",
							"type": "address"
						},
						{
							"internalType": "address",
							"name": "spender",
							"type": "address"
						}
					],
					"name": "allowance",
					"outputs": [
						{
							"internalType": "uint256",
							"name": "",
							"type": "uint256"
						}
					],
					"stateMutability": "view",
					"type": "function"
				},
				{
					"inputs": [
						{
							"internalType": "address",
							"name": "spender",
							"type": "address"
						},
						{
							"internalType": "uint256",
							"name": "value",
							"type": "uint256"
						}
					],
					"name": "approve",
					"outputs": [
						{
							"internalType": "bool",
							"name": "",
							"type": "bool"
						}
					],
					"stateMutability": "nonpayable",
					"type": "function"
				},
				{
					"inputs": [
						{
							"internalType": "address",
							"name": "account",
							"type": "address"
						}
					],
					"name": "balanceOf",
					"outputs": [
						{
							"internalType": "uint256",
							"name": "",
							"type": "uint256"
						}
					],
					"stateMutability": "view",
					"type": "function"
				},
				{
					"inputs": [],
					"name": "decimals",
					"outputs": [
						{
							"internalType": "uint8",
							"name": "",
							"type": "uint8"
						}
					],
					"stateMutability": "view",
					"type": "function"
				},
				{
					"inputs": [],
					"name": "eip712Domain",
					"outputs": [
						{
							"internalType": "bytes1",
							"name": "fields",
							"type": "bytes1"
						},
						{
							"internalType": "string",
							"name": "name",
							"type": "string"
						},
						{
							"internalType": "string",
							"name": "version",
							"type": "string"
						},
						{
							"internalType": "uint256",
							"name": "chainId",
							"type": "uint256"
						},
						{
							"internalType": "address",
							"name": "verifyingContract",
							"type": "address"
						},
						{
							"internalType": "bytes32",
							"name": "salt",
							"type": "bytes32"
						},
						{
							"internalType": "uint256[]",
							"name": "extensions",
							"type": "uint256[]"
						}
					],
					"stateMutability": "view",
					"type": "function"
				},
				{
					"inputs": [
						{
							"internalType": "address",
							"name": "to",
							"type": "address"
						},
						{
							"internalType": "uint256",
							"name": "amount",
							"type": "uint256"
						}
					],
					"name": "mint",
					"outputs": [],
					"stateMutability": "nonpayable",
					"type": "function"
				},
				{
					"inputs": [],
					"name": "name",
					"outputs": [
						{
							"internalType": "string",
							"name": "",
							"type": "string"
						}
					],
					"stateMutability": "view",
					"type": "function"
				},
				{
					"inputs": [
						{
							"internalType": "address",
							"name": "owner",
							"type": "address"
						}
					],
					"name": "nonces",
					"outputs": [
						{
							"internalType": "uint256",
							"name": "",
							"type": "uint256"
						}
					],
					"stateMutability": "view",
					"type": "function"
				},
				{
					"inputs": [],
					"name": "owner",
					"outputs": [
						{
							"internalType": "address",
							"name": "",
							"type": "address"
						}
					],
					"stateMutability": "view",
					"type": "function"
				},
				{
					"inputs": [
						{
							"internalType": "address",
							"name": "owner",
							"type": "address"
						},
						{
							"internalType": "address",
							"name": "spender",
							"type": "address"
						},
						{
							"internalType": "uint256",
							"name": "value",
							"type": "uint256"
						},
						{
							"internalType": "uint256",
							"name": "deadline",
							"type": "uint256"
						},
						{
							"internalType": "uint8",
							"name": "v",
							"type": "uint8"
						},
						{
							"internalType": "bytes32",
							"name": "r",
							"type": "bytes32"
						},
						{
							"internalType": "bytes32",
							"name": "s",
							"type": "bytes32"
						}
					],
					"name": "permit",
					"outputs": [],
					"stateMutability": "nonpayable",
					"type": "function"
				},
				{
					"inputs": [],
					"name": "renounceOwnership",
					"outputs": [],
					"stateMutability": "nonpayable",
					"type": "function"
				},
				{
					"inputs": [],
					"name": "symbol",
					"outputs": [
						{
							"internalType": "string",
							"name": "",
							"type": "string"
						}
					],
					"stateMutability": "view",
					"type": "function"
				},
				{
					"inputs": [],
					"name": "totalSupply",
					"outputs": [
						{
							"internalType": "uint256",
							"name": "",
							"type": "uint256"
						}
					],
					"stateMutability": "view",
					"type": "function"
				},
				{
					"inputs": [
						{
							"internalType": "address",
							"name": "to",
							"type": "address"
						},
						{
							"internalType": "uint256",
							"name": "value",
							"type": "uint256"
						}
					],
					"name": "transfer",
					"outputs": [
						{
							"internalType": "bool",
							"name": "",
							"type": "bool"
						}
					],
					"stateMutability": "nonpayable",
					"type": "function"
				},
				{
					"inputs": [
						{
							"internalType": "address",
							"name": "from",
							"type": "address"
						},
						{
							"internalType": "address",
							"name": "to",
							"type": "address"
						},
						{
							"internalType": "uint256",
							"name": "value",
							"type": "uint256"
						}
					],
					"name": "transferFrom",
					"outputs": [
						{
							"internalType": "bool",
							"name": "",
							"type": "bool"
						}
					],
					"stateMutability": "nonpayable",
					"type": "function"
				},
				{
					"inputs": [
						{
							"internalType": "address",
							"name": "newOwner",
							"type": "address"
						}
					],
					"name": "transferOwnership",
					"outputs": [],
					"stateMutability": "nonpayable",
					"type": "function"
				}
			],
			"devdoc": {
				"custom:security-contact": "orc@org.com",
				"errors": {
					"ECDSAInvalidSignature()": [
						{
							"details": "The signature derives the `address(0)`."
						}
					],
					"ECDSAInvalidSignatureLength(uint256)": [
						{
							"details": "The signature has an invalid length."
						}
					],
					"ECDSAInvalidSignatureS(bytes32)": [
						{
							"details": "The signature has an S value that is in the upper half order."
						}
					],
					"ERC20InsufficientAllowance(address,uint256,uint256)": [
						{
							"details": "Indicates a failure with the `spender`’s `allowance`. Used in transfers.",
							"params": {
								"allowance": "Amount of tokens a `spender` is allowed to operate with.",
								"needed": "Minimum amount required to perform a transfer.",
								"spender": "Address that may be allowed to operate on tokens without being their owner."
							}
						}
					],
					"ERC20InsufficientBalance(address,uint256,uint256)": [
						{
							"details": "Indicates an error related to the current `balance` of a `sender`. Used in transfers.",
							"params": {
								"balance": "Current balance for the interacting account.",
								"needed": "Minimum amount required to perform a transfer.",
								"sender": "Address whose tokens are being transferred."
							}
						}
					],
					"ERC20InvalidApprover(address)": [
						{
							"details": "Indicates a failure with the `approver` of a token to be approved. Used in approvals.",
							"params": {
								"approver": "Address initiating an approval operation."
							}
						}
					],
					"ERC20InvalidReceiver(address)": [
						{
							"details": "Indicates a failure with the token `receiver`. Used in transfers.",
							"params": {
								"receiver": "Address to which tokens are being transferred."
							}
						}
					],
					"ERC20InvalidSender(address)": [
						{
							"details": "Indicates a failure with the token `sender`. Used in transfers.",
							"params": {
								"sender": "Address whose tokens are being transferred."
							}
						}
					],
					"ERC20InvalidSpender(address)": [
						{
							"details": "Indicates a failure with the `spender` to be approved. Used in approvals.",
							"params": {
								"spender": "Address that may be allowed to operate on tokens without being their owner."
							}
						}
					],
					"ERC2612ExpiredSignature(uint256)": [
						{
							"details": "Permit deadline has expired."
						}
					],
					"ERC2612InvalidSigner(address,address)": [
						{
							"details": "Mismatched signature."
						}
					],
					"InvalidAccountNonce(address,uint256)": [
						{
							"details": "The nonce used for an `account` is not the expected current nonce."
						}
					],
					"OwnableInvalidOwner(address)": [
						{
							"details": "The owner is not a valid owner account. (eg. `address(0)`)"
						}
					],
					"OwnableUnauthorizedAccount(address)": [
						{
							"details": "The caller account is not authorized to perform an operation."
						}
					]
				},
				"events": {
					"Approval(address,address,uint256)": {
						"details": "Emitted when the allowance of a `spender` for an `owner` is set by a call to {approve}. `value` is the new allowance."
					},
					"EIP712DomainChanged()": {
						"details": "MAY be emitted to signal that the domain could have changed."
					},
					"Transfer(address,address,uint256)": {
						"details": "Emitted when `value` tokens are moved from one account (`from`) to another (`to`). Note that `value` may be zero."
					}
				},
				"kind": "dev",
				"methods": {
					"DOMAIN_SEPARATOR()": {
						"details": "Returns the domain separator used in the encoding of the signature for {permit}, as defined by {EIP712}."
					},
					"allowance(address,address)": {
						"details": "See {IERC20-allowance}."
					},
					"approve(address,uint256)": {
						"details": "See {IERC20-approve}. NOTE: If `value` is the maximum `uint256`, the allowance is not updated on `transferFrom`. This is semantically equivalent to an infinite approval. Requirements: - `spender` cannot be the zero address."
					},
					"balanceOf(address)": {
						"details": "See {IERC20-balanceOf}."
					},
					"decimals()": {
						"details": "Returns the number of decimals used to get its user representation. For example, if `decimals` equals `2`, a balance of `505` tokens should be displayed to a user as `5.05` (`505 / 10 ** 2`). Tokens usually opt for a value of 18, imitating the relationship between Ether and Wei. This is the default value returned by this function, unless it's overridden. NOTE: This information is only used for _display_ purposes: it in no way affects any of the arithmetic of the contract, including {IERC20-balanceOf} and {IERC20-transfer}."
					},
					"eip712Domain()": {
						"details": "See {IERC-5267}."
					},
					"name()": {
						"details": "Returns the name of the token."
					},
					"nonces(address)": {
						"details": "Returns the current nonce for `owner`. This value must be included whenever a signature is generated for {permit}. Every successful call to {permit} increases ``owner``'s nonce by one. This prevents a signature from being used multiple times."
					},
					"owner()": {
						"details": "Returns the address of the current owner."
					},
					"permit(address,address,uint256,uint256,uint8,bytes32,bytes32)": {
						"details": "Sets `value` as the allowance of `spender` over ``owner``'s tokens, given ``owner``'s signed approval. IMPORTANT: The same issues {IERC20-approve} has related to transaction ordering also apply here. Emits an {Approval} event. Requirements: - `spender` cannot be the zero address. - `deadline` must be a timestamp in the future. - `v`, `r` and `s` must be a valid `secp256k1` signature from `owner` over the EIP712-formatted function arguments. - the signature must use ``owner``'s current nonce (see {nonces}). For more information on the signature format, see the https://eips.ethereum.org/EIPS/eip-2612#specification[relevant EIP section]. CAUTION: See Security Considerations above."
					},
					"renounceOwnership()": {
						"details": "Leaves the contract without owner. It will not be possible to call `onlyOwner` functions. Can only be called by the current owner. NOTE: Renouncing ownership will leave the contract without an owner, thereby disabling any functionality that is only available to the owner."
					},
					"symbol()": {
						"details": "Returns the symbol of the token, usually a shorter version of the name."
					},
					"totalSupply()": {
						"details": "See {IERC20-totalSupply}."
					},
					"transfer(address,uint256)": {
						"details": "See {IERC20-transfer}. Requirements: - `to` cannot be the zero address. - the caller must have a balance of at least `value`."
					},
					"transferFrom(address,address,uint256)": {
						"details": "See {IERC20-transferFrom}. Emits an {Approval} event indicating the updated allowance. This is not required by the EIP. See the note at the beginning of {ERC20}. NOTE: Does not update the allowance if the current allowance is the maximum `uint256`. Requirements: - `from` and `to` cannot be the zero address. - `from` must have a balance of at least `value`. - the caller must have allowance for ``from``'s tokens of at least `value`."
					},
					"transferOwnership(address)": {
						"details": "Transfers ownership of the contract to a new account (`newOwner`). Can only be called by the current owner."
					}
				},
				"version": 1
			},
			"evm": {
				"assembly": "    /* \"Token_RY_flattened.sol\":79653:79991  contract Reyes is ERC20, Ownable, ERC20Permit {... */\n  mstore(0x40, 0x0160)\n    /* \"Token_RY_flattened.sol\":79705:79890  constructor(address initialOwner)... */\n  callvalue\n  dup1\n  iszero\n  tag_1\n  jumpi\n  0x00\n  dup1\n  revert\ntag_1:\n  pop\n  mload(0x40)\n  sub(codesize, bytecodeSize)\n  dup1\n  bytecodeSize\n  dup4\n  codecopy\n  dup2\n  dup2\n  add\n  0x40\n  mstore\n  dup2\n  add\n  swap1\n  tag_2\n  swap2\n  swap1\n  tag_3\n  jump\t// in\ntag_2:\n    /* \"Token_RY_flattened.sol\":78312:78364  constructor(string memory name) EIP712(name, \"1\") {} */\n  mload(0x40)\n  dup1\n  0x40\n  add\n  0x40\n  mstore\n  dup1\n  0x05\n  dup2\n  mstore\n  0x20\n  add\n  0x5265796573000000000000000000000000000000000000000000000000000000\n  dup2\n  mstore\n  pop\n    /* \"Token_RY_flattened.sol\":78351:78355  name */\n  dup1\n    /* \"Token_RY_flattened.sol\":72156:72587  constructor(string memory name, string memory version) {... */\n  mload(0x40)\n  dup1\n  0x40\n  add\n  0x40\n  mstore\n  dup1\n  0x01\n  dup2\n  mstore\n  0x20\n  add\n  0x3100000000000000000000000000000000000000000000000000000000000000\n  dup2\n  mstore\n  pop\n    /* \"Token_RY_flattened.sol\":79784:79796  initialOwner */\n  dup4\n    /* \"Token_RY_flattened.sol\":12787:12900  constructor(string memory name_, string memory symbol_) {... */\n  mload(0x40)\n  dup1\n  0x40\n  add\n  0x40\n  mstore\n  dup1\n  0x05\n  dup2\n  mstore\n  0x20\n  add\n  0x5265796573000000000000000000000000000000000000000000000000000000\n  dup2\n  mstore\n  pop\n  mload(0x40)\n  dup1\n  0x40\n  add\n  0x40\n  mstore\n  dup1\n  0x02\n  dup2\n  mstore\n  0x20\n  add\n  0x5259000000000000000000000000000000000000000000000000000000000000\n  dup2\n  mstore\n  pop\n    /* \"Token_RY_flattened.sol\":12861:12866  name_ */\n  dup2\n    /* \"Token_RY_flattened.sol\":12853:12858  _name */\n  0x03\n    /* \"Token_RY_flattened.sol\":12853:12866  _name = name_ */\n  swap1\n  dup2\n  tag_10\n  swap2\n  swap1\n  tag_11\n  jump\t// in\ntag_10:\n  pop\n    /* \"Token_RY_flattened.sol\":12886:12893  symbol_ */\n  dup1\n    /* \"Token_RY_flattened.sol\":12876:12883  _symbol */\n  0x04\n    /* \"Token_RY_flattened.sol\":12876:12893  _symbol = symbol_ */\n  swap1\n  dup2\n  tag_12\n  swap2\n  swap1\n  tag_11\n  jump\t// in\ntag_12:\n  pop\n    /* \"Token_RY_flattened.sol\":12787:12900  constructor(string memory name_, string memory symbol_) {... */\n  pop\n  pop\n    /* \"Token_RY_flattened.sol\":23308:23309  0 */\n  0x00\n    /* \"Token_RY_flattened.sol\":23284:23310  initialOwner == address(0) */\n  0xffffffffffffffffffffffffffffffffffffffff\n  and\n    /* \"Token_RY_flattened.sol\":23284:23296  initialOwner */\n  dup2\n    /* \"Token_RY_flattened.sol\":23284:23310  initialOwner == address(0) */\n  0xffffffffffffffffffffffffffffffffffffffff\n  and\n  sub\n    /* \"Token_RY_flattened.sol\":23280:23375  if (initialOwner == address(0)) {... */\n  tag_14\n  jumpi\n    /* \"Token_RY_flattened.sol\":23361:23362  0 */\n  0x00\n    /* \"Token_RY_flattened.sol\":23333:23364  OwnableInvalidOwner(address(0)) */\n  mload(0x40)\n  0x1e4fbdf700000000000000000000000000000000000000000000000000000000\n  dup2\n  mstore\n  0x04\n  add\n  tag_15\n  swap2\n  swap1\n  tag_16\n  jump\t// in\ntag_15:\n  mload(0x40)\n  dup1\n  swap2\n  sub\n  swap1\n  revert\n    /* \"Token_RY_flattened.sol\":23280:23375  if (initialOwner == address(0)) {... */\ntag_14:\n    /* \"Token_RY_flattened.sol\":23384:23416  _transferOwnership(initialOwner) */\n  tag_17\n    /* \"Token_RY_flattened.sol\":23403:23415  initialOwner */\n  dup2\n    /* \"Token_RY_flattened.sol\":23384:23402  _transferOwnership */\n  shl(0x20, tag_18)\n    /* \"Token_RY_flattened.sol\":23384:23416  _transferOwnership(initialOwner) */\n  0x20\n  shr\n  jump\t// in\ntag_17:\n    /* \"Token_RY_flattened.sol\":23236:23423  constructor(address initialOwner) {... */\n  pop\n    /* \"Token_RY_flattened.sol\":72229:72274  name.toShortStringWithFallback(_nameFallback) */\n  tag_20\n    /* \"Token_RY_flattened.sol\":72260:72273  _nameFallback */\n  0x06\n    /* \"Token_RY_flattened.sol\":72229:72233  name */\n  dup4\n    /* \"Token_RY_flattened.sol\":72229:72259  name.toShortStringWithFallback */\n  shl(0x20, tag_21)\n  swap1\n    /* \"Token_RY_flattened.sol\":72229:72274  name.toShortStringWithFallback(_nameFallback) */\n  swap2\n  swap1\n  0x20\n  shr\n  jump\t// in\ntag_20:\n    /* \"Token_RY_flattened.sol\":72221:72274  _name = name.toShortStringWithFallback(_nameFallback) */\n  0x0120\n  dup2\n  dup2\n  mstore\n  pop\n  pop\n    /* \"Token_RY_flattened.sol\":72295:72346  version.toShortStringWithFallback(_versionFallback) */\n  tag_22\n    /* \"Token_RY_flattened.sol\":72329:72345  _versionFallback */\n  0x07\n    /* \"Token_RY_flattened.sol\":72295:72302  version */\n  dup3\n    /* \"Token_RY_flattened.sol\":72295:72328  version.toShortStringWithFallback */\n  shl(0x20, tag_21)\n  swap1\n    /* \"Token_RY_flattened.sol\":72295:72346  version.toShortStringWithFallback(_versionFallback) */\n  swap2\n  swap1\n  0x20\n  shr\n  jump\t// in\ntag_22:\n    /* \"Token_RY_flattened.sol\":72284:72346  _version = version.toShortStringWithFallback(_versionFallback) */\n  0x0140\n  dup2\n  dup2\n  mstore\n  pop\n  pop\n    /* \"Token_RY_flattened.sol\":72386:72390  name */\n  dup2\n    /* \"Token_RY_flattened.sol\":72370:72392  keccak256(bytes(name)) */\n  dup1\n  mload\n  swap1\n  0x20\n  add\n  keccak256\n    /* \"Token_RY_flattened.sol\":72356:72392  _hashedName = keccak256(bytes(name)) */\n  0xe0\n  dup2\n  dup2\n  mstore\n  pop\n  pop\n    /* \"Token_RY_flattened.sol\":72435:72442  version */\n  dup1\n    /* \"Token_RY_flattened.sol\":72419:72444  keccak256(bytes(version)) */\n  dup1\n  mload\n  swap1\n  0x20\n  add\n  keccak256\n    /* \"Token_RY_flattened.sol\":72402:72444  _hashedVersion = keccak256(bytes(version)) */\n  0x0100\n  dup2\n  dup2\n  mstore\n  pop\n  pop\n    /* \"Token_RY_flattened.sol\":72472:72485  block.chainid */\n  chainid\n    /* \"Token_RY_flattened.sol\":72455:72485  _cachedChainId = block.chainid */\n  0xa0\n  dup2\n  dup2\n  mstore\n  pop\n  pop\n    /* \"Token_RY_flattened.sol\":72520:72543  _buildDomainSeparator() */\n  tag_23\n    /* \"Token_RY_flattened.sol\":72520:72541  _buildDomainSeparator */\n  shl(0x20, tag_24)\n    /* \"Token_RY_flattened.sol\":72520:72543  _buildDomainSeparator() */\n  0x20\n  shr\n  jump\t// in\ntag_23:\n    /* \"Token_RY_flattened.sol\":72495:72543  _cachedDomainSeparator = _buildDomainSeparator() */\n  0x80\n  dup2\n  dup2\n  mstore\n  pop\n  pop\n    /* \"Token_RY_flattened.sol\":72575:72579  this */\n  address\n    /* \"Token_RY_flattened.sol\":72553:72580  _cachedThis = address(this) */\n  0xffffffffffffffffffffffffffffffffffffffff\n  and\n  0xc0\n  dup2\n  0xffffffffffffffffffffffffffffffffffffffff\n  and\n  dup2\n  mstore\n  pop\n  pop\n    /* \"Token_RY_flattened.sol\":72156:72587  constructor(string memory name, string memory version) {... */\n  pop\n  pop\n    /* \"Token_RY_flattened.sol\":78312:78364  constructor(string memory name) EIP712(name, \"1\") {} */\n  pop\n    /* \"Token_RY_flattened.sol\":79841:79883  _mint(msg.sender, 1000 * 10 ** decimals()) */\n  tag_27\n    /* \"Token_RY_flattened.sol\":79847:79857  msg.sender */\n  caller\n    /* \"Token_RY_flattened.sol\":79872:79882  decimals() */\n  tag_28\n    /* \"Token_RY_flattened.sol\":79872:79880  decimals */\n  shl(0x20, tag_29)\n    /* \"Token_RY_flattened.sol\":79872:79882  decimals() */\n  0x20\n  shr\n  jump\t// in\ntag_28:\n    /* \"Token_RY_flattened.sol\":79866:79868  10 */\n  0x0a\n    /* \"Token_RY_flattened.sol\":79866:79882  10 ** decimals() */\n  tag_30\n  swap2\n  swap1\n  tag_31\n  jump\t// in\ntag_30:\n    /* \"Token_RY_flattened.sol\":79859:79863  1000 */\n  0x03e8\n    /* \"Token_RY_flattened.sol\":79859:79882  1000 * 10 ** decimals() */\n  tag_32\n  swap2\n  swap1\n  tag_33\n  jump\t// in\ntag_32:\n    /* \"Token_RY_flattened.sol\":79841:79846  _mint */\n  shl(0x20, tag_34)\n    /* \"Token_RY_flattened.sol\":79841:79883  _mint(msg.sender, 1000 * 10 ** decimals()) */\n  0x20\n  shr\n  jump\t// in\ntag_27:\n    /* \"Token_RY_flattened.sol\":79705:79890  constructor(address initialOwner)... */\n  pop\n    /* \"Token_RY_flattened.sol\":79653:79991  contract Reyes is ERC20, Ownable, ERC20Permit {... */\n  jump(tag_35)\n    /* \"Token_RY_flattened.sol\":24923:25110  function _transferOwnership(address newOwner) internal virtual {... */\ntag_18:\n    /* \"Token_RY_flattened.sol\":24996:25012  address oldOwner */\n  0x00\n    /* \"Token_RY_flattened.sol\":25015:25021  _owner */\n  0x05\n  0x00\n  swap1\n  sload\n  swap1\n  0x0100\n  exp\n  swap1\n  div\n  0xffffffffffffffffffffffffffffffffffffffff\n  and\n    /* \"Token_RY_flattened.sol\":24996:25021  address oldOwner = _owner */\n  swap1\n  pop\n    /* \"Token_RY_flattened.sol\":25040:25048  newOwner */\n  dup2\n    /* \"Token_RY_flattened.sol\":25031:25037  _owner */\n  0x05\n  0x00\n    /* \"Token_RY_flattened.sol\":25031:25048  _owner = newOwner */\n  0x0100\n  exp\n  dup2\n  sload\n  dup2\n  0xffffffffffffffffffffffffffffffffffffffff\n  mul\n  not\n  and\n  swap1\n  dup4\n  0xffffffffffffffffffffffffffffffffffffffff\n  and\n  mul\n  or\n  swap1\n  sstore\n  pop\n    /* \"Token_RY_flattened.sol\":25094:25102  newOwner */\n  dup2\n    /* \"Token_RY_flattened.sol\":25063:25103  OwnershipTransferred(oldOwner, newOwner) */\n  0xffffffffffffffffffffffffffffffffffffffff\n  and\n    /* \"Token_RY_flattened.sol\":25084:25092  oldOwner */\n  dup2\n    /* \"Token_RY_flattened.sol\":25063:25103  OwnershipTransferred(oldOwner, newOwner) */\n  0xffffffffffffffffffffffffffffffffffffffff\n  and\n  0x8be0079c531659141344cd1fd0a4f28419497f9722a3daafe3b4186f6b6457e0\n  mload(0x40)\n  mload(0x40)\n  dup1\n  swap2\n  sub\n  swap1\n  log3\n    /* \"Token_RY_flattened.sol\":24986:25110  {... */\n  pop\n    /* \"Token_RY_flattened.sol\":24923:25110  function _transferOwnership(address newOwner) internal virtual {... */\n  pop\n  jump\t// out\n    /* \"Token_RY_flattened.sol\":66806:67146  function toShortStringWithFallback(string memory value, string storage store) internal returns (ShortString) {... */\ntag_21:\n    /* \"Token_RY_flattened.sol\":66902:66913  ShortString */\n  0x00\n    /* \"Token_RY_flattened.sol\":66951:66953  32 */\n  0x20\n    /* \"Token_RY_flattened.sol\":66935:66940  value */\n  dup4\n    /* \"Token_RY_flattened.sol\":66929:66948  bytes(value).length */\n  mload\n    /* \"Token_RY_flattened.sol\":66929:66953  bytes(value).length < 32 */\n  lt\n    /* \"Token_RY_flattened.sol\":66925:67140  if (bytes(value).length < 32) {... */\n  iszero\n  tag_38\n  jumpi\n    /* \"Token_RY_flattened.sol\":66976:66996  toShortString(value) */\n  tag_39\n    /* \"Token_RY_flattened.sol\":66990:66995  value */\n  dup4\n    /* \"Token_RY_flattened.sol\":66976:66989  toShortString */\n  shl(0x20, tag_40)\n    /* \"Token_RY_flattened.sol\":66976:66996  toShortString(value) */\n  0x20\n  shr\n  jump\t// in\ntag_39:\n    /* \"Token_RY_flattened.sol\":66969:66996  return toShortString(value) */\n  swap1\n  pop\n  jump(tag_37)\n    /* \"Token_RY_flattened.sol\":66925:67140  if (bytes(value).length < 32) {... */\ntag_38:\n    /* \"Token_RY_flattened.sol\":67068:67073  value */\n  dup3\n    /* \"Token_RY_flattened.sol\":67027:67059  StorageSlot.getStringSlot(store) */\n  tag_42\n    /* \"Token_RY_flattened.sol\":67053:67058  store */\n  dup4\n    /* \"Token_RY_flattened.sol\":67027:67052  StorageSlot.getStringSlot */\n  shl(0x20, tag_43)\n    /* \"Token_RY_flattened.sol\":67027:67059  StorageSlot.getStringSlot(store) */\n  0x20\n  shr\n  jump\t// in\ntag_42:\n    /* \"Token_RY_flattened.sol\":67027:67065  StorageSlot.getStringSlot(store).value */\n  0x00\n  add\n    /* \"Token_RY_flattened.sol\":67027:67073  StorageSlot.getStringSlot(store).value = value */\n  swap1\n  dup2\n  tag_44\n  swap2\n  swap1\n  tag_11\n  jump\t// in\ntag_44:\n  pop\n    /* \"Token_RY_flattened.sol\":65282:65348  0x00000000000000000000000000000000000000000000000000000000000000FF */\n  0xff\n    /* \"Token_RY_flattened.sol\":67111:67128  FALLBACK_SENTINEL */\n  0x00\n  shl\n    /* \"Token_RY_flattened.sol\":67087:67129  return ShortString.wrap(FALLBACK_SENTINEL) */\n  swap1\n  pop\n    /* \"Token_RY_flattened.sol\":66806:67146  function toShortStringWithFallback(string memory value, string storage store) internal returns (ShortString) {... */\ntag_37:\n  swap3\n  swap2\n  pop\n  pop\n  jump\t// out\n    /* \"Token_RY_flattened.sol\":72941:73120  function _buildDomainSeparator() private view returns (bytes32) {... */\ntag_24:\n    /* \"Token_RY_flattened.sol\":72996:73003  bytes32 */\n  0x00\n    /* \"Token_RY_flattened.sol\":70907:71002  keccak256(\"EIP712Domain(string name,string version,uint256 chainId,address verifyingContract)\") */\n  0x8b73c3c69bb8fe3d512ecc4cf759cc79239f7b179b0ffacaa9a75d522b39400f\n    /* \"Token_RY_flattened.sol\":73054:73065  _hashedName */\n  mload(0xe0)\n    /* \"Token_RY_flattened.sol\":73067:73081  _hashedVersion */\n  mload(0x0100)\n    /* \"Token_RY_flattened.sol\":73083:73096  block.chainid */\n  chainid\n    /* \"Token_RY_flattened.sol\":73106:73110  this */\n  address\n    /* \"Token_RY_flattened.sol\":73032:73112  abi.encode(TYPE_HASH, _hashedName, _hashedVersion, block.chainid, address(this)) */\n  add(0x20, mload(0x40))\n  tag_46\n  swap6\n  swap5\n  swap4\n  swap3\n  swap2\n  swap1\n  tag_47\n  jump\t// in\ntag_46:\n  mload(0x40)\n  0x20\n  dup2\n  dup4\n  sub\n  sub\n  dup2\n  mstore\n  swap1\n  0x40\n  mstore\n    /* \"Token_RY_flattened.sol\":73022:73113  keccak256(abi.encode(TYPE_HASH, _hashedName, _hashedVersion, block.chainid, address(this))) */\n  dup1\n  mload\n  swap1\n  0x20\n  add\n  keccak256\n    /* \"Token_RY_flattened.sol\":73015:73113  return keccak256(abi.encode(TYPE_HASH, _hashedName, _hashedVersion, block.chainid, address(this))) */\n  swap1\n  pop\n    /* \"Token_RY_flattened.sol\":72941:73120  function _buildDomainSeparator() private view returns (bytes32) {... */\n  swap1\n  jump\t// out\n    /* \"Token_RY_flattened.sol\":13893:13975  function decimals() public view virtual returns (uint8) {... */\ntag_29:\n    /* \"Token_RY_flattened.sol\":13942:13947  uint8 */\n  0x00\n    /* \"Token_RY_flattened.sol\":13966:13968  18 */\n  0x12\n    /* \"Token_RY_flattened.sol\":13959:13968  return 18 */\n  swap1\n  pop\n    /* \"Token_RY_flattened.sol\":13893:13975  function decimals() public view virtual returns (uint8) {... */\n  swap1\n  jump\t// out\n    /* \"Token_RY_flattened.sol\":18612:18820  function _mint(address account, uint256 value) internal {... */\ntag_34:\n    /* \"Token_RY_flattened.sol\":18701:18702  0 */\n  0x00\n    /* \"Token_RY_flattened.sol\":18682:18703  account == address(0) */\n  0xffffffffffffffffffffffffffffffffffffffff\n  and\n    /* \"Token_RY_flattened.sol\":18682:18689  account */\n  dup3\n    /* \"Token_RY_flattened.sol\":18682:18703  account == address(0) */\n  0xffffffffffffffffffffffffffffffffffffffff\n  and\n  sub\n    /* \"Token_RY_flattened.sol\":18678:18769  if (account == address(0)) {... */\n  tag_50\n  jumpi\n    /* \"Token_RY_flattened.sol\":18755:18756  0 */\n  0x00\n    /* \"Token_RY_flattened.sol\":18726:18758  ERC20InvalidReceiver(address(0)) */\n  mload(0x40)\n  0xec442f0500000000000000000000000000000000000000000000000000000000\n  dup2\n  mstore\n  0x04\n  add\n  tag_51\n  swap2\n  swap1\n  tag_16\n  jump\t// in\ntag_51:\n  mload(0x40)\n  dup1\n  swap2\n  sub\n  swap1\n  revert\n    /* \"Token_RY_flattened.sol\":18678:18769  if (account == address(0)) {... */\ntag_50:\n    /* \"Token_RY_flattened.sol\":18778:18813  _update(address(0), account, value) */\n  tag_52\n    /* \"Token_RY_flattened.sol\":18794:18795  0 */\n  0x00\n    /* \"Token_RY_flattened.sol\":18798:18805  account */\n  dup4\n    /* \"Token_RY_flattened.sol\":18807:18812  value */\n  dup4\n    /* \"Token_RY_flattened.sol\":18778:18785  _update */\n  shl(0x20, tag_53)\n    /* \"Token_RY_flattened.sol\":18778:18813  _update(address(0), account, value) */\n  0x20\n  shr\n  jump\t// in\ntag_52:\n    /* \"Token_RY_flattened.sol\":18612:18820  function _mint(address account, uint256 value) internal {... */\n  pop\n  pop\n  jump\t// out\n    /* \"Token_RY_flattened.sol\":65600:65886  function toShortString(string memory str) internal pure returns (ShortString) {... */\ntag_40:\n    /* \"Token_RY_flattened.sol\":65665:65676  ShortString */\n  0x00\n    /* \"Token_RY_flattened.sol\":65688:65705  bytes memory bstr */\n  dup1\n    /* \"Token_RY_flattened.sol\":65714:65717  str */\n  dup3\n    /* \"Token_RY_flattened.sol\":65688:65718  bytes memory bstr = bytes(str) */\n  swap1\n  pop\n    /* \"Token_RY_flattened.sol\":65746:65748  31 */\n  0x1f\n    /* \"Token_RY_flattened.sol\":65732:65736  bstr */\n  dup2\n    /* \"Token_RY_flattened.sol\":65732:65743  bstr.length */\n  mload\n    /* \"Token_RY_flattened.sol\":65732:65748  bstr.length > 31 */\n  gt\n    /* \"Token_RY_flattened.sol\":65728:65800  if (bstr.length > 31) {... */\n  iszero\n  tag_55\n  jumpi\n    /* \"Token_RY_flattened.sol\":65785:65788  str */\n  dup3\n    /* \"Token_RY_flattened.sol\":65771:65789  StringTooLong(str) */\n  mload(0x40)\n  0x305a27a900000000000000000000000000000000000000000000000000000000\n  dup2\n  mstore\n  0x04\n  add\n  tag_56\n  swap2\n  swap1\n  tag_57\n  jump\t// in\ntag_56:\n  mload(0x40)\n  dup1\n  swap2\n  sub\n  swap1\n  revert\n    /* \"Token_RY_flattened.sol\":65728:65800  if (bstr.length > 31) {... */\ntag_55:\n    /* \"Token_RY_flattened.sol\":65866:65870  bstr */\n  dup1\n    /* \"Token_RY_flattened.sol\":65866:65877  bstr.length */\n  mload\n    /* \"Token_RY_flattened.sol\":65857:65861  bstr */\n  dup2\n    /* \"Token_RY_flattened.sol\":65849:65862  bytes32(bstr) */\n  tag_58\n  swap1\n  tag_59\n  jump\t// in\ntag_58:\n    /* \"Token_RY_flattened.sol\":65841:65863  uint256(bytes32(bstr)) */\n  0x00\n  shr\n    /* \"Token_RY_flattened.sol\":65841:65877  uint256(bytes32(bstr)) | bstr.length */\n  or\n    /* \"Token_RY_flattened.sol\":65833:65878  bytes32(uint256(bytes32(bstr)) | bstr.length) */\n  0x00\n  shl\n    /* \"Token_RY_flattened.sol\":65809:65879  return ShortString.wrap(bytes32(uint256(bytes32(bstr)) | bstr.length)) */\n  swap2\n  pop\n  pop\n    /* \"Token_RY_flattened.sol\":65600:65886  function toShortString(string memory str) internal pure returns (ShortString) {... */\n  swap2\n  swap1\n  pop\n  jump\t// out\n    /* \"Token_RY_flattened.sol\":63116:63318  function getStringSlot(string storage store) internal pure returns (StringSlot storage r) {... */\ntag_43:\n    /* \"Token_RY_flattened.sol\":63184:63204  StringSlot storage r */\n  0x00\n    /* \"Token_RY_flattened.sol\":63292:63302  store.slot */\n  dup2\n    /* \"Token_RY_flattened.sol\":63282:63302  r.slot := store.slot */\n  swap1\n  pop\n    /* \"Token_RY_flattened.sol\":63116:63318  function getStringSlot(string storage store) internal pure returns (StringSlot storage r) {... */\n  swap2\n  swap1\n  pop\n  jump\t// out\n    /* \"Token_RY_flattened.sol\":17162:18269  function _update(address from, address to, uint256 value) internal virtual {... */\ntag_53:\n    /* \"Token_RY_flattened.sol\":17267:17268  0 */\n  0x00\n    /* \"Token_RY_flattened.sol\":17251:17269  from == address(0) */\n  0xffffffffffffffffffffffffffffffffffffffff\n  and\n    /* \"Token_RY_flattened.sol\":17251:17255  from */\n  dup4\n    /* \"Token_RY_flattened.sol\":17251:17269  from == address(0) */\n  0xffffffffffffffffffffffffffffffffffffffff\n  and\n  sub\n    /* \"Token_RY_flattened.sol\":17247:17787  if (from == address(0)) {... */\n  tag_62\n  jumpi\n    /* \"Token_RY_flattened.sol\":17403:17408  value */\n  dup1\n    /* \"Token_RY_flattened.sol\":17387:17399  _totalSupply */\n  0x02\n  0x00\n    /* \"Token_RY_flattened.sol\":17387:17408  _totalSupply += value */\n  dup3\n  dup3\n  sload\n  tag_63\n  swap2\n  swap1\n  tag_64\n  jump\t// in\ntag_63:\n  swap3\n  pop\n  pop\n  dup2\n  swap1\n  sstore\n  pop\n    /* \"Token_RY_flattened.sol\":17247:17787  if (from == address(0)) {... */\n  jump(tag_65)\ntag_62:\n    /* \"Token_RY_flattened.sol\":17439:17458  uint256 fromBalance */\n  0x00\n    /* \"Token_RY_flattened.sol\":17461:17470  _balances */\n  dup1\n    /* \"Token_RY_flattened.sol\":17461:17476  _balances[from] */\n  0x00\n    /* \"Token_RY_flattened.sol\":17471:17475  from */\n  dup6\n    /* \"Token_RY_flattened.sol\":17461:17476  _balances[from] */\n  0xffffffffffffffffffffffffffffffffffffffff\n  and\n  0xffffffffffffffffffffffffffffffffffffffff\n  and\n  dup2\n  mstore\n  0x20\n  add\n  swap1\n  dup2\n  mstore\n  0x20\n  add\n  0x00\n  keccak256\n  sload\n    /* \"Token_RY_flattened.sol\":17439:17476  uint256 fromBalance = _balances[from] */\n  swap1\n  pop\n    /* \"Token_RY_flattened.sol\":17508:17513  value */\n  dup2\n    /* \"Token_RY_flattened.sol\":17494:17505  fromBalance */\n  dup2\n    /* \"Token_RY_flattened.sol\":17494:17513  fromBalance < value */\n  lt\n    /* \"Token_RY_flattened.sol\":17490:17605  if (fromBalance < value) {... */\n  iszero\n  tag_66\n  jumpi\n    /* \"Token_RY_flattened.sol\":17565:17569  from */\n  dup4\n    /* \"Token_RY_flattened.sol\":17571:17582  fromBalance */\n  dup2\n    /* \"Token_RY_flattened.sol\":17584:17589  value */\n  dup4\n    /* \"Token_RY_flattened.sol\":17540:17590  ERC20InsufficientBalance(from, fromBalance, value) */\n  mload(0x40)\n  0xe450d38c00000000000000000000000000000000000000000000000000000000\n  dup2\n  mstore\n  0x04\n  add\n  tag_67\n  swap4\n  swap3\n  swap2\n  swap1\n  tag_68\n  jump\t// in\ntag_67:\n  mload(0x40)\n  dup1\n  swap2\n  sub\n  swap1\n  revert\n    /* \"Token_RY_flattened.sol\":17490:17605  if (fromBalance < value) {... */\ntag_66:\n    /* \"Token_RY_flattened.sol\":17757:17762  value */\n  dup2\n    /* \"Token_RY_flattened.sol\":17743:17754  fromBalance */\n  dup2\n    /* \"Token_RY_flattened.sol\":17743:17762  fromBalance - value */\n  sub\n    /* \"Token_RY_flattened.sol\":17725:17734  _balances */\n  0x00\n    /* \"Token_RY_flattened.sol\":17725:17740  _balances[from] */\n  dup1\n    /* \"Token_RY_flattened.sol\":17735:17739  from */\n  dup7\n    /* \"Token_RY_flattened.sol\":17725:17740  _balances[from] */\n  0xffffffffffffffffffffffffffffffffffffffff\n  and\n  0xffffffffffffffffffffffffffffffffffffffff\n  and\n  dup2\n  mstore\n  0x20\n  add\n  swap1\n  dup2\n  mstore\n  0x20\n  add\n  0x00\n  keccak256\n    /* \"Token_RY_flattened.sol\":17725:17762  _balances[from] = fromBalance - value */\n  dup2\n  swap1\n  sstore\n  pop\n    /* \"Token_RY_flattened.sol\":17425:17787  {... */\n  pop\n    /* \"Token_RY_flattened.sol\":17247:17787  if (from == address(0)) {... */\ntag_65:\n    /* \"Token_RY_flattened.sol\":17815:17816  0 */\n  0x00\n    /* \"Token_RY_flattened.sol\":17801:17817  to == address(0) */\n  0xffffffffffffffffffffffffffffffffffffffff\n  and\n    /* \"Token_RY_flattened.sol\":17801:17803  to */\n  dup3\n    /* \"Token_RY_flattened.sol\":17801:17817  to == address(0) */\n  0xffffffffffffffffffffffffffffffffffffffff\n  and\n  sub\n    /* \"Token_RY_flattened.sol\":17797:18222  if (to == address(0)) {... */\n  tag_69\n  jumpi\n    /* \"Token_RY_flattened.sol\":17980:17985  value */\n  dup1\n    /* \"Token_RY_flattened.sol\":17964:17976  _totalSupply */\n  0x02\n  0x00\n    /* \"Token_RY_flattened.sol\":17964:17985  _totalSupply -= value */\n  dup3\n  dup3\n  sload\n  sub\n  swap3\n  pop\n  pop\n  dup2\n  swap1\n  sstore\n  pop\n    /* \"Token_RY_flattened.sol\":17797:18222  if (to == address(0)) {... */\n  jump(tag_70)\ntag_69:\n    /* \"Token_RY_flattened.sol\":18192:18197  value */\n  dup1\n    /* \"Token_RY_flattened.sol\":18175:18184  _balances */\n  0x00\n    /* \"Token_RY_flattened.sol\":18175:18188  _balances[to] */\n  dup1\n    /* \"Token_RY_flattened.sol\":18185:18187  to */\n  dup5\n    /* \"Token_RY_flattened.sol\":18175:18188  _balances[to] */\n  0xffffffffffffffffffffffffffffffffffffffff\n  and\n  0xffffffffffffffffffffffffffffffffffffffff\n  and\n  dup2\n  mstore\n  0x20\n  add\n  swap1\n  dup2\n  mstore\n  0x20\n  add\n  0x00\n  keccak256\n  0x00\n    /* \"Token_RY_flattened.sol\":18175:18197  _balances[to] += value */\n  dup3\n  dup3\n  sload\n  add\n  swap3\n  pop\n  pop\n  dup2\n  swap1\n  sstore\n  pop\n    /* \"Token_RY_flattened.sol\":17797:18222  if (to == address(0)) {... */\ntag_70:\n    /* \"Token_RY_flattened.sol\":18252:18254  to */\n  dup2\n    /* \"Token_RY_flattened.sol\":18237:18262  Transfer(from, to, value) */\n  0xffffffffffffffffffffffffffffffffffffffff\n  and\n    /* \"Token_RY_flattened.sol\":18246:18250  from */\n  dup4\n    /* \"Token_RY_flattened.sol\":18237:18262  Transfer(from, to, value) */\n  0xffffffffffffffffffffffffffffffffffffffff\n  and\n  0xddf252ad1be2c89b69c2b068fc378daa952ba7f163c4a11628f55a4df523b3ef\n    /* \"Token_RY_flattened.sol\":18256:18261  value */\n  dup4\n    /* \"Token_RY_flattened.sol\":18237:18262  Transfer(from, to, value) */\n  mload(0x40)\n  tag_71\n  swap2\n  swap1\n  tag_72\n  jump\t// in\ntag_71:\n  mload(0x40)\n  dup1\n  swap2\n  sub\n  swap1\n  log3\n    /* \"Token_RY_flattened.sol\":17162:18269  function _update(address from, address to, uint256 value) internal virtual {... */\n  pop\n  pop\n  pop\n  jump\t// out\n    /* \"#utility.yul\":88:205   */\ntag_74:\n    /* \"#utility.yul\":197:198   */\n  0x00\n    /* \"#utility.yul\":194:195   */\n  dup1\n    /* \"#utility.yul\":187:199   */\n  revert\n    /* \"#utility.yul\":334:460   */\ntag_76:\n    /* \"#utility.yul\":371:378   */\n  0x00\n    /* \"#utility.yul\":411:453   */\n  0xffffffffffffffffffffffffffffffffffffffff\n    /* \"#utility.yul\":404:409   */\n  dup3\n    /* \"#utility.yul\":400:454   */\n  and\n    /* \"#utility.yul\":389:454   */\n  swap1\n  pop\n    /* \"#utility.yul\":334:460   */\n  swap2\n  swap1\n  pop\n  jump\t// out\n    /* \"#utility.yul\":466:562   */\ntag_77:\n    /* \"#utility.yul\":503:510   */\n  0x00\n    /* \"#utility.yul\":532:556   */\n  tag_122\n    /* \"#utility.yul\":550:555   */\n  dup3\n    /* \"#utility.yul\":532:556   */\n  tag_76\n  jump\t// in\ntag_122:\n    /* \"#utility.yul\":521:556   */\n  swap1\n  pop\n    /* \"#utility.yul\":466:562   */\n  swap2\n  swap1\n  pop\n  jump\t// out\n    /* \"#utility.yul\":568:690   */\ntag_78:\n    /* \"#utility.yul\":641:665   */\n  tag_124\n    /* \"#utility.yul\":659:664   */\n  dup2\n    /* \"#utility.yul\":641:665   */\n  tag_77\n  jump\t// in\ntag_124:\n    /* \"#utility.yul\":634:639   */\n  dup2\n    /* \"#utility.yul\":631:666   */\n  eq\n    /* \"#utility.yul\":621:684   */\n  tag_125\n  jumpi\n    /* \"#utility.yul\":680:681   */\n  0x00\n    /* \"#utility.yul\":677:678   */\n  dup1\n    /* \"#utility.yul\":670:682   */\n  revert\n    /* \"#utility.yul\":621:684   */\ntag_125:\n    /* \"#utility.yul\":568:690   */\n  pop\n  jump\t// out\n    /* \"#utility.yul\":696:839   */\ntag_79:\n    /* \"#utility.yul\":753:758   */\n  0x00\n    /* \"#utility.yul\":784:790   */\n  dup2\n    /* \"#utility.yul\":778:791   */\n  mload\n    /* \"#utility.yul\":769:791   */\n  swap1\n  pop\n    /* \"#utility.yul\":800:833   */\n  tag_127\n    /* \"#utility.yul\":827:832   */\n  dup2\n    /* \"#utility.yul\":800:833   */\n  tag_78\n  jump\t// in\ntag_127:\n    /* \"#utility.yul\":696:839   */\n  swap3\n  swap2\n  pop\n  pop\n  jump\t// out\n    /* \"#utility.yul\":845:1196   */\ntag_3:\n    /* \"#utility.yul\":915:921   */\n  0x00\n    /* \"#utility.yul\":964:966   */\n  0x20\n    /* \"#utility.yul\":952:961   */\n  dup3\n    /* \"#utility.yul\":943:950   */\n  dup5\n    /* \"#utility.yul\":939:962   */\n  sub\n    /* \"#utility.yul\":935:967   */\n  slt\n    /* \"#utility.yul\":932:1051   */\n  iszero\n  tag_129\n  jumpi\n    /* \"#utility.yul\":970:1049   */\n  tag_130\n  tag_74\n  jump\t// in\ntag_130:\n    /* \"#utility.yul\":932:1051   */\ntag_129:\n    /* \"#utility.yul\":1090:1091   */\n  0x00\n    /* \"#utility.yul\":1115:1179   */\n  tag_131\n    /* \"#utility.yul\":1171:1178   */\n  dup5\n    /* \"#utility.yul\":1162:1168   */\n  dup3\n    /* \"#utility.yul\":1151:1160   */\n  dup6\n    /* \"#utility.yul\":1147:1169   */\n  add\n    /* \"#utility.yul\":1115:1179   */\n  tag_79\n  jump\t// in\ntag_131:\n    /* \"#utility.yul\":1105:1179   */\n  swap2\n  pop\n    /* \"#utility.yul\":1061:1189   */\n  pop\n    /* \"#utility.yul\":845:1196   */\n  swap3\n  swap2\n  pop\n  pop\n  jump\t// out\n    /* \"#utility.yul\":1202:1301   */\ntag_80:\n    /* \"#utility.yul\":1254:1260   */\n  0x00\n    /* \"#utility.yul\":1288:1293   */\n  dup2\n    /* \"#utility.yul\":1282:1294   */\n  mload\n    /* \"#utility.yul\":1272:1294   */\n  swap1\n  pop\n    /* \"#utility.yul\":1202:1301   */\n  swap2\n  swap1\n  pop\n  jump\t// out\n    /* \"#utility.yul\":1307:1487   */\ntag_81:\n    /* \"#utility.yul\":1355:1432   */\n  0x4e487b7100000000000000000000000000000000000000000000000000000000\n    /* \"#utility.yul\":1352:1353   */\n  0x00\n    /* \"#utility.yul\":1345:1433   */\n  mstore\n    /* \"#utility.yul\":1452:1456   */\n  0x41\n    /* \"#utility.yul\":1449:1450   */\n  0x04\n    /* \"#utility.yul\":1442:1457   */\n  mstore\n    /* \"#utility.yul\":1476:1480   */\n  0x24\n    /* \"#utility.yul\":1473:1474   */\n  0x00\n    /* \"#utility.yul\":1466:1481   */\n  revert\n    /* \"#utility.yul\":1493:1673   */\ntag_82:\n    /* \"#utility.yul\":1541:1618   */\n  0x4e487b7100000000000000000000000000000000000000000000000000000000\n    /* \"#utility.yul\":1538:1539   */\n  0x00\n    /* \"#utility.yul\":1531:1619   */\n  mstore\n    /* \"#utility.yul\":1638:1642   */\n  0x22\n    /* \"#utility.yul\":1635:1636   */\n  0x04\n    /* \"#utility.yul\":1628:1643   */\n  mstore\n    /* \"#utility.yul\":1662:1666   */\n  0x24\n    /* \"#utility.yul\":1659:1660   */\n  0x00\n    /* \"#utility.yul\":1652:1667   */\n  revert\n    /* \"#utility.yul\":1679:1999   */\ntag_83:\n    /* \"#utility.yul\":1723:1729   */\n  0x00\n    /* \"#utility.yul\":1760:1761   */\n  0x02\n    /* \"#utility.yul\":1754:1758   */\n  dup3\n    /* \"#utility.yul\":1750:1762   */\n  div\n    /* \"#utility.yul\":1740:1762   */\n  swap1\n  pop\n    /* \"#utility.yul\":1807:1808   */\n  0x01\n    /* \"#utility.yul\":1801:1805   */\n  dup3\n    /* \"#utility.yul\":1797:1809   */\n  and\n    /* \"#utility.yul\":1828:1846   */\n  dup1\n    /* \"#utility.yul\":1818:1899   */\n  tag_136\n  jumpi\n    /* \"#utility.yul\":1884:1888   */\n  0x7f\n    /* \"#utility.yul\":1876:1882   */\n  dup3\n    /* \"#utility.yul\":1872:1889   */\n  and\n    /* \"#utility.yul\":1862:1889   */\n  swap2\n  pop\n    /* \"#utility.yul\":1818:1899   */\ntag_136:\n    /* \"#utility.yul\":1946:1948   */\n  0x20\n    /* \"#utility.yul\":1938:1944   */\n  dup3\n    /* \"#utility.yul\":1935:1949   */\n  lt\n    /* \"#utility.yul\":1915:1933   */\n  dup2\n    /* \"#utility.yul\":1912:1950   */\n  sub\n    /* \"#utility.yul\":1909:1993   */\n  tag_137\n  jumpi\n    /* \"#utility.yul\":1965:1983   */\n  tag_138\n  tag_82\n  jump\t// in\ntag_138:\n    /* \"#utility.yul\":1909:1993   */\ntag_137:\n    /* \"#utility.yul\":1730:1999   */\n  pop\n    /* \"#utility.yul\":1679:1999   */\n  swap2\n  swap1\n  pop\n  jump\t// out\n    /* \"#utility.yul\":2005:2146   */\ntag_84:\n    /* \"#utility.yul\":2054:2058   */\n  0x00\n    /* \"#utility.yul\":2077:2080   */\n  dup2\n    /* \"#utility.yul\":2069:2080   */\n  swap1\n  pop\n    /* \"#utility.yul\":2100:2103   */\n  dup2\n    /* \"#utility.yul\":2097:2098   */\n  0x00\n    /* \"#utility.yul\":2090:2104   */\n  mstore\n    /* \"#utility.yul\":2134:2138   */\n  0x20\n    /* \"#utility.yul\":2131:2132   */\n  0x00\n    /* \"#utility.yul\":2121:2139   */\n  keccak256\n    /* \"#utility.yul\":2113:2139   */\n  swap1\n  pop\n    /* \"#utility.yul\":2005:2146   */\n  swap2\n  swap1\n  pop\n  jump\t// out\n    /* \"#utility.yul\":2152:2245   */\ntag_85:\n    /* \"#utility.yul\":2189:2195   */\n  0x00\n    /* \"#utility.yul\":2236:2238   */\n  0x20\n    /* \"#utility.yul\":2231:2233   */\n  0x1f\n    /* \"#utility.yul\":2224:2229   */\n  dup4\n    /* \"#utility.yul\":2220:2234   */\n  add\n    /* \"#utility.yul\":2216:2239   */\n  div\n    /* \"#utility.yul\":2206:2239   */\n  swap1\n  pop\n    /* \"#utility.yul\":2152:2245   */\n  swap2\n  swap1\n  pop\n  jump\t// out\n    /* \"#utility.yul\":2251:2358   */\ntag_86:\n    /* \"#utility.yul\":2295:2303   */\n  0x00\n    /* \"#utility.yul\":2345:2350   */\n  dup3\n    /* \"#utility.yul\":2339:2343   */\n  dup3\n    /* \"#utility.yul\":2335:2351   */\n  shl\n    /* \"#utility.yul\":2314:2351   */\n  swap1\n  pop\n    /* \"#utility.yul\":2251:2358   */\n  swap3\n  swap2\n  pop\n  pop\n  jump\t// out\n    /* \"#utility.yul\":2364:2757   */\ntag_87:\n    /* \"#utility.yul\":2433:2439   */\n  0x00\n    /* \"#utility.yul\":2483:2484   */\n  0x08\n    /* \"#utility.yul\":2471:2481   */\n  dup4\n    /* \"#utility.yul\":2467:2485   */\n  mul\n    /* \"#utility.yul\":2506:2603   */\n  tag_143\n    /* \"#utility.yul\":2536:2602   */\n  0xffffffffffffffffffffffffffffffffffffffffffffffffffffffffffffffff\n    /* \"#utility.yul\":2525:2534   */\n  dup3\n    /* \"#utility.yul\":2506:2603   */\n  tag_86\n  jump\t// in\ntag_143:\n    /* \"#utility.yul\":2624:2663   */\n  tag_144\n    /* \"#utility.yul\":2654:2662   */\n  dup7\n    /* \"#utility.yul\":2643:2652   */\n  dup4\n    /* \"#utility.yul\":2624:2663   */\n  tag_86\n  jump\t// in\ntag_144:\n    /* \"#utility.yul\":2612:2663   */\n  swap6\n  pop\n    /* \"#utility.yul\":2696:2700   */\n  dup1\n    /* \"#utility.yul\":2692:2701   */\n  not\n    /* \"#utility.yul\":2685:2690   */\n  dup5\n    /* \"#utility.yul\":2681:2702   */\n  and\n    /* \"#utility.yul\":2672:2702   */\n  swap4\n  pop\n    /* \"#utility.yul\":2745:2749   */\n  dup1\n    /* \"#utility.yul\":2735:2743   */\n  dup7\n    /* \"#utility.yul\":2731:2750   */\n  and\n    /* \"#utility.yul\":2724:2729   */\n  dup5\n    /* \"#utility.yul\":2721:2751   */\n  or\n    /* \"#utility.yul\":2711:2751   */\n  swap3\n  pop\n    /* \"#utility.yul\":2440:2757   */\n  pop\n  pop\n    /* \"#utility.yul\":2364:2757   */\n  swap4\n  swap3\n  pop\n  pop\n  pop\n  jump\t// out\n    /* \"#utility.yul\":2763:2840   */\ntag_88:\n    /* \"#utility.yul\":2800:2807   */\n  0x00\n    /* \"#utility.yul\":2829:2834   */\n  dup2\n    /* \"#utility.yul\":2818:2834   */\n  swap1\n  pop\n    /* \"#utility.yul\":2763:2840   */\n  swap2\n  swap1\n  pop\n  jump\t// out\n    /* \"#utility.yul\":2846:2906   */\ntag_89:\n    /* \"#utility.yul\":2874:2877   */\n  0x00\n    /* \"#utility.yul\":2895:2900   */\n  dup2\n    /* \"#utility.yul\":2888:2900   */\n  swap1\n  pop\n    /* \"#utility.yul\":2846:2906   */\n  swap2\n  swap1\n  pop\n  jump\t// out\n    /* \"#utility.yul\":2912:3054   */\ntag_90:\n    /* \"#utility.yul\":2962:2971   */\n  0x00\n    /* \"#utility.yul\":2995:3048   */\n  tag_148\n    /* \"#utility.yul\":3013:3047   */\n  tag_149\n    /* \"#utility.yul\":3022:3046   */\n  tag_150\n    /* \"#utility.yul\":3040:3045   */\n  dup5\n    /* \"#utility.yul\":3022:3046   */\n  tag_88\n  jump\t// in\ntag_150:\n    /* \"#utility.yul\":3013:3047   */\n  tag_89\n  jump\t// in\ntag_149:\n    /* \"#utility.yul\":2995:3048   */\n  tag_88\n  jump\t// in\ntag_148:\n    /* \"#utility.yul\":2982:3048   */\n  swap1\n  pop\n    /* \"#utility.yul\":2912:3054   */\n  swap2\n  swap1\n  pop\n  jump\t// out\n    /* \"#utility.yul\":3060:3135   */\ntag_91:\n    /* \"#utility.yul\":3103:3106   */\n  0x00\n    /* \"#utility.yul\":3124:3129   */\n  dup2\n    /* \"#utility.yul\":3117:3129   */\n  swap1\n  pop\n    /* \"#utility.yul\":3060:3135   */\n  swap2\n  swap1\n  pop\n  jump\t// out\n    /* \"#utility.yul\":3141:3410   */\ntag_92:\n    /* \"#utility.yul\":3251:3290   */\n  tag_153\n    /* \"#utility.yul\":3282:3289   */\n  dup4\n    /* \"#utility.yul\":3251:3290   */\n  tag_90\n  jump\t// in\ntag_153:\n    /* \"#utility.yul\":3312:3403   */\n  tag_154\n    /* \"#utility.yul\":3361:3402   */\n  tag_155\n    /* \"#utility.yul\":3385:3401   */\n  dup3\n    /* \"#utility.yul\":3361:3402   */\n  tag_91\n  jump\t// in\ntag_155:\n    /* \"#utility.yul\":3353:3359   */\n  dup5\n    /* \"#utility.yul\":3346:3350   */\n  dup5\n    /* \"#utility.yul\":3340:3351   */\n  sload\n    /* \"#utility.yul\":3312:3403   */\n  tag_87\n  jump\t// in\ntag_154:\n    /* \"#utility.yul\":3306:3310   */\n  dup3\n    /* \"#utility.yul\":3299:3404   */\n  sstore\n    /* \"#utility.yul\":3217:3410   */\n  pop\n    /* \"#utility.yul\":3141:3410   */\n  pop\n  pop\n  pop\n  jump\t// out\n    /* \"#utility.yul\":3416:3489   */\ntag_93:\n    /* \"#utility.yul\":3461:3464   */\n  0x00\n    /* \"#utility.yul\":3416:3489   */\n  swap1\n  jump\t// out\n    /* \"#utility.yul\":3495:3684   */\ntag_94:\n    /* \"#utility.yul\":3572:3604   */\n  tag_158\n  tag_93\n  jump\t// in\ntag_158:\n    /* \"#utility.yul\":3613:3678   */\n  tag_159\n    /* \"#utility.yul\":3671:3677   */\n  dup2\n    /* \"#utility.yul\":3663:3669   */\n  dup5\n    /* \"#utility.yul\":3657:3661   */\n  dup5\n    /* \"#utility.yul\":3613:3678   */\n  tag_92\n  jump\t// in\ntag_159:\n    /* \"#utility.yul\":3548:3684   */\n  pop\n    /* \"#utility.yul\":3495:3684   */\n  pop\n  pop\n  jump\t// out\n    /* \"#utility.yul\":3690:3876   */\ntag_95:\n    /* \"#utility.yul\":3750:3870   */\ntag_161:\n    /* \"#utility.yul\":3767:3770   */\n  dup2\n    /* \"#utility.yul\":3760:3765   */\n  dup2\n    /* \"#utility.yul\":3757:3771   */\n  lt\n    /* \"#utility.yul\":3750:3870   */\n  iszero\n  tag_163\n  jumpi\n    /* \"#utility.yul\":3821:3860   */\n  tag_164\n    /* \"#utility.yul\":3858:3859   */\n  0x00\n    /* \"#utility.yul\":3851:3856   */\n  dup3\n    /* \"#utility.yul\":3821:3860   */\n  tag_94\n  jump\t// in\ntag_164:\n    /* \"#utility.yul\":3794:3795   */\n  0x01\n    /* \"#utility.yul\":3787:3792   */\n  dup2\n    /* \"#utility.yul\":3783:3796   */\n  add\n    /* \"#utility.yul\":3774:3796   */\n  swap1\n  pop\n    /* \"#utility.yul\":3750:3870   */\n  jump(tag_161)\ntag_163:\n    /* \"#utility.yul\":3690:3876   */\n  pop\n  pop\n  jump\t// out\n    /* \"#utility.yul\":3882:4425   */\ntag_96:\n    /* \"#utility.yul\":3983:3985   */\n  0x1f\n    /* \"#utility.yul\":3978:3981   */\n  dup3\n    /* \"#utility.yul\":3975:3986   */\n  gt\n    /* \"#utility.yul\":3972:4418   */\n  iszero\n  tag_166\n  jumpi\n    /* \"#utility.yul\":4017:4055   */\n  tag_167\n    /* \"#utility.yul\":4049:4054   */\n  dup2\n    /* \"#utility.yul\":4017:4055   */\n  tag_84\n  jump\t// in\ntag_167:\n    /* \"#utility.yul\":4101:4130   */\n  tag_168\n    /* \"#utility.yul\":4119:4129   */\n  dup5\n    /* \"#utility.yul\":4101:4130   */\n  tag_85\n  jump\t// in\ntag_168:\n    /* \"#utility.yul\":4091:4099   */\n  dup2\n    /* \"#utility.yul\":4087:4131   */\n  add\n    /* \"#utility.yul\":4284:4286   */\n  0x20\n    /* \"#utility.yul\":4272:4282   */\n  dup6\n    /* \"#utility.yul\":4269:4287   */\n  lt\n    /* \"#utility.yul\":4266:4315   */\n  iszero\n  tag_169\n  jumpi\n    /* \"#utility.yul\":4305:4313   */\n  dup2\n    /* \"#utility.yul\":4290:4313   */\n  swap1\n  pop\n    /* \"#utility.yul\":4266:4315   */\ntag_169:\n    /* \"#utility.yul\":4328:4408   */\n  tag_170\n    /* \"#utility.yul\":4384:4406   */\n  tag_171\n    /* \"#utility.yul\":4402:4405   */\n  dup6\n    /* \"#utility.yul\":4384:4406   */\n  tag_85\n  jump\t// in\ntag_171:\n    /* \"#utility.yul\":4374:4382   */\n  dup4\n    /* \"#utility.yul\":4370:4407   */\n  add\n    /* \"#utility.yul\":4357:4368   */\n  dup3\n    /* \"#utility.yul\":4328:4408   */\n  tag_95\n  jump\t// in\ntag_170:\n    /* \"#utility.yul\":3987:4418   */\n  pop\n  pop\n    /* \"#utility.yul\":3972:4418   */\ntag_166:\n    /* \"#utility.yul\":3882:4425   */\n  pop\n  pop\n  pop\n  jump\t// out\n    /* \"#utility.yul\":4431:4548   */\ntag_97:\n    /* \"#utility.yul\":4485:4493   */\n  0x00\n    /* \"#utility.yul\":4535:4540   */\n  dup3\n    /* \"#utility.yul\":4529:4533   */\n  dup3\n    /* \"#utility.yul\":4525:4541   */\n  shr\n    /* \"#utility.yul\":4504:4541   */\n  swap1\n  pop\n    /* \"#utility.yul\":4431:4548   */\n  swap3\n  swap2\n  pop\n  pop\n  jump\t// out\n    /* \"#utility.yul\":4554:4723   */\ntag_98:\n    /* \"#utility.yul\":4598:4604   */\n  0x00\n    /* \"#utility.yul\":4631:4682   */\n  tag_174\n    /* \"#utility.yul\":4679:4680   */\n  0x00\n    /* \"#utility.yul\":4675:4681   */\n  not\n    /* \"#utility.yul\":4667:4672   */\n  dup5\n    /* \"#utility.yul\":4664:4665   */\n  0x08\n    /* \"#utility.yul\":4660:4673   */\n  mul\n    /* \"#utility.yul\":4631:4682   */\n  tag_97\n  jump\t// in\ntag_174:\n    /* \"#utility.yul\":4627:4683   */\n  not\n    /* \"#utility.yul\":4712:4716   */\n  dup1\n    /* \"#utility.yul\":4706:4710   */\n  dup4\n    /* \"#utility.yul\":4702:4717   */\n  and\n    /* \"#utility.yul\":4692:4717   */\n  swap2\n  pop\n    /* \"#utility.yul\":4605:4723   */\n  pop\n    /* \"#utility.yul\":4554:4723   */\n  swap3\n  swap2\n  pop\n  pop\n  jump\t// out\n    /* \"#utility.yul\":4728:5023   */\ntag_99:\n    /* \"#utility.yul\":4804:4808   */\n  0x00\n    /* \"#utility.yul\":4950:4979   */\n  tag_176\n    /* \"#utility.yul\":4975:4978   */\n  dup4\n    /* \"#utility.yul\":4969:4973   */\n  dup4\n    /* \"#utility.yul\":4950:4979   */\n  tag_98\n  jump\t// in\ntag_176:\n    /* \"#utility.yul\":4942:4979   */\n  swap2\n  pop\n    /* \"#utility.yul\":5012:5015   */\n  dup3\n    /* \"#utility.yul\":5009:5010   */\n  0x02\n    /* \"#utility.yul\":5005:5016   */\n  mul\n    /* \"#utility.yul\":4999:5003   */\n  dup3\n    /* \"#utility.yul\":4996:5017   */\n  or\n    /* \"#utility.yul\":4988:5017   */\n  swap1\n  pop\n    /* \"#utility.yul\":4728:5023   */\n  swap3\n  swap2\n  pop\n  pop\n  jump\t// out\n    /* \"#utility.yul\":5028:6423   */\ntag_11:\n    /* \"#utility.yul\":5145:5182   */\n  tag_178\n    /* \"#utility.yul\":5178:5181   */\n  dup3\n    /* \"#utility.yul\":5145:5182   */\n  tag_80\n  jump\t// in\ntag_178:\n    /* \"#utility.yul\":5247:5265   */\n  0xffffffffffffffff\n    /* \"#utility.yul\":5239:5245   */\n  dup2\n    /* \"#utility.yul\":5236:5266   */\n  gt\n    /* \"#utility.yul\":5233:5289   */\n  iszero\n  tag_179\n  jumpi\n    /* \"#utility.yul\":5269:5287   */\n  tag_180\n  tag_81\n  jump\t// in\ntag_180:\n    /* \"#utility.yul\":5233:5289   */\ntag_179:\n    /* \"#utility.yul\":5313:5351   */\n  tag_181\n    /* \"#utility.yul\":5345:5349   */\n  dup3\n    /* \"#utility.yul\":5339:5350   */\n  sload\n    /* \"#utility.yul\":5313:5351   */\n  tag_83\n  jump\t// in\ntag_181:\n    /* \"#utility.yul\":5398:5465   */\n  tag_182\n    /* \"#utility.yul\":5458:5464   */\n  dup3\n    /* \"#utility.yul\":5450:5456   */\n  dup3\n    /* \"#utility.yul\":5444:5448   */\n  dup6\n    /* \"#utility.yul\":5398:5465   */\n  tag_96\n  jump\t// in\ntag_182:\n    /* \"#utility.yul\":5492:5493   */\n  0x00\n    /* \"#utility.yul\":5516:5520   */\n  0x20\n    /* \"#utility.yul\":5503:5520   */\n  swap1\n  pop\n    /* \"#utility.yul\":5548:5550   */\n  0x1f\n    /* \"#utility.yul\":5540:5546   */\n  dup4\n    /* \"#utility.yul\":5537:5551   */\n  gt\n    /* \"#utility.yul\":5565:5566   */\n  0x01\n    /* \"#utility.yul\":5560:6178   */\n  dup2\n  eq\n  tag_184\n  jumpi\n    /* \"#utility.yul\":6222:6223   */\n  0x00\n    /* \"#utility.yul\":6239:6245   */\n  dup5\n    /* \"#utility.yul\":6236:6313   */\n  iszero\n  tag_185\n  jumpi\n    /* \"#utility.yul\":6288:6297   */\n  dup3\n    /* \"#utility.yul\":6283:6286   */\n  dup8\n    /* \"#utility.yul\":6279:6298   */\n  add\n    /* \"#utility.yul\":6273:6299   */\n  mload\n    /* \"#utility.yul\":6264:6299   */\n  swap1\n  pop\n    /* \"#utility.yul\":6236:6313   */\ntag_185:\n    /* \"#utility.yul\":6339:6406   */\n  tag_186\n    /* \"#utility.yul\":6399:6405   */\n  dup6\n    /* \"#utility.yul\":6392:6397   */\n  dup3\n    /* \"#utility.yul\":6339:6406   */\n  tag_99\n  jump\t// in\ntag_186:\n    /* \"#utility.yul\":6333:6337   */\n  dup7\n    /* \"#utility.yul\":6326:6407   */\n  sstore\n    /* \"#utility.yul\":6195:6417   */\n  pop\n    /* \"#utility.yul\":5530:6417   */\n  jump(tag_183)\n    /* \"#utility.yul\":5560:6178   */\ntag_184:\n    /* \"#utility.yul\":5612:5616   */\n  0x1f\n    /* \"#utility.yul\":5608:5617   */\n  not\n    /* \"#utility.yul\":5600:5606   */\n  dup5\n    /* \"#utility.yul\":5596:5618   */\n  and\n    /* \"#utility.yul\":5646:5683   */\n  tag_187\n    /* \"#utility.yul\":5678:5682   */\n  dup7\n    /* \"#utility.yul\":5646:5683   */\n  tag_84\n  jump\t// in\ntag_187:\n    /* \"#utility.yul\":5705:5706   */\n  0x00\n    /* \"#utility.yul\":5719:5927   */\ntag_188:\n    /* \"#utility.yul\":5733:5740   */\n  dup3\n    /* \"#utility.yul\":5730:5731   */\n  dup2\n    /* \"#utility.yul\":5727:5741   */\n  lt\n    /* \"#utility.yul\":5719:5927   */\n  iszero\n  tag_190\n  jumpi\n    /* \"#utility.yul\":5812:5821   */\n  dup5\n    /* \"#utility.yul\":5807:5810   */\n  dup10\n    /* \"#utility.yul\":5803:5822   */\n  add\n    /* \"#utility.yul\":5797:5823   */\n  mload\n    /* \"#utility.yul\":5789:5795   */\n  dup3\n    /* \"#utility.yul\":5782:5824   */\n  sstore\n    /* \"#utility.yul\":5863:5864   */\n  0x01\n    /* \"#utility.yul\":5855:5861   */\n  dup3\n    /* \"#utility.yul\":5851:5865   */\n  add\n    /* \"#utility.yul\":5841:5865   */\n  swap2\n  pop\n    /* \"#utility.yul\":5910:5912   */\n  0x20\n    /* \"#utility.yul\":5899:5908   */\n  dup6\n    /* \"#utility.yul\":5895:5913   */\n  add\n    /* \"#utility.yul\":5882:5913   */\n  swap5\n  pop\n    /* \"#utility.yul\":5756:5760   */\n  0x20\n    /* \"#utility.yul\":5753:5754   */\n  dup2\n    /* \"#utility.yul\":5749:5761   */\n  add\n    /* \"#utility.yul\":5744:5761   */\n  swap1\n  pop\n    /* \"#utility.yul\":5719:5927   */\n  jump(tag_188)\ntag_190:\n    /* \"#utility.yul\":5955:5961   */\n  dup7\n    /* \"#utility.yul\":5946:5953   */\n  dup4\n    /* \"#utility.yul\":5943:5962   */\n  lt\n    /* \"#utility.yul\":5940:6119   */\n  iszero\n  tag_191\n  jumpi\n    /* \"#utility.yul\":6013:6022   */\n  dup5\n    /* \"#utility.yul\":6008:6011   */\n  dup10\n    /* \"#utility.yul\":6004:6023   */\n  add\n    /* \"#utility.yul\":5998:6024   */\n  mload\n    /* \"#utility.yul\":6056:6104   */\n  tag_192\n    /* \"#utility.yul\":6098:6102   */\n  0x1f\n    /* \"#utility.yul\":6090:6096   */\n  dup10\n    /* \"#utility.yul\":6086:6103   */\n  and\n    /* \"#utility.yul\":6075:6084   */\n  dup3\n    /* \"#utility.yul\":6056:6104   */\n  tag_98\n  jump\t// in\ntag_192:\n    /* \"#utility.yul\":6048:6054   */\n  dup4\n    /* \"#utility.yul\":6041:6105   */\n  sstore\n    /* \"#utility.yul\":5963:6119   */\n  pop\n    /* \"#utility.yul\":5940:6119   */\ntag_191:\n    /* \"#utility.yul\":6165:6166   */\n  0x01\n    /* \"#utility.yul\":6161:6162   */\n  0x02\n    /* \"#utility.yul\":6153:6159   */\n  dup9\n    /* \"#utility.yul\":6149:6163   */\n  mul\n    /* \"#utility.yul\":6145:6167   */\n  add\n    /* \"#utility.yul\":6139:6143   */\n  dup9\n    /* \"#utility.yul\":6132:6168   */\n  sstore\n    /* \"#utility.yul\":5567:6178   */\n  pop\n  pop\n  pop\n    /* \"#utility.yul\":5530:6417   */\ntag_183:\n  pop\n    /* \"#utility.yul\":5120:6423   */\n  pop\n  pop\n  pop\n    /* \"#utility.yul\":5028:6423   */\n  pop\n  pop\n  jump\t// out\n    /* \"#utility.yul\":6429:6547   */\ntag_100:\n    /* \"#utility.yul\":6516:6540   */\n  tag_194\n    /* \"#utility.yul\":6534:6539   */\n  dup2\n    /* \"#utility.yul\":6516:6540   */\n  tag_77\n  jump\t// in\ntag_194:\n    /* \"#utility.yul\":6511:6514   */\n  dup3\n    /* \"#utility.yul\":6504:6541   */\n  mstore\n    /* \"#utility.yul\":6429:6547   */\n  pop\n  pop\n  jump\t// out\n    /* \"#utility.yul\":6553:6775   */\ntag_16:\n    /* \"#utility.yul\":6646:6650   */\n  0x00\n    /* \"#utility.yul\":6684:6686   */\n  0x20\n    /* \"#utility.yul\":6673:6682   */\n  dup3\n    /* \"#utility.yul\":6669:6687   */\n  add\n    /* \"#utility.yul\":6661:6687   */\n  swap1\n  pop\n    /* \"#utility.yul\":6697:6768   */\n  tag_196\n    /* \"#utility.yul\":6765:6766   */\n  0x00\n    /* \"#utility.yul\":6754:6763   */\n  dup4\n    /* \"#utility.yul\":6750:6767   */\n  add\n    /* \"#utility.yul\":6741:6747   */\n  dup5\n    /* \"#utility.yul\":6697:6768   */\n  tag_100\n  jump\t// in\ntag_196:\n    /* \"#utility.yul\":6553:6775   */\n  swap3\n  swap2\n  pop\n  pop\n  jump\t// out\n    /* \"#utility.yul\":6781:6961   */\ntag_101:\n    /* \"#utility.yul\":6829:6906   */\n  0x4e487b7100000000000000000000000000000000000000000000000000000000\n    /* \"#utility.yul\":6826:6827   */\n  0x00\n    /* \"#utility.yul\":6819:6907   */\n  mstore\n    /* \"#utility.yul\":6926:6930   */\n  0x11\n    /* \"#utility.yul\":6923:6924   */\n  0x04\n    /* \"#utility.yul\":6916:6931   */\n  mstore\n    /* \"#utility.yul\":6950:6954   */\n  0x24\n    /* \"#utility.yul\":6947:6948   */\n  0x00\n    /* \"#utility.yul\":6940:6955   */\n  revert\n    /* \"#utility.yul\":6967:7069   */\ntag_102:\n    /* \"#utility.yul\":7009:7017   */\n  0x00\n    /* \"#utility.yul\":7056:7061   */\n  dup2\n    /* \"#utility.yul\":7053:7054   */\n  0x01\n    /* \"#utility.yul\":7049:7062   */\n  shr\n    /* \"#utility.yul\":7028:7062   */\n  swap1\n  pop\n    /* \"#utility.yul\":6967:7069   */\n  swap2\n  swap1\n  pop\n  jump\t// out\n    /* \"#utility.yul\":7075:7923   */\ntag_103:\n    /* \"#utility.yul\":7136:7141   */\n  0x00\n    /* \"#utility.yul\":7143:7147   */\n  dup1\n    /* \"#utility.yul\":7167:7173   */\n  dup3\n    /* \"#utility.yul\":7158:7173   */\n  swap2\n  pop\n    /* \"#utility.yul\":7191:7196   */\n  dup4\n    /* \"#utility.yul\":7182:7196   */\n  swap1\n  pop\n    /* \"#utility.yul\":7205:7917   */\ntag_200:\n    /* \"#utility.yul\":7226:7227   */\n  0x01\n    /* \"#utility.yul\":7216:7224   */\n  dup6\n    /* \"#utility.yul\":7213:7228   */\n  gt\n    /* \"#utility.yul\":7205:7917   */\n  iszero\n  tag_202\n  jumpi\n    /* \"#utility.yul\":7321:7325   */\n  dup1\n    /* \"#utility.yul\":7316:7319   */\n  dup7\n    /* \"#utility.yul\":7312:7326   */\n  div\n    /* \"#utility.yul\":7306:7310   */\n  dup2\n    /* \"#utility.yul\":7303:7327   */\n  gt\n    /* \"#utility.yul\":7300:7350   */\n  iszero\n  tag_203\n  jumpi\n    /* \"#utility.yul\":7330:7348   */\n  tag_204\n  tag_101\n  jump\t// in\ntag_204:\n    /* \"#utility.yul\":7300:7350   */\ntag_203:\n    /* \"#utility.yul\":7380:7381   */\n  0x01\n    /* \"#utility.yul\":7370:7378   */\n  dup6\n    /* \"#utility.yul\":7366:7382   */\n  and\n    /* \"#utility.yul\":7363:7814   */\n  iszero\n  tag_205\n  jumpi\n    /* \"#utility.yul\":7795:7799   */\n  dup1\n    /* \"#utility.yul\":7788:7793   */\n  dup3\n    /* \"#utility.yul\":7784:7800   */\n  mul\n    /* \"#utility.yul\":7775:7800   */\n  swap2\n  pop\n    /* \"#utility.yul\":7363:7814   */\ntag_205:\n    /* \"#utility.yul\":7845:7849   */\n  dup1\n    /* \"#utility.yul\":7839:7843   */\n  dup2\n    /* \"#utility.yul\":7835:7850   */\n  mul\n    /* \"#utility.yul\":7827:7850   */\n  swap1\n  pop\n    /* \"#utility.yul\":7875:7907   */\n  tag_206\n    /* \"#utility.yul\":7898:7906   */\n  dup6\n    /* \"#utility.yul\":7875:7907   */\n  tag_102\n  jump\t// in\ntag_206:\n    /* \"#utility.yul\":7863:7907   */\n  swap5\n  pop\n    /* \"#utility.yul\":7205:7917   */\n  jump(tag_200)\ntag_202:\n    /* \"#utility.yul\":7075:7923   */\n  swap5\n  pop\n  swap5\n  swap3\n  pop\n  pop\n  pop\n  jump\t// out\n    /* \"#utility.yul\":7929:9002   */\ntag_104:\n    /* \"#utility.yul\":7983:7988   */\n  0x00\n    /* \"#utility.yul\":8174:8182   */\n  dup3\n    /* \"#utility.yul\":8164:8204   */\n  tag_208\n  jumpi\n    /* \"#utility.yul\":8195:8196   */\n  0x01\n    /* \"#utility.yul\":8186:8196   */\n  swap1\n  pop\n    /* \"#utility.yul\":8197:8202   */\n  jump(tag_207)\n    /* \"#utility.yul\":8164:8204   */\ntag_208:\n    /* \"#utility.yul\":8223:8227   */\n  dup2\n    /* \"#utility.yul\":8213:8249   */\n  tag_209\n  jumpi\n    /* \"#utility.yul\":8240:8241   */\n  0x00\n    /* \"#utility.yul\":8231:8241   */\n  swap1\n  pop\n    /* \"#utility.yul\":8242:8247   */\n  jump(tag_207)\n    /* \"#utility.yul\":8213:8249   */\ntag_209:\n    /* \"#utility.yul\":8309:8313   */\n  dup2\n    /* \"#utility.yul\":8357:8358   */\n  0x01\n    /* \"#utility.yul\":8352:8379   */\n  dup2\n  eq\n  tag_211\n  jumpi\n    /* \"#utility.yul\":8393:8394   */\n  0x02\n    /* \"#utility.yul\":8388:8579   */\n  dup2\n  eq\n  tag_212\n  jumpi\n    /* \"#utility.yul\":8302:8579   */\n  jump(tag_210)\n    /* \"#utility.yul\":8352:8379   */\ntag_211:\n    /* \"#utility.yul\":8370:8371   */\n  0x01\n    /* \"#utility.yul\":8361:8371   */\n  swap2\n  pop\n    /* \"#utility.yul\":8372:8377   */\n  pop\n  jump(tag_207)\n    /* \"#utility.yul\":8388:8579   */\ntag_212:\n    /* \"#utility.yul\":8433:8436   */\n  0xff\n    /* \"#utility.yul\":8423:8431   */\n  dup5\n    /* \"#utility.yul\":8420:8437   */\n  gt\n    /* \"#utility.yul\":8417:8460   */\n  iszero\n  tag_213\n  jumpi\n    /* \"#utility.yul\":8440:8458   */\n  tag_214\n  tag_101\n  jump\t// in\ntag_214:\n    /* \"#utility.yul\":8417:8460   */\ntag_213:\n    /* \"#utility.yul\":8489:8497   */\n  dup4\n    /* \"#utility.yul\":8486:8487   */\n  0x02\n    /* \"#utility.yul\":8482:8498   */\n  exp\n    /* \"#utility.yul\":8473:8498   */\n  swap2\n  pop\n    /* \"#utility.yul\":8524:8527   */\n  dup5\n    /* \"#utility.yul\":8517:8522   */\n  dup3\n    /* \"#utility.yul\":8514:8528   */\n  gt\n    /* \"#utility.yul\":8511:8551   */\n  iszero\n  tag_215\n  jumpi\n    /* \"#utility.yul\":8531:8549   */\n  tag_216\n  tag_101\n  jump\t// in\ntag_216:\n    /* \"#utility.yul\":8511:8551   */\ntag_215:\n    /* \"#utility.yul\":8564:8569   */\n  pop\n  jump(tag_207)\n    /* \"#utility.yul\":8302:8579   */\ntag_210:\n  pop\n    /* \"#utility.yul\":8688:8690   */\n  0x20\n    /* \"#utility.yul\":8678:8686   */\n  dup4\n    /* \"#utility.yul\":8675:8691   */\n  lt\n    /* \"#utility.yul\":8669:8672   */\n  0x0133\n    /* \"#utility.yul\":8663:8667   */\n  dup4\n    /* \"#utility.yul\":8660:8673   */\n  lt\n    /* \"#utility.yul\":8656:8692   */\n  and\n    /* \"#utility.yul\":8638:8640   */\n  0x4e\n    /* \"#utility.yul\":8628:8636   */\n  dup5\n    /* \"#utility.yul\":8625:8641   */\n  lt\n    /* \"#utility.yul\":8620:8622   */\n  0x0b\n    /* \"#utility.yul\":8614:8618   */\n  dup5\n    /* \"#utility.yul\":8611:8623   */\n  lt\n    /* \"#utility.yul\":8607:8642   */\n  and\n    /* \"#utility.yul\":8591:8702   */\n  or\n    /* \"#utility.yul\":8588:8834   */\n  iszero\n  tag_217\n  jumpi\n    /* \"#utility.yul\":8744:8752   */\n  dup3\n    /* \"#utility.yul\":8738:8742   */\n  dup3\n    /* \"#utility.yul\":8734:8753   */\n  exp\n    /* \"#utility.yul\":8725:8753   */\n  swap1\n  pop\n    /* \"#utility.yul\":8779:8782   */\n  dup4\n    /* \"#utility.yul\":8772:8777   */\n  dup2\n    /* \"#utility.yul\":8769:8783   */\n  gt\n    /* \"#utility.yul\":8766:8806   */\n  iszero\n  tag_218\n  jumpi\n    /* \"#utility.yul\":8786:8804   */\n  tag_219\n  tag_101\n  jump\t// in\ntag_219:\n    /* \"#utility.yul\":8766:8806   */\ntag_218:\n    /* \"#utility.yul\":8819:8824   */\n  jump(tag_207)\n    /* \"#utility.yul\":8588:8834   */\ntag_217:\n    /* \"#utility.yul\":8859:8901   */\n  tag_220\n    /* \"#utility.yul\":8897:8900   */\n  dup5\n    /* \"#utility.yul\":8887:8895   */\n  dup5\n    /* \"#utility.yul\":8881:8885   */\n  dup5\n    /* \"#utility.yul\":8878:8879   */\n  0x01\n    /* \"#utility.yul\":8859:8901   */\n  tag_103\n  jump\t// in\ntag_220:\n    /* \"#utility.yul\":8844:8901   */\n  swap3\n  pop\n  swap1\n  pop\n    /* \"#utility.yul\":8933:8937   */\n  dup2\n    /* \"#utility.yul\":8928:8931   */\n  dup5\n    /* \"#utility.yul\":8924:8938   */\n  div\n    /* \"#utility.yul\":8917:8922   */\n  dup2\n    /* \"#utility.yul\":8914:8939   */\n  gt\n    /* \"#utility.yul\":8911:8962   */\n  iszero\n  tag_221\n  jumpi\n    /* \"#utility.yul\":8942:8960   */\n  tag_222\n  tag_101\n  jump\t// in\ntag_222:\n    /* \"#utility.yul\":8911:8962   */\ntag_221:\n    /* \"#utility.yul\":8991:8995   */\n  dup2\n    /* \"#utility.yul\":8984:8989   */\n  dup2\n    /* \"#utility.yul\":8980:8996   */\n  mul\n    /* \"#utility.yul\":8971:8996   */\n  swap1\n  pop\n    /* \"#utility.yul\":7929:9002   */\ntag_207:\n  swap4\n  swap3\n  pop\n  pop\n  pop\n  jump\t// out\n    /* \"#utility.yul\":9008:9094   */\ntag_105:\n    /* \"#utility.yul\":9043:9050   */\n  0x00\n    /* \"#utility.yul\":9083:9087   */\n  0xff\n    /* \"#utility.yul\":9076:9081   */\n  dup3\n    /* \"#utility.yul\":9072:9088   */\n  and\n    /* \"#utility.yul\":9061:9088   */\n  swap1\n  pop\n    /* \"#utility.yul\":9008:9094   */\n  swap2\n  swap1\n  pop\n  jump\t// out\n    /* \"#utility.yul\":9100:9381   */\ntag_31:\n    /* \"#utility.yul\":9158:9163   */\n  0x00\n    /* \"#utility.yul\":9182:9205   */\n  tag_225\n    /* \"#utility.yul\":9200:9204   */\n  dup3\n    /* \"#utility.yul\":9182:9205   */\n  tag_88\n  jump\t// in\ntag_225:\n    /* \"#utility.yul\":9174:9205   */\n  swap2\n  pop\n    /* \"#utility.yul\":9226:9251   */\n  tag_226\n    /* \"#utility.yul\":9242:9250   */\n  dup4\n    /* \"#utility.yul\":9226:9251   */\n  tag_105\n  jump\t// in\ntag_226:\n    /* \"#utility.yul\":9214:9251   */\n  swap3\n  pop\n    /* \"#utility.yul\":9270:9374   */\n  tag_227\n    /* \"#utility.yul\":9307:9373   */\n  0xffffffffffffffffffffffffffffffffffffffffffffffffffffffffffffffff\n    /* \"#utility.yul\":9297:9305   */\n  dup5\n    /* \"#utility.yul\":9291:9295   */\n  dup5\n    /* \"#utility.yul\":9270:9374   */\n  tag_104\n  jump\t// in\ntag_227:\n    /* \"#utility.yul\":9261:9374   */\n  swap1\n  pop\n    /* \"#utility.yul\":9100:9381   */\n  swap3\n  swap2\n  pop\n  pop\n  jump\t// out\n    /* \"#utility.yul\":9387:9797   */\ntag_33:\n    /* \"#utility.yul\":9427:9434   */\n  0x00\n    /* \"#utility.yul\":9450:9470   */\n  tag_229\n    /* \"#utility.yul\":9468:9469   */\n  dup3\n    /* \"#utility.yul\":9450:9470   */\n  tag_88\n  jump\t// in\ntag_229:\n    /* \"#utility.yul\":9445:9470   */\n  swap2\n  pop\n    /* \"#utility.yul\":9484:9504   */\n  tag_230\n    /* \"#utility.yul\":9502:9503   */\n  dup4\n    /* \"#utility.yul\":9484:9504   */\n  tag_88\n  jump\t// in\ntag_230:\n    /* \"#utility.yul\":9479:9504   */\n  swap3\n  pop\n    /* \"#utility.yul\":9539:9540   */\n  dup3\n    /* \"#utility.yul\":9536:9537   */\n  dup3\n    /* \"#utility.yul\":9532:9541   */\n  mul\n    /* \"#utility.yul\":9561:9591   */\n  tag_231\n    /* \"#utility.yul\":9579:9590   */\n  dup2\n    /* \"#utility.yul\":9561:9591   */\n  tag_88\n  jump\t// in\ntag_231:\n    /* \"#utility.yul\":9550:9591   */\n  swap2\n  pop\n    /* \"#utility.yul\":9740:9741   */\n  dup3\n    /* \"#utility.yul\":9731:9738   */\n  dup3\n    /* \"#utility.yul\":9727:9742   */\n  div\n    /* \"#utility.yul\":9724:9725   */\n  dup5\n    /* \"#utility.yul\":9721:9743   */\n  eq\n    /* \"#utility.yul\":9701:9702   */\n  dup4\n    /* \"#utility.yul\":9694:9703   */\n  iszero\n    /* \"#utility.yul\":9674:9757   */\n  or\n    /* \"#utility.yul\":9651:9790   */\n  tag_232\n  jumpi\n    /* \"#utility.yul\":9770:9788   */\n  tag_233\n  tag_101\n  jump\t// in\ntag_233:\n    /* \"#utility.yul\":9651:9790   */\ntag_232:\n    /* \"#utility.yul\":9435:9797   */\n  pop\n    /* \"#utility.yul\":9387:9797   */\n  swap3\n  swap2\n  pop\n  pop\n  jump\t// out\n    /* \"#utility.yul\":9803:9880   */\ntag_106:\n    /* \"#utility.yul\":9840:9847   */\n  0x00\n    /* \"#utility.yul\":9869:9874   */\n  dup2\n    /* \"#utility.yul\":9858:9874   */\n  swap1\n  pop\n    /* \"#utility.yul\":9803:9880   */\n  swap2\n  swap1\n  pop\n  jump\t// out\n    /* \"#utility.yul\":9886:10004   */\ntag_107:\n    /* \"#utility.yul\":9973:9997   */\n  tag_236\n    /* \"#utility.yul\":9991:9996   */\n  dup2\n    /* \"#utility.yul\":9973:9997   */\n  tag_106\n  jump\t// in\ntag_236:\n    /* \"#utility.yul\":9968:9971   */\n  dup3\n    /* \"#utility.yul\":9961:9998   */\n  mstore\n    /* \"#utility.yul\":9886:10004   */\n  pop\n  pop\n  jump\t// out\n    /* \"#utility.yul\":10010:10128   */\ntag_108:\n    /* \"#utility.yul\":10097:10121   */\n  tag_238\n    /* \"#utility.yul\":10115:10120   */\n  dup2\n    /* \"#utility.yul\":10097:10121   */\n  tag_88\n  jump\t// in\ntag_238:\n    /* \"#utility.yul\":10092:10095   */\n  dup3\n    /* \"#utility.yul\":10085:10122   */\n  mstore\n    /* \"#utility.yul\":10010:10128   */\n  pop\n  pop\n  jump\t// out\n    /* \"#utility.yul\":10134:10798   */\ntag_47:\n    /* \"#utility.yul\":10339:10343   */\n  0x00\n    /* \"#utility.yul\":10377:10380   */\n  0xa0\n    /* \"#utility.yul\":10366:10375   */\n  dup3\n    /* \"#utility.yul\":10362:10381   */\n  add\n    /* \"#utility.yul\":10354:10381   */\n  swap1\n  pop\n    /* \"#utility.yul\":10391:10462   */\n  tag_240\n    /* \"#utility.yul\":10459:10460   */\n  0x00\n    /* \"#utility.yul\":10448:10457   */\n  dup4\n    /* \"#utility.yul\":10444:10461   */\n  add\n    /* \"#utility.yul\":10435:10441   */\n  dup9\n    /* \"#utility.yul\":10391:10462   */\n  tag_107\n  jump\t// in\ntag_240:\n    /* \"#utility.yul\":10472:10544   */\n  tag_241\n    /* \"#utility.yul\":10540:10542   */\n  0x20\n    /* \"#utility.yul\":10529:10538   */\n  dup4\n    /* \"#utility.yul\":10525:10543   */\n  add\n    /* \"#utility.yul\":10516:10522   */\n  dup8\n    /* \"#utility.yul\":10472:10544   */\n  tag_107\n  jump\t// in\ntag_241:\n    /* \"#utility.yul\":10554:10626   */\n  tag_242\n    /* \"#utility.yul\":10622:10624   */\n  0x40\n    /* \"#utility.yul\":10611:10620   */\n  dup4\n    /* \"#utility.yul\":10607:10625   */\n  add\n    /* \"#utility.yul\":10598:10604   */\n  dup7\n    /* \"#utility.yul\":10554:10626   */\n  tag_107\n  jump\t// in\ntag_242:\n    /* \"#utility.yul\":10636:10708   */\n  tag_243\n    /* \"#utility.yul\":10704:10706   */\n  0x60\n    /* \"#utility.yul\":10693:10702   */\n  dup4\n    /* \"#utility.yul\":10689:10707   */\n  add\n    /* \"#utility.yul\":10680:10686   */\n  dup6\n    /* \"#utility.yul\":10636:10708   */\n  tag_108\n  jump\t// in\ntag_243:\n    /* \"#utility.yul\":10718:10791   */\n  tag_244\n    /* \"#utility.yul\":10786:10789   */\n  0x80\n    /* \"#utility.yul\":10775:10784   */\n  dup4\n    /* \"#utility.yul\":10771:10790   */\n  add\n    /* \"#utility.yul\":10762:10768   */\n  dup5\n    /* \"#utility.yul\":10718:10791   */\n  tag_100\n  jump\t// in\ntag_244:\n    /* \"#utility.yul\":10134:10798   */\n  swap7\n  swap6\n  pop\n  pop\n  pop\n  pop\n  pop\n  pop\n  jump\t// out\n    /* \"#utility.yul\":10804:10973   */\ntag_109:\n    /* \"#utility.yul\":10888:10899   */\n  0x00\n    /* \"#utility.yul\":10922:10928   */\n  dup3\n    /* \"#utility.yul\":10917:10920   */\n  dup3\n    /* \"#utility.yul\":10910:10929   */\n  mstore\n    /* \"#utility.yul\":10962:10966   */\n  0x20\n    /* \"#utility.yul\":10957:10960   */\n  dup3\n    /* \"#utility.yul\":10953:10967   */\n  add\n    /* \"#utility.yul\":10938:10967   */\n  swap1\n  pop\n    /* \"#utility.yul\":10804:10973   */\n  swap3\n  swap2\n  pop\n  pop\n  jump\t// out\n    /* \"#utility.yul\":10979:11225   */\ntag_110:\n    /* \"#utility.yul\":11060:11061   */\n  0x00\n    /* \"#utility.yul\":11070:11183   */\ntag_247:\n    /* \"#utility.yul\":11084:11090   */\n  dup4\n    /* \"#utility.yul\":11081:11082   */\n  dup2\n    /* \"#utility.yul\":11078:11091   */\n  lt\n    /* \"#utility.yul\":11070:11183   */\n  iszero\n  tag_249\n  jumpi\n    /* \"#utility.yul\":11169:11170   */\n  dup1\n    /* \"#utility.yul\":11164:11167   */\n  dup3\n    /* \"#utility.yul\":11160:11171   */\n  add\n    /* \"#utility.yul\":11154:11172   */\n  mload\n    /* \"#utility.yul\":11150:11151   */\n  dup2\n    /* \"#utility.yul\":11145:11148   */\n  dup5\n    /* \"#utility.yul\":11141:11152   */\n  add\n    /* \"#utility.yul\":11134:11173   */\n  mstore\n    /* \"#utility.yul\":11106:11108   */\n  0x20\n    /* \"#utility.yul\":11103:11104   */\n  dup2\n    /* \"#utility.yul\":11099:11109   */\n  add\n    /* \"#utility.yul\":11094:11109   */\n  swap1\n  pop\n    /* \"#utility.yul\":11070:11183   */\n  jump(tag_247)\ntag_249:\n    /* \"#utility.yul\":11217:11218   */\n  0x00\n    /* \"#utility.yul\":11208:11214   */\n  dup5\n    /* \"#utility.yul\":11203:11206   */\n  dup5\n    /* \"#utility.yul\":11199:11215   */\n  add\n    /* \"#utility.yul\":11192:11219   */\n  mstore\n    /* \"#utility.yul\":11041:11225   */\n  pop\n    /* \"#utility.yul\":10979:11225   */\n  pop\n  pop\n  pop\n  jump\t// out\n    /* \"#utility.yul\":11231:11333   */\ntag_111:\n    /* \"#utility.yul\":11272:11278   */\n  0x00\n    /* \"#utility.yul\":11323:11325   */\n  0x1f\n    /* \"#utility.yul\":11319:11326   */\n  not\n    /* \"#utility.yul\":11314:11316   */\n  0x1f\n    /* \"#utility.yul\":11307:11312   */\n  dup4\n    /* \"#utility.yul\":11303:11317   */\n  add\n    /* \"#utility.yul\":11299:11327   */\n  and\n    /* \"#utility.yul\":11289:11327   */\n  swap1\n  pop\n    /* \"#utility.yul\":11231:11333   */\n  swap2\n  swap1\n  pop\n  jump\t// out\n    /* \"#utility.yul\":11339:11716   */\ntag_112:\n    /* \"#utility.yul\":11427:11430   */\n  0x00\n    /* \"#utility.yul\":11455:11494   */\n  tag_252\n    /* \"#utility.yul\":11488:11493   */\n  dup3\n    /* \"#utility.yul\":11455:11494   */\n  tag_80\n  jump\t// in\ntag_252:\n    /* \"#utility.yul\":11510:11581   */\n  tag_253\n    /* \"#utility.yul\":11574:11580   */\n  dup2\n    /* \"#utility.yul\":11569:11572   */\n  dup6\n    /* \"#utility.yul\":11510:11581   */\n  tag_109\n  jump\t// in\ntag_253:\n    /* \"#utility.yul\":11503:11581   */\n  swap4\n  pop\n    /* \"#utility.yul\":11590:11655   */\n  tag_254\n    /* \"#utility.yul\":11648:11654   */\n  dup2\n    /* \"#utility.yul\":11643:11646   */\n  dup6\n    /* \"#utility.yul\":11636:11640   */\n  0x20\n    /* \"#utility.yul\":11629:11634   */\n  dup7\n    /* \"#utility.yul\":11625:11641   */\n  add\n    /* \"#utility.yul\":11590:11655   */\n  tag_110\n  jump\t// in\ntag_254:\n    /* \"#utility.yul\":11680:11709   */\n  tag_255\n    /* \"#utility.yul\":11702:11708   */\n  dup2\n    /* \"#utility.yul\":11680:11709   */\n  tag_111\n  jump\t// in\ntag_255:\n    /* \"#utility.yul\":11675:11678   */\n  dup5\n    /* \"#utility.yul\":11671:11710   */\n  add\n    /* \"#utility.yul\":11664:11710   */\n  swap2\n  pop\n    /* \"#utility.yul\":11431:11716   */\n  pop\n    /* \"#utility.yul\":11339:11716   */\n  swap3\n  swap2\n  pop\n  pop\n  jump\t// out\n    /* \"#utility.yul\":11722:12035   */\ntag_57:\n    /* \"#utility.yul\":11835:11839   */\n  0x00\n    /* \"#utility.yul\":11873:11875   */\n  0x20\n    /* \"#utility.yul\":11862:11871   */\n  dup3\n    /* \"#utility.yul\":11858:11876   */\n  add\n    /* \"#utility.yul\":11850:11876   */\n  swap1\n  pop\n    /* \"#utility.yul\":11922:11931   */\n  dup2\n    /* \"#utility.yul\":11916:11920   */\n  dup2\n    /* \"#utility.yul\":11912:11932   */\n  sub\n    /* \"#utility.yul\":11908:11909   */\n  0x00\n    /* \"#utility.yul\":11897:11906   */\n  dup4\n    /* \"#utility.yul\":11893:11910   */\n  add\n    /* \"#utility.yul\":11886:11933   */\n  mstore\n    /* \"#utility.yul\":11950:12028   */\n  tag_257\n    /* \"#utility.yul\":12023:12027   */\n  dup2\n    /* \"#utility.yul\":12014:12020   */\n  dup5\n    /* \"#utility.yul\":11950:12028   */\n  tag_112\n  jump\t// in\ntag_257:\n    /* \"#utility.yul\":11942:12028   */\n  swap1\n  pop\n    /* \"#utility.yul\":11722:12035   */\n  swap3\n  swap2\n  pop\n  pop\n  jump\t// out\n    /* \"#utility.yul\":12041:12139   */\ntag_113:\n    /* \"#utility.yul\":12092:12098   */\n  0x00\n    /* \"#utility.yul\":12126:12131   */\n  dup2\n    /* \"#utility.yul\":12120:12132   */\n  mload\n    /* \"#utility.yul\":12110:12132   */\n  swap1\n  pop\n    /* \"#utility.yul\":12041:12139   */\n  swap2\n  swap1\n  pop\n  jump\t// out\n    /* \"#utility.yul\":12145:12261   */\ntag_114:\n    /* \"#utility.yul\":12196:12200   */\n  0x00\n    /* \"#utility.yul\":12219:12222   */\n  dup2\n    /* \"#utility.yul\":12211:12222   */\n  swap1\n  pop\n    /* \"#utility.yul\":12249:12253   */\n  0x20\n    /* \"#utility.yul\":12244:12247   */\n  dup3\n    /* \"#utility.yul\":12240:12254   */\n  add\n    /* \"#utility.yul\":12232:12254   */\n  swap1\n  pop\n    /* \"#utility.yul\":12145:12261   */\n  swap2\n  swap1\n  pop\n  jump\t// out\n    /* \"#utility.yul\":12267:12421   */\ntag_115:\n    /* \"#utility.yul\":12310:12321   */\n  0x00\n    /* \"#utility.yul\":12346:12375   */\n  tag_261\n    /* \"#utility.yul\":12370:12373   */\n  dup3\n    /* \"#utility.yul\":12364:12374   */\n  mload\n    /* \"#utility.yul\":12346:12375   */\n  tag_106\n  jump\t// in\ntag_261:\n    /* \"#utility.yul\":12409:12414   */\n  dup1\n    /* \"#utility.yul\":12385:12414   */\n  swap2\n  pop\n    /* \"#utility.yul\":12322:12421   */\n  pop\n    /* \"#utility.yul\":12267:12421   */\n  swap2\n  swap1\n  pop\n  jump\t// out\n    /* \"#utility.yul\":12427:13021   */\ntag_59:\n    /* \"#utility.yul\":12511:12516   */\n  0x00\n    /* \"#utility.yul\":12542:12580   */\n  tag_263\n    /* \"#utility.yul\":12574:12579   */\n  dup3\n    /* \"#utility.yul\":12542:12580   */\n  tag_113\n  jump\t// in\ntag_263:\n    /* \"#utility.yul\":12605:12610   */\n  dup3\n    /* \"#utility.yul\":12632:12672   */\n  tag_264\n    /* \"#utility.yul\":12666:12671   */\n  dup5\n    /* \"#utility.yul\":12632:12672   */\n  tag_114\n  jump\t// in\ntag_264:\n    /* \"#utility.yul\":12620:12672   */\n  swap1\n  pop\n    /* \"#utility.yul\":12691:12726   */\n  tag_265\n    /* \"#utility.yul\":12717:12725   */\n  dup2\n    /* \"#utility.yul\":12691:12726   */\n  tag_115\n  jump\t// in\ntag_265:\n    /* \"#utility.yul\":12682:12726   */\n  swap3\n  pop\n    /* \"#utility.yul\":12750:12752   */\n  0x20\n    /* \"#utility.yul\":12742:12748   */\n  dup3\n    /* \"#utility.yul\":12739:12753   */\n  lt\n    /* \"#utility.yul\":12736:13014   */\n  iszero\n  tag_266\n  jumpi\n    /* \"#utility.yul\":12821:12990   */\n  tag_267\n    /* \"#utility.yul\":12906:12972   */\n  0xffffffffffffffffffffffffffffffffffffffffffffffffffffffffffffffff\n    /* \"#utility.yul\":12876:12882   */\n  dup4\n    /* \"#utility.yul\":12872:12874   */\n  0x20\n    /* \"#utility.yul\":12868:12883   */\n  sub\n    /* \"#utility.yul\":12865:12866   */\n  0x08\n    /* \"#utility.yul\":12861:12884   */\n  mul\n    /* \"#utility.yul\":12821:12990   */\n  tag_86\n  jump\t// in\ntag_267:\n    /* \"#utility.yul\":12798:12803   */\n  dup4\n    /* \"#utility.yul\":12777:13004   */\n  and\n    /* \"#utility.yul\":12768:13004   */\n  swap3\n  pop\n    /* \"#utility.yul\":12736:13014   */\ntag_266:\n    /* \"#utility.yul\":12517:13021   */\n  pop\n  pop\n    /* \"#utility.yul\":12427:13021   */\n  swap2\n  swap1\n  pop\n  jump\t// out\n    /* \"#utility.yul\":13027:13218   */\ntag_64:\n    /* \"#utility.yul\":13067:13070   */\n  0x00\n    /* \"#utility.yul\":13086:13106   */\n  tag_269\n    /* \"#utility.yul\":13104:13105   */\n  dup3\n    /* \"#utility.yul\":13086:13106   */\n  tag_88\n  jump\t// in\ntag_269:\n    /* \"#utility.yul\":13081:13106   */\n  swap2\n  pop\n    /* \"#utility.yul\":13120:13140   */\n  tag_270\n    /* \"#utility.yul\":13138:13139   */\n  dup4\n    /* \"#utility.yul\":13120:13140   */\n  tag_88\n  jump\t// in\ntag_270:\n    /* \"#utility.yul\":13115:13140   */\n  swap3\n  pop\n    /* \"#utility.yul\":13163:13164   */\n  dup3\n    /* \"#utility.yul\":13160:13161   */\n  dup3\n    /* \"#utility.yul\":13156:13165   */\n  add\n    /* \"#utility.yul\":13149:13165   */\n  swap1\n  pop\n    /* \"#utility.yul\":13184:13187   */\n  dup1\n    /* \"#utility.yul\":13181:13182   */\n  dup3\n    /* \"#utility.yul\":13178:13188   */\n  gt\n    /* \"#utility.yul\":13175:13211   */\n  iszero\n  tag_271\n  jumpi\n    /* \"#utility.yul\":13191:13209   */\n  tag_272\n  tag_101\n  jump\t// in\ntag_272:\n    /* \"#utility.yul\":13175:13211   */\ntag_271:\n    /* \"#utility.yul\":13027:13218   */\n  swap3\n  swap2\n  pop\n  pop\n  jump\t// out\n    /* \"#utility.yul\":13224:13666   */\ntag_68:\n    /* \"#utility.yul\":13373:13377   */\n  0x00\n    /* \"#utility.yul\":13411:13413   */\n  0x60\n    /* \"#utility.yul\":13400:13409   */\n  dup3\n    /* \"#utility.yul\":13396:13414   */\n  add\n    /* \"#utility.yul\":13388:13414   */\n  swap1\n  pop\n    /* \"#utility.yul\":13424:13495   */\n  tag_274\n    /* \"#utility.yul\":13492:13493   */\n  0x00\n    /* \"#utility.yul\":13481:13490   */\n  dup4\n    /* \"#utility.yul\":13477:13494   */\n  add\n    /* \"#utility.yul\":13468:13474   */\n  dup7\n    /* \"#utility.yul\":13424:13495   */\n  tag_100\n  jump\t// in\ntag_274:\n    /* \"#utility.yul\":13505:13577   */\n  tag_275\n    /* \"#utility.yul\":13573:13575   */\n  0x20\n    /* \"#utility.yul\":13562:13571   */\n  dup4\n    /* \"#utility.yul\":13558:13576   */\n  add\n    /* \"#utility.yul\":13549:13555   */\n  dup6\n    /* \"#utility.yul\":13505:13577   */\n  tag_108\n  jump\t// in\ntag_275:\n    /* \"#utility.yul\":13587:13659   */\n  tag_276\n    /* \"#utility.yul\":13655:13657   */\n  0x40\n    /* \"#utility.yul\":13644:13653   */\n  dup4\n    /* \"#utility.yul\":13640:13658   */\n  add\n    /* \"#utility.yul\":13631:13637   */\n  dup5\n    /* \"#utility.yul\":13587:13659   */\n  tag_108\n  jump\t// in\ntag_276:\n    /* \"#utility.yul\":13224:13666   */\n  swap5\n  swap4\n  pop\n  pop\n  pop\n  pop\n  jump\t// out\n    /* \"#utility.yul\":13672:13894   */\ntag_72:\n    /* \"#utility.yul\":13765:13769   */\n  0x00\n    /* \"#utility.yul\":13803:13805   */\n  0x20\n    /* \"#utility.yul\":13792:13801   */\n  dup3\n    /* \"#utility.yul\":13788:13806   */\n  add\n    /* \"#utility.yul\":13780:13806   */\n  swap1\n  pop\n    /* \"#utility.yul\":13816:13887   */\n  tag_278\n    /* \"#utility.yul\":13884:13885   */\n  0x00\n    /* \"#utility.yul\":13873:13882   */\n  dup4\n    /* \"#utility.yul\":13869:13886   */\n  add\n    /* \"#utility.yul\":13860:13866   */\n  dup5\n    /* \"#utility.yul\":13816:13887   */\n  tag_108\n  jump\t// in\ntag_278:\n    /* \"#utility.yul\":13672:13894   */\n  swap3\n  swap2\n  pop\n  pop\n  jump\t// out\n    /* \"Token_RY_flattened.sol\":79653:79991  contract Reyes is ERC20, Ownable, ERC20Permit {... */\ntag_35:\n  mload(0x80)\n  mload(0xa0)\n  mload(0xc0)\n  mload(0xe0)\n  mload(0x0100)\n  mload(0x0120)\n  mload(0x0140)\n  codecopy(0x00, dataOffset(sub_0), dataSize(sub_0))\n  0x00\n  assignImmutable(\"0x6a27fd8b4e034345f821626e478d5e1624295ad016c351a1e0a3d60e930e4e52\")\n  0x00\n  assignImmutable(\"0x94a6815ac3f39ee0f691137327eba74e351a039ac093f36725d81460ae04f412\")\n  0x00\n  assignImmutable(\"0x957b8855a729b67dc028ca49cb97b10aca21a5ff5ddcb5f61d4444c005a9b1c2\")\n  0x00\n  assignImmutable(\"0xd7540fe9b6cfec114ef69b9a5e37f0df0cc41a7a00237e8b74bf5a92c0da8102\")\n  0x00\n  assignImmutable(\"0xa19d718480110222d22b6d2951f2fd7e402bb541199804c801e8efc2019fa5ca\")\n  0x00\n  assignImmutable(\"0x8e6edc2e6718e67f653228e7ef9c7cb13217a05d4dce88c9b22917701f7f0736\")\n  0x00\n  assignImmutable(\"0xccfc0c959b119ee28d407ea161eaeb170333879869a337b808d1b575d1b25cde\")\n  return(0x00, dataSize(sub_0))\nstop\n\nsub_0: assembly {\n        /* \"Token_RY_flattened.sol\":79653:79991  contract Reyes is ERC20, Ownable, ERC20Permit {... */\n      mstore(0x40, 0x80)\n      callvalue\n      dup1\n      iszero\n      tag_1\n      jumpi\n      0x00\n      dup1\n      revert\n    tag_1:\n      pop\n      jumpi(tag_2, lt(calldatasize, 0x04))\n      shr(0xe0, calldataload(0x00))\n      dup1\n      0x715018a6\n      gt\n      tag_20\n      jumpi\n      dup1\n      0x95d89b41\n      gt\n      tag_21\n      jumpi\n      dup1\n      0x95d89b41\n      eq\n      tag_15\n      jumpi\n      dup1\n      0xa9059cbb\n      eq\n      tag_16\n      jumpi\n      dup1\n      0xd505accf\n      eq\n      tag_17\n      jumpi\n      dup1\n      0xdd62ed3e\n      eq\n      tag_18\n      jumpi\n      dup1\n      0xf2fde38b\n      eq\n      tag_19\n      jumpi\n      jump(tag_2)\n    tag_21:\n      dup1\n      0x715018a6\n      eq\n      tag_11\n      jumpi\n      dup1\n      0x7ecebe00\n      eq\n      tag_12\n      jumpi\n      dup1\n      0x84b0196e\n      eq\n      tag_13\n      jumpi\n      dup1\n      0x8da5cb5b\n      eq\n      tag_14\n      jumpi\n      jump(tag_2)\n    tag_20:\n      dup1\n      0x313ce567\n      gt\n      tag_22\n      jumpi\n      dup1\n      0x313ce567\n      eq\n      tag_7\n      jumpi\n      dup1\n      0x3644e515\n      eq\n      tag_8\n      jumpi\n      dup1\n      0x40c10f19\n      eq\n      tag_9\n      jumpi\n      dup1\n      0x70a08231\n      eq\n      tag_10\n      jumpi\n      jump(tag_2)\n    tag_22:\n      dup1\n      0x06fdde03\n      eq\n      tag_3\n      jumpi\n      dup1\n      0x095ea7b3\n      eq\n      tag_4\n      jumpi\n      dup1\n      0x18160ddd\n      eq\n      tag_5\n      jumpi\n      dup1\n      0x23b872dd\n      eq\n      tag_6\n      jumpi\n    tag_2:\n      0x00\n      dup1\n      revert\n        /* \"Token_RY_flattened.sol\":12965:13054  function name() public view virtual returns (string memory) {... */\n    tag_3:\n      tag_23\n      tag_24\n      jump\t// in\n    tag_23:\n      mload(0x40)\n      tag_25\n      swap2\n      swap1\n      tag_26\n      jump\t// in\n    tag_25:\n      mload(0x40)\n      dup1\n      swap2\n      sub\n      swap1\n      return\n        /* \"Token_RY_flattened.sol\":15184:15370  function approve(address spender, uint256 value) public virtual returns (bool) {... */\n    tag_4:\n      tag_27\n      0x04\n      dup1\n      calldatasize\n      sub\n      dup2\n      add\n      swap1\n      tag_28\n      swap2\n      swap1\n      tag_29\n      jump\t// in\n    tag_28:\n      tag_30\n      jump\t// in\n    tag_27:\n      mload(0x40)\n      tag_31\n      swap2\n      swap1\n      tag_32\n      jump\t// in\n    tag_31:\n      mload(0x40)\n      dup1\n      swap2\n      sub\n      swap1\n      return\n        /* \"Token_RY_flattened.sol\":14035:14132  function totalSupply() public view virtual returns (uint256) {... */\n    tag_5:\n      tag_33\n      tag_34\n      jump\t// in\n    tag_33:\n      mload(0x40)\n      tag_35\n      swap2\n      swap1\n      tag_36\n      jump\t// in\n    tag_35:\n      mload(0x40)\n      dup1\n      swap2\n      sub\n      swap1\n      return\n        /* \"Token_RY_flattened.sol\":15930:16174  function transferFrom(address from, address to, uint256 value) public virtual returns (bool) {... */\n    tag_6:\n      tag_37\n      0x04\n      dup1\n      calldatasize\n      sub\n      dup2\n      add\n      swap1\n      tag_38\n      swap2\n      swap1\n      tag_39\n      jump\t// in\n    tag_38:\n      tag_40\n      jump\t// in\n    tag_37:\n      mload(0x40)\n      tag_41\n      swap2\n      swap1\n      tag_32\n      jump\t// in\n    tag_41:\n      mload(0x40)\n      dup1\n      swap2\n      sub\n      swap1\n      return\n        /* \"Token_RY_flattened.sol\":13893:13975  function decimals() public view virtual returns (uint8) {... */\n    tag_7:\n      tag_42\n      tag_43\n      jump\t// in\n    tag_42:\n      mload(0x40)\n      tag_44\n      swap2\n      swap1\n      tag_45\n      jump\t// in\n    tag_44:\n      mload(0x40)\n      dup1\n      swap2\n      sub\n      swap1\n      return\n        /* \"Token_RY_flattened.sol\":79394:79506  function DOMAIN_SEPARATOR() external view virtual returns (bytes32) {... */\n    tag_8:\n      tag_46\n      tag_47\n      jump\t// in\n    tag_46:\n      mload(0x40)\n      tag_48\n      swap2\n      swap1\n      tag_49\n      jump\t// in\n    tag_48:\n      mload(0x40)\n      dup1\n      swap2\n      sub\n      swap1\n      return\n        /* \"Token_RY_flattened.sol\":79896:79989  function mint(address to, uint256 amount) public onlyOwner {... */\n    tag_9:\n      tag_50\n      0x04\n      dup1\n      calldatasize\n      sub\n      dup2\n      add\n      swap1\n      tag_51\n      swap2\n      swap1\n      tag_29\n      jump\t// in\n    tag_51:\n      tag_52\n      jump\t// in\n    tag_50:\n      stop\n        /* \"Token_RY_flattened.sol\":14190:14306  function balanceOf(address account) public view virtual returns (uint256) {... */\n    tag_10:\n      tag_53\n      0x04\n      dup1\n      calldatasize\n      sub\n      dup2\n      add\n      swap1\n      tag_54\n      swap2\n      swap1\n      tag_55\n      jump\t// in\n    tag_54:\n      tag_56\n      jump\t// in\n    tag_53:\n      mload(0x40)\n      tag_57\n      swap2\n      swap1\n      tag_36\n      jump\t// in\n    tag_57:\n      mload(0x40)\n      dup1\n      swap2\n      sub\n      swap1\n      return\n        /* \"Token_RY_flattened.sol\":24304:24405  function renounceOwnership() public virtual onlyOwner {... */\n    tag_11:\n      tag_58\n      tag_59\n      jump\t// in\n    tag_58:\n      stop\n        /* \"Token_RY_flattened.sol\":79144:79287  function nonces(address owner) public view virtual override(IERC20Permit, Nonces) returns (uint256) {... */\n    tag_12:\n      tag_60\n      0x04\n      dup1\n      calldatasize\n      sub\n      dup2\n      add\n      swap1\n      tag_61\n      swap2\n      swap1\n      tag_55\n      jump\t// in\n    tag_61:\n      tag_62\n      jump\t// in\n    tag_60:\n      mload(0x40)\n      tag_63\n      swap2\n      swap1\n      tag_36\n      jump\t// in\n    tag_63:\n      mload(0x40)\n      dup1\n      swap2\n      sub\n      swap1\n      return\n        /* \"Token_RY_flattened.sol\":73972:74529  function eip712Domain()... */\n    tag_13:\n      tag_64\n      tag_65\n      jump\t// in\n    tag_64:\n      mload(0x40)\n      tag_66\n      swap8\n      swap7\n      swap6\n      swap5\n      swap4\n      swap3\n      swap2\n      swap1\n      tag_67\n      jump\t// in\n    tag_66:\n      mload(0x40)\n      dup1\n      swap2\n      sub\n      swap1\n      return\n        /* \"Token_RY_flattened.sol\":23649:23734  function owner() public view virtual returns (address) {... */\n    tag_14:\n      tag_68\n      tag_69\n      jump\t// in\n    tag_68:\n      mload(0x40)\n      tag_70\n      swap2\n      swap1\n      tag_71\n      jump\t// in\n    tag_70:\n      mload(0x40)\n      dup1\n      swap2\n      sub\n      swap1\n      return\n        /* \"Token_RY_flattened.sol\":13167:13260  function symbol() public view virtual returns (string memory) {... */\n    tag_15:\n      tag_72\n      tag_73\n      jump\t// in\n    tag_72:\n      mload(0x40)\n      tag_74\n      swap2\n      swap1\n      tag_26\n      jump\t// in\n    tag_74:\n      mload(0x40)\n      dup1\n      swap2\n      sub\n      swap1\n      return\n        /* \"Token_RY_flattened.sol\":14501:14679  function transfer(address to, uint256 value) public virtual returns (bool) {... */\n    tag_16:\n      tag_75\n      0x04\n      dup1\n      calldatasize\n      sub\n      dup2\n      add\n      swap1\n      tag_76\n      swap2\n      swap1\n      tag_29\n      jump\t// in\n    tag_76:\n      tag_77\n      jump\t// in\n    tag_75:\n      mload(0x40)\n      tag_78\n      swap2\n      swap1\n      tag_32\n      jump\t// in\n    tag_78:\n      mload(0x40)\n      dup1\n      swap2\n      sub\n      swap1\n      return\n        /* \"Token_RY_flattened.sol\":78418:79090  function permit(... */\n    tag_17:\n      tag_79\n      0x04\n      dup1\n      calldatasize\n      sub\n      dup2\n      add\n      swap1\n      tag_80\n      swap2\n      swap1\n      tag_81\n      jump\t// in\n    tag_80:\n      tag_82\n      jump\t// in\n    tag_79:\n      stop\n        /* \"Token_RY_flattened.sol\":14737:14877  function allowance(address owner, address spender) public view virtual returns (uint256) {... */\n    tag_18:\n      tag_83\n      0x04\n      dup1\n      calldatasize\n      sub\n      dup2\n      add\n      swap1\n      tag_84\n      swap2\n      swap1\n      tag_85\n      jump\t// in\n    tag_84:\n      tag_86\n      jump\t// in\n    tag_83:\n      mload(0x40)\n      tag_87\n      swap2\n      swap1\n      tag_36\n      jump\t// in\n    tag_87:\n      mload(0x40)\n      dup1\n      swap2\n      sub\n      swap1\n      return\n        /* \"Token_RY_flattened.sol\":24554:24769  function transferOwnership(address newOwner) public virtual onlyOwner {... */\n    tag_19:\n      tag_88\n      0x04\n      dup1\n      calldatasize\n      sub\n      dup2\n      add\n      swap1\n      tag_89\n      swap2\n      swap1\n      tag_55\n      jump\t// in\n    tag_89:\n      tag_90\n      jump\t// in\n    tag_88:\n      stop\n        /* \"Token_RY_flattened.sol\":12965:13054  function name() public view virtual returns (string memory) {... */\n    tag_24:\n        /* \"Token_RY_flattened.sol\":13010:13023  string memory */\n      0x60\n        /* \"Token_RY_flattened.sol\":13042:13047  _name */\n      0x03\n        /* \"Token_RY_flattened.sol\":13035:13047  return _name */\n      dup1\n      sload\n      tag_92\n      swap1\n      tag_93\n      jump\t// in\n    tag_92:\n      dup1\n      0x1f\n      add\n      0x20\n      dup1\n      swap2\n      div\n      mul\n      0x20\n      add\n      mload(0x40)\n      swap1\n      dup2\n      add\n      0x40\n      mstore\n      dup1\n      swap3\n      swap2\n      swap1\n      dup2\n      dup2\n      mstore\n      0x20\n      add\n      dup3\n      dup1\n      sload\n      tag_94\n      swap1\n      tag_93\n      jump\t// in\n    tag_94:\n      dup1\n      iszero\n      tag_95\n      jumpi\n      dup1\n      0x1f\n      lt\n      tag_96\n      jumpi\n      0x0100\n      dup1\n      dup4\n      sload\n      div\n      mul\n      dup4\n      mstore\n      swap2\n      0x20\n      add\n      swap2\n      jump(tag_95)\n    tag_96:\n      dup3\n      add\n      swap2\n      swap1\n      0x00\n      mstore\n      keccak256(0x00, 0x20)\n      swap1\n    tag_97:\n      dup2\n      sload\n      dup2\n      mstore\n      swap1\n      0x01\n      add\n      swap1\n      0x20\n      add\n      dup1\n      dup4\n      gt\n      tag_97\n      jumpi\n      dup3\n      swap1\n      sub\n      0x1f\n      and\n      dup3\n      add\n      swap2\n    tag_95:\n      pop\n      pop\n      pop\n      pop\n      pop\n      swap1\n      pop\n        /* \"Token_RY_flattened.sol\":12965:13054  function name() public view virtual returns (string memory) {... */\n      swap1\n      jump\t// out\n        /* \"Token_RY_flattened.sol\":15184:15370  function approve(address spender, uint256 value) public virtual returns (bool) {... */\n    tag_30:\n        /* \"Token_RY_flattened.sol\":15257:15261  bool */\n      0x00\n        /* \"Token_RY_flattened.sol\":15273:15286  address owner */\n      dup1\n        /* \"Token_RY_flattened.sol\":15289:15301  _msgSender() */\n      tag_99\n        /* \"Token_RY_flattened.sol\":15289:15299  _msgSender */\n      tag_100\n        /* \"Token_RY_flattened.sol\":15289:15301  _msgSender() */\n      jump\t// in\n    tag_99:\n        /* \"Token_RY_flattened.sol\":15273:15301  address owner = _msgSender() */\n      swap1\n      pop\n        /* \"Token_RY_flattened.sol\":15311:15342  _approve(owner, spender, value) */\n      tag_101\n        /* \"Token_RY_flattened.sol\":15320:15325  owner */\n      dup2\n        /* \"Token_RY_flattened.sol\":15327:15334  spender */\n      dup6\n        /* \"Token_RY_flattened.sol\":15336:15341  value */\n      dup6\n        /* \"Token_RY_flattened.sol\":15311:15319  _approve */\n      tag_102\n        /* \"Token_RY_flattened.sol\":15311:15342  _approve(owner, spender, value) */\n      jump\t// in\n    tag_101:\n        /* \"Token_RY_flattened.sol\":15359:15363  true */\n      0x01\n        /* \"Token_RY_flattened.sol\":15352:15363  return true */\n      swap2\n      pop\n      pop\n        /* \"Token_RY_flattened.sol\":15184:15370  function approve(address spender, uint256 value) public virtual returns (bool) {... */\n      swap3\n      swap2\n      pop\n      pop\n      jump\t// out\n        /* \"Token_RY_flattened.sol\":14035:14132  function totalSupply() public view virtual returns (uint256) {... */\n    tag_34:\n        /* \"Token_RY_flattened.sol\":14087:14094  uint256 */\n      0x00\n        /* \"Token_RY_flattened.sol\":14113:14125  _totalSupply */\n      sload(0x02)\n        /* \"Token_RY_flattened.sol\":14106:14125  return _totalSupply */\n      swap1\n      pop\n        /* \"Token_RY_flattened.sol\":14035:14132  function totalSupply() public view virtual returns (uint256) {... */\n      swap1\n      jump\t// out\n        /* \"Token_RY_flattened.sol\":15930:16174  function transferFrom(address from, address to, uint256 value) public virtual returns (bool) {... */\n    tag_40:\n        /* \"Token_RY_flattened.sol\":16017:16021  bool */\n      0x00\n        /* \"Token_RY_flattened.sol\":16033:16048  address spender */\n      dup1\n        /* \"Token_RY_flattened.sol\":16051:16063  _msgSender() */\n      tag_105\n        /* \"Token_RY_flattened.sol\":16051:16061  _msgSender */\n      tag_100\n        /* \"Token_RY_flattened.sol\":16051:16063  _msgSender() */\n      jump\t// in\n    tag_105:\n        /* \"Token_RY_flattened.sol\":16033:16063  address spender = _msgSender() */\n      swap1\n      pop\n        /* \"Token_RY_flattened.sol\":16073:16110  _spendAllowance(from, spender, value) */\n      tag_106\n        /* \"Token_RY_flattened.sol\":16089:16093  from */\n      dup6\n        /* \"Token_RY_flattened.sol\":16095:16102  spender */\n      dup3\n        /* \"Token_RY_flattened.sol\":16104:16109  value */\n      dup6\n        /* \"Token_RY_flattened.sol\":16073:16088  _spendAllowance */\n      tag_107\n        /* \"Token_RY_flattened.sol\":16073:16110  _spendAllowance(from, spender, value) */\n      jump\t// in\n    tag_106:\n        /* \"Token_RY_flattened.sol\":16120:16146  _transfer(from, to, value) */\n      tag_108\n        /* \"Token_RY_flattened.sol\":16130:16134  from */\n      dup6\n        /* \"Token_RY_flattened.sol\":16136:16138  to */\n      dup6\n        /* \"Token_RY_flattened.sol\":16140:16145  value */\n      dup6\n        /* \"Token_RY_flattened.sol\":16120:16129  _transfer */\n      tag_109\n        /* \"Token_RY_flattened.sol\":16120:16146  _transfer(from, to, value) */\n      jump\t// in\n    tag_108:\n        /* \"Token_RY_flattened.sol\":16163:16167  true */\n      0x01\n        /* \"Token_RY_flattened.sol\":16156:16167  return true */\n      swap2\n      pop\n      pop\n        /* \"Token_RY_flattened.sol\":15930:16174  function transferFrom(address from, address to, uint256 value) public virtual returns (bool) {... */\n      swap4\n      swap3\n      pop\n      pop\n      pop\n      jump\t// out\n        /* \"Token_RY_flattened.sol\":13893:13975  function decimals() public view virtual returns (uint8) {... */\n    tag_43:\n        /* \"Token_RY_flattened.sol\":13942:13947  uint8 */\n      0x00\n        /* \"Token_RY_flattened.sol\":13966:13968  18 */\n      0x12\n        /* \"Token_RY_flattened.sol\":13959:13968  return 18 */\n      swap1\n      pop\n        /* \"Token_RY_flattened.sol\":13893:13975  function decimals() public view virtual returns (uint8) {... */\n      swap1\n      jump\t// out\n        /* \"Token_RY_flattened.sol\":79394:79506  function DOMAIN_SEPARATOR() external view virtual returns (bytes32) {... */\n    tag_47:\n        /* \"Token_RY_flattened.sol\":79453:79460  bytes32 */\n      0x00\n        /* \"Token_RY_flattened.sol\":79479:79499  _domainSeparatorV4() */\n      tag_112\n        /* \"Token_RY_flattened.sol\":79479:79497  _domainSeparatorV4 */\n      tag_113\n        /* \"Token_RY_flattened.sol\":79479:79499  _domainSeparatorV4() */\n      jump\t// in\n    tag_112:\n        /* \"Token_RY_flattened.sol\":79472:79499  return _domainSeparatorV4() */\n      swap1\n      pop\n        /* \"Token_RY_flattened.sol\":79394:79506  function DOMAIN_SEPARATOR() external view virtual returns (bytes32) {... */\n      swap1\n      jump\t// out\n        /* \"Token_RY_flattened.sol\":79896:79989  function mint(address to, uint256 amount) public onlyOwner {... */\n    tag_52:\n        /* \"Token_RY_flattened.sol\":23542:23555  _checkOwner() */\n      tag_115\n        /* \"Token_RY_flattened.sol\":23542:23553  _checkOwner */\n      tag_116\n        /* \"Token_RY_flattened.sol\":23542:23555  _checkOwner() */\n      jump\t// in\n    tag_115:\n        /* \"Token_RY_flattened.sol\":79965:79982  _mint(to, amount) */\n      tag_118\n        /* \"Token_RY_flattened.sol\":79971:79973  to */\n      dup3\n        /* \"Token_RY_flattened.sol\":79975:79981  amount */\n      dup3\n        /* \"Token_RY_flattened.sol\":79965:79970  _mint */\n      tag_119\n        /* \"Token_RY_flattened.sol\":79965:79982  _mint(to, amount) */\n      jump\t// in\n    tag_118:\n        /* \"Token_RY_flattened.sol\":79896:79989  function mint(address to, uint256 amount) public onlyOwner {... */\n      pop\n      pop\n      jump\t// out\n        /* \"Token_RY_flattened.sol\":14190:14306  function balanceOf(address account) public view virtual returns (uint256) {... */\n    tag_56:\n        /* \"Token_RY_flattened.sol\":14255:14262  uint256 */\n      0x00\n        /* \"Token_RY_flattened.sol\":14281:14290  _balances */\n      dup1\n        /* \"Token_RY_flattened.sol\":14281:14299  _balances[account] */\n      0x00\n        /* \"Token_RY_flattened.sol\":14291:14298  account */\n      dup4\n        /* \"Token_RY_flattened.sol\":14281:14299  _balances[account] */\n      0xffffffffffffffffffffffffffffffffffffffff\n      and\n      0xffffffffffffffffffffffffffffffffffffffff\n      and\n      dup2\n      mstore\n      0x20\n      add\n      swap1\n      dup2\n      mstore\n      0x20\n      add\n      0x00\n      keccak256\n      sload\n        /* \"Token_RY_flattened.sol\":14274:14299  return _balances[account] */\n      swap1\n      pop\n        /* \"Token_RY_flattened.sol\":14190:14306  function balanceOf(address account) public view virtual returns (uint256) {... */\n      swap2\n      swap1\n      pop\n      jump\t// out\n        /* \"Token_RY_flattened.sol\":24304:24405  function renounceOwnership() public virtual onlyOwner {... */\n    tag_59:\n        /* \"Token_RY_flattened.sol\":23542:23555  _checkOwner() */\n      tag_122\n        /* \"Token_RY_flattened.sol\":23542:23553  _checkOwner */\n      tag_116\n        /* \"Token_RY_flattened.sol\":23542:23555  _checkOwner() */\n      jump\t// in\n    tag_122:\n        /* \"Token_RY_flattened.sol\":24368:24398  _transferOwnership(address(0)) */\n      tag_124\n        /* \"Token_RY_flattened.sol\":24395:24396  0 */\n      0x00\n        /* \"Token_RY_flattened.sol\":24368:24386  _transferOwnership */\n      tag_125\n        /* \"Token_RY_flattened.sol\":24368:24398  _transferOwnership(address(0)) */\n      jump\t// in\n    tag_124:\n        /* \"Token_RY_flattened.sol\":24304:24405  function renounceOwnership() public virtual onlyOwner {... */\n      jump\t// out\n        /* \"Token_RY_flattened.sol\":79144:79287  function nonces(address owner) public view virtual override(IERC20Permit, Nonces) returns (uint256) {... */\n    tag_62:\n        /* \"Token_RY_flattened.sol\":79235:79242  uint256 */\n      0x00\n        /* \"Token_RY_flattened.sol\":79261:79280  super.nonces(owner) */\n      tag_127\n        /* \"Token_RY_flattened.sol\":79274:79279  owner */\n      dup3\n        /* \"Token_RY_flattened.sol\":79261:79273  super.nonces */\n      tag_128\n        /* \"Token_RY_flattened.sol\":79261:79280  super.nonces(owner) */\n      jump\t// in\n    tag_127:\n        /* \"Token_RY_flattened.sol\":79254:79280  return super.nonces(owner) */\n      swap1\n      pop\n        /* \"Token_RY_flattened.sol\":79144:79287  function nonces(address owner) public view virtual override(IERC20Permit, Nonces) returns (uint256) {... */\n      swap2\n      swap1\n      pop\n      jump\t// out\n        /* \"Token_RY_flattened.sol\":73972:74529  function eip712Domain()... */\n    tag_65:\n        /* \"Token_RY_flattened.sol\":74070:74083  bytes1 fields */\n      0x00\n        /* \"Token_RY_flattened.sol\":74097:74115  string memory name */\n      0x60\n        /* \"Token_RY_flattened.sol\":74129:74150  string memory version */\n      dup1\n        /* \"Token_RY_flattened.sol\":74164:74179  uint256 chainId */\n      0x00\n        /* \"Token_RY_flattened.sol\":74193:74218  address verifyingContract */\n      dup1\n        /* \"Token_RY_flattened.sol\":74232:74244  bytes32 salt */\n      0x00\n        /* \"Token_RY_flattened.sol\":74258:74285  uint256[] memory extensions */\n      0x60\n        /* \"Token_RY_flattened.sol\":74361:74374  _EIP712Name() */\n      tag_130\n        /* \"Token_RY_flattened.sol\":74361:74372  _EIP712Name */\n      tag_131\n        /* \"Token_RY_flattened.sol\":74361:74374  _EIP712Name() */\n      jump\t// in\n    tag_130:\n        /* \"Token_RY_flattened.sol\":74388:74404  _EIP712Version() */\n      tag_132\n        /* \"Token_RY_flattened.sol\":74388:74402  _EIP712Version */\n      tag_133\n        /* \"Token_RY_flattened.sol\":74388:74404  _EIP712Version() */\n      jump\t// in\n    tag_132:\n        /* \"Token_RY_flattened.sol\":74418:74431  block.chainid */\n      chainid\n        /* \"Token_RY_flattened.sol\":74453:74457  this */\n      address\n        /* \"Token_RY_flattened.sol\":74480:74481  0 */\n      0x00\n        /* \"Token_RY_flattened.sol\":74472:74482  bytes32(0) */\n      dup1\n      shl\n        /* \"Token_RY_flattened.sol\":74510:74511  0 */\n      0x00\n        /* \"Token_RY_flattened.sol\":74496:74512  new uint256[](0) */\n      0xffffffffffffffff\n      dup2\n      gt\n      iszero\n      tag_134\n      jumpi\n      tag_135\n      tag_136\n      jump\t// in\n    tag_135:\n    tag_134:\n      mload(0x40)\n      swap1\n      dup1\n      dup3\n      mstore\n      dup1\n      0x20\n      mul\n      0x20\n      add\n      dup3\n      add\n      0x40\n      mstore\n      dup1\n      iszero\n      tag_137\n      jumpi\n      dup2\n      0x20\n      add\n      0x20\n      dup3\n      mul\n      dup1\n      calldatasize\n      dup4\n      calldatacopy\n      dup1\n      dup3\n      add\n      swap2\n      pop\n      pop\n      swap1\n      pop\n    tag_137:\n      pop\n        /* \"Token_RY_flattened.sol\":74310:74522  return (... */\n      0x0f00000000000000000000000000000000000000000000000000000000000000\n      swap6\n      swap5\n      swap4\n      swap3\n      swap2\n      swap1\n      swap7\n      pop\n      swap7\n      pop\n      swap7\n      pop\n      swap7\n      pop\n      swap7\n      pop\n      swap7\n      pop\n      swap7\n      pop\n        /* \"Token_RY_flattened.sol\":73972:74529  function eip712Domain()... */\n      swap1\n      swap2\n      swap3\n      swap4\n      swap5\n      swap6\n      swap7\n      jump\t// out\n        /* \"Token_RY_flattened.sol\":23649:23734  function owner() public view virtual returns (address) {... */\n    tag_69:\n        /* \"Token_RY_flattened.sol\":23695:23702  address */\n      0x00\n        /* \"Token_RY_flattened.sol\":23721:23727  _owner */\n      0x05\n      0x00\n      swap1\n      sload\n      swap1\n      0x0100\n      exp\n      swap1\n      div\n      0xffffffffffffffffffffffffffffffffffffffff\n      and\n        /* \"Token_RY_flattened.sol\":23714:23727  return _owner */\n      swap1\n      pop\n        /* \"Token_RY_flattened.sol\":23649:23734  function owner() public view virtual returns (address) {... */\n      swap1\n      jump\t// out\n        /* \"Token_RY_flattened.sol\":13167:13260  function symbol() public view virtual returns (string memory) {... */\n    tag_73:\n        /* \"Token_RY_flattened.sol\":13214:13227  string memory */\n      0x60\n        /* \"Token_RY_flattened.sol\":13246:13253  _symbol */\n      0x04\n        /* \"Token_RY_flattened.sol\":13239:13253  return _symbol */\n      dup1\n      sload\n      tag_140\n      swap1\n      tag_93\n      jump\t// in\n    tag_140:\n      dup1\n      0x1f\n      add\n      0x20\n      dup1\n      swap2\n      div\n      mul\n      0x20\n      add\n      mload(0x40)\n      swap1\n      dup2\n      add\n      0x40\n      mstore\n      dup1\n      swap3\n      swap2\n      swap1\n      dup2\n      dup2\n      mstore\n      0x20\n      add\n      dup3\n      dup1\n      sload\n      tag_141\n      swap1\n      tag_93\n      jump\t// in\n    tag_141:\n      dup1\n      iszero\n      tag_142\n      jumpi\n      dup1\n      0x1f\n      lt\n      tag_143\n      jumpi\n      0x0100\n      dup1\n      dup4\n      sload\n      div\n      mul\n      dup4\n      mstore\n      swap2\n      0x20\n      add\n      swap2\n      jump(tag_142)\n    tag_143:\n      dup3\n      add\n      swap2\n      swap1\n      0x00\n      mstore\n      keccak256(0x00, 0x20)\n      swap1\n    tag_144:\n      dup2\n      sload\n      dup2\n      mstore\n      swap1\n      0x01\n      add\n      swap1\n      0x20\n      add\n      dup1\n      dup4\n      gt\n      tag_144\n      jumpi\n      dup3\n      swap1\n      sub\n      0x1f\n      and\n      dup3\n      add\n      swap2\n    tag_142:\n      pop\n      pop\n      pop\n      pop\n      pop\n      swap1\n      pop\n        /* \"Token_RY_flattened.sol\":13167:13260  function symbol() public view virtual returns (string memory) {... */\n      swap1\n      jump\t// out\n        /* \"Token_RY_flattened.sol\":14501:14679  function transfer(address to, uint256 value) public virtual returns (bool) {... */\n    tag_77:\n        /* \"Token_RY_flattened.sol\":14570:14574  bool */\n      0x00\n        /* \"Token_RY_flattened.sol\":14586:14599  address owner */\n      dup1\n        /* \"Token_RY_flattened.sol\":14602:14614  _msgSender() */\n      tag_146\n        /* \"Token_RY_flattened.sol\":14602:14612  _msgSender */\n      tag_100\n        /* \"Token_RY_flattened.sol\":14602:14614  _msgSender() */\n      jump\t// in\n    tag_146:\n        /* \"Token_RY_flattened.sol\":14586:14614  address owner = _msgSender() */\n      swap1\n      pop\n        /* \"Token_RY_flattened.sol\":14624:14651  _transfer(owner, to, value) */\n      tag_147\n        /* \"Token_RY_flattened.sol\":14634:14639  owner */\n      dup2\n        /* \"Token_RY_flattened.sol\":14641:14643  to */\n      dup6\n        /* \"Token_RY_flattened.sol\":14645:14650  value */\n      dup6\n        /* \"Token_RY_flattened.sol\":14624:14633  _transfer */\n      tag_109\n        /* \"Token_RY_flattened.sol\":14624:14651  _transfer(owner, to, value) */\n      jump\t// in\n    tag_147:\n        /* \"Token_RY_flattened.sol\":14668:14672  true */\n      0x01\n        /* \"Token_RY_flattened.sol\":14661:14672  return true */\n      swap2\n      pop\n      pop\n        /* \"Token_RY_flattened.sol\":14501:14679  function transfer(address to, uint256 value) public virtual returns (bool) {... */\n      swap3\n      swap2\n      pop\n      pop\n      jump\t// out\n        /* \"Token_RY_flattened.sol\":78418:79090  function permit(... */\n    tag_82:\n        /* \"Token_RY_flattened.sol\":78639:78647  deadline */\n      dup4\n        /* \"Token_RY_flattened.sol\":78621:78636  block.timestamp */\n      timestamp\n        /* \"Token_RY_flattened.sol\":78621:78647  block.timestamp > deadline */\n      gt\n        /* \"Token_RY_flattened.sol\":78617:78714  if (block.timestamp > deadline) {... */\n      iszero\n      tag_149\n      jumpi\n        /* \"Token_RY_flattened.sol\":78694:78702  deadline */\n      dup4\n        /* \"Token_RY_flattened.sol\":78670:78703  ERC2612ExpiredSignature(deadline) */\n      mload(0x40)\n      0x6279130200000000000000000000000000000000000000000000000000000000\n      dup2\n      mstore\n      0x04\n      add\n      tag_150\n      swap2\n      swap1\n      tag_36\n      jump\t// in\n    tag_150:\n      mload(0x40)\n      dup1\n      swap2\n      sub\n      swap1\n      revert\n        /* \"Token_RY_flattened.sol\":78617:78714  if (block.timestamp > deadline) {... */\n    tag_149:\n        /* \"Token_RY_flattened.sol\":78724:78742  bytes32 structHash */\n      0x00\n        /* \"Token_RY_flattened.sol\":77760:77855  keccak256(\"Permit(address owner,address spender,uint256 value,uint256 nonce,uint256 deadline)\") */\n      0x6e71edae12b1b97f4d1f60370fef10105fa2faae0126114a169c64845d6126c9\n        /* \"Token_RY_flattened.sol\":78783:78788  owner */\n      dup9\n        /* \"Token_RY_flattened.sol\":78790:78797  spender */\n      dup9\n        /* \"Token_RY_flattened.sol\":78799:78804  value */\n      dup9\n        /* \"Token_RY_flattened.sol\":78806:78822  _useNonce(owner) */\n      tag_151\n        /* \"Token_RY_flattened.sol\":78816:78821  owner */\n      dup13\n        /* \"Token_RY_flattened.sol\":78806:78815  _useNonce */\n      tag_152\n        /* \"Token_RY_flattened.sol\":78806:78822  _useNonce(owner) */\n      jump\t// in\n    tag_151:\n        /* \"Token_RY_flattened.sol\":78824:78832  deadline */\n      dup10\n        /* \"Token_RY_flattened.sol\":78755:78833  abi.encode(PERMIT_TYPEHASH, owner, spender, value, _useNonce(owner), deadline) */\n      add(0x20, mload(0x40))\n      tag_153\n      swap7\n      swap6\n      swap5\n      swap4\n      swap3\n      swap2\n      swap1\n      tag_154\n      jump\t// in\n    tag_153:\n      mload(0x40)\n      0x20\n      dup2\n      dup4\n      sub\n      sub\n      dup2\n      mstore\n      swap1\n      0x40\n      mstore\n        /* \"Token_RY_flattened.sol\":78745:78834  keccak256(abi.encode(PERMIT_TYPEHASH, owner, spender, value, _useNonce(owner), deadline)) */\n      dup1\n      mload\n      swap1\n      0x20\n      add\n      keccak256\n        /* \"Token_RY_flattened.sol\":78724:78834  bytes32 structHash = keccak256(abi.encode(PERMIT_TYPEHASH, owner, spender, value, _useNonce(owner), deadline)) */\n      swap1\n      pop\n        /* \"Token_RY_flattened.sol\":78845:78857  bytes32 hash */\n      0x00\n        /* \"Token_RY_flattened.sol\":78860:78888  _hashTypedDataV4(structHash) */\n      tag_155\n        /* \"Token_RY_flattened.sol\":78877:78887  structHash */\n      dup3\n        /* \"Token_RY_flattened.sol\":78860:78876  _hashTypedDataV4 */\n      tag_156\n        /* \"Token_RY_flattened.sol\":78860:78888  _hashTypedDataV4(structHash) */\n      jump\t// in\n    tag_155:\n        /* \"Token_RY_flattened.sol\":78845:78888  bytes32 hash = _hashTypedDataV4(structHash) */\n      swap1\n      pop\n        /* \"Token_RY_flattened.sol\":78899:78913  address signer */\n      0x00\n        /* \"Token_RY_flattened.sol\":78916:78944  ECDSA.recover(hash, v, r, s) */\n      tag_157\n        /* \"Token_RY_flattened.sol\":78930:78934  hash */\n      dup3\n        /* \"Token_RY_flattened.sol\":78936:78937  v */\n      dup8\n        /* \"Token_RY_flattened.sol\":78939:78940  r */\n      dup8\n        /* \"Token_RY_flattened.sol\":78942:78943  s */\n      dup8\n        /* \"Token_RY_flattened.sol\":78916:78929  ECDSA.recover */\n      tag_158\n        /* \"Token_RY_flattened.sol\":78916:78944  ECDSA.recover(hash, v, r, s) */\n      jump\t// in\n    tag_157:\n        /* \"Token_RY_flattened.sol\":78899:78944  address signer = ECDSA.recover(hash, v, r, s) */\n      swap1\n      pop\n        /* \"Token_RY_flattened.sol\":78968:78973  owner */\n      dup10\n        /* \"Token_RY_flattened.sol\":78958:78973  signer != owner */\n      0xffffffffffffffffffffffffffffffffffffffff\n      and\n        /* \"Token_RY_flattened.sol\":78958:78964  signer */\n      dup2\n        /* \"Token_RY_flattened.sol\":78958:78973  signer != owner */\n      0xffffffffffffffffffffffffffffffffffffffff\n      and\n      eq\n        /* \"Token_RY_flattened.sol\":78954:79042  if (signer != owner) {... */\n      tag_159\n      jumpi\n        /* \"Token_RY_flattened.sol\":79017:79023  signer */\n      dup1\n        /* \"Token_RY_flattened.sol\":79025:79030  owner */\n      dup11\n        /* \"Token_RY_flattened.sol\":78996:79031  ERC2612InvalidSigner(signer, owner) */\n      mload(0x40)\n      0x4b800e4600000000000000000000000000000000000000000000000000000000\n      dup2\n      mstore\n      0x04\n      add\n      tag_160\n      swap3\n      swap2\n      swap1\n      tag_161\n      jump\t// in\n    tag_160:\n      mload(0x40)\n      dup1\n      swap2\n      sub\n      swap1\n      revert\n        /* \"Token_RY_flattened.sol\":78954:79042  if (signer != owner) {... */\n    tag_159:\n        /* \"Token_RY_flattened.sol\":79052:79083  _approve(owner, spender, value) */\n      tag_162\n        /* \"Token_RY_flattened.sol\":79061:79066  owner */\n      dup11\n        /* \"Token_RY_flattened.sol\":79068:79075  spender */\n      dup11\n        /* \"Token_RY_flattened.sol\":79077:79082  value */\n      dup11\n        /* \"Token_RY_flattened.sol\":79052:79060  _approve */\n      tag_102\n        /* \"Token_RY_flattened.sol\":79052:79083  _approve(owner, spender, value) */\n      jump\t// in\n    tag_162:\n        /* \"Token_RY_flattened.sol\":78607:79090  {... */\n      pop\n      pop\n      pop\n        /* \"Token_RY_flattened.sol\":78418:79090  function permit(... */\n      pop\n      pop\n      pop\n      pop\n      pop\n      pop\n      pop\n      jump\t// out\n        /* \"Token_RY_flattened.sol\":14737:14877  function allowance(address owner, address spender) public view virtual returns (uint256) {... */\n    tag_86:\n        /* \"Token_RY_flattened.sol\":14817:14824  uint256 */\n      0x00\n        /* \"Token_RY_flattened.sol\":14843:14854  _allowances */\n      0x01\n        /* \"Token_RY_flattened.sol\":14843:14861  _allowances[owner] */\n      0x00\n        /* \"Token_RY_flattened.sol\":14855:14860  owner */\n      dup5\n        /* \"Token_RY_flattened.sol\":14843:14861  _allowances[owner] */\n      0xffffffffffffffffffffffffffffffffffffffff\n      and\n      0xffffffffffffffffffffffffffffffffffffffff\n      and\n      dup2\n      mstore\n      0x20\n      add\n      swap1\n      dup2\n      mstore\n      0x20\n      add\n      0x00\n      keccak256\n        /* \"Token_RY_flattened.sol\":14843:14870  _allowances[owner][spender] */\n      0x00\n        /* \"Token_RY_flattened.sol\":14862:14869  spender */\n      dup4\n        /* \"Token_RY_flattened.sol\":14843:14870  _allowances[owner][spender] */\n      0xffffffffffffffffffffffffffffffffffffffff\n      and\n      0xffffffffffffffffffffffffffffffffffffffff\n      and\n      dup2\n      mstore\n      0x20\n      add\n      swap1\n      dup2\n      mstore\n      0x20\n      add\n      0x00\n      keccak256\n      sload\n        /* \"Token_RY_flattened.sol\":14836:14870  return _allowances[owner][spender] */\n      swap1\n      pop\n        /* \"Token_RY_flattened.sol\":14737:14877  function allowance(address owner, address spender) public view virtual returns (uint256) {... */\n      swap3\n      swap2\n      pop\n      pop\n      jump\t// out\n        /* \"Token_RY_flattened.sol\":24554:24769  function transferOwnership(address newOwner) public virtual onlyOwner {... */\n    tag_90:\n        /* \"Token_RY_flattened.sol\":23542:23555  _checkOwner() */\n      tag_165\n        /* \"Token_RY_flattened.sol\":23542:23553  _checkOwner */\n      tag_116\n        /* \"Token_RY_flattened.sol\":23542:23555  _checkOwner() */\n      jump\t// in\n    tag_165:\n        /* \"Token_RY_flattened.sol\":24658:24659  0 */\n      0x00\n        /* \"Token_RY_flattened.sol\":24638:24660  newOwner == address(0) */\n      0xffffffffffffffffffffffffffffffffffffffff\n      and\n        /* \"Token_RY_flattened.sol\":24638:24646  newOwner */\n      dup2\n        /* \"Token_RY_flattened.sol\":24638:24660  newOwner == address(0) */\n      0xffffffffffffffffffffffffffffffffffffffff\n      and\n      sub\n        /* \"Token_RY_flattened.sol\":24634:24725  if (newOwner == address(0)) {... */\n      tag_167\n      jumpi\n        /* \"Token_RY_flattened.sol\":24711:24712  0 */\n      0x00\n        /* \"Token_RY_flattened.sol\":24683:24714  OwnableInvalidOwner(address(0)) */\n      mload(0x40)\n      0x1e4fbdf700000000000000000000000000000000000000000000000000000000\n      dup2\n      mstore\n      0x04\n      add\n      tag_168\n      swap2\n      swap1\n      tag_71\n      jump\t// in\n    tag_168:\n      mload(0x40)\n      dup1\n      swap2\n      sub\n      swap1\n      revert\n        /* \"Token_RY_flattened.sol\":24634:24725  if (newOwner == address(0)) {... */\n    tag_167:\n        /* \"Token_RY_flattened.sol\":24734:24762  _transferOwnership(newOwner) */\n      tag_169\n        /* \"Token_RY_flattened.sol\":24753:24761  newOwner */\n      dup2\n        /* \"Token_RY_flattened.sol\":24734:24752  _transferOwnership */\n      tag_125\n        /* \"Token_RY_flattened.sol\":24734:24762  _transferOwnership(newOwner) */\n      jump\t// in\n    tag_169:\n        /* \"Token_RY_flattened.sol\":24554:24769  function transferOwnership(address newOwner) public virtual onlyOwner {... */\n      pop\n      jump\t// out\n        /* \"Token_RY_flattened.sol\":4205:4301  function _msgSender() internal view virtual returns (address) {... */\n    tag_100:\n        /* \"Token_RY_flattened.sol\":4258:4265  address */\n      0x00\n        /* \"Token_RY_flattened.sol\":4284:4294  msg.sender */\n      caller\n        /* \"Token_RY_flattened.sol\":4277:4294  return msg.sender */\n      swap1\n      pop\n        /* \"Token_RY_flattened.sol\":4205:4301  function _msgSender() internal view virtual returns (address) {... */\n      swap1\n      jump\t// out\n        /* \"Token_RY_flattened.sol\":19880:20008  function _approve(address owner, address spender, uint256 value) internal {... */\n    tag_102:\n        /* \"Token_RY_flattened.sol\":19964:20001  _approve(owner, spender, value, true) */\n      tag_172\n        /* \"Token_RY_flattened.sol\":19973:19978  owner */\n      dup4\n        /* \"Token_RY_flattened.sol\":19980:19987  spender */\n      dup4\n        /* \"Token_RY_flattened.sol\":19989:19994  value */\n      dup4\n        /* \"Token_RY_flattened.sol\":19996:20000  true */\n      0x01\n        /* \"Token_RY_flattened.sol\":19964:19972  _approve */\n      tag_173\n        /* \"Token_RY_flattened.sol\":19964:20001  _approve(owner, spender, value, true) */\n      jump\t// in\n    tag_172:\n        /* \"Token_RY_flattened.sol\":19880:20008  function _approve(address owner, address spender, uint256 value) internal {... */\n      pop\n      pop\n      pop\n      jump\t// out\n        /* \"Token_RY_flattened.sol\":21554:22031  function _spendAllowance(address owner, address spender, uint256 value) internal virtual {... */\n    tag_107:\n        /* \"Token_RY_flattened.sol\":21653:21677  uint256 currentAllowance */\n      0x00\n        /* \"Token_RY_flattened.sol\":21680:21705  allowance(owner, spender) */\n      tag_175\n        /* \"Token_RY_flattened.sol\":21690:21695  owner */\n      dup5\n        /* \"Token_RY_flattened.sol\":21697:21704  spender */\n      dup5\n        /* \"Token_RY_flattened.sol\":21680:21689  allowance */\n      tag_86\n        /* \"Token_RY_flattened.sol\":21680:21705  allowance(owner, spender) */\n      jump\t// in\n    tag_175:\n        /* \"Token_RY_flattened.sol\":21653:21705  uint256 currentAllowance = allowance(owner, spender) */\n      swap1\n      pop\n        /* \"Token_RY_flattened.sol\":21739:21756  type(uint256).max */\n      0xffffffffffffffffffffffffffffffffffffffffffffffffffffffffffffffff\n        /* \"Token_RY_flattened.sol\":21719:21735  currentAllowance */\n      dup2\n        /* \"Token_RY_flattened.sol\":21719:21756  currentAllowance != type(uint256).max */\n      eq\n        /* \"Token_RY_flattened.sol\":21715:22025  if (currentAllowance != type(uint256).max) {... */\n      tag_176\n      jumpi\n        /* \"Token_RY_flattened.sol\":21795:21800  value */\n      dup2\n        /* \"Token_RY_flattened.sol\":21776:21792  currentAllowance */\n      dup2\n        /* \"Token_RY_flattened.sol\":21776:21800  currentAllowance < value */\n      lt\n        /* \"Token_RY_flattened.sol\":21772:21902  if (currentAllowance < value) {... */\n      iszero\n      tag_177\n      jumpi\n        /* \"Token_RY_flattened.sol\":21854:21861  spender */\n      dup3\n        /* \"Token_RY_flattened.sol\":21863:21879  currentAllowance */\n      dup2\n        /* \"Token_RY_flattened.sol\":21881:21886  value */\n      dup4\n        /* \"Token_RY_flattened.sol\":21827:21887  ERC20InsufficientAllowance(spender, currentAllowance, value) */\n      mload(0x40)\n      0xfb8f41b200000000000000000000000000000000000000000000000000000000\n      dup2\n      mstore\n      0x04\n      add\n      tag_178\n      swap4\n      swap3\n      swap2\n      swap1\n      tag_179\n      jump\t// in\n    tag_178:\n      mload(0x40)\n      dup1\n      swap2\n      sub\n      swap1\n      revert\n        /* \"Token_RY_flattened.sol\":21772:21902  if (currentAllowance < value) {... */\n    tag_177:\n        /* \"Token_RY_flattened.sol\":21943:22000  _approve(owner, spender, currentAllowance - value, false) */\n      tag_180\n        /* \"Token_RY_flattened.sol\":21952:21957  owner */\n      dup5\n        /* \"Token_RY_flattened.sol\":21959:21966  spender */\n      dup5\n        /* \"Token_RY_flattened.sol\":21987:21992  value */\n      dup5\n        /* \"Token_RY_flattened.sol\":21968:21984  currentAllowance */\n      dup5\n        /* \"Token_RY_flattened.sol\":21968:21992  currentAllowance - value */\n      sub\n        /* \"Token_RY_flattened.sol\":21994:21999  false */\n      0x00\n        /* \"Token_RY_flattened.sol\":21943:21951  _approve */\n      tag_173\n        /* \"Token_RY_flattened.sol\":21943:22000  _approve(owner, spender, currentAllowance - value, false) */\n      jump\t// in\n    tag_180:\n        /* \"Token_RY_flattened.sol\":21715:22025  if (currentAllowance != type(uint256).max) {... */\n    tag_176:\n        /* \"Token_RY_flattened.sol\":21643:22031  {... */\n      pop\n        /* \"Token_RY_flattened.sol\":21554:22031  function _spendAllowance(address owner, address spender, uint256 value) internal virtual {... */\n      pop\n      pop\n      pop\n      jump\t// out\n        /* \"Token_RY_flattened.sol\":16547:16847  function _transfer(address from, address to, uint256 value) internal {... */\n    tag_109:\n        /* \"Token_RY_flattened.sol\":16646:16647  0 */\n      0x00\n        /* \"Token_RY_flattened.sol\":16630:16648  from == address(0) */\n      0xffffffffffffffffffffffffffffffffffffffff\n      and\n        /* \"Token_RY_flattened.sol\":16630:16634  from */\n      dup4\n        /* \"Token_RY_flattened.sol\":16630:16648  from == address(0) */\n      0xffffffffffffffffffffffffffffffffffffffff\n      and\n      sub\n        /* \"Token_RY_flattened.sol\":16626:16712  if (from == address(0)) {... */\n      tag_182\n      jumpi\n        /* \"Token_RY_flattened.sol\":16698:16699  0 */\n      0x00\n        /* \"Token_RY_flattened.sol\":16671:16701  ERC20InvalidSender(address(0)) */\n      mload(0x40)\n      0x96c6fd1e00000000000000000000000000000000000000000000000000000000\n      dup2\n      mstore\n      0x04\n      add\n      tag_183\n      swap2\n      swap1\n      tag_71\n      jump\t// in\n    tag_183:\n      mload(0x40)\n      dup1\n      swap2\n      sub\n      swap1\n      revert\n        /* \"Token_RY_flattened.sol\":16626:16712  if (from == address(0)) {... */\n    tag_182:\n        /* \"Token_RY_flattened.sol\":16739:16740  0 */\n      0x00\n        /* \"Token_RY_flattened.sol\":16725:16741  to == address(0) */\n      0xffffffffffffffffffffffffffffffffffffffff\n      and\n        /* \"Token_RY_flattened.sol\":16725:16727  to */\n      dup3\n        /* \"Token_RY_flattened.sol\":16725:16741  to == address(0) */\n      0xffffffffffffffffffffffffffffffffffffffff\n      and\n      sub\n        /* \"Token_RY_flattened.sol\":16721:16807  if (to == address(0)) {... */\n      tag_184\n      jumpi\n        /* \"Token_RY_flattened.sol\":16793:16794  0 */\n      0x00\n        /* \"Token_RY_flattened.sol\":16764:16796  ERC20InvalidReceiver(address(0)) */\n      mload(0x40)\n      0xec442f0500000000000000000000000000000000000000000000000000000000\n      dup2\n      mstore\n      0x04\n      add\n      tag_185\n      swap2\n      swap1\n      tag_71\n      jump\t// in\n    tag_185:\n      mload(0x40)\n      dup1\n      swap2\n      sub\n      swap1\n      revert\n        /* \"Token_RY_flattened.sol\":16721:16807  if (to == address(0)) {... */\n    tag_184:\n        /* \"Token_RY_flattened.sol\":16816:16840  _update(from, to, value) */\n      tag_186\n        /* \"Token_RY_flattened.sol\":16824:16828  from */\n      dup4\n        /* \"Token_RY_flattened.sol\":16830:16832  to */\n      dup4\n        /* \"Token_RY_flattened.sol\":16834:16839  value */\n      dup4\n        /* \"Token_RY_flattened.sol\":16816:16823  _update */\n      tag_187\n        /* \"Token_RY_flattened.sol\":16816:16840  _update(from, to, value) */\n      jump\t// in\n    tag_186:\n        /* \"Token_RY_flattened.sol\":16547:16847  function _transfer(address from, address to, uint256 value) internal {... */\n      pop\n      pop\n      pop\n      jump\t// out\n        /* \"Token_RY_flattened.sol\":72673:72935  function _domainSeparatorV4() internal view returns (bytes32) {... */\n    tag_113:\n        /* \"Token_RY_flattened.sol\":72726:72733  bytes32 */\n      0x00\n        /* \"Token_RY_flattened.sol\":72766:72777  _cachedThis */\n      immutable(\"0xa19d718480110222d22b6d2951f2fd7e402bb541199804c801e8efc2019fa5ca\")\n        /* \"Token_RY_flattened.sol\":72749:72777  address(this) == _cachedThis */\n      0xffffffffffffffffffffffffffffffffffffffff\n      and\n        /* \"Token_RY_flattened.sol\":72757:72761  this */\n      address\n        /* \"Token_RY_flattened.sol\":72749:72777  address(this) == _cachedThis */\n      0xffffffffffffffffffffffffffffffffffffffff\n      and\n      eq\n        /* \"Token_RY_flattened.sol\":72749:72812  address(this) == _cachedThis && block.chainid == _cachedChainId */\n      dup1\n      iszero\n      tag_189\n      jumpi\n      pop\n        /* \"Token_RY_flattened.sol\":72798:72812  _cachedChainId */\n      immutable(\"0x8e6edc2e6718e67f653228e7ef9c7cb13217a05d4dce88c9b22917701f7f0736\")\n        /* \"Token_RY_flattened.sol\":72781:72794  block.chainid */\n      chainid\n        /* \"Token_RY_flattened.sol\":72781:72812  block.chainid == _cachedChainId */\n      eq\n        /* \"Token_RY_flattened.sol\":72749:72812  address(this) == _cachedThis && block.chainid == _cachedChainId */\n    tag_189:\n        /* \"Token_RY_flattened.sol\":72745:72929  if (address(this) == _cachedThis && block.chainid == _cachedChainId) {... */\n      iszero\n      tag_190\n      jumpi\n        /* \"Token_RY_flattened.sol\":72835:72857  _cachedDomainSeparator */\n      immutable(\"0xccfc0c959b119ee28d407ea161eaeb170333879869a337b808d1b575d1b25cde\")\n        /* \"Token_RY_flattened.sol\":72828:72857  return _cachedDomainSeparator */\n      swap1\n      pop\n      jump(tag_188)\n        /* \"Token_RY_flattened.sol\":72745:72929  if (address(this) == _cachedThis && block.chainid == _cachedChainId) {... */\n    tag_190:\n        /* \"Token_RY_flattened.sol\":72895:72918  _buildDomainSeparator() */\n      tag_192\n        /* \"Token_RY_flattened.sol\":72895:72916  _buildDomainSeparator */\n      tag_193\n        /* \"Token_RY_flattened.sol\":72895:72918  _buildDomainSeparator() */\n      jump\t// in\n    tag_192:\n        /* \"Token_RY_flattened.sol\":72888:72918  return _buildDomainSeparator() */\n      swap1\n      pop\n        /* \"Token_RY_flattened.sol\":72673:72935  function _domainSeparatorV4() internal view returns (bytes32) {... */\n    tag_188:\n      swap1\n      jump\t// out\n        /* \"Token_RY_flattened.sol\":23807:23969  function _checkOwner() internal view virtual {... */\n    tag_116:\n        /* \"Token_RY_flattened.sol\":23877:23889  _msgSender() */\n      tag_195\n        /* \"Token_RY_flattened.sol\":23877:23887  _msgSender */\n      tag_100\n        /* \"Token_RY_flattened.sol\":23877:23889  _msgSender() */\n      jump\t// in\n    tag_195:\n        /* \"Token_RY_flattened.sol\":23866:23889  owner() != _msgSender() */\n      0xffffffffffffffffffffffffffffffffffffffff\n      and\n        /* \"Token_RY_flattened.sol\":23866:23873  owner() */\n      tag_196\n        /* \"Token_RY_flattened.sol\":23866:23871  owner */\n      tag_69\n        /* \"Token_RY_flattened.sol\":23866:23873  owner() */\n      jump\t// in\n    tag_196:\n        /* \"Token_RY_flattened.sol\":23866:23889  owner() != _msgSender() */\n      0xffffffffffffffffffffffffffffffffffffffff\n      and\n      eq\n        /* \"Token_RY_flattened.sol\":23862:23963  if (owner() != _msgSender()) {... */\n      tag_197\n      jumpi\n        /* \"Token_RY_flattened.sol\":23939:23951  _msgSender() */\n      tag_198\n        /* \"Token_RY_flattened.sol\":23939:23949  _msgSender */\n      tag_100\n        /* \"Token_RY_flattened.sol\":23939:23951  _msgSender() */\n      jump\t// in\n    tag_198:\n        /* \"Token_RY_flattened.sol\":23912:23952  OwnableUnauthorizedAccount(_msgSender()) */\n      mload(0x40)\n      0x118cdaa700000000000000000000000000000000000000000000000000000000\n      dup2\n      mstore\n      0x04\n      add\n      tag_199\n      swap2\n      swap1\n      tag_71\n      jump\t// in\n    tag_199:\n      mload(0x40)\n      dup1\n      swap2\n      sub\n      swap1\n      revert\n        /* \"Token_RY_flattened.sol\":23862:23963  if (owner() != _msgSender()) {... */\n    tag_197:\n        /* \"Token_RY_flattened.sol\":23807:23969  function _checkOwner() internal view virtual {... */\n      jump\t// out\n        /* \"Token_RY_flattened.sol\":18612:18820  function _mint(address account, uint256 value) internal {... */\n    tag_119:\n        /* \"Token_RY_flattened.sol\":18701:18702  0 */\n      0x00\n        /* \"Token_RY_flattened.sol\":18682:18703  account == address(0) */\n      0xffffffffffffffffffffffffffffffffffffffff\n      and\n        /* \"Token_RY_flattened.sol\":18682:18689  account */\n      dup3\n        /* \"Token_RY_flattened.sol\":18682:18703  account == address(0) */\n      0xffffffffffffffffffffffffffffffffffffffff\n      and\n      sub\n        /* \"Token_RY_flattened.sol\":18678:18769  if (account == address(0)) {... */\n      tag_201\n      jumpi\n        /* \"Token_RY_flattened.sol\":18755:18756  0 */\n      0x00\n        /* \"Token_RY_flattened.sol\":18726:18758  ERC20InvalidReceiver(address(0)) */\n      mload(0x40)\n      0xec442f0500000000000000000000000000000000000000000000000000000000\n      dup2\n      mstore\n      0x04\n      add\n      tag_202\n      swap2\n      swap1\n      tag_71\n      jump\t// in\n    tag_202:\n      mload(0x40)\n      dup1\n      swap2\n      sub\n      swap1\n      revert\n        /* \"Token_RY_flattened.sol\":18678:18769  if (account == address(0)) {... */\n    tag_201:\n        /* \"Token_RY_flattened.sol\":18778:18813  _update(address(0), account, value) */\n      tag_203\n        /* \"Token_RY_flattened.sol\":18794:18795  0 */\n      0x00\n        /* \"Token_RY_flattened.sol\":18798:18805  account */\n      dup4\n        /* \"Token_RY_flattened.sol\":18807:18812  value */\n      dup4\n        /* \"Token_RY_flattened.sol\":18778:18785  _update */\n      tag_187\n        /* \"Token_RY_flattened.sol\":18778:18813  _update(address(0), account, value) */\n      jump\t// in\n    tag_203:\n        /* \"Token_RY_flattened.sol\":18612:18820  function _mint(address account, uint256 value) internal {... */\n      pop\n      pop\n      jump\t// out\n        /* \"Token_RY_flattened.sol\":24923:25110  function _transferOwnership(address newOwner) internal virtual {... */\n    tag_125:\n        /* \"Token_RY_flattened.sol\":24996:25012  address oldOwner */\n      0x00\n        /* \"Token_RY_flattened.sol\":25015:25021  _owner */\n      0x05\n      0x00\n      swap1\n      sload\n      swap1\n      0x0100\n      exp\n      swap1\n      div\n      0xffffffffffffffffffffffffffffffffffffffff\n      and\n        /* \"Token_RY_flattened.sol\":24996:25021  address oldOwner = _owner */\n      swap1\n      pop\n        /* \"Token_RY_flattened.sol\":25040:25048  newOwner */\n      dup2\n        /* \"Token_RY_flattened.sol\":25031:25037  _owner */\n      0x05\n      0x00\n        /* \"Token_RY_flattened.sol\":25031:25048  _owner = newOwner */\n      0x0100\n      exp\n      dup2\n      sload\n      dup2\n      0xffffffffffffffffffffffffffffffffffffffff\n      mul\n      not\n      and\n      swap1\n      dup4\n      0xffffffffffffffffffffffffffffffffffffffff\n      and\n      mul\n      or\n      swap1\n      sstore\n      pop\n        /* \"Token_RY_flattened.sol\":25094:25102  newOwner */\n      dup2\n        /* \"Token_RY_flattened.sol\":25063:25103  OwnershipTransferred(oldOwner, newOwner) */\n      0xffffffffffffffffffffffffffffffffffffffff\n      and\n        /* \"Token_RY_flattened.sol\":25084:25092  oldOwner */\n      dup2\n        /* \"Token_RY_flattened.sol\":25063:25103  OwnershipTransferred(oldOwner, newOwner) */\n      0xffffffffffffffffffffffffffffffffffffffff\n      and\n      0x8be0079c531659141344cd1fd0a4f28419497f9722a3daafe3b4186f6b6457e0\n      mload(0x40)\n      mload(0x40)\n      dup1\n      swap2\n      sub\n      swap1\n      log3\n        /* \"Token_RY_flattened.sol\":24986:25110  {... */\n      pop\n        /* \"Token_RY_flattened.sol\":24923:25110  function _transferOwnership(address newOwner) internal virtual {... */\n      pop\n      jump\t// out\n        /* \"Token_RY_flattened.sol\":75998:76105  function nonces(address owner) public view virtual returns (uint256) {... */\n    tag_128:\n        /* \"Token_RY_flattened.sol\":76058:76065  uint256 */\n      0x00\n        /* \"Token_RY_flattened.sol\":76084:76091  _nonces */\n      0x08\n        /* \"Token_RY_flattened.sol\":76084:76098  _nonces[owner] */\n      0x00\n        /* \"Token_RY_flattened.sol\":76092:76097  owner */\n      dup4\n        /* \"Token_RY_flattened.sol\":76084:76098  _nonces[owner] */\n      0xffffffffffffffffffffffffffffffffffffffff\n      and\n      0xffffffffffffffffffffffffffffffffffffffff\n      and\n      dup2\n      mstore\n      0x20\n      add\n      swap1\n      dup2\n      mstore\n      0x20\n      add\n      0x00\n      keccak256\n      sload\n        /* \"Token_RY_flattened.sol\":76077:76098  return _nonces[owner] */\n      swap1\n      pop\n        /* \"Token_RY_flattened.sol\":75998:76105  function nonces(address owner) public view virtual returns (uint256) {... */\n      swap2\n      swap1\n      pop\n      jump\t// out\n        /* \"Token_RY_flattened.sol\":74849:74975  function _EIP712Name() internal view returns (string memory) {... */\n    tag_131:\n        /* \"Token_RY_flattened.sol\":74895:74908  string memory */\n      0x60\n        /* \"Token_RY_flattened.sol\":74927:74968  _name.toStringWithFallback(_nameFallback) */\n      tag_207\n        /* \"Token_RY_flattened.sol\":74954:74967  _nameFallback */\n      0x06\n        /* \"Token_RY_flattened.sol\":74927:74932  _name */\n      immutable(\"0x94a6815ac3f39ee0f691137327eba74e351a039ac093f36725d81460ae04f412\")\n        /* \"Token_RY_flattened.sol\":74927:74953  _name.toStringWithFallback */\n      tag_208\n      swap1\n        /* \"Token_RY_flattened.sol\":74927:74968  _name.toStringWithFallback(_nameFallback) */\n      swap2\n      swap1\n      0xffffffff\n      and\n      jump\t// in\n    tag_207:\n        /* \"Token_RY_flattened.sol\":74920:74968  return _name.toStringWithFallback(_nameFallback) */\n      swap1\n      pop\n        /* \"Token_RY_flattened.sol\":74849:74975  function _EIP712Name() internal view returns (string memory) {... */\n      swap1\n      jump\t// out\n        /* \"Token_RY_flattened.sol\":75301:75436  function _EIP712Version() internal view returns (string memory) {... */\n    tag_133:\n        /* \"Token_RY_flattened.sol\":75350:75363  string memory */\n      0x60\n        /* \"Token_RY_flattened.sol\":75382:75429  _version.toStringWithFallback(_versionFallback) */\n      tag_210\n        /* \"Token_RY_flattened.sol\":75412:75428  _versionFallback */\n      0x07\n        /* \"Token_RY_flattened.sol\":75382:75390  _version */\n      immutable(\"0x6a27fd8b4e034345f821626e478d5e1624295ad016c351a1e0a3d60e930e4e52\")\n        /* \"Token_RY_flattened.sol\":75382:75411  _version.toStringWithFallback */\n      tag_208\n      swap1\n        /* \"Token_RY_flattened.sol\":75382:75429  _version.toStringWithFallback(_versionFallback) */\n      swap2\n      swap1\n      0xffffffff\n      and\n      jump\t// in\n    tag_210:\n        /* \"Token_RY_flattened.sol\":75375:75429  return _version.toStringWithFallback(_versionFallback) */\n      swap1\n      pop\n        /* \"Token_RY_flattened.sol\":75301:75436  function _EIP712Version() internal view returns (string memory) {... */\n      swap1\n      jump\t// out\n        /* \"Token_RY_flattened.sol\":76219:76614  function _useNonce(address owner) internal virtual returns (uint256) {... */\n    tag_152:\n        /* \"Token_RY_flattened.sol\":76279:76286  uint256 */\n      0x00\n        /* \"Token_RY_flattened.sol\":76581:76588  _nonces */\n      0x08\n        /* \"Token_RY_flattened.sol\":76581:76595  _nonces[owner] */\n      0x00\n        /* \"Token_RY_flattened.sol\":76589:76594  owner */\n      dup4\n        /* \"Token_RY_flattened.sol\":76581:76595  _nonces[owner] */\n      0xffffffffffffffffffffffffffffffffffffffff\n      and\n      0xffffffffffffffffffffffffffffffffffffffff\n      and\n      dup2\n      mstore\n      0x20\n      add\n      swap1\n      dup2\n      mstore\n      0x20\n      add\n      0x00\n      keccak256\n      0x00\n        /* \"Token_RY_flattened.sol\":76581:76597  _nonces[owner]++ */\n      dup2\n      sload\n      dup1\n      swap3\n      swap2\n      swap1\n      0x01\n      add\n      swap2\n      swap1\n      pop\n      sstore\n        /* \"Token_RY_flattened.sol\":76574:76597  return _nonces[owner]++ */\n      swap1\n      pop\n        /* \"Token_RY_flattened.sol\":76219:76614  function _useNonce(address owner) internal virtual returns (uint256) {... */\n      swap2\n      swap1\n      pop\n      jump\t// out\n        /* \"Token_RY_flattened.sol\":73745:73921  function _hashTypedDataV4(bytes32 structHash) internal view virtual returns (bytes32) {... */\n    tag_156:\n        /* \"Token_RY_flattened.sol\":73822:73829  bytes32 */\n      0x00\n        /* \"Token_RY_flattened.sol\":73848:73914  MessageHashUtils.toTypedDataHash(_domainSeparatorV4(), structHash) */\n      tag_213\n        /* \"Token_RY_flattened.sol\":73881:73901  _domainSeparatorV4() */\n      tag_214\n        /* \"Token_RY_flattened.sol\":73881:73899  _domainSeparatorV4 */\n      tag_113\n        /* \"Token_RY_flattened.sol\":73881:73901  _domainSeparatorV4() */\n      jump\t// in\n    tag_214:\n        /* \"Token_RY_flattened.sol\":73903:73913  structHash */\n      dup4\n        /* \"Token_RY_flattened.sol\":73848:73880  MessageHashUtils.toTypedDataHash */\n      tag_215\n        /* \"Token_RY_flattened.sol\":73848:73914  MessageHashUtils.toTypedDataHash(_domainSeparatorV4(), structHash) */\n      jump\t// in\n    tag_213:\n        /* \"Token_RY_flattened.sol\":73841:73914  return MessageHashUtils.toTypedDataHash(_domainSeparatorV4(), structHash) */\n      swap1\n      pop\n        /* \"Token_RY_flattened.sol\":73745:73921  function _hashTypedDataV4(bytes32 structHash) internal view virtual returns (bytes32) {... */\n      swap2\n      swap1\n      pop\n      jump\t// out\n        /* \"Token_RY_flattened.sol\":35796:36056  function recover(bytes32 hash, uint8 v, bytes32 r, bytes32 s) internal pure returns (address) {... */\n    tag_158:\n        /* \"Token_RY_flattened.sol\":35881:35888  address */\n      0x00\n        /* \"Token_RY_flattened.sol\":35901:35918  address recovered */\n      dup1\n        /* \"Token_RY_flattened.sol\":35920:35938  RecoverError error */\n      0x00\n        /* \"Token_RY_flattened.sol\":35940:35956  bytes32 errorArg */\n      dup1\n        /* \"Token_RY_flattened.sol\":35960:35985  tryRecover(hash, v, r, s) */\n      tag_217\n        /* \"Token_RY_flattened.sol\":35971:35975  hash */\n      dup9\n        /* \"Token_RY_flattened.sol\":35977:35978  v */\n      dup9\n        /* \"Token_RY_flattened.sol\":35980:35981  r */\n      dup9\n        /* \"Token_RY_flattened.sol\":35983:35984  s */\n      dup9\n        /* \"Token_RY_flattened.sol\":35960:35970  tryRecover */\n      tag_218\n        /* \"Token_RY_flattened.sol\":35960:35985  tryRecover(hash, v, r, s) */\n      jump\t// in\n    tag_217:\n        /* \"Token_RY_flattened.sol\":35900:35985  (address recovered, RecoverError error, bytes32 errorArg) = tryRecover(hash, v, r, s) */\n      swap3\n      pop\n      swap3\n      pop\n      swap3\n      pop\n        /* \"Token_RY_flattened.sol\":35995:36023  _throwError(error, errorArg) */\n      tag_219\n        /* \"Token_RY_flattened.sol\":36007:36012  error */\n      dup3\n        /* \"Token_RY_flattened.sol\":36014:36022  errorArg */\n      dup3\n        /* \"Token_RY_flattened.sol\":35995:36006  _throwError */\n      tag_220\n        /* \"Token_RY_flattened.sol\":35995:36023  _throwError(error, errorArg) */\n      jump\t// in\n    tag_219:\n        /* \"Token_RY_flattened.sol\":36040:36049  recovered */\n      dup3\n        /* \"Token_RY_flattened.sol\":36033:36049  return recovered */\n      swap4\n      pop\n      pop\n      pop\n      pop\n        /* \"Token_RY_flattened.sol\":35796:36056  function recover(bytes32 hash, uint8 v, bytes32 r, bytes32 s) internal pure returns (address) {... */\n      swap5\n      swap4\n      pop\n      pop\n      pop\n      pop\n      jump\t// out\n        /* \"Token_RY_flattened.sol\":20840:21272  function _approve(address owner, address spender, uint256 value, bool emitEvent) internal virtual {... */\n    tag_173:\n        /* \"Token_RY_flattened.sol\":20969:20970  0 */\n      0x00\n        /* \"Token_RY_flattened.sol\":20952:20971  owner == address(0) */\n      0xffffffffffffffffffffffffffffffffffffffff\n      and\n        /* \"Token_RY_flattened.sol\":20952:20957  owner */\n      dup5\n        /* \"Token_RY_flattened.sol\":20952:20971  owner == address(0) */\n      0xffffffffffffffffffffffffffffffffffffffff\n      and\n      sub\n        /* \"Token_RY_flattened.sol\":20948:21037  if (owner == address(0)) {... */\n      tag_222\n      jumpi\n        /* \"Token_RY_flattened.sol\":21023:21024  0 */\n      0x00\n        /* \"Token_RY_flattened.sol\":20994:21026  ERC20InvalidApprover(address(0)) */\n      mload(0x40)\n      0xe602df0500000000000000000000000000000000000000000000000000000000\n      dup2\n      mstore\n      0x04\n      add\n      tag_223\n      swap2\n      swap1\n      tag_71\n      jump\t// in\n    tag_223:\n      mload(0x40)\n      dup1\n      swap2\n      sub\n      swap1\n      revert\n        /* \"Token_RY_flattened.sol\":20948:21037  if (owner == address(0)) {... */\n    tag_222:\n        /* \"Token_RY_flattened.sol\":21069:21070  0 */\n      0x00\n        /* \"Token_RY_flattened.sol\":21050:21071  spender == address(0) */\n      0xffffffffffffffffffffffffffffffffffffffff\n      and\n        /* \"Token_RY_flattened.sol\":21050:21057  spender */\n      dup4\n        /* \"Token_RY_flattened.sol\":21050:21071  spender == address(0) */\n      0xffffffffffffffffffffffffffffffffffffffff\n      and\n      sub\n        /* \"Token_RY_flattened.sol\":21046:21136  if (spender == address(0)) {... */\n      tag_224\n      jumpi\n        /* \"Token_RY_flattened.sol\":21122:21123  0 */\n      0x00\n        /* \"Token_RY_flattened.sol\":21094:21125  ERC20InvalidSpender(address(0)) */\n      mload(0x40)\n      0x94280d6200000000000000000000000000000000000000000000000000000000\n      dup2\n      mstore\n      0x04\n      add\n      tag_225\n      swap2\n      swap1\n      tag_71\n      jump\t// in\n    tag_225:\n      mload(0x40)\n      dup1\n      swap2\n      sub\n      swap1\n      revert\n        /* \"Token_RY_flattened.sol\":21046:21136  if (spender == address(0)) {... */\n    tag_224:\n        /* \"Token_RY_flattened.sol\":21175:21180  value */\n      dup2\n        /* \"Token_RY_flattened.sol\":21145:21156  _allowances */\n      0x01\n        /* \"Token_RY_flattened.sol\":21145:21163  _allowances[owner] */\n      0x00\n        /* \"Token_RY_flattened.sol\":21157:21162  owner */\n      dup7\n        /* \"Token_RY_flattened.sol\":21145:21163  _allowances[owner] */\n      0xffffffffffffffffffffffffffffffffffffffff\n      and\n      0xffffffffffffffffffffffffffffffffffffffff\n      and\n      dup2\n      mstore\n      0x20\n      add\n      swap1\n      dup2\n      mstore\n      0x20\n      add\n      0x00\n      keccak256\n        /* \"Token_RY_flattened.sol\":21145:21172  _allowances[owner][spender] */\n      0x00\n        /* \"Token_RY_flattened.sol\":21164:21171  spender */\n      dup6\n        /* \"Token_RY_flattened.sol\":21145:21172  _allowances[owner][spender] */\n      0xffffffffffffffffffffffffffffffffffffffff\n      and\n      0xffffffffffffffffffffffffffffffffffffffff\n      and\n      dup2\n      mstore\n      0x20\n      add\n      swap1\n      dup2\n      mstore\n      0x20\n      add\n      0x00\n      keccak256\n        /* \"Token_RY_flattened.sol\":21145:21180  _allowances[owner][spender] = value */\n      dup2\n      swap1\n      sstore\n      pop\n        /* \"Token_RY_flattened.sol\":21194:21203  emitEvent */\n      dup1\n        /* \"Token_RY_flattened.sol\":21190:21266  if (emitEvent) {... */\n      iszero\n      tag_226\n      jumpi\n        /* \"Token_RY_flattened.sol\":21240:21247  spender */\n      dup3\n        /* \"Token_RY_flattened.sol\":21224:21255  Approval(owner, spender, value) */\n      0xffffffffffffffffffffffffffffffffffffffff\n      and\n        /* \"Token_RY_flattened.sol\":21233:21238  owner */\n      dup5\n        /* \"Token_RY_flattened.sol\":21224:21255  Approval(owner, spender, value) */\n      0xffffffffffffffffffffffffffffffffffffffff\n      and\n      0x8c5be1e5ebec7d5bd14f71427d1e84f3dd0314c0f7b2291e5b200ac8c7c3b925\n        /* \"Token_RY_flattened.sol\":21249:21254  value */\n      dup5\n        /* \"Token_RY_flattened.sol\":21224:21255  Approval(owner, spender, value) */\n      mload(0x40)\n      tag_227\n      swap2\n      swap1\n      tag_36\n      jump\t// in\n    tag_227:\n      mload(0x40)\n      dup1\n      swap2\n      sub\n      swap1\n      log3\n        /* \"Token_RY_flattened.sol\":21190:21266  if (emitEvent) {... */\n    tag_226:\n        /* \"Token_RY_flattened.sol\":20840:21272  function _approve(address owner, address spender, uint256 value, bool emitEvent) internal virtual {... */\n      pop\n      pop\n      pop\n      pop\n      jump\t// out\n        /* \"Token_RY_flattened.sol\":17162:18269  function _update(address from, address to, uint256 value) internal virtual {... */\n    tag_187:\n        /* \"Token_RY_flattened.sol\":17267:17268  0 */\n      0x00\n        /* \"Token_RY_flattened.sol\":17251:17269  from == address(0) */\n      0xffffffffffffffffffffffffffffffffffffffff\n      and\n        /* \"Token_RY_flattened.sol\":17251:17255  from */\n      dup4\n        /* \"Token_RY_flattened.sol\":17251:17269  from == address(0) */\n      0xffffffffffffffffffffffffffffffffffffffff\n      and\n      sub\n        /* \"Token_RY_flattened.sol\":17247:17787  if (from == address(0)) {... */\n      tag_229\n      jumpi\n        /* \"Token_RY_flattened.sol\":17403:17408  value */\n      dup1\n        /* \"Token_RY_flattened.sol\":17387:17399  _totalSupply */\n      0x02\n      0x00\n        /* \"Token_RY_flattened.sol\":17387:17408  _totalSupply += value */\n      dup3\n      dup3\n      sload\n      tag_230\n      swap2\n      swap1\n      tag_231\n      jump\t// in\n    tag_230:\n      swap3\n      pop\n      pop\n      dup2\n      swap1\n      sstore\n      pop\n        /* \"Token_RY_flattened.sol\":17247:17787  if (from == address(0)) {... */\n      jump(tag_232)\n    tag_229:\n        /* \"Token_RY_flattened.sol\":17439:17458  uint256 fromBalance */\n      0x00\n        /* \"Token_RY_flattened.sol\":17461:17470  _balances */\n      dup1\n        /* \"Token_RY_flattened.sol\":17461:17476  _balances[from] */\n      0x00\n        /* \"Token_RY_flattened.sol\":17471:17475  from */\n      dup6\n        /* \"Token_RY_flattened.sol\":17461:17476  _balances[from] */\n      0xffffffffffffffffffffffffffffffffffffffff\n      and\n      0xffffffffffffffffffffffffffffffffffffffff\n      and\n      dup2\n      mstore\n      0x20\n      add\n      swap1\n      dup2\n      mstore\n      0x20\n      add\n      0x00\n      keccak256\n      sload\n        /* \"Token_RY_flattened.sol\":17439:17476  uint256 fromBalance = _balances[from] */\n      swap1\n      pop\n        /* \"Token_RY_flattened.sol\":17508:17513  value */\n      dup2\n        /* \"Token_RY_flattened.sol\":17494:17505  fromBalance */\n      dup2\n        /* \"Token_RY_flattened.sol\":17494:17513  fromBalance < value */\n      lt\n        /* \"Token_RY_flattened.sol\":17490:17605  if (fromBalance < value) {... */\n      iszero\n      tag_233\n      jumpi\n        /* \"Token_RY_flattened.sol\":17565:17569  from */\n      dup4\n        /* \"Token_RY_flattened.sol\":17571:17582  fromBalance */\n      dup2\n        /* \"Token_RY_flattened.sol\":17584:17589  value */\n      dup4\n        /* \"Token_RY_flattened.sol\":17540:17590  ERC20InsufficientBalance(from, fromBalance, value) */\n      mload(0x40)\n      0xe450d38c00000000000000000000000000000000000000000000000000000000\n      dup2\n      mstore\n      0x04\n      add\n      tag_234\n      swap4\n      swap3\n      swap2\n      swap1\n      tag_179\n      jump\t// in\n    tag_234:\n      mload(0x40)\n      dup1\n      swap2\n      sub\n      swap1\n      revert\n        /* \"Token_RY_flattened.sol\":17490:17605  if (fromBalance < value) {... */\n    tag_233:\n        /* \"Token_RY_flattened.sol\":17757:17762  value */\n      dup2\n        /* \"Token_RY_flattened.sol\":17743:17754  fromBalance */\n      dup2\n        /* \"Token_RY_flattened.sol\":17743:17762  fromBalance - value */\n      sub\n        /* \"Token_RY_flattened.sol\":17725:17734  _balances */\n      0x00\n        /* \"Token_RY_flattened.sol\":17725:17740  _balances[from] */\n      dup1\n        /* \"Token_RY_flattened.sol\":17735:17739  from */\n      dup7\n        /* \"Token_RY_flattened.sol\":17725:17740  _balances[from] */\n      0xffffffffffffffffffffffffffffffffffffffff\n      and\n      0xffffffffffffffffffffffffffffffffffffffff\n      and\n      dup2\n      mstore\n      0x20\n      add\n      swap1\n      dup2\n      mstore\n      0x20\n      add\n      0x00\n      keccak256\n        /* \"Token_RY_flattened.sol\":17725:17762  _balances[from] = fromBalance - value */\n      dup2\n      swap1\n      sstore\n      pop\n        /* \"Token_RY_flattened.sol\":17425:17787  {... */\n      pop\n        /* \"Token_RY_flattened.sol\":17247:17787  if (from == address(0)) {... */\n    tag_232:\n        /* \"Token_RY_flattened.sol\":17815:17816  0 */\n      0x00\n        /* \"Token_RY_flattened.sol\":17801:17817  to == address(0) */\n      0xffffffffffffffffffffffffffffffffffffffff\n      and\n        /* \"Token_RY_flattened.sol\":17801:17803  to */\n      dup3\n        /* \"Token_RY_flattened.sol\":17801:17817  to == address(0) */\n      0xffffffffffffffffffffffffffffffffffffffff\n      and\n      sub\n        /* \"Token_RY_flattened.sol\":17797:18222  if (to == address(0)) {... */\n      tag_235\n      jumpi\n        /* \"Token_RY_flattened.sol\":17980:17985  value */\n      dup1\n        /* \"Token_RY_flattened.sol\":17964:17976  _totalSupply */\n      0x02\n      0x00\n        /* \"Token_RY_flattened.sol\":17964:17985  _totalSupply -= value */\n      dup3\n      dup3\n      sload\n      sub\n      swap3\n      pop\n      pop\n      dup2\n      swap1\n      sstore\n      pop\n        /* \"Token_RY_flattened.sol\":17797:18222  if (to == address(0)) {... */\n      jump(tag_236)\n    tag_235:\n        /* \"Token_RY_flattened.sol\":18192:18197  value */\n      dup1\n        /* \"Token_RY_flattened.sol\":18175:18184  _balances */\n      0x00\n        /* \"Token_RY_flattened.sol\":18175:18188  _balances[to] */\n      dup1\n        /* \"Token_RY_flattened.sol\":18185:18187  to */\n      dup5\n        /* \"Token_RY_flattened.sol\":18175:18188  _balances[to] */\n      0xffffffffffffffffffffffffffffffffffffffff\n      and\n      0xffffffffffffffffffffffffffffffffffffffff\n      and\n      dup2\n      mstore\n      0x20\n      add\n      swap1\n      dup2\n      mstore\n      0x20\n      add\n      0x00\n      keccak256\n      0x00\n        /* \"Token_RY_flattened.sol\":18175:18197  _balances[to] += value */\n      dup3\n      dup3\n      sload\n      add\n      swap3\n      pop\n      pop\n      dup2\n      swap1\n      sstore\n      pop\n        /* \"Token_RY_flattened.sol\":17797:18222  if (to == address(0)) {... */\n    tag_236:\n        /* \"Token_RY_flattened.sol\":18252:18254  to */\n      dup2\n        /* \"Token_RY_flattened.sol\":18237:18262  Transfer(from, to, value) */\n      0xffffffffffffffffffffffffffffffffffffffff\n      and\n        /* \"Token_RY_flattened.sol\":18246:18250  from */\n      dup4\n        /* \"Token_RY_flattened.sol\":18237:18262  Transfer(from, to, value) */\n      0xffffffffffffffffffffffffffffffffffffffff\n      and\n      0xddf252ad1be2c89b69c2b068fc378daa952ba7f163c4a11628f55a4df523b3ef\n        /* \"Token_RY_flattened.sol\":18256:18261  value */\n      dup4\n        /* \"Token_RY_flattened.sol\":18237:18262  Transfer(from, to, value) */\n      mload(0x40)\n      tag_237\n      swap2\n      swap1\n      tag_36\n      jump\t// in\n    tag_237:\n      mload(0x40)\n      dup1\n      swap2\n      sub\n      swap1\n      log3\n        /* \"Token_RY_flattened.sol\":17162:18269  function _update(address from, address to, uint256 value) internal virtual {... */\n      pop\n      pop\n      pop\n      jump\t// out\n        /* \"Token_RY_flattened.sol\":72941:73120  function _buildDomainSeparator() private view returns (bytes32) {... */\n    tag_193:\n        /* \"Token_RY_flattened.sol\":72996:73003  bytes32 */\n      0x00\n        /* \"Token_RY_flattened.sol\":70907:71002  keccak256(\"EIP712Domain(string name,string version,uint256 chainId,address verifyingContract)\") */\n      0x8b73c3c69bb8fe3d512ecc4cf759cc79239f7b179b0ffacaa9a75d522b39400f\n        /* \"Token_RY_flattened.sol\":73054:73065  _hashedName */\n      immutable(\"0xd7540fe9b6cfec114ef69b9a5e37f0df0cc41a7a00237e8b74bf5a92c0da8102\")\n        /* \"Token_RY_flattened.sol\":73067:73081  _hashedVersion */\n      immutable(\"0x957b8855a729b67dc028ca49cb97b10aca21a5ff5ddcb5f61d4444c005a9b1c2\")\n        /* \"Token_RY_flattened.sol\":73083:73096  block.chainid */\n      chainid\n        /* \"Token_RY_flattened.sol\":73106:73110  this */\n      address\n        /* \"Token_RY_flattened.sol\":73032:73112  abi.encode(TYPE_HASH, _hashedName, _hashedVersion, block.chainid, address(this)) */\n      add(0x20, mload(0x40))\n      tag_239\n      swap6\n      swap5\n      swap4\n      swap3\n      swap2\n      swap1\n      tag_240\n      jump\t// in\n    tag_239:\n      mload(0x40)\n      0x20\n      dup2\n      dup4\n      sub\n      sub\n      dup2\n      mstore\n      swap1\n      0x40\n      mstore\n        /* \"Token_RY_flattened.sol\":73022:73113  keccak256(abi.encode(TYPE_HASH, _hashedName, _hashedVersion, block.chainid, address(this))) */\n      dup1\n      mload\n      swap1\n      0x20\n      add\n      keccak256\n        /* \"Token_RY_flattened.sol\":73015:73113  return keccak256(abi.encode(TYPE_HASH, _hashedName, _hashedVersion, block.chainid, address(this))) */\n      swap1\n      pop\n        /* \"Token_RY_flattened.sol\":72941:73120  function _buildDomainSeparator() private view returns (bytes32) {... */\n      swap1\n      jump\t// out\n        /* \"Token_RY_flattened.sol\":67277:67544  function toStringWithFallback(ShortString value, string storage store) internal pure returns (string memory) {... */\n    tag_208:\n        /* \"Token_RY_flattened.sol\":67371:67384  string memory */\n      0x60\n        /* \"Token_RY_flattened.sol\":65282:65348  0x00000000000000000000000000000000000000000000000000000000000000FF */\n      0xff\n        /* \"Token_RY_flattened.sol\":67429:67446  FALLBACK_SENTINEL */\n      0x00\n      shl\n        /* \"Token_RY_flattened.sol\":67419:67424  value */\n      dup4\n        /* \"Token_RY_flattened.sol\":67400:67446  ShortString.unwrap(value) != FALLBACK_SENTINEL */\n      eq\n        /* \"Token_RY_flattened.sol\":67396:67538  if (ShortString.unwrap(value) != FALLBACK_SENTINEL) {... */\n      tag_242\n      jumpi\n        /* \"Token_RY_flattened.sol\":67469:67484  toString(value) */\n      tag_243\n        /* \"Token_RY_flattened.sol\":67478:67483  value */\n      dup4\n        /* \"Token_RY_flattened.sol\":67469:67477  toString */\n      tag_244\n        /* \"Token_RY_flattened.sol\":67469:67484  toString(value) */\n      jump\t// in\n    tag_243:\n        /* \"Token_RY_flattened.sol\":67462:67484  return toString(value) */\n      swap1\n      pop\n      jump(tag_241)\n        /* \"Token_RY_flattened.sol\":67396:67538  if (ShortString.unwrap(value) != FALLBACK_SENTINEL) {... */\n    tag_242:\n        /* \"Token_RY_flattened.sol\":67522:67527  store */\n      dup2\n        /* \"Token_RY_flattened.sol\":67515:67527  return store */\n      dup1\n      sload\n      tag_246\n      swap1\n      tag_93\n      jump\t// in\n    tag_246:\n      dup1\n      0x1f\n      add\n      0x20\n      dup1\n      swap2\n      div\n      mul\n      0x20\n      add\n      mload(0x40)\n      swap1\n      dup2\n      add\n      0x40\n      mstore\n      dup1\n      swap3\n      swap2\n      swap1\n      dup2\n      dup2\n      mstore\n      0x20\n      add\n      dup3\n      dup1\n      sload\n      tag_247\n      swap1\n      tag_93\n      jump\t// in\n    tag_247:\n      dup1\n      iszero\n      tag_248\n      jumpi\n      dup1\n      0x1f\n      lt\n      tag_249\n      jumpi\n      0x0100\n      dup1\n      dup4\n      sload\n      div\n      mul\n      dup4\n      mstore\n      swap2\n      0x20\n      add\n      swap2\n      jump(tag_248)\n    tag_249:\n      dup3\n      add\n      swap2\n      swap1\n      0x00\n      mstore\n      keccak256(0x00, 0x20)\n      swap1\n    tag_250:\n      dup2\n      sload\n      dup2\n      mstore\n      swap1\n      0x01\n      add\n      swap1\n      0x20\n      add\n      dup1\n      dup4\n      gt\n      tag_250\n      jumpi\n      dup3\n      swap1\n      sub\n      0x1f\n      and\n      dup3\n      add\n      swap2\n    tag_248:\n      pop\n      pop\n      pop\n      pop\n      pop\n      swap1\n      pop\n        /* \"Token_RY_flattened.sol\":67277:67544  function toStringWithFallback(ShortString value, string storage store) internal pure returns (string memory) {... */\n    tag_241:\n      swap3\n      swap2\n      pop\n      pop\n      jump\t// out\n        /* \"Token_RY_flattened.sol\":59551:59952  function toTypedDataHash(bytes32 domainSeparator, bytes32 structHash) internal pure returns (bytes32 digest) {... */\n    tag_215:\n        /* \"Token_RY_flattened.sol\":59644:59658  bytes32 digest */\n      0x00\n        /* \"Token_RY_flattened.sol\":59753:59757  0x40 */\n      0x40\n        /* \"Token_RY_flattened.sol\":59747:59758  mload(0x40) */\n      mload\n        /* \"Token_RY_flattened.sol\":59783:59793  hex\"19_01\" */\n      0x1901000000000000000000000000000000000000000000000000000000000000\n        /* \"Token_RY_flattened.sol\":59778:59781  ptr */\n      dup2\n        /* \"Token_RY_flattened.sol\":59771:59794  mstore(ptr, hex\"19_01\") */\n      mstore\n        /* \"Token_RY_flattened.sol\":59830:59845  domainSeparator */\n      dup4\n        /* \"Token_RY_flattened.sol\":59823:59827  0x02 */\n      0x02\n        /* \"Token_RY_flattened.sol\":59818:59821  ptr */\n      dup3\n        /* \"Token_RY_flattened.sol\":59814:59828  add(ptr, 0x02) */\n      add\n        /* \"Token_RY_flattened.sol\":59807:59846  mstore(add(ptr, 0x02), domainSeparator) */\n      mstore\n        /* \"Token_RY_flattened.sol\":59882:59892  structHash */\n      dup3\n        /* \"Token_RY_flattened.sol\":59875:59879  0x22 */\n      0x22\n        /* \"Token_RY_flattened.sol\":59870:59873  ptr */\n      dup3\n        /* \"Token_RY_flattened.sol\":59866:59880  add(ptr, 0x22) */\n      add\n        /* \"Token_RY_flattened.sol\":59859:59893  mstore(add(ptr, 0x22), structHash) */\n      mstore\n        /* \"Token_RY_flattened.sol\":59931:59935  0x42 */\n      0x42\n        /* \"Token_RY_flattened.sol\":59926:59929  ptr */\n      dup2\n        /* \"Token_RY_flattened.sol\":59916:59936  keccak256(ptr, 0x42) */\n      keccak256\n        /* \"Token_RY_flattened.sol\":59906:59936  digest := keccak256(ptr, 0x42) */\n      swap2\n      pop\n        /* \"Token_RY_flattened.sol\":59722:59946  {... */\n      pop\n        /* \"Token_RY_flattened.sol\":59551:59952  function toTypedDataHash(bytes32 domainSeparator, bytes32 structHash) internal pure returns (bytes32 digest) {... */\n      swap3\n      swap2\n      pop\n      pop\n      jump\t// out\n        /* \"Token_RY_flattened.sol\":34133:35663  function tryRecover(... */\n    tag_218:\n        /* \"Token_RY_flattened.sol\":34259:34266  address */\n      0x00\n        /* \"Token_RY_flattened.sol\":34268:34280  RecoverError */\n      dup1\n        /* \"Token_RY_flattened.sol\":34282:34289  bytes32 */\n      0x00\n        /* \"Token_RY_flattened.sol\":35192:35258  0x7FFFFFFFFFFFFFFFFFFFFFFFFFFFFFFF5D576E7357A4501DDFE92F46681B20A0 */\n      0x7fffffffffffffffffffffffffffffff5d576e7357a4501ddfe92f46681b20a0\n        /* \"Token_RY_flattened.sol\":35187:35188  s */\n      dup5\n        /* \"Token_RY_flattened.sol\":35179:35189  uint256(s) */\n      0x00\n      shr\n        /* \"Token_RY_flattened.sol\":35179:35258  uint256(s) > 0x7FFFFFFFFFFFFFFFFFFFFFFFFFFFFFFF5D576E7357A4501DDFE92F46681B20A0 */\n      gt\n        /* \"Token_RY_flattened.sol\":35175:35339  if (uint256(s) > 0x7FFFFFFFFFFFFFFFFFFFFFFFFFFFFFFF5D576E7357A4501DDFE92F46681B20A0) {... */\n      iszero\n      tag_253\n      jumpi\n        /* \"Token_RY_flattened.sol\":35290:35291  0 */\n      0x00\n        /* \"Token_RY_flattened.sol\":35294:35324  RecoverError.InvalidSignatureS */\n      0x03\n        /* \"Token_RY_flattened.sol\":35326:35327  s */\n      dup6\n        /* \"Token_RY_flattened.sol\":35274:35328  return (address(0), RecoverError.InvalidSignatureS, s) */\n      swap3\n      pop\n      swap3\n      pop\n      swap3\n      pop\n      jump(tag_252)\n        /* \"Token_RY_flattened.sol\":35175:35339  if (uint256(s) > 0x7FFFFFFFFFFFFFFFFFFFFFFFFFFFFFFF5D576E7357A4501DDFE92F46681B20A0) {... */\n    tag_253:\n        /* \"Token_RY_flattened.sol\":35433:35447  address signer */\n      0x00\n        /* \"Token_RY_flattened.sol\":35450:35474  ecrecover(hash, v, r, s) */\n      0x01\n        /* \"Token_RY_flattened.sol\":35460:35464  hash */\n      dup9\n        /* \"Token_RY_flattened.sol\":35466:35467  v */\n      dup9\n        /* \"Token_RY_flattened.sol\":35469:35470  r */\n      dup9\n        /* \"Token_RY_flattened.sol\":35472:35473  s */\n      dup9\n        /* \"Token_RY_flattened.sol\":35450:35474  ecrecover(hash, v, r, s) */\n      mload(0x40)\n      0x00\n      dup2\n      mstore\n      0x20\n      add\n      0x40\n      mstore\n      mload(0x40)\n      tag_254\n      swap5\n      swap4\n      swap3\n      swap2\n      swap1\n      tag_255\n      jump\t// in\n    tag_254:\n      0x20\n      mload(0x40)\n      0x20\n      dup2\n      sub\n      swap1\n      dup1\n      dup5\n      sub\n      swap1\n      dup6\n      gas\n      staticcall\n      iszero\n      dup1\n      iszero\n      tag_257\n      jumpi\n      returndatasize\n      0x00\n      dup1\n      returndatacopy\n      revert(0x00, returndatasize)\n    tag_257:\n      pop\n      pop\n      pop\n      mload(sub(mload(0x40), 0x20))\n        /* \"Token_RY_flattened.sol\":35433:35474  address signer = ecrecover(hash, v, r, s) */\n      swap1\n      pop\n        /* \"Token_RY_flattened.sol\":35506:35507  0 */\n      0x00\n        /* \"Token_RY_flattened.sol\":35488:35508  signer == address(0) */\n      0xffffffffffffffffffffffffffffffffffffffff\n      and\n        /* \"Token_RY_flattened.sol\":35488:35494  signer */\n      dup2\n        /* \"Token_RY_flattened.sol\":35488:35508  signer == address(0) */\n      0xffffffffffffffffffffffffffffffffffffffff\n      and\n      sub\n        /* \"Token_RY_flattened.sol\":35484:35597  if (signer == address(0)) {... */\n      tag_258\n      jumpi\n        /* \"Token_RY_flattened.sol\":35540:35541  0 */\n      0x00\n        /* \"Token_RY_flattened.sol\":35544:35573  RecoverError.InvalidSignature */\n      0x01\n        /* \"Token_RY_flattened.sol\":35583:35584  0 */\n      0x00\n        /* \"Token_RY_flattened.sol\":35575:35585  bytes32(0) */\n      dup1\n      shl\n        /* \"Token_RY_flattened.sol\":35524:35586  return (address(0), RecoverError.InvalidSignature, bytes32(0)) */\n      swap4\n      pop\n      swap4\n      pop\n      swap4\n      pop\n      pop\n      jump(tag_252)\n        /* \"Token_RY_flattened.sol\":35484:35597  if (signer == address(0)) {... */\n    tag_258:\n        /* \"Token_RY_flattened.sol\":35615:35621  signer */\n      dup1\n        /* \"Token_RY_flattened.sol\":35623:35643  RecoverError.NoError */\n      0x00\n        /* \"Token_RY_flattened.sol\":35653:35654  0 */\n      dup1\n        /* \"Token_RY_flattened.sol\":35645:35655  bytes32(0) */\n      0x00\n      shl\n        /* \"Token_RY_flattened.sol\":35607:35656  return (signer, RecoverError.NoError, bytes32(0)) */\n      swap4\n      pop\n      swap4\n      pop\n      swap4\n      pop\n      pop\n        /* \"Token_RY_flattened.sol\":34133:35663  function tryRecover(... */\n    tag_252:\n      swap5\n      pop\n      swap5\n      pop\n      swap5\n      swap2\n      pop\n      pop\n      jump\t// out\n        /* \"Token_RY_flattened.sol\":36189:36721  function _throwError(RecoverError error, bytes32 errorArg) private pure {... */\n    tag_220:\n        /* \"Token_RY_flattened.sol\":36284:36304  RecoverError.NoError */\n      0x00\n        /* \"Token_RY_flattened.sol\":36275:36304  error == RecoverError.NoError */\n      0x03\n      dup2\n      gt\n      iszero\n      tag_260\n      jumpi\n      tag_261\n      tag_262\n      jump\t// in\n    tag_261:\n    tag_260:\n        /* \"Token_RY_flattened.sol\":36275:36280  error */\n      dup3\n        /* \"Token_RY_flattened.sol\":36275:36304  error == RecoverError.NoError */\n      0x03\n      dup2\n      gt\n      iszero\n      tag_263\n      jumpi\n      tag_264\n      tag_262\n      jump\t// in\n    tag_264:\n    tag_263:\n      sub\n        /* \"Token_RY_flattened.sol\":36271:36715  if (error == RecoverError.NoError) {... */\n      iszero\n        /* \"Token_RY_flattened.sol\":36320:36327  return; */\n      tag_259\n        /* \"Token_RY_flattened.sol\":36271:36715  if (error == RecoverError.NoError) {... */\n      jumpi\n        /* \"Token_RY_flattened.sol\":36380:36409  RecoverError.InvalidSignature */\n      0x01\n        /* \"Token_RY_flattened.sol\":36371:36409  error == RecoverError.InvalidSignature */\n      0x03\n      dup2\n      gt\n      iszero\n      tag_267\n      jumpi\n      tag_268\n      tag_262\n      jump\t// in\n    tag_268:\n    tag_267:\n        /* \"Token_RY_flattened.sol\":36371:36376  error */\n      dup3\n        /* \"Token_RY_flattened.sol\":36371:36409  error == RecoverError.InvalidSignature */\n      0x03\n      dup2\n      gt\n      iszero\n      tag_269\n      jumpi\n      tag_270\n      tag_262\n      jump\t// in\n    tag_270:\n    tag_269:\n      sub\n        /* \"Token_RY_flattened.sol\":36367:36715  if (error == RecoverError.InvalidSignature) {... */\n      tag_271\n      jumpi\n        /* \"Token_RY_flattened.sol\":36432:36455  ECDSAInvalidSignature() */\n      mload(0x40)\n      0xf645eedf00000000000000000000000000000000000000000000000000000000\n      dup2\n      mstore\n      0x04\n      add\n      mload(0x40)\n      dup1\n      swap2\n      sub\n      swap1\n      revert\n        /* \"Token_RY_flattened.sol\":36367:36715  if (error == RecoverError.InvalidSignature) {... */\n    tag_271:\n        /* \"Token_RY_flattened.sol\":36485:36520  RecoverError.InvalidSignatureLength */\n      0x02\n        /* \"Token_RY_flattened.sol\":36476:36520  error == RecoverError.InvalidSignatureLength */\n      0x03\n      dup2\n      gt\n      iszero\n      tag_273\n      jumpi\n      tag_274\n      tag_262\n      jump\t// in\n    tag_274:\n    tag_273:\n        /* \"Token_RY_flattened.sol\":36476:36481  error */\n      dup3\n        /* \"Token_RY_flattened.sol\":36476:36520  error == RecoverError.InvalidSignatureLength */\n      0x03\n      dup2\n      gt\n      iszero\n      tag_275\n      jumpi\n      tag_276\n      tag_262\n      jump\t// in\n    tag_276:\n    tag_275:\n      sub\n        /* \"Token_RY_flattened.sol\":36472:36715  if (error == RecoverError.InvalidSignatureLength) {... */\n      tag_277\n      jumpi\n        /* \"Token_RY_flattened.sol\":36579:36587  errorArg */\n      dup1\n        /* \"Token_RY_flattened.sol\":36571:36588  uint256(errorArg) */\n      0x00\n      shr\n        /* \"Token_RY_flattened.sol\":36543:36589  ECDSAInvalidSignatureLength(uint256(errorArg)) */\n      mload(0x40)\n      0xfce698f700000000000000000000000000000000000000000000000000000000\n      dup2\n      mstore\n      0x04\n      add\n      tag_278\n      swap2\n      swap1\n      tag_36\n      jump\t// in\n    tag_278:\n      mload(0x40)\n      dup1\n      swap2\n      sub\n      swap1\n      revert\n        /* \"Token_RY_flattened.sol\":36472:36715  if (error == RecoverError.InvalidSignatureLength) {... */\n    tag_277:\n        /* \"Token_RY_flattened.sol\":36619:36649  RecoverError.InvalidSignatureS */\n      0x03\n        /* \"Token_RY_flattened.sol\":36610:36649  error == RecoverError.InvalidSignatureS */\n      dup1\n      dup2\n      gt\n      iszero\n      tag_280\n      jumpi\n      tag_281\n      tag_262\n      jump\t// in\n    tag_281:\n    tag_280:\n        /* \"Token_RY_flattened.sol\":36610:36615  error */\n      dup3\n        /* \"Token_RY_flattened.sol\":36610:36649  error == RecoverError.InvalidSignatureS */\n      0x03\n      dup2\n      gt\n      iszero\n      tag_282\n      jumpi\n      tag_283\n      tag_262\n      jump\t// in\n    tag_283:\n    tag_282:\n      sub\n        /* \"Token_RY_flattened.sol\":36606:36715  if (error == RecoverError.InvalidSignatureS) {... */\n      tag_284\n      jumpi\n        /* \"Token_RY_flattened.sol\":36695:36703  errorArg */\n      dup1\n        /* \"Token_RY_flattened.sol\":36672:36704  ECDSAInvalidSignatureS(errorArg) */\n      mload(0x40)\n      0xd78bce0c00000000000000000000000000000000000000000000000000000000\n      dup2\n      mstore\n      0x04\n      add\n      tag_285\n      swap2\n      swap1\n      tag_49\n      jump\t// in\n    tag_285:\n      mload(0x40)\n      dup1\n      swap2\n      sub\n      swap1\n      revert\n        /* \"Token_RY_flattened.sol\":36606:36715  if (error == RecoverError.InvalidSignatureS) {... */\n    tag_284:\n        /* \"Token_RY_flattened.sol\":36189:36721  function _throwError(RecoverError error, bytes32 errorArg) private pure {... */\n    tag_259:\n      pop\n      pop\n      jump\t// out\n        /* \"Token_RY_flattened.sol\":65970:66375  function toString(ShortString sstr) internal pure returns (string memory) {... */\n    tag_244:\n        /* \"Token_RY_flattened.sol\":66029:66042  string memory */\n      0x60\n        /* \"Token_RY_flattened.sol\":66054:66065  uint256 len */\n      0x00\n        /* \"Token_RY_flattened.sol\":66068:66084  byteLength(sstr) */\n      tag_287\n        /* \"Token_RY_flattened.sol\":66079:66083  sstr */\n      dup4\n        /* \"Token_RY_flattened.sol\":66068:66078  byteLength */\n      tag_288\n        /* \"Token_RY_flattened.sol\":66068:66084  byteLength(sstr) */\n      jump\t// in\n    tag_287:\n        /* \"Token_RY_flattened.sol\":66054:66084  uint256 len = byteLength(sstr) */\n      swap1\n      pop\n        /* \"Token_RY_flattened.sol\":66172:66189  string memory str */\n      0x00\n        /* \"Token_RY_flattened.sol\":66203:66205  32 */\n      0x20\n        /* \"Token_RY_flattened.sol\":66192:66206  new string(32) */\n      0xffffffffffffffff\n      dup2\n      gt\n      iszero\n      tag_289\n      jumpi\n      tag_290\n      tag_136\n      jump\t// in\n    tag_290:\n    tag_289:\n      mload(0x40)\n      swap1\n      dup1\n      dup3\n      mstore\n      dup1\n      0x1f\n      add\n      not(0x1f)\n      and\n      0x20\n      add\n      dup3\n      add\n      0x40\n      mstore\n      dup1\n      iszero\n      tag_291\n      jumpi\n      dup2\n      0x20\n      add\n      0x01\n      dup3\n      mul\n      dup1\n      calldatasize\n      dup4\n      calldatacopy\n      dup1\n      dup3\n      add\n      swap2\n      pop\n      pop\n      swap1\n      pop\n    tag_291:\n      pop\n        /* \"Token_RY_flattened.sol\":66172:66206  string memory str = new string(32) */\n      swap1\n      pop\n        /* \"Token_RY_flattened.sol\":66294:66297  len */\n      dup2\n        /* \"Token_RY_flattened.sol\":66289:66292  str */\n      dup2\n        /* \"Token_RY_flattened.sol\":66282:66298  mstore(str, len) */\n      mstore\n        /* \"Token_RY_flattened.sol\":66334:66338  sstr */\n      dup4\n        /* \"Token_RY_flattened.sol\":66327:66331  0x20 */\n      0x20\n        /* \"Token_RY_flattened.sol\":66322:66325  str */\n      dup3\n        /* \"Token_RY_flattened.sol\":66318:66332  add(str, 0x20) */\n      add\n        /* \"Token_RY_flattened.sol\":66311:66339  mstore(add(str, 0x20), sstr) */\n      mstore\n        /* \"Token_RY_flattened.sol\":66365:66368  str */\n      dup1\n        /* \"Token_RY_flattened.sol\":66358:66368  return str */\n      swap3\n      pop\n      pop\n      pop\n        /* \"Token_RY_flattened.sol\":65970:66375  function toString(ShortString sstr) internal pure returns (string memory) {... */\n      swap2\n      swap1\n      pop\n      jump\t// out\n        /* \"Token_RY_flattened.sol\":66447:66692  function byteLength(ShortString sstr) internal pure returns (uint256) {... */\n    tag_288:\n        /* \"Token_RY_flattened.sol\":66508:66515  uint256 */\n      0x00\n        /* \"Token_RY_flattened.sol\":66527:66541  uint256 result */\n      dup1\n        /* \"Token_RY_flattened.sol\":66580:66584  0xFF */\n      0xff\n        /* \"Token_RY_flattened.sol\":66571:66575  sstr */\n      dup4\n        /* \"Token_RY_flattened.sol\":66544:66577  uint256(ShortString.unwrap(sstr)) */\n      0x00\n      shr\n        /* \"Token_RY_flattened.sol\":66544:66584  uint256(ShortString.unwrap(sstr)) & 0xFF */\n      and\n        /* \"Token_RY_flattened.sol\":66527:66584  uint256 result = uint256(ShortString.unwrap(sstr)) & 0xFF */\n      swap1\n      pop\n        /* \"Token_RY_flattened.sol\":66607:66609  31 */\n      0x1f\n        /* \"Token_RY_flattened.sol\":66598:66604  result */\n      dup2\n        /* \"Token_RY_flattened.sol\":66598:66609  result > 31 */\n      gt\n        /* \"Token_RY_flattened.sol\":66594:66663  if (result > 31) {... */\n      iszero\n      tag_293\n      jumpi\n        /* \"Token_RY_flattened.sol\":66632:66652  InvalidShortString() */\n      mload(0x40)\n      0xb3512b0c00000000000000000000000000000000000000000000000000000000\n      dup2\n      mstore\n      0x04\n      add\n      mload(0x40)\n      dup1\n      swap2\n      sub\n      swap1\n      revert\n        /* \"Token_RY_flattened.sol\":66594:66663  if (result > 31) {... */\n    tag_293:\n        /* \"Token_RY_flattened.sol\":66679:66685  result */\n      dup1\n        /* \"Token_RY_flattened.sol\":66672:66685  return result */\n      swap2\n      pop\n      pop\n        /* \"Token_RY_flattened.sol\":66447:66692  function byteLength(ShortString sstr) internal pure returns (uint256) {... */\n      swap2\n      swap1\n      pop\n      jump\t// out\n        /* \"#utility.yul\":7:106   */\n    tag_294:\n        /* \"#utility.yul\":59:65   */\n      0x00\n        /* \"#utility.yul\":93:98   */\n      dup2\n        /* \"#utility.yul\":87:99   */\n      mload\n        /* \"#utility.yul\":77:99   */\n      swap1\n      pop\n        /* \"#utility.yul\":7:106   */\n      swap2\n      swap1\n      pop\n      jump\t// out\n        /* \"#utility.yul\":112:281   */\n    tag_295:\n        /* \"#utility.yul\":196:207   */\n      0x00\n        /* \"#utility.yul\":230:236   */\n      dup3\n        /* \"#utility.yul\":225:228   */\n      dup3\n        /* \"#utility.yul\":218:237   */\n      mstore\n        /* \"#utility.yul\":270:274   */\n      0x20\n        /* \"#utility.yul\":265:268   */\n      dup3\n        /* \"#utility.yul\":261:275   */\n      add\n        /* \"#utility.yul\":246:275   */\n      swap1\n      pop\n        /* \"#utility.yul\":112:281   */\n      swap3\n      swap2\n      pop\n      pop\n      jump\t// out\n        /* \"#utility.yul\":287:533   */\n    tag_296:\n        /* \"#utility.yul\":368:369   */\n      0x00\n        /* \"#utility.yul\":378:491   */\n    tag_336:\n        /* \"#utility.yul\":392:398   */\n      dup4\n        /* \"#utility.yul\":389:390   */\n      dup2\n        /* \"#utility.yul\":386:399   */\n      lt\n        /* \"#utility.yul\":378:491   */\n      iszero\n      tag_338\n      jumpi\n        /* \"#utility.yul\":477:478   */\n      dup1\n        /* \"#utility.yul\":472:475   */\n      dup3\n        /* \"#utility.yul\":468:479   */\n      add\n        /* \"#utility.yul\":462:480   */\n      mload\n        /* \"#utility.yul\":458:459   */\n      dup2\n        /* \"#utility.yul\":453:456   */\n      dup5\n        /* \"#utility.yul\":449:460   */\n      add\n        /* \"#utility.yul\":442:481   */\n      mstore\n        /* \"#utility.yul\":414:416   */\n      0x20\n        /* \"#utility.yul\":411:412   */\n      dup2\n        /* \"#utility.yul\":407:417   */\n      add\n        /* \"#utility.yul\":402:417   */\n      swap1\n      pop\n        /* \"#utility.yul\":378:491   */\n      jump(tag_336)\n    tag_338:\n        /* \"#utility.yul\":525:526   */\n      0x00\n        /* \"#utility.yul\":516:522   */\n      dup5\n        /* \"#utility.yul\":511:514   */\n      dup5\n        /* \"#utility.yul\":507:523   */\n      add\n        /* \"#utility.yul\":500:527   */\n      mstore\n        /* \"#utility.yul\":349:533   */\n      pop\n        /* \"#utility.yul\":287:533   */\n      pop\n      pop\n      pop\n      jump\t// out\n        /* \"#utility.yul\":539:641   */\n    tag_297:\n        /* \"#utility.yul\":580:586   */\n      0x00\n        /* \"#utility.yul\":631:633   */\n      0x1f\n        /* \"#utility.yul\":627:634   */\n      not\n        /* \"#utility.yul\":622:624   */\n      0x1f\n        /* \"#utility.yul\":615:620   */\n      dup4\n        /* \"#utility.yul\":611:625   */\n      add\n        /* \"#utility.yul\":607:635   */\n      and\n        /* \"#utility.yul\":597:635   */\n      swap1\n      pop\n        /* \"#utility.yul\":539:641   */\n      swap2\n      swap1\n      pop\n      jump\t// out\n        /* \"#utility.yul\":647:1024   */\n    tag_298:\n        /* \"#utility.yul\":735:738   */\n      0x00\n        /* \"#utility.yul\":763:802   */\n      tag_341\n        /* \"#utility.yul\":796:801   */\n      dup3\n        /* \"#utility.yul\":763:802   */\n      tag_294\n      jump\t// in\n    tag_341:\n        /* \"#utility.yul\":818:889   */\n      tag_342\n        /* \"#utility.yul\":882:888   */\n      dup2\n        /* \"#utility.yul\":877:880   */\n      dup6\n        /* \"#utility.yul\":818:889   */\n      tag_295\n      jump\t// in\n    tag_342:\n        /* \"#utility.yul\":811:889   */\n      swap4\n      pop\n        /* \"#utility.yul\":898:963   */\n      tag_343\n        /* \"#utility.yul\":956:962   */\n      dup2\n        /* \"#utility.yul\":951:954   */\n      dup6\n        /* \"#utility.yul\":944:948   */\n      0x20\n        /* \"#utility.yul\":937:942   */\n      dup7\n        /* \"#utility.yul\":933:949   */\n      add\n        /* \"#utility.yul\":898:963   */\n      tag_296\n      jump\t// in\n    tag_343:\n        /* \"#utility.yul\":988:1017   */\n      tag_344\n        /* \"#utility.yul\":1010:1016   */\n      dup2\n        /* \"#utility.yul\":988:1017   */\n      tag_297\n      jump\t// in\n    tag_344:\n        /* \"#utility.yul\":983:986   */\n      dup5\n        /* \"#utility.yul\":979:1018   */\n      add\n        /* \"#utility.yul\":972:1018   */\n      swap2\n      pop\n        /* \"#utility.yul\":739:1024   */\n      pop\n        /* \"#utility.yul\":647:1024   */\n      swap3\n      swap2\n      pop\n      pop\n      jump\t// out\n        /* \"#utility.yul\":1030:1343   */\n    tag_26:\n        /* \"#utility.yul\":1143:1147   */\n      0x00\n        /* \"#utility.yul\":1181:1183   */\n      0x20\n        /* \"#utility.yul\":1170:1179   */\n      dup3\n        /* \"#utility.yul\":1166:1184   */\n      add\n        /* \"#utility.yul\":1158:1184   */\n      swap1\n      pop\n        /* \"#utility.yul\":1230:1239   */\n      dup2\n        /* \"#utility.yul\":1224:1228   */\n      dup2\n        /* \"#utility.yul\":1220:1240   */\n      sub\n        /* \"#utility.yul\":1216:1217   */\n      0x00\n        /* \"#utility.yul\":1205:1214   */\n      dup4\n        /* \"#utility.yul\":1201:1218   */\n      add\n        /* \"#utility.yul\":1194:1241   */\n      mstore\n        /* \"#utility.yul\":1258:1336   */\n      tag_346\n        /* \"#utility.yul\":1331:1335   */\n      dup2\n        /* \"#utility.yul\":1322:1328   */\n      dup5\n        /* \"#utility.yul\":1258:1336   */\n      tag_298\n      jump\t// in\n    tag_346:\n        /* \"#utility.yul\":1250:1336   */\n      swap1\n      pop\n        /* \"#utility.yul\":1030:1343   */\n      swap3\n      swap2\n      pop\n      pop\n      jump\t// out\n        /* \"#utility.yul\":1430:1547   */\n    tag_300:\n        /* \"#utility.yul\":1539:1540   */\n      0x00\n        /* \"#utility.yul\":1536:1537   */\n      dup1\n        /* \"#utility.yul\":1529:1541   */\n      revert\n        /* \"#utility.yul\":1676:1802   */\n    tag_302:\n        /* \"#utility.yul\":1713:1720   */\n      0x00\n        /* \"#utility.yul\":1753:1795   */\n      0xffffffffffffffffffffffffffffffffffffffff\n        /* \"#utility.yul\":1746:1751   */\n      dup3\n        /* \"#utility.yul\":1742:1796   */\n      and\n        /* \"#utility.yul\":1731:1796   */\n      swap1\n      pop\n        /* \"#utility.yul\":1676:1802   */\n      swap2\n      swap1\n      pop\n      jump\t// out\n        /* \"#utility.yul\":1808:1904   */\n    tag_303:\n        /* \"#utility.yul\":1845:1852   */\n      0x00\n        /* \"#utility.yul\":1874:1898   */\n      tag_352\n        /* \"#utility.yul\":1892:1897   */\n      dup3\n        /* \"#utility.yul\":1874:1898   */\n      tag_302\n      jump\t// in\n    tag_352:\n        /* \"#utility.yul\":1863:1898   */\n      swap1\n      pop\n        /* \"#utility.yul\":1808:1904   */\n      swap2\n      swap1\n      pop\n      jump\t// out\n        /* \"#utility.yul\":1910:2032   */\n    tag_304:\n        /* \"#utility.yul\":1983:2007   */\n      tag_354\n        /* \"#utility.yul\":2001:2006   */\n      dup2\n        /* \"#utility.yul\":1983:2007   */\n      tag_303\n      jump\t// in\n    tag_354:\n        /* \"#utility.yul\":1976:1981   */\n      dup2\n        /* \"#utility.yul\":1973:2008   */\n      eq\n        /* \"#utility.yul\":1963:2026   */\n      tag_355\n      jumpi\n        /* \"#utility.yul\":2022:2023   */\n      0x00\n        /* \"#utility.yul\":2019:2020   */\n      dup1\n        /* \"#utility.yul\":2012:2024   */\n      revert\n        /* \"#utility.yul\":1963:2026   */\n    tag_355:\n        /* \"#utility.yul\":1910:2032   */\n      pop\n      jump\t// out\n        /* \"#utility.yul\":2038:2177   */\n    tag_305:\n        /* \"#utility.yul\":2084:2089   */\n      0x00\n        /* \"#utility.yul\":2122:2128   */\n      dup2\n        /* \"#utility.yul\":2109:2129   */\n      calldataload\n        /* \"#utility.yul\":2100:2129   */\n      swap1\n      pop\n        /* \"#utility.yul\":2138:2171   */\n      tag_357\n        /* \"#utility.yul\":2165:2170   */\n      dup2\n        /* \"#utility.yul\":2138:2171   */\n      tag_304\n      jump\t// in\n    tag_357:\n        /* \"#utility.yul\":2038:2177   */\n      swap3\n      swap2\n      pop\n      pop\n      jump\t// out\n        /* \"#utility.yul\":2183:2260   */\n    tag_306:\n        /* \"#utility.yul\":2220:2227   */\n      0x00\n        /* \"#utility.yul\":2249:2254   */\n      dup2\n        /* \"#utility.yul\":2238:2254   */\n      swap1\n      pop\n        /* \"#utility.yul\":2183:2260   */\n      swap2\n      swap1\n      pop\n      jump\t// out\n        /* \"#utility.yul\":2266:2388   */\n    tag_307:\n        /* \"#utility.yul\":2339:2363   */\n      tag_360\n        /* \"#utility.yul\":2357:2362   */\n      dup2\n        /* \"#utility.yul\":2339:2363   */\n      tag_306\n      jump\t// in\n    tag_360:\n        /* \"#utility.yul\":2332:2337   */\n      dup2\n        /* \"#utility.yul\":2329:2364   */\n      eq\n        /* \"#utility.yul\":2319:2382   */\n      tag_361\n      jumpi\n        /* \"#utility.yul\":2378:2379   */\n      0x00\n        /* \"#utility.yul\":2375:2376   */\n      dup1\n        /* \"#utility.yul\":2368:2380   */\n      revert\n        /* \"#utility.yul\":2319:2382   */\n    tag_361:\n        /* \"#utility.yul\":2266:2388   */\n      pop\n      jump\t// out\n        /* \"#utility.yul\":2394:2533   */\n    tag_308:\n        /* \"#utility.yul\":2440:2445   */\n      0x00\n        /* \"#utility.yul\":2478:2484   */\n      dup2\n        /* \"#utility.yul\":2465:2485   */\n      calldataload\n        /* \"#utility.yul\":2456:2485   */\n      swap1\n      pop\n        /* \"#utility.yul\":2494:2527   */\n      tag_363\n        /* \"#utility.yul\":2521:2526   */\n      dup2\n        /* \"#utility.yul\":2494:2527   */\n      tag_307\n      jump\t// in\n    tag_363:\n        /* \"#utility.yul\":2394:2533   */\n      swap3\n      swap2\n      pop\n      pop\n      jump\t// out\n        /* \"#utility.yul\":2539:3013   */\n    tag_29:\n        /* \"#utility.yul\":2607:2613   */\n      0x00\n        /* \"#utility.yul\":2615:2621   */\n      dup1\n        /* \"#utility.yul\":2664:2666   */\n      0x40\n        /* \"#utility.yul\":2652:2661   */\n      dup4\n        /* \"#utility.yul\":2643:2650   */\n      dup6\n        /* \"#utility.yul\":2639:2662   */\n      sub\n        /* \"#utility.yul\":2635:2667   */\n      slt\n        /* \"#utility.yul\":2632:2751   */\n      iszero\n      tag_365\n      jumpi\n        /* \"#utility.yul\":2670:2749   */\n      tag_366\n      tag_300\n      jump\t// in\n    tag_366:\n        /* \"#utility.yul\":2632:2751   */\n    tag_365:\n        /* \"#utility.yul\":2790:2791   */\n      0x00\n        /* \"#utility.yul\":2815:2868   */\n      tag_367\n        /* \"#utility.yul\":2860:2867   */\n      dup6\n        /* \"#utility.yul\":2851:2857   */\n      dup3\n        /* \"#utility.yul\":2840:2849   */\n      dup7\n        /* \"#utility.yul\":2836:2858   */\n      add\n        /* \"#utility.yul\":2815:2868   */\n      tag_305\n      jump\t// in\n    tag_367:\n        /* \"#utility.yul\":2805:2868   */\n      swap3\n      pop\n        /* \"#utility.yul\":2761:2878   */\n      pop\n        /* \"#utility.yul\":2917:2919   */\n      0x20\n        /* \"#utility.yul\":2943:2996   */\n      tag_368\n        /* \"#utility.yul\":2988:2995   */\n      dup6\n        /* \"#utility.yul\":2979:2985   */\n      dup3\n        /* \"#utility.yul\":2968:2977   */\n      dup7\n        /* \"#utility.yul\":2964:2986   */\n      add\n        /* \"#utility.yul\":2943:2996   */\n      tag_308\n      jump\t// in\n    tag_368:\n        /* \"#utility.yul\":2933:2996   */\n      swap2\n      pop\n        /* \"#utility.yul\":2888:3006   */\n      pop\n        /* \"#utility.yul\":2539:3013   */\n      swap3\n      pop\n      swap3\n      swap1\n      pop\n      jump\t// out\n        /* \"#utility.yul\":3019:3109   */\n    tag_309:\n        /* \"#utility.yul\":3053:3060   */\n      0x00\n        /* \"#utility.yul\":3096:3101   */\n      dup2\n        /* \"#utility.yul\":3089:3102   */\n      iszero\n        /* \"#utility.yul\":3082:3103   */\n      iszero\n        /* \"#utility.yul\":3071:3103   */\n      swap1\n      pop\n        /* \"#utility.yul\":3019:3109   */\n      swap2\n      swap1\n      pop\n      jump\t// out\n        /* \"#utility.yul\":3115:3224   */\n    tag_310:\n        /* \"#utility.yul\":3196:3217   */\n      tag_371\n        /* \"#utility.yul\":3211:3216   */\n      dup2\n        /* \"#utility.yul\":3196:3217   */\n      tag_309\n      jump\t// in\n    tag_371:\n        /* \"#utility.yul\":3191:3194   */\n      dup3\n        /* \"#utility.yul\":3184:3218   */\n      mstore\n        /* \"#utility.yul\":3115:3224   */\n      pop\n      pop\n      jump\t// out\n        /* \"#utility.yul\":3230:3440   */\n    tag_32:\n        /* \"#utility.yul\":3317:3321   */\n      0x00\n        /* \"#utility.yul\":3355:3357   */\n      0x20\n        /* \"#utility.yul\":3344:3353   */\n      dup3\n        /* \"#utility.yul\":3340:3358   */\n      add\n        /* \"#utility.yul\":3332:3358   */\n      swap1\n      pop\n        /* \"#utility.yul\":3368:3433   */\n      tag_373\n        /* \"#utility.yul\":3430:3431   */\n      0x00\n        /* \"#utility.yul\":3419:3428   */\n      dup4\n        /* \"#utility.yul\":3415:3432   */\n      add\n        /* \"#utility.yul\":3406:3412   */\n      dup5\n        /* \"#utility.yul\":3368:3433   */\n      tag_310\n      jump\t// in\n    tag_373:\n        /* \"#utility.yul\":3230:3440   */\n      swap3\n      swap2\n      pop\n      pop\n      jump\t// out\n        /* \"#utility.yul\":3446:3564   */\n    tag_311:\n        /* \"#utility.yul\":3533:3557   */\n      tag_375\n        /* \"#utility.yul\":3551:3556   */\n      dup2\n        /* \"#utility.yul\":3533:3557   */\n      tag_306\n      jump\t// in\n    tag_375:\n        /* \"#utility.yul\":3528:3531   */\n      dup3\n        /* \"#utility.yul\":3521:3558   */\n      mstore\n        /* \"#utility.yul\":3446:3564   */\n      pop\n      pop\n      jump\t// out\n        /* \"#utility.yul\":3570:3792   */\n    tag_36:\n        /* \"#utility.yul\":3663:3667   */\n      0x00\n        /* \"#utility.yul\":3701:3703   */\n      0x20\n        /* \"#utility.yul\":3690:3699   */\n      dup3\n        /* \"#utility.yul\":3686:3704   */\n      add\n        /* \"#utility.yul\":3678:3704   */\n      swap1\n      pop\n        /* \"#utility.yul\":3714:3785   */\n      tag_377\n        /* \"#utility.yul\":3782:3783   */\n      0x00\n        /* \"#utility.yul\":3771:3780   */\n      dup4\n        /* \"#utility.yul\":3767:3784   */\n      add\n        /* \"#utility.yul\":3758:3764   */\n      dup5\n        /* \"#utility.yul\":3714:3785   */\n      tag_311\n      jump\t// in\n    tag_377:\n        /* \"#utility.yul\":3570:3792   */\n      swap3\n      swap2\n      pop\n      pop\n      jump\t// out\n        /* \"#utility.yul\":3798:4417   */\n    tag_39:\n        /* \"#utility.yul\":3875:3881   */\n      0x00\n        /* \"#utility.yul\":3883:3889   */\n      dup1\n        /* \"#utility.yul\":3891:3897   */\n      0x00\n        /* \"#utility.yul\":3940:3942   */\n      0x60\n        /* \"#utility.yul\":3928:3937   */\n      dup5\n        /* \"#utility.yul\":3919:3926   */\n      dup7\n        /* \"#utility.yul\":3915:3938   */\n      sub\n        /* \"#utility.yul\":3911:3943   */\n      slt\n        /* \"#utility.yul\":3908:4027   */\n      iszero\n      tag_379\n      jumpi\n        /* \"#utility.yul\":3946:4025   */\n      tag_380\n      tag_300\n      jump\t// in\n    tag_380:\n        /* \"#utility.yul\":3908:4027   */\n    tag_379:\n        /* \"#utility.yul\":4066:4067   */\n      0x00\n        /* \"#utility.yul\":4091:4144   */\n      tag_381\n        /* \"#utility.yul\":4136:4143   */\n      dup7\n        /* \"#utility.yul\":4127:4133   */\n      dup3\n        /* \"#utility.yul\":4116:4125   */\n      dup8\n        /* \"#utility.yul\":4112:4134   */\n      add\n        /* \"#utility.yul\":4091:4144   */\n      tag_305\n      jump\t// in\n    tag_381:\n        /* \"#utility.yul\":4081:4144   */\n      swap4\n      pop\n        /* \"#utility.yul\":4037:4154   */\n      pop\n        /* \"#utility.yul\":4193:4195   */\n      0x20\n        /* \"#utility.yul\":4219:4272   */\n      tag_382\n        /* \"#utility.yul\":4264:4271   */\n      dup7\n        /* \"#utility.yul\":4255:4261   */\n      dup3\n        /* \"#utility.yul\":4244:4253   */\n      dup8\n        /* \"#utility.yul\":4240:4262   */\n      add\n        /* \"#utility.yul\":4219:4272   */\n      tag_305\n      jump\t// in\n    tag_382:\n        /* \"#utility.yul\":4209:4272   */\n      swap3\n      pop\n        /* \"#utility.yul\":4164:4282   */\n      pop\n        /* \"#utility.yul\":4321:4323   */\n      0x40\n        /* \"#utility.yul\":4347:4400   */\n      tag_383\n        /* \"#utility.yul\":4392:4399   */\n      dup7\n        /* \"#utility.yul\":4383:4389   */\n      dup3\n        /* \"#utility.yul\":4372:4381   */\n      dup8\n        /* \"#utility.yul\":4368:4390   */\n      add\n        /* \"#utility.yul\":4347:4400   */\n      tag_308\n      jump\t// in\n    tag_383:\n        /* \"#utility.yul\":4337:4400   */\n      swap2\n      pop\n        /* \"#utility.yul\":4292:4410   */\n      pop\n        /* \"#utility.yul\":3798:4417   */\n      swap3\n      pop\n      swap3\n      pop\n      swap3\n      jump\t// out\n        /* \"#utility.yul\":4423:4509   */\n    tag_312:\n        /* \"#utility.yul\":4458:4465   */\n      0x00\n        /* \"#utility.yul\":4498:4502   */\n      0xff\n        /* \"#utility.yul\":4491:4496   */\n      dup3\n        /* \"#utility.yul\":4487:4503   */\n      and\n        /* \"#utility.yul\":4476:4503   */\n      swap1\n      pop\n        /* \"#utility.yul\":4423:4509   */\n      swap2\n      swap1\n      pop\n      jump\t// out\n        /* \"#utility.yul\":4515:4627   */\n    tag_313:\n        /* \"#utility.yul\":4598:4620   */\n      tag_386\n        /* \"#utility.yul\":4614:4619   */\n      dup2\n        /* \"#utility.yul\":4598:4620   */\n      tag_312\n      jump\t// in\n    tag_386:\n        /* \"#utility.yul\":4593:4596   */\n      dup3\n        /* \"#utility.yul\":4586:4621   */\n      mstore\n        /* \"#utility.yul\":4515:4627   */\n      pop\n      pop\n      jump\t// out\n        /* \"#utility.yul\":4633:4847   */\n    tag_45:\n        /* \"#utility.yul\":4722:4726   */\n      0x00\n        /* \"#utility.yul\":4760:4762   */\n      0x20\n        /* \"#utility.yul\":4749:4758   */\n      dup3\n        /* \"#utility.yul\":4745:4763   */\n      add\n        /* \"#utility.yul\":4737:4763   */\n      swap1\n      pop\n        /* \"#utility.yul\":4773:4840   */\n      tag_388\n        /* \"#utility.yul\":4837:4838   */\n      0x00\n        /* \"#utility.yul\":4826:4835   */\n      dup4\n        /* \"#utility.yul\":4822:4839   */\n      add\n        /* \"#utility.yul\":4813:4819   */\n      dup5\n        /* \"#utility.yul\":4773:4840   */\n      tag_313\n      jump\t// in\n    tag_388:\n        /* \"#utility.yul\":4633:4847   */\n      swap3\n      swap2\n      pop\n      pop\n      jump\t// out\n        /* \"#utility.yul\":4853:4930   */\n    tag_314:\n        /* \"#utility.yul\":4890:4897   */\n      0x00\n        /* \"#utility.yul\":4919:4924   */\n      dup2\n        /* \"#utility.yul\":4908:4924   */\n      swap1\n      pop\n        /* \"#utility.yul\":4853:4930   */\n      swap2\n      swap1\n      pop\n      jump\t// out\n        /* \"#utility.yul\":4936:5054   */\n    tag_315:\n        /* \"#utility.yul\":5023:5047   */\n      tag_391\n        /* \"#utility.yul\":5041:5046   */\n      dup2\n        /* \"#utility.yul\":5023:5047   */\n      tag_314\n      jump\t// in\n    tag_391:\n        /* \"#utility.yul\":5018:5021   */\n      dup3\n        /* \"#utility.yul\":5011:5048   */\n      mstore\n        /* \"#utility.yul\":4936:5054   */\n      pop\n      pop\n      jump\t// out\n        /* \"#utility.yul\":5060:5282   */\n    tag_49:\n        /* \"#utility.yul\":5153:5157   */\n      0x00\n        /* \"#utility.yul\":5191:5193   */\n      0x20\n        /* \"#utility.yul\":5180:5189   */\n      dup3\n        /* \"#utility.yul\":5176:5194   */\n      add\n        /* \"#utility.yul\":5168:5194   */\n      swap1\n      pop\n        /* \"#utility.yul\":5204:5275   */\n      tag_393\n        /* \"#utility.yul\":5272:5273   */\n      0x00\n        /* \"#utility.yul\":5261:5270   */\n      dup4\n        /* \"#utility.yul\":5257:5274   */\n      add\n        /* \"#utility.yul\":5248:5254   */\n      dup5\n        /* \"#utility.yul\":5204:5275   */\n      tag_315\n      jump\t// in\n    tag_393:\n        /* \"#utility.yul\":5060:5282   */\n      swap3\n      swap2\n      pop\n      pop\n      jump\t// out\n        /* \"#utility.yul\":5288:5617   */\n    tag_55:\n        /* \"#utility.yul\":5347:5353   */\n      0x00\n        /* \"#utility.yul\":5396:5398   */\n      0x20\n        /* \"#utility.yul\":5384:5393   */\n      dup3\n        /* \"#utility.yul\":5375:5382   */\n      dup5\n        /* \"#utility.yul\":5371:5394   */\n      sub\n        /* \"#utility.yul\":5367:5399   */\n      slt\n        /* \"#utility.yul\":5364:5483   */\n      iszero\n      tag_395\n      jumpi\n        /* \"#utility.yul\":5402:5481   */\n      tag_396\n      tag_300\n      jump\t// in\n    tag_396:\n        /* \"#utility.yul\":5364:5483   */\n    tag_395:\n        /* \"#utility.yul\":5522:5523   */\n      0x00\n        /* \"#utility.yul\":5547:5600   */\n      tag_397\n        /* \"#utility.yul\":5592:5599   */\n      dup5\n        /* \"#utility.yul\":5583:5589   */\n      dup3\n        /* \"#utility.yul\":5572:5581   */\n      dup6\n        /* \"#utility.yul\":5568:5590   */\n      add\n        /* \"#utility.yul\":5547:5600   */\n      tag_305\n      jump\t// in\n    tag_397:\n        /* \"#utility.yul\":5537:5600   */\n      swap2\n      pop\n        /* \"#utility.yul\":5493:5610   */\n      pop\n        /* \"#utility.yul\":5288:5617   */\n      swap3\n      swap2\n      pop\n      pop\n      jump\t// out\n        /* \"#utility.yul\":5623:5772   */\n    tag_316:\n        /* \"#utility.yul\":5659:5666   */\n      0x00\n        /* \"#utility.yul\":5699:5765   */\n      0xff00000000000000000000000000000000000000000000000000000000000000\n        /* \"#utility.yul\":5692:5697   */\n      dup3\n        /* \"#utility.yul\":5688:5766   */\n      and\n        /* \"#utility.yul\":5677:5766   */\n      swap1\n      pop\n        /* \"#utility.yul\":5623:5772   */\n      swap2\n      swap1\n      pop\n      jump\t// out\n        /* \"#utility.yul\":5778:5893   */\n    tag_317:\n        /* \"#utility.yul\":5863:5886   */\n      tag_400\n        /* \"#utility.yul\":5880:5885   */\n      dup2\n        /* \"#utility.yul\":5863:5886   */\n      tag_316\n      jump\t// in\n    tag_400:\n        /* \"#utility.yul\":5858:5861   */\n      dup3\n        /* \"#utility.yul\":5851:5887   */\n      mstore\n        /* \"#utility.yul\":5778:5893   */\n      pop\n      pop\n      jump\t// out\n        /* \"#utility.yul\":5899:6017   */\n    tag_318:\n        /* \"#utility.yul\":5986:6010   */\n      tag_402\n        /* \"#utility.yul\":6004:6009   */\n      dup2\n        /* \"#utility.yul\":5986:6010   */\n      tag_303\n      jump\t// in\n    tag_402:\n        /* \"#utility.yul\":5981:5984   */\n      dup3\n        /* \"#utility.yul\":5974:6011   */\n      mstore\n        /* \"#utility.yul\":5899:6017   */\n      pop\n      pop\n      jump\t// out\n        /* \"#utility.yul\":6023:6137   */\n    tag_319:\n        /* \"#utility.yul\":6090:6096   */\n      0x00\n        /* \"#utility.yul\":6124:6129   */\n      dup2\n        /* \"#utility.yul\":6118:6130   */\n      mload\n        /* \"#utility.yul\":6108:6130   */\n      swap1\n      pop\n        /* \"#utility.yul\":6023:6137   */\n      swap2\n      swap1\n      pop\n      jump\t// out\n        /* \"#utility.yul\":6143:6327   */\n    tag_320:\n        /* \"#utility.yul\":6242:6253   */\n      0x00\n        /* \"#utility.yul\":6276:6282   */\n      dup3\n        /* \"#utility.yul\":6271:6274   */\n      dup3\n        /* \"#utility.yul\":6264:6283   */\n      mstore\n        /* \"#utility.yul\":6316:6320   */\n      0x20\n        /* \"#utility.yul\":6311:6314   */\n      dup3\n        /* \"#utility.yul\":6307:6321   */\n      add\n        /* \"#utility.yul\":6292:6321   */\n      swap1\n      pop\n        /* \"#utility.yul\":6143:6327   */\n      swap3\n      swap2\n      pop\n      pop\n      jump\t// out\n        /* \"#utility.yul\":6333:6465   */\n    tag_321:\n        /* \"#utility.yul\":6400:6404   */\n      0x00\n        /* \"#utility.yul\":6423:6426   */\n      dup2\n        /* \"#utility.yul\":6415:6426   */\n      swap1\n      pop\n        /* \"#utility.yul\":6453:6457   */\n      0x20\n        /* \"#utility.yul\":6448:6451   */\n      dup3\n        /* \"#utility.yul\":6444:6458   */\n      add\n        /* \"#utility.yul\":6436:6458   */\n      swap1\n      pop\n        /* \"#utility.yul\":6333:6465   */\n      swap2\n      swap1\n      pop\n      jump\t// out\n        /* \"#utility.yul\":6471:6579   */\n    tag_322:\n        /* \"#utility.yul\":6548:6572   */\n      tag_407\n        /* \"#utility.yul\":6566:6571   */\n      dup2\n        /* \"#utility.yul\":6548:6572   */\n      tag_306\n      jump\t// in\n    tag_407:\n        /* \"#utility.yul\":6543:6546   */\n      dup3\n        /* \"#utility.yul\":6536:6573   */\n      mstore\n        /* \"#utility.yul\":6471:6579   */\n      pop\n      pop\n      jump\t// out\n        /* \"#utility.yul\":6585:6764   */\n    tag_323:\n        /* \"#utility.yul\":6654:6664   */\n      0x00\n        /* \"#utility.yul\":6675:6721   */\n      tag_409\n        /* \"#utility.yul\":6717:6720   */\n      dup4\n        /* \"#utility.yul\":6709:6715   */\n      dup4\n        /* \"#utility.yul\":6675:6721   */\n      tag_322\n      jump\t// in\n    tag_409:\n        /* \"#utility.yul\":6753:6757   */\n      0x20\n        /* \"#utility.yul\":6748:6751   */\n      dup4\n        /* \"#utility.yul\":6744:6758   */\n      add\n        /* \"#utility.yul\":6730:6758   */\n      swap1\n      pop\n        /* \"#utility.yul\":6585:6764   */\n      swap3\n      swap2\n      pop\n      pop\n      jump\t// out\n        /* \"#utility.yul\":6770:6883   */\n    tag_324:\n        /* \"#utility.yul\":6840:6844   */\n      0x00\n        /* \"#utility.yul\":6872:6876   */\n      0x20\n        /* \"#utility.yul\":6867:6870   */\n      dup3\n        /* \"#utility.yul\":6863:6877   */\n      add\n        /* \"#utility.yul\":6855:6877   */\n      swap1\n      pop\n        /* \"#utility.yul\":6770:6883   */\n      swap2\n      swap1\n      pop\n      jump\t// out\n        /* \"#utility.yul\":6919:7651   */\n    tag_325:\n        /* \"#utility.yul\":7038:7041   */\n      0x00\n        /* \"#utility.yul\":7067:7121   */\n      tag_412\n        /* \"#utility.yul\":7115:7120   */\n      dup3\n        /* \"#utility.yul\":7067:7121   */\n      tag_319\n      jump\t// in\n    tag_412:\n        /* \"#utility.yul\":7137:7223   */\n      tag_413\n        /* \"#utility.yul\":7216:7222   */\n      dup2\n        /* \"#utility.yul\":7211:7214   */\n      dup6\n        /* \"#utility.yul\":7137:7223   */\n      tag_320\n      jump\t// in\n    tag_413:\n        /* \"#utility.yul\":7130:7223   */\n      swap4\n      pop\n        /* \"#utility.yul\":7247:7303   */\n      tag_414\n        /* \"#utility.yul\":7297:7302   */\n      dup4\n        /* \"#utility.yul\":7247:7303   */\n      tag_321\n      jump\t// in\n    tag_414:\n        /* \"#utility.yul\":7326:7333   */\n      dup1\n        /* \"#utility.yul\":7357:7358   */\n      0x00\n        /* \"#utility.yul\":7342:7626   */\n    tag_415:\n        /* \"#utility.yul\":7367:7373   */\n      dup4\n        /* \"#utility.yul\":7364:7365   */\n      dup2\n        /* \"#utility.yul\":7361:7374   */\n      lt\n        /* \"#utility.yul\":7342:7626   */\n      iszero\n      tag_417\n      jumpi\n        /* \"#utility.yul\":7443:7449   */\n      dup2\n        /* \"#utility.yul\":7437:7450   */\n      mload\n        /* \"#utility.yul\":7470:7533   */\n      tag_418\n        /* \"#utility.yul\":7529:7532   */\n      dup9\n        /* \"#utility.yul\":7514:7527   */\n      dup3\n        /* \"#utility.yul\":7470:7533   */\n      tag_323\n      jump\t// in\n    tag_418:\n        /* \"#utility.yul\":7463:7533   */\n      swap8\n      pop\n        /* \"#utility.yul\":7556:7616   */\n      tag_419\n        /* \"#utility.yul\":7609:7615   */\n      dup4\n        /* \"#utility.yul\":7556:7616   */\n      tag_324\n      jump\t// in\n    tag_419:\n        /* \"#utility.yul\":7546:7616   */\n      swap3\n      pop\n        /* \"#utility.yul\":7402:7626   */\n      pop\n        /* \"#utility.yul\":7389:7390   */\n      0x01\n        /* \"#utility.yul\":7386:7387   */\n      dup2\n        /* \"#utility.yul\":7382:7391   */\n      add\n        /* \"#utility.yul\":7377:7391   */\n      swap1\n      pop\n        /* \"#utility.yul\":7342:7626   */\n      jump(tag_415)\n    tag_417:\n        /* \"#utility.yul\":7346:7360   */\n      pop\n        /* \"#utility.yul\":7642:7645   */\n      dup6\n        /* \"#utility.yul\":7635:7645   */\n      swap4\n      pop\n        /* \"#utility.yul\":7043:7651   */\n      pop\n      pop\n      pop\n        /* \"#utility.yul\":6919:7651   */\n      swap3\n      swap2\n      pop\n      pop\n      jump\t// out\n        /* \"#utility.yul\":7657:8872   */\n    tag_67:\n        /* \"#utility.yul\":8006:8010   */\n      0x00\n        /* \"#utility.yul\":8044:8047   */\n      0xe0\n        /* \"#utility.yul\":8033:8042   */\n      dup3\n        /* \"#utility.yul\":8029:8048   */\n      add\n        /* \"#utility.yul\":8021:8048   */\n      swap1\n      pop\n        /* \"#utility.yul\":8058:8127   */\n      tag_421\n        /* \"#utility.yul\":8124:8125   */\n      0x00\n        /* \"#utility.yul\":8113:8122   */\n      dup4\n        /* \"#utility.yul\":8109:8126   */\n      add\n        /* \"#utility.yul\":8100:8106   */\n      dup11\n        /* \"#utility.yul\":8058:8127   */\n      tag_317\n      jump\t// in\n    tag_421:\n        /* \"#utility.yul\":8174:8183   */\n      dup2\n        /* \"#utility.yul\":8168:8172   */\n      dup2\n        /* \"#utility.yul\":8164:8184   */\n      sub\n        /* \"#utility.yul\":8159:8161   */\n      0x20\n        /* \"#utility.yul\":8148:8157   */\n      dup4\n        /* \"#utility.yul\":8144:8162   */\n      add\n        /* \"#utility.yul\":8137:8185   */\n      mstore\n        /* \"#utility.yul\":8202:8280   */\n      tag_422\n        /* \"#utility.yul\":8275:8279   */\n      dup2\n        /* \"#utility.yul\":8266:8272   */\n      dup10\n        /* \"#utility.yul\":8202:8280   */\n      tag_298\n      jump\t// in\n    tag_422:\n        /* \"#utility.yul\":8194:8280   */\n      swap1\n      pop\n        /* \"#utility.yul\":8327:8336   */\n      dup2\n        /* \"#utility.yul\":8321:8325   */\n      dup2\n        /* \"#utility.yul\":8317:8337   */\n      sub\n        /* \"#utility.yul\":8312:8314   */\n      0x40\n        /* \"#utility.yul\":8301:8310   */\n      dup4\n        /* \"#utility.yul\":8297:8315   */\n      add\n        /* \"#utility.yul\":8290:8338   */\n      mstore\n        /* \"#utility.yul\":8355:8433   */\n      tag_423\n        /* \"#utility.yul\":8428:8432   */\n      dup2\n        /* \"#utility.yul\":8419:8425   */\n      dup9\n        /* \"#utility.yul\":8355:8433   */\n      tag_298\n      jump\t// in\n    tag_423:\n        /* \"#utility.yul\":8347:8433   */\n      swap1\n      pop\n        /* \"#utility.yul\":8443:8515   */\n      tag_424\n        /* \"#utility.yul\":8511:8513   */\n      0x60\n        /* \"#utility.yul\":8500:8509   */\n      dup4\n        /* \"#utility.yul\":8496:8514   */\n      add\n        /* \"#utility.yul\":8487:8493   */\n      dup8\n        /* \"#utility.yul\":8443:8515   */\n      tag_311\n      jump\t// in\n    tag_424:\n        /* \"#utility.yul\":8525:8598   */\n      tag_425\n        /* \"#utility.yul\":8593:8596   */\n      0x80\n        /* \"#utility.yul\":8582:8591   */\n      dup4\n        /* \"#utility.yul\":8578:8597   */\n      add\n        /* \"#utility.yul\":8569:8575   */\n      dup7\n        /* \"#utility.yul\":8525:8598   */\n      tag_318\n      jump\t// in\n    tag_425:\n        /* \"#utility.yul\":8608:8681   */\n      tag_426\n        /* \"#utility.yul\":8676:8679   */\n      0xa0\n        /* \"#utility.yul\":8665:8674   */\n      dup4\n        /* \"#utility.yul\":8661:8680   */\n      add\n        /* \"#utility.yul\":8652:8658   */\n      dup6\n        /* \"#utility.yul\":8608:8681   */\n      tag_315\n      jump\t// in\n    tag_426:\n        /* \"#utility.yul\":8729:8738   */\n      dup2\n        /* \"#utility.yul\":8723:8727   */\n      dup2\n        /* \"#utility.yul\":8719:8739   */\n      sub\n        /* \"#utility.yul\":8713:8716   */\n      0xc0\n        /* \"#utility.yul\":8702:8711   */\n      dup4\n        /* \"#utility.yul\":8698:8717   */\n      add\n        /* \"#utility.yul\":8691:8740   */\n      mstore\n        /* \"#utility.yul\":8757:8865   */\n      tag_427\n        /* \"#utility.yul\":8860:8864   */\n      dup2\n        /* \"#utility.yul\":8851:8857   */\n      dup5\n        /* \"#utility.yul\":8757:8865   */\n      tag_325\n      jump\t// in\n    tag_427:\n        /* \"#utility.yul\":8749:8865   */\n      swap1\n      pop\n        /* \"#utility.yul\":7657:8872   */\n      swap9\n      swap8\n      pop\n      pop\n      pop\n      pop\n      pop\n      pop\n      pop\n      pop\n      jump\t// out\n        /* \"#utility.yul\":8878:9100   */\n    tag_71:\n        /* \"#utility.yul\":8971:8975   */\n      0x00\n        /* \"#utility.yul\":9009:9011   */\n      0x20\n        /* \"#utility.yul\":8998:9007   */\n      dup3\n        /* \"#utility.yul\":8994:9012   */\n      add\n        /* \"#utility.yul\":8986:9012   */\n      swap1\n      pop\n        /* \"#utility.yul\":9022:9093   */\n      tag_429\n        /* \"#utility.yul\":9090:9091   */\n      0x00\n        /* \"#utility.yul\":9079:9088   */\n      dup4\n        /* \"#utility.yul\":9075:9092   */\n      add\n        /* \"#utility.yul\":9066:9072   */\n      dup5\n        /* \"#utility.yul\":9022:9093   */\n      tag_318\n      jump\t// in\n    tag_429:\n        /* \"#utility.yul\":8878:9100   */\n      swap3\n      swap2\n      pop\n      pop\n      jump\t// out\n        /* \"#utility.yul\":9106:9224   */\n    tag_326:\n        /* \"#utility.yul\":9177:9199   */\n      tag_431\n        /* \"#utility.yul\":9193:9198   */\n      dup2\n        /* \"#utility.yul\":9177:9199   */\n      tag_312\n      jump\t// in\n    tag_431:\n        /* \"#utility.yul\":9170:9175   */\n      dup2\n        /* \"#utility.yul\":9167:9200   */\n      eq\n        /* \"#utility.yul\":9157:9218   */\n      tag_432\n      jumpi\n        /* \"#utility.yul\":9214:9215   */\n      0x00\n        /* \"#utility.yul\":9211:9212   */\n      dup1\n        /* \"#utility.yul\":9204:9216   */\n      revert\n        /* \"#utility.yul\":9157:9218   */\n    tag_432:\n        /* \"#utility.yul\":9106:9224   */\n      pop\n      jump\t// out\n        /* \"#utility.yul\":9230:9365   */\n    tag_327:\n        /* \"#utility.yul\":9274:9279   */\n      0x00\n        /* \"#utility.yul\":9312:9318   */\n      dup2\n        /* \"#utility.yul\":9299:9319   */\n      calldataload\n        /* \"#utility.yul\":9290:9319   */\n      swap1\n      pop\n        /* \"#utility.yul\":9328:9359   */\n      tag_434\n        /* \"#utility.yul\":9353:9358   */\n      dup2\n        /* \"#utility.yul\":9328:9359   */\n      tag_326\n      jump\t// in\n    tag_434:\n        /* \"#utility.yul\":9230:9365   */\n      swap3\n      swap2\n      pop\n      pop\n      jump\t// out\n        /* \"#utility.yul\":9371:9493   */\n    tag_328:\n        /* \"#utility.yul\":9444:9468   */\n      tag_436\n        /* \"#utility.yul\":9462:9467   */\n      dup2\n        /* \"#utility.yul\":9444:9468   */\n      tag_314\n      jump\t// in\n    tag_436:\n        /* \"#utility.yul\":9437:9442   */\n      dup2\n        /* \"#utility.yul\":9434:9469   */\n      eq\n        /* \"#utility.yul\":9424:9487   */\n      tag_437\n      jumpi\n        /* \"#utility.yul\":9483:9484   */\n      0x00\n        /* \"#utility.yul\":9480:9481   */\n      dup1\n        /* \"#utility.yul\":9473:9485   */\n      revert\n        /* \"#utility.yul\":9424:9487   */\n    tag_437:\n        /* \"#utility.yul\":9371:9493   */\n      pop\n      jump\t// out\n        /* \"#utility.yul\":9499:9638   */\n    tag_329:\n        /* \"#utility.yul\":9545:9550   */\n      0x00\n        /* \"#utility.yul\":9583:9589   */\n      dup2\n        /* \"#utility.yul\":9570:9590   */\n      calldataload\n        /* \"#utility.yul\":9561:9590   */\n      swap1\n      pop\n        /* \"#utility.yul\":9599:9632   */\n      tag_439\n        /* \"#utility.yul\":9626:9631   */\n      dup2\n        /* \"#utility.yul\":9599:9632   */\n      tag_328\n      jump\t// in\n    tag_439:\n        /* \"#utility.yul\":9499:9638   */\n      swap3\n      swap2\n      pop\n      pop\n      jump\t// out\n        /* \"#utility.yul\":9644:10843   */\n    tag_81:\n        /* \"#utility.yul\":9755:9761   */\n      0x00\n        /* \"#utility.yul\":9763:9769   */\n      dup1\n        /* \"#utility.yul\":9771:9777   */\n      0x00\n        /* \"#utility.yul\":9779:9785   */\n      dup1\n        /* \"#utility.yul\":9787:9793   */\n      0x00\n        /* \"#utility.yul\":9795:9801   */\n      dup1\n        /* \"#utility.yul\":9803:9809   */\n      0x00\n        /* \"#utility.yul\":9852:9855   */\n      0xe0\n        /* \"#utility.yul\":9840:9849   */\n      dup9\n        /* \"#utility.yul\":9831:9838   */\n      dup11\n        /* \"#utility.yul\":9827:9850   */\n      sub\n        /* \"#utility.yul\":9823:9856   */\n      slt\n        /* \"#utility.yul\":9820:9940   */\n      iszero\n      tag_441\n      jumpi\n        /* \"#utility.yul\":9859:9938   */\n      tag_442\n      tag_300\n      jump\t// in\n    tag_442:\n        /* \"#utility.yul\":9820:9940   */\n    tag_441:\n        /* \"#utility.yul\":9979:9980   */\n      0x00\n        /* \"#utility.yul\":10004:10057   */\n      tag_443\n        /* \"#utility.yul\":10049:10056   */\n      dup11\n        /* \"#utility.yul\":10040:10046   */\n      dup3\n        /* \"#utility.yul\":10029:10038   */\n      dup12\n        /* \"#utility.yul\":10025:10047   */\n      add\n        /* \"#utility.yul\":10004:10057   */\n      tag_305\n      jump\t// in\n    tag_443:\n        /* \"#utility.yul\":9994:10057   */\n      swap8\n      pop\n        /* \"#utility.yul\":9950:10067   */\n      pop\n        /* \"#utility.yul\":10106:10108   */\n      0x20\n        /* \"#utility.yul\":10132:10185   */\n      tag_444\n        /* \"#utility.yul\":10177:10184   */\n      dup11\n        /* \"#utility.yul\":10168:10174   */\n      dup3\n        /* \"#utility.yul\":10157:10166   */\n      dup12\n        /* \"#utility.yul\":10153:10175   */\n      add\n        /* \"#utility.yul\":10132:10185   */\n      tag_305\n      jump\t// in\n    tag_444:\n        /* \"#utility.yul\":10122:10185   */\n      swap7\n      pop\n        /* \"#utility.yul\":10077:10195   */\n      pop\n        /* \"#utility.yul\":10234:10236   */\n      0x40\n        /* \"#utility.yul\":10260:10313   */\n      tag_445\n        /* \"#utility.yul\":10305:10312   */\n      dup11\n        /* \"#utility.yul\":10296:10302   */\n      dup3\n        /* \"#utility.yul\":10285:10294   */\n      dup12\n        /* \"#utility.yul\":10281:10303   */\n      add\n        /* \"#utility.yul\":10260:10313   */\n      tag_308\n      jump\t// in\n    tag_445:\n        /* \"#utility.yul\":10250:10313   */\n      swap6\n      pop\n        /* \"#utility.yul\":10205:10323   */\n      pop\n        /* \"#utility.yul\":10362:10364   */\n      0x60\n        /* \"#utility.yul\":10388:10441   */\n      tag_446\n        /* \"#utility.yul\":10433:10440   */\n      dup11\n        /* \"#utility.yul\":10424:10430   */\n      dup3\n        /* \"#utility.yul\":10413:10422   */\n      dup12\n        /* \"#utility.yul\":10409:10431   */\n      add\n        /* \"#utility.yul\":10388:10441   */\n      tag_308\n      jump\t// in\n    tag_446:\n        /* \"#utility.yul\":10378:10441   */\n      swap5\n      pop\n        /* \"#utility.yul\":10333:10451   */\n      pop\n        /* \"#utility.yul\":10490:10493   */\n      0x80\n        /* \"#utility.yul\":10517:10568   */\n      tag_447\n        /* \"#utility.yul\":10560:10567   */\n      dup11\n        /* \"#utility.yul\":10551:10557   */\n      dup3\n        /* \"#utility.yul\":10540:10549   */\n      dup12\n        /* \"#utility.yul\":10536:10558   */\n      add\n        /* \"#utility.yul\":10517:10568   */\n      tag_327\n      jump\t// in\n    tag_447:\n        /* \"#utility.yul\":10507:10568   */\n      swap4\n      pop\n        /* \"#utility.yul\":10461:10578   */\n      pop\n        /* \"#utility.yul\":10617:10620   */\n      0xa0\n        /* \"#utility.yul\":10644:10697   */\n      tag_448\n        /* \"#utility.yul\":10689:10696   */\n      dup11\n        /* \"#utility.yul\":10680:10686   */\n      dup3\n        /* \"#utility.yul\":10669:10678   */\n      dup12\n        /* \"#utility.yul\":10665:10687   */\n      add\n        /* \"#utility.yul\":10644:10697   */\n      tag_329\n      jump\t// in\n    tag_448:\n        /* \"#utility.yul\":10634:10697   */\n      swap3\n      pop\n        /* \"#utility.yul\":10588:10707   */\n      pop\n        /* \"#utility.yul\":10746:10749   */\n      0xc0\n        /* \"#utility.yul\":10773:10826   */\n      tag_449\n        /* \"#utility.yul\":10818:10825   */\n      dup11\n        /* \"#utility.yul\":10809:10815   */\n      dup3\n        /* \"#utility.yul\":10798:10807   */\n      dup12\n        /* \"#utility.yul\":10794:10816   */\n      add\n        /* \"#utility.yul\":10773:10826   */\n      tag_329\n      jump\t// in\n    tag_449:\n        /* \"#utility.yul\":10763:10826   */\n      swap2\n      pop\n        /* \"#utility.yul\":10717:10836   */\n      pop\n        /* \"#utility.yul\":9644:10843   */\n      swap3\n      swap6\n      swap9\n      swap2\n      swap5\n      swap8\n      pop\n      swap3\n      swap6\n      pop\n      jump\t// out\n        /* \"#utility.yul\":10849:11323   */\n    tag_85:\n        /* \"#utility.yul\":10917:10923   */\n      0x00\n        /* \"#utility.yul\":10925:10931   */\n      dup1\n        /* \"#utility.yul\":10974:10976   */\n      0x40\n        /* \"#utility.yul\":10962:10971   */\n      dup4\n        /* \"#utility.yul\":10953:10960   */\n      dup6\n        /* \"#utility.yul\":10949:10972   */\n      sub\n        /* \"#utility.yul\":10945:10977   */\n      slt\n        /* \"#utility.yul\":10942:11061   */\n      iszero\n      tag_451\n      jumpi\n        /* \"#utility.yul\":10980:11059   */\n      tag_452\n      tag_300\n      jump\t// in\n    tag_452:\n        /* \"#utility.yul\":10942:11061   */\n    tag_451:\n        /* \"#utility.yul\":11100:11101   */\n      0x00\n        /* \"#utility.yul\":11125:11178   */\n      tag_453\n        /* \"#utility.yul\":11170:11177   */\n      dup6\n        /* \"#utility.yul\":11161:11167   */\n      dup3\n        /* \"#utility.yul\":11150:11159   */\n      dup7\n        /* \"#utility.yul\":11146:11168   */\n      add\n        /* \"#utility.yul\":11125:11178   */\n      tag_305\n      jump\t// in\n    tag_453:\n        /* \"#utility.yul\":11115:11178   */\n      swap3\n      pop\n        /* \"#utility.yul\":11071:11188   */\n      pop\n        /* \"#utility.yul\":11227:11229   */\n      0x20\n        /* \"#utility.yul\":11253:11306   */\n      tag_454\n        /* \"#utility.yul\":11298:11305   */\n      dup6\n        /* \"#utility.yul\":11289:11295   */\n      dup3\n        /* \"#utility.yul\":11278:11287   */\n      dup7\n        /* \"#utility.yul\":11274:11296   */\n      add\n        /* \"#utility.yul\":11253:11306   */\n      tag_305\n      jump\t// in\n    tag_454:\n        /* \"#utility.yul\":11243:11306   */\n      swap2\n      pop\n        /* \"#utility.yul\":11198:11316   */\n      pop\n        /* \"#utility.yul\":10849:11323   */\n      swap3\n      pop\n      swap3\n      swap1\n      pop\n      jump\t// out\n        /* \"#utility.yul\":11329:11509   */\n    tag_330:\n        /* \"#utility.yul\":11377:11454   */\n      0x4e487b7100000000000000000000000000000000000000000000000000000000\n        /* \"#utility.yul\":11374:11375   */\n      0x00\n        /* \"#utility.yul\":11367:11455   */\n      mstore\n        /* \"#utility.yul\":11474:11478   */\n      0x22\n        /* \"#utility.yul\":11471:11472   */\n      0x04\n        /* \"#utility.yul\":11464:11479   */\n      mstore\n        /* \"#utility.yul\":11498:11502   */\n      0x24\n        /* \"#utility.yul\":11495:11496   */\n      0x00\n        /* \"#utility.yul\":11488:11503   */\n      revert\n        /* \"#utility.yul\":11515:11835   */\n    tag_93:\n        /* \"#utility.yul\":11559:11565   */\n      0x00\n        /* \"#utility.yul\":11596:11597   */\n      0x02\n        /* \"#utility.yul\":11590:11594   */\n      dup3\n        /* \"#utility.yul\":11586:11598   */\n      div\n        /* \"#utility.yul\":11576:11598   */\n      swap1\n      pop\n        /* \"#utility.yul\":11643:11644   */\n      0x01\n        /* \"#utility.yul\":11637:11641   */\n      dup3\n        /* \"#utility.yul\":11633:11645   */\n      and\n        /* \"#utility.yul\":11664:11682   */\n      dup1\n        /* \"#utility.yul\":11654:11735   */\n      tag_457\n      jumpi\n        /* \"#utility.yul\":11720:11724   */\n      0x7f\n        /* \"#utility.yul\":11712:11718   */\n      dup3\n        /* \"#utility.yul\":11708:11725   */\n      and\n        /* \"#utility.yul\":11698:11725   */\n      swap2\n      pop\n        /* \"#utility.yul\":11654:11735   */\n    tag_457:\n        /* \"#utility.yul\":11782:11784   */\n      0x20\n        /* \"#utility.yul\":11774:11780   */\n      dup3\n        /* \"#utility.yul\":11771:11785   */\n      lt\n        /* \"#utility.yul\":11751:11769   */\n      dup2\n        /* \"#utility.yul\":11748:11786   */\n      sub\n        /* \"#utility.yul\":11745:11829   */\n      tag_458\n      jumpi\n        /* \"#utility.yul\":11801:11819   */\n      tag_459\n      tag_330\n      jump\t// in\n    tag_459:\n        /* \"#utility.yul\":11745:11829   */\n    tag_458:\n        /* \"#utility.yul\":11566:11835   */\n      pop\n        /* \"#utility.yul\":11515:11835   */\n      swap2\n      swap1\n      pop\n      jump\t// out\n        /* \"#utility.yul\":11841:12021   */\n    tag_136:\n        /* \"#utility.yul\":11889:11966   */\n      0x4e487b7100000000000000000000000000000000000000000000000000000000\n        /* \"#utility.yul\":11886:11887   */\n      0x00\n        /* \"#utility.yul\":11879:11967   */\n      mstore\n        /* \"#utility.yul\":11986:11990   */\n      0x41\n        /* \"#utility.yul\":11983:11984   */\n      0x04\n        /* \"#utility.yul\":11976:11991   */\n      mstore\n        /* \"#utility.yul\":12010:12014   */\n      0x24\n        /* \"#utility.yul\":12007:12008   */\n      0x00\n        /* \"#utility.yul\":12000:12015   */\n      revert\n        /* \"#utility.yul\":12027:12802   */\n    tag_154:\n        /* \"#utility.yul\":12260:12264   */\n      0x00\n        /* \"#utility.yul\":12298:12301   */\n      0xc0\n        /* \"#utility.yul\":12287:12296   */\n      dup3\n        /* \"#utility.yul\":12283:12302   */\n      add\n        /* \"#utility.yul\":12275:12302   */\n      swap1\n      pop\n        /* \"#utility.yul\":12312:12383   */\n      tag_462\n        /* \"#utility.yul\":12380:12381   */\n      0x00\n        /* \"#utility.yul\":12369:12378   */\n      dup4\n        /* \"#utility.yul\":12365:12382   */\n      add\n        /* \"#utility.yul\":12356:12362   */\n      dup10\n        /* \"#utility.yul\":12312:12383   */\n      tag_315\n      jump\t// in\n    tag_462:\n        /* \"#utility.yul\":12393:12465   */\n      tag_463\n        /* \"#utility.yul\":12461:12463   */\n      0x20\n        /* \"#utility.yul\":12450:12459   */\n      dup4\n        /* \"#utility.yul\":12446:12464   */\n      add\n        /* \"#utility.yul\":12437:12443   */\n      dup9\n        /* \"#utility.yul\":12393:12465   */\n      tag_318\n      jump\t// in\n    tag_463:\n        /* \"#utility.yul\":12475:12547   */\n      tag_464\n        /* \"#utility.yul\":12543:12545   */\n      0x40\n        /* \"#utility.yul\":12532:12541   */\n      dup4\n        /* \"#utility.yul\":12528:12546   */\n      add\n        /* \"#utility.yul\":12519:12525   */\n      dup8\n        /* \"#utility.yul\":12475:12547   */\n      tag_318\n      jump\t// in\n    tag_464:\n        /* \"#utility.yul\":12557:12629   */\n      tag_465\n        /* \"#utility.yul\":12625:12627   */\n      0x60\n        /* \"#utility.yul\":12614:12623   */\n      dup4\n        /* \"#utility.yul\":12610:12628   */\n      add\n        /* \"#utility.yul\":12601:12607   */\n      dup7\n        /* \"#utility.yul\":12557:12629   */\n      tag_311\n      jump\t// in\n    tag_465:\n        /* \"#utility.yul\":12639:12712   */\n      tag_466\n        /* \"#utility.yul\":12707:12710   */\n      0x80\n        /* \"#utility.yul\":12696:12705   */\n      dup4\n        /* \"#utility.yul\":12692:12711   */\n      add\n        /* \"#utility.yul\":12683:12689   */\n      dup6\n        /* \"#utility.yul\":12639:12712   */\n      tag_311\n      jump\t// in\n    tag_466:\n        /* \"#utility.yul\":12722:12795   */\n      tag_467\n        /* \"#utility.yul\":12790:12793   */\n      0xa0\n        /* \"#utility.yul\":12779:12788   */\n      dup4\n        /* \"#utility.yul\":12775:12794   */\n      add\n        /* \"#utility.yul\":12766:12772   */\n      dup5\n        /* \"#utility.yul\":12722:12795   */\n      tag_311\n      jump\t// in\n    tag_467:\n        /* \"#utility.yul\":12027:12802   */\n      swap8\n      swap7\n      pop\n      pop\n      pop\n      pop\n      pop\n      pop\n      pop\n      jump\t// out\n        /* \"#utility.yul\":12808:13140   */\n    tag_161:\n        /* \"#utility.yul\":12929:12933   */\n      0x00\n        /* \"#utility.yul\":12967:12969   */\n      0x40\n        /* \"#utility.yul\":12956:12965   */\n      dup3\n        /* \"#utility.yul\":12952:12970   */\n      add\n        /* \"#utility.yul\":12944:12970   */\n      swap1\n      pop\n        /* \"#utility.yul\":12980:13051   */\n      tag_469\n        /* \"#utility.yul\":13048:13049   */\n      0x00\n        /* \"#utility.yul\":13037:13046   */\n      dup4\n        /* \"#utility.yul\":13033:13050   */\n      add\n        /* \"#utility.yul\":13024:13030   */\n      dup6\n        /* \"#utility.yul\":12980:13051   */\n      tag_318\n      jump\t// in\n    tag_469:\n        /* \"#utility.yul\":13061:13133   */\n      tag_470\n        /* \"#utility.yul\":13129:13131   */\n      0x20\n        /* \"#utility.yul\":13118:13127   */\n      dup4\n        /* \"#utility.yul\":13114:13132   */\n      add\n        /* \"#utility.yul\":13105:13111   */\n      dup5\n        /* \"#utility.yul\":13061:13133   */\n      tag_318\n      jump\t// in\n    tag_470:\n        /* \"#utility.yul\":12808:13140   */\n      swap4\n      swap3\n      pop\n      pop\n      pop\n      jump\t// out\n        /* \"#utility.yul\":13146:13588   */\n    tag_179:\n        /* \"#utility.yul\":13295:13299   */\n      0x00\n        /* \"#utility.yul\":13333:13335   */\n      0x60\n        /* \"#utility.yul\":13322:13331   */\n      dup3\n        /* \"#utility.yul\":13318:13336   */\n      add\n        /* \"#utility.yul\":13310:13336   */\n      swap1\n      pop\n        /* \"#utility.yul\":13346:13417   */\n      tag_472\n        /* \"#utility.yul\":13414:13415   */\n      0x00\n        /* \"#utility.yul\":13403:13412   */\n      dup4\n        /* \"#utility.yul\":13399:13416   */\n      add\n        /* \"#utility.yul\":13390:13396   */\n      dup7\n        /* \"#utility.yul\":13346:13417   */\n      tag_318\n      jump\t// in\n    tag_472:\n        /* \"#utility.yul\":13427:13499   */\n      tag_473\n        /* \"#utility.yul\":13495:13497   */\n      0x20\n        /* \"#utility.yul\":13484:13493   */\n      dup4\n        /* \"#utility.yul\":13480:13498   */\n      add\n        /* \"#utility.yul\":13471:13477   */\n      dup6\n        /* \"#utility.yul\":13427:13499   */\n      tag_311\n      jump\t// in\n    tag_473:\n        /* \"#utility.yul\":13509:13581   */\n      tag_474\n        /* \"#utility.yul\":13577:13579   */\n      0x40\n        /* \"#utility.yul\":13566:13575   */\n      dup4\n        /* \"#utility.yul\":13562:13580   */\n      add\n        /* \"#utility.yul\":13553:13559   */\n      dup5\n        /* \"#utility.yul\":13509:13581   */\n      tag_311\n      jump\t// in\n    tag_474:\n        /* \"#utility.yul\":13146:13588   */\n      swap5\n      swap4\n      pop\n      pop\n      pop\n      pop\n      jump\t// out\n        /* \"#utility.yul\":13594:13774   */\n    tag_331:\n        /* \"#utility.yul\":13642:13719   */\n      0x4e487b7100000000000000000000000000000000000000000000000000000000\n        /* \"#utility.yul\":13639:13640   */\n      0x00\n        /* \"#utility.yul\":13632:13720   */\n      mstore\n        /* \"#utility.yul\":13739:13743   */\n      0x11\n        /* \"#utility.yul\":13736:13737   */\n      0x04\n        /* \"#utility.yul\":13729:13744   */\n      mstore\n        /* \"#utility.yul\":13763:13767   */\n      0x24\n        /* \"#utility.yul\":13760:13761   */\n      0x00\n        /* \"#utility.yul\":13753:13768   */\n      revert\n        /* \"#utility.yul\":13780:13971   */\n    tag_231:\n        /* \"#utility.yul\":13820:13823   */\n      0x00\n        /* \"#utility.yul\":13839:13859   */\n      tag_477\n        /* \"#utility.yul\":13857:13858   */\n      dup3\n        /* \"#utility.yul\":13839:13859   */\n      tag_306\n      jump\t// in\n    tag_477:\n        /* \"#utility.yul\":13834:13859   */\n      swap2\n      pop\n        /* \"#utility.yul\":13873:13893   */\n      tag_478\n        /* \"#utility.yul\":13891:13892   */\n      dup4\n        /* \"#utility.yul\":13873:13893   */\n      tag_306\n      jump\t// in\n    tag_478:\n        /* \"#utility.yul\":13868:13893   */\n      swap3\n      pop\n        /* \"#utility.yul\":13916:13917   */\n      dup3\n        /* \"#utility.yul\":13913:13914   */\n      dup3\n        /* \"#utility.yul\":13909:13918   */\n      add\n        /* \"#utility.yul\":13902:13918   */\n      swap1\n      pop\n        /* \"#utility.yul\":13937:13940   */\n      dup1\n        /* \"#utility.yul\":13934:13935   */\n      dup3\n        /* \"#utility.yul\":13931:13941   */\n      gt\n        /* \"#utility.yul\":13928:13964   */\n      iszero\n      tag_479\n      jumpi\n        /* \"#utility.yul\":13944:13962   */\n      tag_480\n      tag_331\n      jump\t// in\n    tag_480:\n        /* \"#utility.yul\":13928:13964   */\n    tag_479:\n        /* \"#utility.yul\":13780:13971   */\n      swap3\n      swap2\n      pop\n      pop\n      jump\t// out\n        /* \"#utility.yul\":13977:14641   */\n    tag_240:\n        /* \"#utility.yul\":14182:14186   */\n      0x00\n        /* \"#utility.yul\":14220:14223   */\n      0xa0\n        /* \"#utility.yul\":14209:14218   */\n      dup3\n        /* \"#utility.yul\":14205:14224   */\n      add\n        /* \"#utility.yul\":14197:14224   */\n      swap1\n      pop\n        /* \"#utility.yul\":14234:14305   */\n      tag_482\n        /* \"#utility.yul\":14302:14303   */\n      0x00\n        /* \"#utility.yul\":14291:14300   */\n      dup4\n        /* \"#utility.yul\":14287:14304   */\n      add\n        /* \"#utility.yul\":14278:14284   */\n      dup9\n        /* \"#utility.yul\":14234:14305   */\n      tag_315\n      jump\t// in\n    tag_482:\n        /* \"#utility.yul\":14315:14387   */\n      tag_483\n        /* \"#utility.yul\":14383:14385   */\n      0x20\n        /* \"#utility.yul\":14372:14381   */\n      dup4\n        /* \"#utility.yul\":14368:14386   */\n      add\n        /* \"#utility.yul\":14359:14365   */\n      dup8\n        /* \"#utility.yul\":14315:14387   */\n      tag_315\n      jump\t// in\n    tag_483:\n        /* \"#utility.yul\":14397:14469   */\n      tag_484\n        /* \"#utility.yul\":14465:14467   */\n      0x40\n        /* \"#utility.yul\":14454:14463   */\n      dup4\n        /* \"#utility.yul\":14450:14468   */\n      add\n        /* \"#utility.yul\":14441:14447   */\n      dup7\n        /* \"#utility.yul\":14397:14469   */\n      tag_315\n      jump\t// in\n    tag_484:\n        /* \"#utility.yul\":14479:14551   */\n      tag_485\n        /* \"#utility.yul\":14547:14549   */\n      0x60\n        /* \"#utility.yul\":14536:14545   */\n      dup4\n        /* \"#utility.yul\":14532:14550   */\n      add\n        /* \"#utility.yul\":14523:14529   */\n      dup6\n        /* \"#utility.yul\":14479:14551   */\n      tag_311\n      jump\t// in\n    tag_485:\n        /* \"#utility.yul\":14561:14634   */\n      tag_486\n        /* \"#utility.yul\":14629:14632   */\n      0x80\n        /* \"#utility.yul\":14618:14627   */\n      dup4\n        /* \"#utility.yul\":14614:14633   */\n      add\n        /* \"#utility.yul\":14605:14611   */\n      dup5\n        /* \"#utility.yul\":14561:14634   */\n      tag_318\n      jump\t// in\n    tag_486:\n        /* \"#utility.yul\":13977:14641   */\n      swap7\n      swap6\n      pop\n      pop\n      pop\n      pop\n      pop\n      pop\n      jump\t// out\n        /* \"#utility.yul\":14647:15192   */\n    tag_255:\n        /* \"#utility.yul\":14820:14824   */\n      0x00\n        /* \"#utility.yul\":14858:14861   */\n      0x80\n        /* \"#utility.yul\":14847:14856   */\n      dup3\n        /* \"#utility.yul\":14843:14862   */\n      add\n        /* \"#utility.yul\":14835:14862   */\n      swap1\n      pop\n        /* \"#utility.yul\":14872:14943   */\n      tag_488\n        /* \"#utility.yul\":14940:14941   */\n      0x00\n        /* \"#utility.yul\":14929:14938   */\n      dup4\n        /* \"#utility.yul\":14925:14942   */\n      add\n        /* \"#utility.yul\":14916:14922   */\n      dup8\n        /* \"#utility.yul\":14872:14943   */\n      tag_315\n      jump\t// in\n    tag_488:\n        /* \"#utility.yul\":14953:15021   */\n      tag_489\n        /* \"#utility.yul\":15017:15019   */\n      0x20\n        /* \"#utility.yul\":15006:15015   */\n      dup4\n        /* \"#utility.yul\":15002:15020   */\n      add\n        /* \"#utility.yul\":14993:14999   */\n      dup7\n        /* \"#utility.yul\":14953:15021   */\n      tag_313\n      jump\t// in\n    tag_489:\n        /* \"#utility.yul\":15031:15103   */\n      tag_490\n        /* \"#utility.yul\":15099:15101   */\n      0x40\n        /* \"#utility.yul\":15088:15097   */\n      dup4\n        /* \"#utility.yul\":15084:15102   */\n      add\n        /* \"#utility.yul\":15075:15081   */\n      dup6\n        /* \"#utility.yul\":15031:15103   */\n      tag_315\n      jump\t// in\n    tag_490:\n        /* \"#utility.yul\":15113:15185   */\n      tag_491\n        /* \"#utility.yul\":15181:15183   */\n      0x60\n        /* \"#utility.yul\":15170:15179   */\n      dup4\n        /* \"#utility.yul\":15166:15184   */\n      add\n        /* \"#utility.yul\":15157:15163   */\n      dup5\n        /* \"#utility.yul\":15113:15185   */\n      tag_315\n      jump\t// in\n    tag_491:\n        /* \"#utility.yul\":14647:15192   */\n      swap6\n      swap5\n      pop\n      pop\n      pop\n      pop\n      pop\n      jump\t// out\n        /* \"#utility.yul\":15198:15378   */\n    tag_262:\n        /* \"#utility.yul\":15246:15323   */\n      0x4e487b7100000000000000000000000000000000000000000000000000000000\n        /* \"#utility.yul\":15243:15244   */\n      0x00\n        /* \"#utility.yul\":15236:15324   */\n      mstore\n        /* \"#utility.yul\":15343:15347   */\n      0x21\n        /* \"#utility.yul\":15340:15341   */\n      0x04\n        /* \"#utility.yul\":15333:15348   */\n      mstore\n        /* \"#utility.yul\":15367:15371   */\n      0x24\n        /* \"#utility.yul\":15364:15365   */\n      0x00\n        /* \"#utility.yul\":15357:15372   */\n      revert\n\n    auxdata: 0xa2646970667358221220d38e418eb5a98eda0e98c637a865f7559745e4b3e403bdca14fb94741b2559ef64736f6c63430008180033\n}\n",
				"bytecode": {
					"linkReferences": {},
					"object": "61016060405234801562000011575f80fd5b5060405162002ed538038062002ed58339818101604052810190620000379190620007b4565b6040518060400160405280600581526020017f5265796573000000000000000000000000000000000000000000000000000000815250806040518060400160405280600181526020017f3100000000000000000000000000000000000000000000000000000000000000815250836040518060400160405280600581526020017f52657965730000000000000000000000000000000000000000000000000000008152506040518060400160405280600281526020017f5259000000000000000000000000000000000000000000000000000000000000815250816003908162000122919062000a48565b50806004908162000134919062000a48565b5050505f73ffffffffffffffffffffffffffffffffffffffff168173ffffffffffffffffffffffffffffffffffffffff1603620001aa575f6040517f1e4fbdf7000000000000000000000000000000000000000000000000000000008152600401620001a1919062000b3d565b60405180910390fd5b620001bb81620002b260201b60201c565b50620001d26006836200037560201b90919060201c565b6101208181525050620001f06007826200037560201b90919060201c565b6101408181525050818051906020012060e08181525050808051906020012061010081815250504660a081815250506200022f620003ca60201b60201c565b608081815250503073ffffffffffffffffffffffffffffffffffffffff1660c08173ffffffffffffffffffffffffffffffffffffffff1681525050505050620002ab33620002826200042660201b60201c565b600a62000290919062000ce1565b6103e86200029f919062000d31565b6200042e60201b60201c565b5062000fdb565b5f60055f9054906101000a900473ffffffffffffffffffffffffffffffffffffffff1690508160055f6101000a81548173ffffffffffffffffffffffffffffffffffffffff021916908373ffffffffffffffffffffffffffffffffffffffff1602179055508173ffffffffffffffffffffffffffffffffffffffff168173ffffffffffffffffffffffffffffffffffffffff167f8be0079c531659141344cd1fd0a4f28419497f9722a3daafe3b4186f6b6457e060405160405180910390a35050565b5f6020835110156200039a576200039283620004b860201b60201c565b9050620003c4565b82620003ac836200052260201b60201c565b5f019081620003bc919062000a48565b5060ff5f1b90505b92915050565b5f7f8b73c3c69bb8fe3d512ecc4cf759cc79239f7b179b0ffacaa9a75d522b39400f60e0516101005146306040516020016200040b95949392919062000da6565b60405160208183030381529060405280519060200120905090565b5f6012905090565b5f73ffffffffffffffffffffffffffffffffffffffff168273ffffffffffffffffffffffffffffffffffffffff1603620004a1575f6040517fec442f0500000000000000000000000000000000000000000000000000000000815260040162000498919062000b3d565b60405180910390fd5b620004b45f83836200052b60201b60201c565b5050565b5f80829050601f815111156200050757826040517f305a27a9000000000000000000000000000000000000000000000000000000008152600401620004fe919062000e8b565b60405180910390fd5b805181620005159062000edc565b5f1c175f1b915050919050565b5f819050919050565b5f73ffffffffffffffffffffffffffffffffffffffff168373ffffffffffffffffffffffffffffffffffffffff16036200057f578060025f82825462000572919062000f4b565b9250508190555062000650565b5f805f8573ffffffffffffffffffffffffffffffffffffffff1673ffffffffffffffffffffffffffffffffffffffff1681526020019081526020015f20549050818110156200060b578381836040517fe450d38c000000000000000000000000000000000000000000000000000000008152600401620006029392919062000f85565b60405180910390fd5b8181035f808673ffffffffffffffffffffffffffffffffffffffff1673ffffffffffffffffffffffffffffffffffffffff1681526020019081526020015f2081905550505b5f73ffffffffffffffffffffffffffffffffffffffff168273ffffffffffffffffffffffffffffffffffffffff160362000699578060025f8282540392505081905550620006e3565b805f808473ffffffffffffffffffffffffffffffffffffffff1673ffffffffffffffffffffffffffffffffffffffff1681526020019081526020015f205f82825401925050819055505b8173ffffffffffffffffffffffffffffffffffffffff168373ffffffffffffffffffffffffffffffffffffffff167fddf252ad1be2c89b69c2b068fc378daa952ba7f163c4a11628f55a4df523b3ef8360405162000742919062000fc0565b60405180910390a3505050565b5f80fd5b5f73ffffffffffffffffffffffffffffffffffffffff82169050919050565b5f6200077e8262000753565b9050919050565b620007908162000772565b81146200079b575f80fd5b50565b5f81519050620007ae8162000785565b92915050565b5f60208284031215620007cc57620007cb6200074f565b5b5f620007db848285016200079e565b91505092915050565b5f81519050919050565b7f4e487b71000000000000000000000000000000000000000000000000000000005f52604160045260245ffd5b7f4e487b71000000000000000000000000000000000000000000000000000000005f52602260045260245ffd5b5f60028204905060018216806200086057607f821691505b6020821081036200087657620008756200081b565b5b50919050565b5f819050815f5260205f209050919050565b5f6020601f8301049050919050565b5f82821b905092915050565b5f60088302620008da7fffffffffffffffffffffffffffffffffffffffffffffffffffffffffffffffff826200089d565b620008e686836200089d565b95508019841693508086168417925050509392505050565b5f819050919050565b5f819050919050565b5f620009306200092a6200092484620008fe565b62000907565b620008fe565b9050919050565b5f819050919050565b6200094b8362000910565b620009636200095a8262000937565b848454620008a9565b825550505050565b5f90565b620009796200096b565b6200098681848462000940565b505050565b5b81811015620009ad57620009a15f826200096f565b6001810190506200098c565b5050565b601f821115620009fc57620009c6816200087c565b620009d1846200088e565b81016020851015620009e1578190505b620009f9620009f0856200088e565b8301826200098b565b50505b505050565b5f82821c905092915050565b5f62000a1e5f198460080262000a01565b1980831691505092915050565b5f62000a38838362000a0d565b9150826002028217905092915050565b62000a5382620007e4565b67ffffffffffffffff81111562000a6f5762000a6e620007ee565b5b62000a7b825462000848565b62000a88828285620009b1565b5f60209050601f83116001811462000abe575f841562000aa9578287015190505b62000ab5858262000a2b565b86555062000b24565b601f19841662000ace866200087c565b5f5b8281101562000af75784890151825560018201915060208501945060208101905062000ad0565b8683101562000b17578489015162000b13601f89168262000a0d565b8355505b6001600288020188555050505b505050505050565b62000b378162000772565b82525050565b5f60208201905062000b525f83018462000b2c565b92915050565b7f4e487b71000000000000000000000000000000000000000000000000000000005f52601160045260245ffd5b5f8160011c9050919050565b5f808291508390505b600185111562000be25780860481111562000bba5762000bb962000b58565b5b600185161562000bca5780820291505b808102905062000bda8562000b85565b945062000b9a565b94509492505050565b5f8262000bfc576001905062000cce565b8162000c0b575f905062000cce565b816001811462000c24576002811462000c2f5762000c65565b600191505062000cce565b60ff84111562000c445762000c4362000b58565b5b8360020a91508482111562000c5e5762000c5d62000b58565b5b5062000cce565b5060208310610133831016604e8410600b841016171562000c9f5782820a90508381111562000c995762000c9862000b58565b5b62000cce565b62000cae848484600162000b91565b9250905081840481111562000cc85762000cc762000b58565b5b81810290505b9392505050565b5f60ff82169050919050565b5f62000ced82620008fe565b915062000cfa8362000cd5565b925062000d297fffffffffffffffffffffffffffffffffffffffffffffffffffffffffffffffff848462000beb565b905092915050565b5f62000d3d82620008fe565b915062000d4a83620008fe565b925082820262000d5a81620008fe565b9150828204841483151762000d745762000d7362000b58565b5b5092915050565b5f819050919050565b62000d8f8162000d7b565b82525050565b62000da081620008fe565b82525050565b5f60a08201905062000dbb5f83018862000d84565b62000dca602083018762000d84565b62000dd9604083018662000d84565b62000de8606083018562000d95565b62000df7608083018462000b2c565b9695505050505050565b5f82825260208201905092915050565b5f5b8381101562000e3057808201518184015260208101905062000e13565b5f8484015250505050565b5f601f19601f8301169050919050565b5f62000e5782620007e4565b62000e63818562000e01565b935062000e7581856020860162000e11565b62000e808162000e3b565b840191505092915050565b5f6020820190508181035f83015262000ea5818462000e4b565b905092915050565b5f81519050919050565b5f819050602082019050919050565b5f62000ed3825162000d7b565b80915050919050565b5f62000ee88262000ead565b8262000ef48462000eb7565b905062000f018162000ec6565b9250602082101562000f445762000f3f7fffffffffffffffffffffffffffffffffffffffffffffffffffffffffffffffff836020036008026200089d565b831692505b5050919050565b5f62000f5782620008fe565b915062000f6483620008fe565b925082820190508082111562000f7f5762000f7e62000b58565b5b92915050565b5f60608201905062000f9a5f83018662000b2c565b62000fa9602083018562000d95565b62000fb8604083018462000d95565b949350505050565b5f60208201905062000fd55f83018462000d95565b92915050565b60805160a05160c05160e051610100516101205161014051611ea86200102d5f395f610d4f01525f610d1401525f61124801525f61122701525f610a4901525f610a9f01525f610ac80152611ea85ff3fe608060405234801561000f575f80fd5b5060043610610109575f3560e01c8063715018a6116100a057806395d89b411161006f57806395d89b41146102ad578063a9059cbb146102cb578063d505accf146102fb578063dd62ed3e14610317578063f2fde38b1461034757610109565b8063715018a6146102315780637ecebe001461023b57806384b0196e1461026b5780638da5cb5b1461028f57610109565b8063313ce567116100dc578063313ce567146101a95780633644e515146101c757806340c10f19146101e557806370a082311461020157610109565b806306fdde031461010d578063095ea7b31461012b57806318160ddd1461015b57806323b872dd14610179575b5f80fd5b610115610363565b6040516101229190611718565b60405180910390f35b610145600480360381019061014091906117c9565b6103f3565b6040516101529190611821565b60405180910390f35b610163610415565b6040516101709190611849565b60405180910390f35b610193600480360381019061018e9190611862565b61041e565b6040516101a09190611821565b60405180910390f35b6101b161044c565b6040516101be91906118cd565b60405180910390f35b6101cf610454565b6040516101dc91906118fe565b60405180910390f35b6101ff60048036038101906101fa91906117c9565b610462565b005b61021b60048036038101906102169190611917565b610478565b6040516102289190611849565b60405180910390f35b6102396104bd565b005b61025560048036038101906102509190611917565b6104d0565b6040516102629190611849565b60405180910390f35b6102736104e1565b6040516102869796959493929190611a42565b60405180910390f35b610297610586565b6040516102a49190611ac4565b60405180910390f35b6102b56105ae565b6040516102c29190611718565b60405180910390f35b6102e560048036038101906102e091906117c9565b61063e565b6040516102f29190611821565b60405180910390f35b61031560048036038101906103109190611b31565b610660565b005b610331600480360381019061032c9190611bce565b6107a5565b60405161033e9190611849565b60405180910390f35b610361600480360381019061035c9190611917565b610827565b005b60606003805461037290611c39565b80601f016020809104026020016040519081016040528092919081815260200182805461039e90611c39565b80156103e95780601f106103c0576101008083540402835291602001916103e9565b820191905f5260205f20905b8154815290600101906020018083116103cc57829003601f168201915b5050505050905090565b5f806103fd6108ab565b905061040a8185856108b2565b600191505092915050565b5f600254905090565b5f806104286108ab565b90506104358582856108c4565b610440858585610956565b60019150509392505050565b5f6012905090565b5f61045d610a46565b905090565b61046a610afc565b6104748282610b83565b5050565b5f805f8373ffffffffffffffffffffffffffffffffffffffff1673ffffffffffffffffffffffffffffffffffffffff1681526020019081526020015f20549050919050565b6104c5610afc565b6104ce5f610c02565b565b5f6104da82610cc5565b9050919050565b5f6060805f805f60606104f2610d0b565b6104fa610d46565b46305f801b5f67ffffffffffffffff81111561051957610518611c69565b5b6040519080825280602002602001820160405280156105475781602001602082028036833780820191505090505b507f0f00000000000000000000000000000000000000000000000000000000000000959493929190965096509650965096509650965090919293949596565b5f60055f9054906101000a900473ffffffffffffffffffffffffffffffffffffffff16905090565b6060600480546105bd90611c39565b80601f01602080910402602001604051908101604052809291908181526020018280546105e990611c39565b80156106345780601f1061060b57610100808354040283529160200191610634565b820191905f5260205f20905b81548152906001019060200180831161061757829003601f168201915b5050505050905090565b5f806106486108ab565b9050610655818585610956565b600191505092915050565b834211156106a557836040517f6279130200000000000000000000000000000000000000000000000000000000815260040161069c9190611849565b60405180910390fd5b5f7f6e71edae12b1b97f4d1f60370fef10105fa2faae0126114a169c64845d6126c98888886106d38c610d81565b896040516020016106e996959493929190611c96565b6040516020818303038152906040528051906020012090505f61070b82610dd4565b90505f61071a82878787610ded565b90508973ffffffffffffffffffffffffffffffffffffffff168173ffffffffffffffffffffffffffffffffffffffff161461078e57808a6040517f4b800e46000000000000000000000000000000000000000000000000000000008152600401610785929190611cf5565b60405180910390fd5b6107998a8a8a6108b2565b50505050505050505050565b5f60015f8473ffffffffffffffffffffffffffffffffffffffff1673ffffffffffffffffffffffffffffffffffffffff1681526020019081526020015f205f8373ffffffffffffffffffffffffffffffffffffffff1673ffffffffffffffffffffffffffffffffffffffff1681526020019081526020015f2054905092915050565b61082f610afc565b5f73ffffffffffffffffffffffffffffffffffffffff168173ffffffffffffffffffffffffffffffffffffffff160361089f575f6040517f1e4fbdf70000000000000000000000000000000000000000000000000000000081526004016108969190611ac4565b60405180910390fd5b6108a881610c02565b50565b5f33905090565b6108bf8383836001610e1b565b505050565b5f6108cf84846107a5565b90507fffffffffffffffffffffffffffffffffffffffffffffffffffffffffffffffff81146109505781811015610941578281836040517ffb8f41b200000000000000000000000000000000000000000000000000000000815260040161093893929190611d1c565b60405180910390fd5b61094f84848484035f610e1b565b5b50505050565b5f73ffffffffffffffffffffffffffffffffffffffff168373ffffffffffffffffffffffffffffffffffffffff16036109c6575f6040517f96c6fd1e0000000000000000000000000000000000000000000000000000000081526004016109bd9190611ac4565b60405180910390fd5b5f73ffffffffffffffffffffffffffffffffffffffff168273ffffffffffffffffffffffffffffffffffffffff1603610a36575f6040517fec442f05000000000000000000000000000000000000000000000000000000008152600401610a2d9190611ac4565b60405180910390fd5b610a41838383610fea565b505050565b5f7f000000000000000000000000000000000000000000000000000000000000000073ffffffffffffffffffffffffffffffffffffffff163073ffffffffffffffffffffffffffffffffffffffff16148015610ac157507f000000000000000000000000000000000000000000000000000000000000000046145b15610aee577f00000000000000000000000000000000000000000000000000000000000000009050610af9565b610af6611203565b90505b90565b610b046108ab565b73ffffffffffffffffffffffffffffffffffffffff16610b22610586565b73ffffffffffffffffffffffffffffffffffffffff1614610b8157610b456108ab565b6040517f118cdaa7000000000000000000000000000000000000000000000000000000008152600401610b789190611ac4565b60405180910390fd5b565b5f73ffffffffffffffffffffffffffffffffffffffff168273ffffffffffffffffffffffffffffffffffffffff1603610bf3575f6040517fec442f05000000000000000000000000000000000000000000000000000000008152600401610bea9190611ac4565b60405180910390fd5b610bfe5f8383610fea565b5050565b5f60055f9054906101000a900473ffffffffffffffffffffffffffffffffffffffff1690508160055f6101000a81548173ffffffffffffffffffffffffffffffffffffffff021916908373ffffffffffffffffffffffffffffffffffffffff1602179055508173ffffffffffffffffffffffffffffffffffffffff168173ffffffffffffffffffffffffffffffffffffffff167f8be0079c531659141344cd1fd0a4f28419497f9722a3daafe3b4186f6b6457e060405160405180910390a35050565b5f60085f8373ffffffffffffffffffffffffffffffffffffffff1673ffffffffffffffffffffffffffffffffffffffff1681526020019081526020015f20549050919050565b6060610d4160067f000000000000000000000000000000000000000000000000000000000000000061129890919063ffffffff16565b905090565b6060610d7c60077f000000000000000000000000000000000000000000000000000000000000000061129890919063ffffffff16565b905090565b5f60085f8373ffffffffffffffffffffffffffffffffffffffff1673ffffffffffffffffffffffffffffffffffffffff1681526020019081526020015f205f815480929190600101919050559050919050565b5f610de6610de0610a46565b83611345565b9050919050565b5f805f80610dfd88888888611385565b925092509250610e0d828261146c565b829350505050949350505050565b5f73ffffffffffffffffffffffffffffffffffffffff168473ffffffffffffffffffffffffffffffffffffffff1603610e8b575f6040517fe602df05000000000000000000000000000000000000000000000000000000008152600401610e829190611ac4565b60405180910390fd5b5f73ffffffffffffffffffffffffffffffffffffffff168373ffffffffffffffffffffffffffffffffffffffff1603610efb575f6040517f94280d62000000000000000000000000000000000000000000000000000000008152600401610ef29190611ac4565b60405180910390fd5b8160015f8673ffffffffffffffffffffffffffffffffffffffff1673ffffffffffffffffffffffffffffffffffffffff1681526020019081526020015f205f8573ffffffffffffffffffffffffffffffffffffffff1673ffffffffffffffffffffffffffffffffffffffff1681526020019081526020015f20819055508015610fe4578273ffffffffffffffffffffffffffffffffffffffff168473ffffffffffffffffffffffffffffffffffffffff167f8c5be1e5ebec7d5bd14f71427d1e84f3dd0314c0f7b2291e5b200ac8c7c3b92584604051610fdb9190611849565b60405180910390a35b50505050565b5f73ffffffffffffffffffffffffffffffffffffffff168373ffffffffffffffffffffffffffffffffffffffff160361103a578060025f82825461102e9190611d7e565b92505081905550611108565b5f805f8573ffffffffffffffffffffffffffffffffffffffff1673ffffffffffffffffffffffffffffffffffffffff1681526020019081526020015f20549050818110156110c3578381836040517fe450d38c0000000000000000000000000000000000000000000000000000000081526004016110ba93929190611d1c565b60405180910390fd5b8181035f808673ffffffffffffffffffffffffffffffffffffffff1673ffffffffffffffffffffffffffffffffffffffff1681526020019081526020015f2081905550505b5f73ffffffffffffffffffffffffffffffffffffffff168273ffffffffffffffffffffffffffffffffffffffff160361114f578060025f8282540392505081905550611199565b805f808473ffffffffffffffffffffffffffffffffffffffff1673ffffffffffffffffffffffffffffffffffffffff1681526020019081526020015f205f82825401925050819055505b8173ffffffffffffffffffffffffffffffffffffffff168373ffffffffffffffffffffffffffffffffffffffff167fddf252ad1be2c89b69c2b068fc378daa952ba7f163c4a11628f55a4df523b3ef836040516111f69190611849565b60405180910390a3505050565b5f7f8b73c3c69bb8fe3d512ecc4cf759cc79239f7b179b0ffacaa9a75d522b39400f7f00000000000000000000000000000000000000000000000000000000000000007f0000000000000000000000000000000000000000000000000000000000000000463060405160200161127d959493929190611db1565b60405160208183030381529060405280519060200120905090565b606060ff5f1b83146112b4576112ad836115ce565b905061133f565b8180546112c090611c39565b80601f01602080910402602001604051908101604052809291908181526020018280546112ec90611c39565b80156113375780601f1061130e57610100808354040283529160200191611337565b820191905f5260205f20905b81548152906001019060200180831161131a57829003601f168201915b505050505090505b92915050565b5f6040517f190100000000000000000000000000000000000000000000000000000000000081528360028201528260228201526042812091505092915050565b5f805f7f7fffffffffffffffffffffffffffffff5d576e7357a4501ddfe92f46681b20a0845f1c11156113c1575f600385925092509250611462565b5f6001888888886040515f81526020016040526040516113e49493929190611e02565b6020604051602081039080840390855afa158015611404573d5f803e3d5ffd5b5050506020604051035190505f73ffffffffffffffffffffffffffffffffffffffff168173ffffffffffffffffffffffffffffffffffffffff1603611455575f60015f801b93509350935050611462565b805f805f1b935093509350505b9450945094915050565b5f600381111561147f5761147e611e45565b5b82600381111561149257611491611e45565b5b03156115ca57600160038111156114ac576114ab611e45565b5b8260038111156114bf576114be611e45565b5b036114f6576040517ff645eedf00000000000000000000000000000000000000000000000000000000815260040160405180910390fd5b6002600381111561150a57611509611e45565b5b82600381111561151d5761151c611e45565b5b0361156157805f1c6040517ffce698f70000000000000000000000000000000000000000000000000000000081526004016115589190611849565b60405180910390fd5b60038081111561157457611573611e45565b5b82600381111561158757611586611e45565b5b036115c957806040517fd78bce0c0000000000000000000000000000000000000000000000000000000081526004016115c091906118fe565b60405180910390fd5b5b5050565b60605f6115da83611640565b90505f602067ffffffffffffffff8111156115f8576115f7611c69565b5b6040519080825280601f01601f19166020018201604052801561162a5781602001600182028036833780820191505090505b5090508181528360208201528092505050919050565b5f8060ff835f1c169050601f811115611685576040517fb3512b0c00000000000000000000000000000000000000000000000000000000815260040160405180910390fd5b80915050919050565b5f81519050919050565b5f82825260208201905092915050565b5f5b838110156116c55780820151818401526020810190506116aa565b5f8484015250505050565b5f601f19601f8301169050919050565b5f6116ea8261168e565b6116f48185611698565b93506117048185602086016116a8565b61170d816116d0565b840191505092915050565b5f6020820190508181035f83015261173081846116e0565b905092915050565b5f80fd5b5f73ffffffffffffffffffffffffffffffffffffffff82169050919050565b5f6117658261173c565b9050919050565b6117758161175b565b811461177f575f80fd5b50565b5f813590506117908161176c565b92915050565b5f819050919050565b6117a881611796565b81146117b2575f80fd5b50565b5f813590506117c38161179f565b92915050565b5f80604083850312156117df576117de611738565b5b5f6117ec85828601611782565b92505060206117fd858286016117b5565b9150509250929050565b5f8115159050919050565b61181b81611807565b82525050565b5f6020820190506118345f830184611812565b92915050565b61184381611796565b82525050565b5f60208201905061185c5f83018461183a565b92915050565b5f805f6060848603121561187957611878611738565b5b5f61188686828701611782565b935050602061189786828701611782565b92505060406118a8868287016117b5565b9150509250925092565b5f60ff82169050919050565b6118c7816118b2565b82525050565b5f6020820190506118e05f8301846118be565b92915050565b5f819050919050565b6118f8816118e6565b82525050565b5f6020820190506119115f8301846118ef565b92915050565b5f6020828403121561192c5761192b611738565b5b5f61193984828501611782565b91505092915050565b5f7fff0000000000000000000000000000000000000000000000000000000000000082169050919050565b61197681611942565b82525050565b6119858161175b565b82525050565b5f81519050919050565b5f82825260208201905092915050565b5f819050602082019050919050565b6119bd81611796565b82525050565b5f6119ce83836119b4565b60208301905092915050565b5f602082019050919050565b5f6119f08261198b565b6119fa8185611995565b9350611a05836119a5565b805f5b83811015611a35578151611a1c88826119c3565b9750611a27836119da565b925050600181019050611a08565b5085935050505092915050565b5f60e082019050611a555f83018a61196d565b8181036020830152611a6781896116e0565b90508181036040830152611a7b81886116e0565b9050611a8a606083018761183a565b611a97608083018661197c565b611aa460a08301856118ef565b81810360c0830152611ab681846119e6565b905098975050505050505050565b5f602082019050611ad75f83018461197c565b92915050565b611ae6816118b2565b8114611af0575f80fd5b50565b5f81359050611b0181611add565b92915050565b611b10816118e6565b8114611b1a575f80fd5b50565b5f81359050611b2b81611b07565b92915050565b5f805f805f805f60e0888a031215611b4c57611b4b611738565b5b5f611b598a828b01611782565b9750506020611b6a8a828b01611782565b9650506040611b7b8a828b016117b5565b9550506060611b8c8a828b016117b5565b9450506080611b9d8a828b01611af3565b93505060a0611bae8a828b01611b1d565b92505060c0611bbf8a828b01611b1d565b91505092959891949750929550565b5f8060408385031215611be457611be3611738565b5b5f611bf185828601611782565b9250506020611c0285828601611782565b9150509250929050565b7f4e487b71000000000000000000000000000000000000000000000000000000005f52602260045260245ffd5b5f6002820490506001821680611c5057607f821691505b602082108103611c6357611c62611c0c565b5b50919050565b7f4e487b71000000000000000000000000000000000000000000000000000000005f52604160045260245ffd5b5f60c082019050611ca95f8301896118ef565b611cb6602083018861197c565b611cc3604083018761197c565b611cd0606083018661183a565b611cdd608083018561183a565b611cea60a083018461183a565b979650505050505050565b5f604082019050611d085f83018561197c565b611d15602083018461197c565b9392505050565b5f606082019050611d2f5f83018661197c565b611d3c602083018561183a565b611d49604083018461183a565b949350505050565b7f4e487b71000000000000000000000000000000000000000000000000000000005f52601160045260245ffd5b5f611d8882611796565b9150611d9383611796565b9250828201905080821115611dab57611daa611d51565b5b92915050565b5f60a082019050611dc45f8301886118ef565b611dd160208301876118ef565b611dde60408301866118ef565b611deb606083018561183a565b611df8608083018461197c565b9695505050505050565b5f608082019050611e155f8301876118ef565b611e2260208301866118be565b611e2f60408301856118ef565b611e3c60608301846118ef565b95945050505050565b7f4e487b71000000000000000000000000000000000000000000000000000000005f52602160045260245ffdfea2646970667358221220d38e418eb5a98eda0e98c637a865f7559745e4b3e403bdca14fb94741b2559ef64736f6c63430008180033",
					"opcodes": "PUSH2 0x160 PUSH1 0x40 MSTORE CALLVALUE DUP1 ISZERO PUSH3 0x11 JUMPI PUSH0 DUP1 REVERT JUMPDEST POP PUSH1 0x40 MLOAD PUSH3 0x2ED5 CODESIZE SUB DUP1 PUSH3 0x2ED5 DUP4 CODECOPY DUP2 DUP2 ADD PUSH1 0x40 MSTORE DUP2 ADD SWAP1 PUSH3 0x37 SWAP2 SWAP1 PUSH3 0x7B4 JUMP JUMPDEST PUSH1 0x40 MLOAD DUP1 PUSH1 0x40 ADD PUSH1 0x40 MSTORE DUP1 PUSH1 0x5 DUP2 MSTORE PUSH1 0x20 ADD PUSH32 0x5265796573000000000000000000000000000000000000000000000000000000 DUP2 MSTORE POP DUP1 PUSH1 0x40 MLOAD DUP1 PUSH1 0x40 ADD PUSH1 0x40 MSTORE DUP1 PUSH1 0x1 DUP2 MSTORE PUSH1 0x20 ADD PUSH32 0x3100000000000000000000000000000000000000000000000000000000000000 DUP2 MSTORE POP DUP4 PUSH1 0x40 MLOAD DUP1 PUSH1 0x40 ADD PUSH1 0x40 MSTORE DUP1 PUSH1 0x5 DUP2 MSTORE PUSH1 0x20 ADD PUSH32 0x5265796573000000000000000000000000000000000000000000000000000000 DUP2 MSTORE POP PUSH1 0x40 MLOAD DUP1 PUSH1 0x40 ADD PUSH1 0x40 MSTORE DUP1 PUSH1 0x2 DUP2 MSTORE PUSH1 0x20 ADD PUSH32 0x5259000000000000000000000000000000000000000000000000000000000000 DUP2 MSTORE POP DUP2 PUSH1 0x3 SWAP1 DUP2 PUSH3 0x122 SWAP2 SWAP1 PUSH3 0xA48 JUMP JUMPDEST POP DUP1 PUSH1 0x4 SWAP1 DUP2 PUSH3 0x134 SWAP2 SWAP1 PUSH3 0xA48 JUMP JUMPDEST POP POP POP PUSH0 PUSH20 0xFFFFFFFFFFFFFFFFFFFFFFFFFFFFFFFFFFFFFFFF AND DUP2 PUSH20 0xFFFFFFFFFFFFFFFFFFFFFFFFFFFFFFFFFFFFFFFF AND SUB PUSH3 0x1AA JUMPI PUSH0 PUSH1 0x40 MLOAD PUSH32 0x1E4FBDF700000000000000000000000000000000000000000000000000000000 DUP2 MSTORE PUSH1 0x4 ADD PUSH3 0x1A1 SWAP2 SWAP1 PUSH3 0xB3D JUMP JUMPDEST PUSH1 0x40 MLOAD DUP1 SWAP2 SUB SWAP1 REVERT JUMPDEST PUSH3 0x1BB DUP2 PUSH3 0x2B2 PUSH1 0x20 SHL PUSH1 0x20 SHR JUMP JUMPDEST POP PUSH3 0x1D2 PUSH1 0x6 DUP4 PUSH3 0x375 PUSH1 0x20 SHL SWAP1 SWAP2 SWAP1 PUSH1 0x20 SHR JUMP JUMPDEST PUSH2 0x120 DUP2 DUP2 MSTORE POP POP PUSH3 0x1F0 PUSH1 0x7 DUP3 PUSH3 0x375 PUSH1 0x20 SHL SWAP1 SWAP2 SWAP1 PUSH1 0x20 SHR JUMP JUMPDEST PUSH2 0x140 DUP2 DUP2 MSTORE POP POP DUP2 DUP1 MLOAD SWAP1 PUSH1 0x20 ADD KECCAK256 PUSH1 0xE0 DUP2 DUP2 MSTORE POP POP DUP1 DUP1 MLOAD SWAP1 PUSH1 0x20 ADD KECCAK256 PUSH2 0x100 DUP2 DUP2 MSTORE POP POP CHAINID PUSH1 0xA0 DUP2 DUP2 MSTORE POP POP PUSH3 0x22F PUSH3 0x3CA PUSH1 0x20 SHL PUSH1 0x20 SHR JUMP JUMPDEST PUSH1 0x80 DUP2 DUP2 MSTORE POP POP ADDRESS PUSH20 0xFFFFFFFFFFFFFFFFFFFFFFFFFFFFFFFFFFFFFFFF AND PUSH1 0xC0 DUP2 PUSH20 0xFFFFFFFFFFFFFFFFFFFFFFFFFFFFFFFFFFFFFFFF AND DUP2 MSTORE POP POP POP POP POP PUSH3 0x2AB CALLER PUSH3 0x282 PUSH3 0x426 PUSH1 0x20 SHL PUSH1 0x20 SHR JUMP JUMPDEST PUSH1 0xA PUSH3 0x290 SWAP2 SWAP1 PUSH3 0xCE1 JUMP JUMPDEST PUSH2 0x3E8 PUSH3 0x29F SWAP2 SWAP1 PUSH3 0xD31 JUMP JUMPDEST PUSH3 0x42E PUSH1 0x20 SHL PUSH1 0x20 SHR JUMP JUMPDEST POP PUSH3 0xFDB JUMP JUMPDEST PUSH0 PUSH1 0x5 PUSH0 SWAP1 SLOAD SWAP1 PUSH2 0x100 EXP SWAP1 DIV PUSH20 0xFFFFFFFFFFFFFFFFFFFFFFFFFFFFFFFFFFFFFFFF AND SWAP1 POP DUP2 PUSH1 0x5 PUSH0 PUSH2 0x100 EXP DUP2 SLOAD DUP2 PUSH20 0xFFFFFFFFFFFFFFFFFFFFFFFFFFFFFFFFFFFFFFFF MUL NOT AND SWAP1 DUP4 PUSH20 0xFFFFFFFFFFFFFFFFFFFFFFFFFFFFFFFFFFFFFFFF AND MUL OR SWAP1 SSTORE POP DUP2 PUSH20 0xFFFFFFFFFFFFFFFFFFFFFFFFFFFFFFFFFFFFFFFF AND DUP2 PUSH20 0xFFFFFFFFFFFFFFFFFFFFFFFFFFFFFFFFFFFFFFFF AND PUSH32 0x8BE0079C531659141344CD1FD0A4F28419497F9722A3DAAFE3B4186F6B6457E0 PUSH1 0x40 MLOAD PUSH1 0x40 MLOAD DUP1 SWAP2 SUB SWAP1 LOG3 POP POP JUMP JUMPDEST PUSH0 PUSH1 0x20 DUP4 MLOAD LT ISZERO PUSH3 0x39A JUMPI PUSH3 0x392 DUP4 PUSH3 0x4B8 PUSH1 0x20 SHL PUSH1 0x20 SHR JUMP JUMPDEST SWAP1 POP PUSH3 0x3C4 JUMP JUMPDEST DUP3 PUSH3 0x3AC DUP4 PUSH3 0x522 PUSH1 0x20 SHL PUSH1 0x20 SHR JUMP JUMPDEST PUSH0 ADD SWAP1 DUP2 PUSH3 0x3BC SWAP2 SWAP1 PUSH3 0xA48 JUMP JUMPDEST POP PUSH1 0xFF PUSH0 SHL SWAP1 POP JUMPDEST SWAP3 SWAP2 POP POP JUMP JUMPDEST PUSH0 PUSH32 0x8B73C3C69BB8FE3D512ECC4CF759CC79239F7B179B0FFACAA9A75D522B39400F PUSH1 0xE0 MLOAD PUSH2 0x100 MLOAD CHAINID ADDRESS PUSH1 0x40 MLOAD PUSH1 0x20 ADD PUSH3 0x40B SWAP6 SWAP5 SWAP4 SWAP3 SWAP2 SWAP1 PUSH3 0xDA6 JUMP JUMPDEST PUSH1 0x40 MLOAD PUSH1 0x20 DUP2 DUP4 SUB SUB DUP2 MSTORE SWAP1 PUSH1 0x40 MSTORE DUP1 MLOAD SWAP1 PUSH1 0x20 ADD KECCAK256 SWAP1 POP SWAP1 JUMP JUMPDEST PUSH0 PUSH1 0x12 SWAP1 POP SWAP1 JUMP JUMPDEST PUSH0 PUSH20 0xFFFFFFFFFFFFFFFFFFFFFFFFFFFFFFFFFFFFFFFF AND DUP3 PUSH20 0xFFFFFFFFFFFFFFFFFFFFFFFFFFFFFFFFFFFFFFFF AND SUB PUSH3 0x4A1 JUMPI PUSH0 PUSH1 0x40 MLOAD PUSH32 0xEC442F0500000000000000000000000000000000000000000000000000000000 DUP2 MSTORE PUSH1 0x4 ADD PUSH3 0x498 SWAP2 SWAP1 PUSH3 0xB3D JUMP JUMPDEST PUSH1 0x40 MLOAD DUP1 SWAP2 SUB SWAP1 REVERT JUMPDEST PUSH3 0x4B4 PUSH0 DUP4 DUP4 PUSH3 0x52B PUSH1 0x20 SHL PUSH1 0x20 SHR JUMP JUMPDEST POP POP JUMP JUMPDEST PUSH0 DUP1 DUP3 SWAP1 POP PUSH1 0x1F DUP2 MLOAD GT ISZERO PUSH3 0x507 JUMPI DUP3 PUSH1 0x40 MLOAD PUSH32 0x305A27A900000000000000000000000000000000000000000000000000000000 DUP2 MSTORE PUSH1 0x4 ADD PUSH3 0x4FE SWAP2 SWAP1 PUSH3 0xE8B JUMP JUMPDEST PUSH1 0x40 MLOAD DUP1 SWAP2 SUB SWAP1 REVERT JUMPDEST DUP1 MLOAD DUP2 PUSH3 0x515 SWAP1 PUSH3 0xEDC JUMP JUMPDEST PUSH0 SHR OR PUSH0 SHL SWAP2 POP POP SWAP2 SWAP1 POP JUMP JUMPDEST PUSH0 DUP2 SWAP1 POP SWAP2 SWAP1 POP JUMP JUMPDEST PUSH0 PUSH20 0xFFFFFFFFFFFFFFFFFFFFFFFFFFFFFFFFFFFFFFFF AND DUP4 PUSH20 0xFFFFFFFFFFFFFFFFFFFFFFFFFFFFFFFFFFFFFFFF AND SUB PUSH3 0x57F JUMPI DUP1 PUSH1 0x2 PUSH0 DUP3 DUP3 SLOAD PUSH3 0x572 SWAP2 SWAP1 PUSH3 0xF4B JUMP JUMPDEST SWAP3 POP POP DUP2 SWAP1 SSTORE POP PUSH3 0x650 JUMP JUMPDEST PUSH0 DUP1 PUSH0 DUP6 PUSH20 0xFFFFFFFFFFFFFFFFFFFFFFFFFFFFFFFFFFFFFFFF AND PUSH20 0xFFFFFFFFFFFFFFFFFFFFFFFFFFFFFFFFFFFFFFFF AND DUP2 MSTORE PUSH1 0x20 ADD SWAP1 DUP2 MSTORE PUSH1 0x20 ADD PUSH0 KECCAK256 SLOAD SWAP1 POP DUP2 DUP2 LT ISZERO PUSH3 0x60B JUMPI DUP4 DUP2 DUP4 PUSH1 0x40 MLOAD PUSH32 0xE450D38C00000000000000000000000000000000000000000000000000000000 DUP2 MSTORE PUSH1 0x4 ADD PUSH3 0x602 SWAP4 SWAP3 SWAP2 SWAP1 PUSH3 0xF85 JUMP JUMPDEST PUSH1 0x40 MLOAD DUP1 SWAP2 SUB SWAP1 REVERT JUMPDEST DUP2 DUP2 SUB PUSH0 DUP1 DUP7 PUSH20 0xFFFFFFFFFFFFFFFFFFFFFFFFFFFFFFFFFFFFFFFF AND PUSH20 0xFFFFFFFFFFFFFFFFFFFFFFFFFFFFFFFFFFFFFFFF AND DUP2 MSTORE PUSH1 0x20 ADD SWAP1 DUP2 MSTORE PUSH1 0x20 ADD PUSH0 KECCAK256 DUP2 SWAP1 SSTORE POP POP JUMPDEST PUSH0 PUSH20 0xFFFFFFFFFFFFFFFFFFFFFFFFFFFFFFFFFFFFFFFF AND DUP3 PUSH20 0xFFFFFFFFFFFFFFFFFFFFFFFFFFFFFFFFFFFFFFFF AND SUB PUSH3 0x699 JUMPI DUP1 PUSH1 0x2 PUSH0 DUP3 DUP3 SLOAD SUB SWAP3 POP POP DUP2 SWAP1 SSTORE POP PUSH3 0x6E3 JUMP JUMPDEST DUP1 PUSH0 DUP1 DUP5 PUSH20 0xFFFFFFFFFFFFFFFFFFFFFFFFFFFFFFFFFFFFFFFF AND PUSH20 0xFFFFFFFFFFFFFFFFFFFFFFFFFFFFFFFFFFFFFFFF AND DUP2 MSTORE PUSH1 0x20 ADD SWAP1 DUP2 MSTORE PUSH1 0x20 ADD PUSH0 KECCAK256 PUSH0 DUP3 DUP3 SLOAD ADD SWAP3 POP POP DUP2 SWAP1 SSTORE POP JUMPDEST DUP2 PUSH20 0xFFFFFFFFFFFFFFFFFFFFFFFFFFFFFFFFFFFFFFFF AND DUP4 PUSH20 0xFFFFFFFFFFFFFFFFFFFFFFFFFFFFFFFFFFFFFFFF AND PUSH32 0xDDF252AD1BE2C89B69C2B068FC378DAA952BA7F163C4A11628F55A4DF523B3EF DUP4 PUSH1 0x40 MLOAD PUSH3 0x742 SWAP2 SWAP1 PUSH3 0xFC0 JUMP JUMPDEST PUSH1 0x40 MLOAD DUP1 SWAP2 SUB SWAP1 LOG3 POP POP POP JUMP JUMPDEST PUSH0 DUP1 REVERT JUMPDEST PUSH0 PUSH20 0xFFFFFFFFFFFFFFFFFFFFFFFFFFFFFFFFFFFFFFFF DUP3 AND SWAP1 POP SWAP2 SWAP1 POP JUMP JUMPDEST PUSH0 PUSH3 0x77E DUP3 PUSH3 0x753 JUMP JUMPDEST SWAP1 POP SWAP2 SWAP1 POP JUMP JUMPDEST PUSH3 0x790 DUP2 PUSH3 0x772 JUMP JUMPDEST DUP2 EQ PUSH3 0x79B JUMPI PUSH0 DUP1 REVERT JUMPDEST POP JUMP JUMPDEST PUSH0 DUP2 MLOAD SWAP1 POP PUSH3 0x7AE DUP2 PUSH3 0x785 JUMP JUMPDEST SWAP3 SWAP2 POP POP JUMP JUMPDEST PUSH0 PUSH1 0x20 DUP3 DUP5 SUB SLT ISZERO PUSH3 0x7CC JUMPI PUSH3 0x7CB PUSH3 0x74F JUMP JUMPDEST JUMPDEST PUSH0 PUSH3 0x7DB DUP5 DUP3 DUP6 ADD PUSH3 0x79E JUMP JUMPDEST SWAP2 POP POP SWAP3 SWAP2 POP POP JUMP JUMPDEST PUSH0 DUP2 MLOAD SWAP1 POP SWAP2 SWAP1 POP JUMP JUMPDEST PUSH32 0x4E487B7100000000000000000000000000000000000000000000000000000000 PUSH0 MSTORE PUSH1 0x41 PUSH1 0x4 MSTORE PUSH1 0x24 PUSH0 REVERT JUMPDEST PUSH32 0x4E487B7100000000000000000000000000000000000000000000000000000000 PUSH0 MSTORE PUSH1 0x22 PUSH1 0x4 MSTORE PUSH1 0x24 PUSH0 REVERT JUMPDEST PUSH0 PUSH1 0x2 DUP3 DIV SWAP1 POP PUSH1 0x1 DUP3 AND DUP1 PUSH3 0x860 JUMPI PUSH1 0x7F DUP3 AND SWAP2 POP JUMPDEST PUSH1 0x20 DUP3 LT DUP2 SUB PUSH3 0x876 JUMPI PUSH3 0x875 PUSH3 0x81B JUMP JUMPDEST JUMPDEST POP SWAP2 SWAP1 POP JUMP JUMPDEST PUSH0 DUP2 SWAP1 POP DUP2 PUSH0 MSTORE PUSH1 0x20 PUSH0 KECCAK256 SWAP1 POP SWAP2 SWAP1 POP JUMP JUMPDEST PUSH0 PUSH1 0x20 PUSH1 0x1F DUP4 ADD DIV SWAP1 POP SWAP2 SWAP1 POP JUMP JUMPDEST PUSH0 DUP3 DUP3 SHL SWAP1 POP SWAP3 SWAP2 POP POP JUMP JUMPDEST PUSH0 PUSH1 0x8 DUP4 MUL PUSH3 0x8DA PUSH32 0xFFFFFFFFFFFFFFFFFFFFFFFFFFFFFFFFFFFFFFFFFFFFFFFFFFFFFFFFFFFFFFFF DUP3 PUSH3 0x89D JUMP JUMPDEST PUSH3 0x8E6 DUP7 DUP4 PUSH3 0x89D JUMP JUMPDEST SWAP6 POP DUP1 NOT DUP5 AND SWAP4 POP DUP1 DUP7 AND DUP5 OR SWAP3 POP POP POP SWAP4 SWAP3 POP POP POP JUMP JUMPDEST PUSH0 DUP2 SWAP1 POP SWAP2 SWAP1 POP JUMP JUMPDEST PUSH0 DUP2 SWAP1 POP SWAP2 SWAP1 POP JUMP JUMPDEST PUSH0 PUSH3 0x930 PUSH3 0x92A PUSH3 0x924 DUP5 PUSH3 0x8FE JUMP JUMPDEST PUSH3 0x907 JUMP JUMPDEST PUSH3 0x8FE JUMP JUMPDEST SWAP1 POP SWAP2 SWAP1 POP JUMP JUMPDEST PUSH0 DUP2 SWAP1 POP SWAP2 SWAP1 POP JUMP JUMPDEST PUSH3 0x94B DUP4 PUSH3 0x910 JUMP JUMPDEST PUSH3 0x963 PUSH3 0x95A DUP3 PUSH3 0x937 JUMP JUMPDEST DUP5 DUP5 SLOAD PUSH3 0x8A9 JUMP JUMPDEST DUP3 SSTORE POP POP POP POP JUMP JUMPDEST PUSH0 SWAP1 JUMP JUMPDEST PUSH3 0x979 PUSH3 0x96B JUMP JUMPDEST PUSH3 0x986 DUP2 DUP5 DUP5 PUSH3 0x940 JUMP JUMPDEST POP POP POP JUMP JUMPDEST JUMPDEST DUP2 DUP2 LT ISZERO PUSH3 0x9AD JUMPI PUSH3 0x9A1 PUSH0 DUP3 PUSH3 0x96F JUMP JUMPDEST PUSH1 0x1 DUP2 ADD SWAP1 POP PUSH3 0x98C JUMP JUMPDEST POP POP JUMP JUMPDEST PUSH1 0x1F DUP3 GT ISZERO PUSH3 0x9FC JUMPI PUSH3 0x9C6 DUP2 PUSH3 0x87C JUMP JUMPDEST PUSH3 0x9D1 DUP5 PUSH3 0x88E JUMP JUMPDEST DUP2 ADD PUSH1 0x20 DUP6 LT ISZERO PUSH3 0x9E1 JUMPI DUP2 SWAP1 POP JUMPDEST PUSH3 0x9F9 PUSH3 0x9F0 DUP6 PUSH3 0x88E JUMP JUMPDEST DUP4 ADD DUP3 PUSH3 0x98B JUMP JUMPDEST POP POP JUMPDEST POP POP POP JUMP JUMPDEST PUSH0 DUP3 DUP3 SHR SWAP1 POP SWAP3 SWAP2 POP POP JUMP JUMPDEST PUSH0 PUSH3 0xA1E PUSH0 NOT DUP5 PUSH1 0x8 MUL PUSH3 0xA01 JUMP JUMPDEST NOT DUP1 DUP4 AND SWAP2 POP POP SWAP3 SWAP2 POP POP JUMP JUMPDEST PUSH0 PUSH3 0xA38 DUP4 DUP4 PUSH3 0xA0D JUMP JUMPDEST SWAP2 POP DUP3 PUSH1 0x2 MUL DUP3 OR SWAP1 POP SWAP3 SWAP2 POP POP JUMP JUMPDEST PUSH3 0xA53 DUP3 PUSH3 0x7E4 JUMP JUMPDEST PUSH8 0xFFFFFFFFFFFFFFFF DUP2 GT ISZERO PUSH3 0xA6F JUMPI PUSH3 0xA6E PUSH3 0x7EE JUMP JUMPDEST JUMPDEST PUSH3 0xA7B DUP3 SLOAD PUSH3 0x848 JUMP JUMPDEST PUSH3 0xA88 DUP3 DUP3 DUP6 PUSH3 0x9B1 JUMP JUMPDEST PUSH0 PUSH1 0x20 SWAP1 POP PUSH1 0x1F DUP4 GT PUSH1 0x1 DUP2 EQ PUSH3 0xABE JUMPI PUSH0 DUP5 ISZERO PUSH3 0xAA9 JUMPI DUP3 DUP8 ADD MLOAD SWAP1 POP JUMPDEST PUSH3 0xAB5 DUP6 DUP3 PUSH3 0xA2B JUMP JUMPDEST DUP7 SSTORE POP PUSH3 0xB24 JUMP JUMPDEST PUSH1 0x1F NOT DUP5 AND PUSH3 0xACE DUP7 PUSH3 0x87C JUMP JUMPDEST PUSH0 JUMPDEST DUP3 DUP2 LT ISZERO PUSH3 0xAF7 JUMPI DUP5 DUP10 ADD MLOAD DUP3 SSTORE PUSH1 0x1 DUP3 ADD SWAP2 POP PUSH1 0x20 DUP6 ADD SWAP5 POP PUSH1 0x20 DUP2 ADD SWAP1 POP PUSH3 0xAD0 JUMP JUMPDEST DUP7 DUP4 LT ISZERO PUSH3 0xB17 JUMPI DUP5 DUP10 ADD MLOAD PUSH3 0xB13 PUSH1 0x1F DUP10 AND DUP3 PUSH3 0xA0D JUMP JUMPDEST DUP4 SSTORE POP JUMPDEST PUSH1 0x1 PUSH1 0x2 DUP9 MUL ADD DUP9 SSTORE POP POP POP JUMPDEST POP POP POP POP POP POP JUMP JUMPDEST PUSH3 0xB37 DUP2 PUSH3 0x772 JUMP JUMPDEST DUP3 MSTORE POP POP JUMP JUMPDEST PUSH0 PUSH1 0x20 DUP3 ADD SWAP1 POP PUSH3 0xB52 PUSH0 DUP4 ADD DUP5 PUSH3 0xB2C JUMP JUMPDEST SWAP3 SWAP2 POP POP JUMP JUMPDEST PUSH32 0x4E487B7100000000000000000000000000000000000000000000000000000000 PUSH0 MSTORE PUSH1 0x11 PUSH1 0x4 MSTORE PUSH1 0x24 PUSH0 REVERT JUMPDEST PUSH0 DUP2 PUSH1 0x1 SHR SWAP1 POP SWAP2 SWAP1 POP JUMP JUMPDEST PUSH0 DUP1 DUP3 SWAP2 POP DUP4 SWAP1 POP JUMPDEST PUSH1 0x1 DUP6 GT ISZERO PUSH3 0xBE2 JUMPI DUP1 DUP7 DIV DUP2 GT ISZERO PUSH3 0xBBA JUMPI PUSH3 0xBB9 PUSH3 0xB58 JUMP JUMPDEST JUMPDEST PUSH1 0x1 DUP6 AND ISZERO PUSH3 0xBCA JUMPI DUP1 DUP3 MUL SWAP2 POP JUMPDEST DUP1 DUP2 MUL SWAP1 POP PUSH3 0xBDA DUP6 PUSH3 0xB85 JUMP JUMPDEST SWAP5 POP PUSH3 0xB9A JUMP JUMPDEST SWAP5 POP SWAP5 SWAP3 POP POP POP JUMP JUMPDEST PUSH0 DUP3 PUSH3 0xBFC JUMPI PUSH1 0x1 SWAP1 POP PUSH3 0xCCE JUMP JUMPDEST DUP2 PUSH3 0xC0B JUMPI PUSH0 SWAP1 POP PUSH3 0xCCE JUMP JUMPDEST DUP2 PUSH1 0x1 DUP2 EQ PUSH3 0xC24 JUMPI PUSH1 0x2 DUP2 EQ PUSH3 0xC2F JUMPI PUSH3 0xC65 JUMP JUMPDEST PUSH1 0x1 SWAP2 POP POP PUSH3 0xCCE JUMP JUMPDEST PUSH1 0xFF DUP5 GT ISZERO PUSH3 0xC44 JUMPI PUSH3 0xC43 PUSH3 0xB58 JUMP JUMPDEST JUMPDEST DUP4 PUSH1 0x2 EXP SWAP2 POP DUP5 DUP3 GT ISZERO PUSH3 0xC5E JUMPI PUSH3 0xC5D PUSH3 0xB58 JUMP JUMPDEST JUMPDEST POP PUSH3 0xCCE JUMP JUMPDEST POP PUSH1 0x20 DUP4 LT PUSH2 0x133 DUP4 LT AND PUSH1 0x4E DUP5 LT PUSH1 0xB DUP5 LT AND OR ISZERO PUSH3 0xC9F JUMPI DUP3 DUP3 EXP SWAP1 POP DUP4 DUP2 GT ISZERO PUSH3 0xC99 JUMPI PUSH3 0xC98 PUSH3 0xB58 JUMP JUMPDEST JUMPDEST PUSH3 0xCCE JUMP JUMPDEST PUSH3 0xCAE DUP5 DUP5 DUP5 PUSH1 0x1 PUSH3 0xB91 JUMP JUMPDEST SWAP3 POP SWAP1 POP DUP2 DUP5 DIV DUP2 GT ISZERO PUSH3 0xCC8 JUMPI PUSH3 0xCC7 PUSH3 0xB58 JUMP JUMPDEST JUMPDEST DUP2 DUP2 MUL SWAP1 POP JUMPDEST SWAP4 SWAP3 POP POP POP JUMP JUMPDEST PUSH0 PUSH1 0xFF DUP3 AND SWAP1 POP SWAP2 SWAP1 POP JUMP JUMPDEST PUSH0 PUSH3 0xCED DUP3 PUSH3 0x8FE JUMP JUMPDEST SWAP2 POP PUSH3 0xCFA DUP4 PUSH3 0xCD5 JUMP JUMPDEST SWAP3 POP PUSH3 0xD29 PUSH32 0xFFFFFFFFFFFFFFFFFFFFFFFFFFFFFFFFFFFFFFFFFFFFFFFFFFFFFFFFFFFFFFFF DUP5 DUP5 PUSH3 0xBEB JUMP JUMPDEST SWAP1 POP SWAP3 SWAP2 POP POP JUMP JUMPDEST PUSH0 PUSH3 0xD3D DUP3 PUSH3 0x8FE JUMP JUMPDEST SWAP2 POP PUSH3 0xD4A DUP4 PUSH3 0x8FE JUMP JUMPDEST SWAP3 POP DUP3 DUP3 MUL PUSH3 0xD5A DUP2 PUSH3 0x8FE JUMP JUMPDEST SWAP2 POP DUP3 DUP3 DIV DUP5 EQ DUP4 ISZERO OR PUSH3 0xD74 JUMPI PUSH3 0xD73 PUSH3 0xB58 JUMP JUMPDEST JUMPDEST POP SWAP3 SWAP2 POP POP JUMP JUMPDEST PUSH0 DUP2 SWAP1 POP SWAP2 SWAP1 POP JUMP JUMPDEST PUSH3 0xD8F DUP2 PUSH3 0xD7B JUMP JUMPDEST DUP3 MSTORE POP POP JUMP JUMPDEST PUSH3 0xDA0 DUP2 PUSH3 0x8FE JUMP JUMPDEST DUP3 MSTORE POP POP JUMP JUMPDEST PUSH0 PUSH1 0xA0 DUP3 ADD SWAP1 POP PUSH3 0xDBB PUSH0 DUP4 ADD DUP9 PUSH3 0xD84 JUMP JUMPDEST PUSH3 0xDCA PUSH1 0x20 DUP4 ADD DUP8 PUSH3 0xD84 JUMP JUMPDEST PUSH3 0xDD9 PUSH1 0x40 DUP4 ADD DUP7 PUSH3 0xD84 JUMP JUMPDEST PUSH3 0xDE8 PUSH1 0x60 DUP4 ADD DUP6 PUSH3 0xD95 JUMP JUMPDEST PUSH3 0xDF7 PUSH1 0x80 DUP4 ADD DUP5 PUSH3 0xB2C JUMP JUMPDEST SWAP7 SWAP6 POP POP POP POP POP POP JUMP JUMPDEST PUSH0 DUP3 DUP3 MSTORE PUSH1 0x20 DUP3 ADD SWAP1 POP SWAP3 SWAP2 POP POP JUMP JUMPDEST PUSH0 JUMPDEST DUP4 DUP2 LT ISZERO PUSH3 0xE30 JUMPI DUP1 DUP3 ADD MLOAD DUP2 DUP5 ADD MSTORE PUSH1 0x20 DUP2 ADD SWAP1 POP PUSH3 0xE13 JUMP JUMPDEST PUSH0 DUP5 DUP5 ADD MSTORE POP POP POP POP JUMP JUMPDEST PUSH0 PUSH1 0x1F NOT PUSH1 0x1F DUP4 ADD AND SWAP1 POP SWAP2 SWAP1 POP JUMP JUMPDEST PUSH0 PUSH3 0xE57 DUP3 PUSH3 0x7E4 JUMP JUMPDEST PUSH3 0xE63 DUP2 DUP6 PUSH3 0xE01 JUMP JUMPDEST SWAP4 POP PUSH3 0xE75 DUP2 DUP6 PUSH1 0x20 DUP7 ADD PUSH3 0xE11 JUMP JUMPDEST PUSH3 0xE80 DUP2 PUSH3 0xE3B JUMP JUMPDEST DUP5 ADD SWAP2 POP POP SWAP3 SWAP2 POP POP JUMP JUMPDEST PUSH0 PUSH1 0x20 DUP3 ADD SWAP1 POP DUP2 DUP2 SUB PUSH0 DUP4 ADD MSTORE PUSH3 0xEA5 DUP2 DUP5 PUSH3 0xE4B JUMP JUMPDEST SWAP1 POP SWAP3 SWAP2 POP POP JUMP JUMPDEST PUSH0 DUP2 MLOAD SWAP1 POP SWAP2 SWAP1 POP JUMP JUMPDEST PUSH0 DUP2 SWAP1 POP PUSH1 0x20 DUP3 ADD SWAP1 POP SWAP2 SWAP1 POP JUMP JUMPDEST PUSH0 PUSH3 0xED3 DUP3 MLOAD PUSH3 0xD7B JUMP JUMPDEST DUP1 SWAP2 POP POP SWAP2 SWAP1 POP JUMP JUMPDEST PUSH0 PUSH3 0xEE8 DUP3 PUSH3 0xEAD JUMP JUMPDEST DUP3 PUSH3 0xEF4 DUP5 PUSH3 0xEB7 JUMP JUMPDEST SWAP1 POP PUSH3 0xF01 DUP2 PUSH3 0xEC6 JUMP JUMPDEST SWAP3 POP PUSH1 0x20 DUP3 LT ISZERO PUSH3 0xF44 JUMPI PUSH3 0xF3F PUSH32 0xFFFFFFFFFFFFFFFFFFFFFFFFFFFFFFFFFFFFFFFFFFFFFFFFFFFFFFFFFFFFFFFF DUP4 PUSH1 0x20 SUB PUSH1 0x8 MUL PUSH3 0x89D JUMP JUMPDEST DUP4 AND SWAP3 POP JUMPDEST POP POP SWAP2 SWAP1 POP JUMP JUMPDEST PUSH0 PUSH3 0xF57 DUP3 PUSH3 0x8FE JUMP JUMPDEST SWAP2 POP PUSH3 0xF64 DUP4 PUSH3 0x8FE JUMP JUMPDEST SWAP3 POP DUP3 DUP3 ADD SWAP1 POP DUP1 DUP3 GT ISZERO PUSH3 0xF7F JUMPI PUSH3 0xF7E PUSH3 0xB58 JUMP JUMPDEST JUMPDEST SWAP3 SWAP2 POP POP JUMP JUMPDEST PUSH0 PUSH1 0x60 DUP3 ADD SWAP1 POP PUSH3 0xF9A PUSH0 DUP4 ADD DUP7 PUSH3 0xB2C JUMP JUMPDEST PUSH3 0xFA9 PUSH1 0x20 DUP4 ADD DUP6 PUSH3 0xD95 JUMP JUMPDEST PUSH3 0xFB8 PUSH1 0x40 DUP4 ADD DUP5 PUSH3 0xD95 JUMP JUMPDEST SWAP5 SWAP4 POP POP POP POP JUMP JUMPDEST PUSH0 PUSH1 0x20 DUP3 ADD SWAP1 POP PUSH3 0xFD5 PUSH0 DUP4 ADD DUP5 PUSH3 0xD95 JUMP JUMPDEST SWAP3 SWAP2 POP POP JUMP JUMPDEST PUSH1 0x80 MLOAD PUSH1 0xA0 MLOAD PUSH1 0xC0 MLOAD PUSH1 0xE0 MLOAD PUSH2 0x100 MLOAD PUSH2 0x120 MLOAD PUSH2 0x140 MLOAD PUSH2 0x1EA8 PUSH3 0x102D PUSH0 CODECOPY PUSH0 PUSH2 0xD4F ADD MSTORE PUSH0 PUSH2 0xD14 ADD MSTORE PUSH0 PUSH2 0x1248 ADD MSTORE PUSH0 PUSH2 0x1227 ADD MSTORE PUSH0 PUSH2 0xA49 ADD MSTORE PUSH0 PUSH2 0xA9F ADD MSTORE PUSH0 PUSH2 0xAC8 ADD MSTORE PUSH2 0x1EA8 PUSH0 RETURN INVALID PUSH1 0x80 PUSH1 0x40 MSTORE CALLVALUE DUP1 ISZERO PUSH2 0xF JUMPI PUSH0 DUP1 REVERT JUMPDEST POP PUSH1 0x4 CALLDATASIZE LT PUSH2 0x109 JUMPI PUSH0 CALLDATALOAD PUSH1 0xE0 SHR DUP1 PUSH4 0x715018A6 GT PUSH2 0xA0 JUMPI DUP1 PUSH4 0x95D89B41 GT PUSH2 0x6F JUMPI DUP1 PUSH4 0x95D89B41 EQ PUSH2 0x2AD JUMPI DUP1 PUSH4 0xA9059CBB EQ PUSH2 0x2CB JUMPI DUP1 PUSH4 0xD505ACCF EQ PUSH2 0x2FB JUMPI DUP1 PUSH4 0xDD62ED3E EQ PUSH2 0x317 JUMPI DUP1 PUSH4 0xF2FDE38B EQ PUSH2 0x347 JUMPI PUSH2 0x109 JUMP JUMPDEST DUP1 PUSH4 0x715018A6 EQ PUSH2 0x231 JUMPI DUP1 PUSH4 0x7ECEBE00 EQ PUSH2 0x23B JUMPI DUP1 PUSH4 0x84B0196E EQ PUSH2 0x26B JUMPI DUP1 PUSH4 0x8DA5CB5B EQ PUSH2 0x28F JUMPI PUSH2 0x109 JUMP JUMPDEST DUP1 PUSH4 0x313CE567 GT PUSH2 0xDC JUMPI DUP1 PUSH4 0x313CE567 EQ PUSH2 0x1A9 JUMPI DUP1 PUSH4 0x3644E515 EQ PUSH2 0x1C7 JUMPI DUP1 PUSH4 0x40C10F19 EQ PUSH2 0x1E5 JUMPI DUP1 PUSH4 0x70A08231 EQ PUSH2 0x201 JUMPI PUSH2 0x109 JUMP JUMPDEST DUP1 PUSH4 0x6FDDE03 EQ PUSH2 0x10D JUMPI DUP1 PUSH4 0x95EA7B3 EQ PUSH2 0x12B JUMPI DUP1 PUSH4 0x18160DDD EQ PUSH2 0x15B JUMPI DUP1 PUSH4 0x23B872DD EQ PUSH2 0x179 JUMPI JUMPDEST PUSH0 DUP1 REVERT JUMPDEST PUSH2 0x115 PUSH2 0x363 JUMP JUMPDEST PUSH1 0x40 MLOAD PUSH2 0x122 SWAP2 SWAP1 PUSH2 0x1718 JUMP JUMPDEST PUSH1 0x40 MLOAD DUP1 SWAP2 SUB SWAP1 RETURN JUMPDEST PUSH2 0x145 PUSH1 0x4 DUP1 CALLDATASIZE SUB DUP2 ADD SWAP1 PUSH2 0x140 SWAP2 SWAP1 PUSH2 0x17C9 JUMP JUMPDEST PUSH2 0x3F3 JUMP JUMPDEST PUSH1 0x40 MLOAD PUSH2 0x152 SWAP2 SWAP1 PUSH2 0x1821 JUMP JUMPDEST PUSH1 0x40 MLOAD DUP1 SWAP2 SUB SWAP1 RETURN JUMPDEST PUSH2 0x163 PUSH2 0x415 JUMP JUMPDEST PUSH1 0x40 MLOAD PUSH2 0x170 SWAP2 SWAP1 PUSH2 0x1849 JUMP JUMPDEST PUSH1 0x40 MLOAD DUP1 SWAP2 SUB SWAP1 RETURN JUMPDEST PUSH2 0x193 PUSH1 0x4 DUP1 CALLDATASIZE SUB DUP2 ADD SWAP1 PUSH2 0x18E SWAP2 SWAP1 PUSH2 0x1862 JUMP JUMPDEST PUSH2 0x41E JUMP JUMPDEST PUSH1 0x40 MLOAD PUSH2 0x1A0 SWAP2 SWAP1 PUSH2 0x1821 JUMP JUMPDEST PUSH1 0x40 MLOAD DUP1 SWAP2 SUB SWAP1 RETURN JUMPDEST PUSH2 0x1B1 PUSH2 0x44C JUMP JUMPDEST PUSH1 0x40 MLOAD PUSH2 0x1BE SWAP2 SWAP1 PUSH2 0x18CD JUMP JUMPDEST PUSH1 0x40 MLOAD DUP1 SWAP2 SUB SWAP1 RETURN JUMPDEST PUSH2 0x1CF PUSH2 0x454 JUMP JUMPDEST PUSH1 0x40 MLOAD PUSH2 0x1DC SWAP2 SWAP1 PUSH2 0x18FE JUMP JUMPDEST PUSH1 0x40 MLOAD DUP1 SWAP2 SUB SWAP1 RETURN JUMPDEST PUSH2 0x1FF PUSH1 0x4 DUP1 CALLDATASIZE SUB DUP2 ADD SWAP1 PUSH2 0x1FA SWAP2 SWAP1 PUSH2 0x17C9 JUMP JUMPDEST PUSH2 0x462 JUMP JUMPDEST STOP JUMPDEST PUSH2 0x21B PUSH1 0x4 DUP1 CALLDATASIZE SUB DUP2 ADD SWAP1 PUSH2 0x216 SWAP2 SWAP1 PUSH2 0x1917 JUMP JUMPDEST PUSH2 0x478 JUMP JUMPDEST PUSH1 0x40 MLOAD PUSH2 0x228 SWAP2 SWAP1 PUSH2 0x1849 JUMP JUMPDEST PUSH1 0x40 MLOAD DUP1 SWAP2 SUB SWAP1 RETURN JUMPDEST PUSH2 0x239 PUSH2 0x4BD JUMP JUMPDEST STOP JUMPDEST PUSH2 0x255 PUSH1 0x4 DUP1 CALLDATASIZE SUB DUP2 ADD SWAP1 PUSH2 0x250 SWAP2 SWAP1 PUSH2 0x1917 JUMP JUMPDEST PUSH2 0x4D0 JUMP JUMPDEST PUSH1 0x40 MLOAD PUSH2 0x262 SWAP2 SWAP1 PUSH2 0x1849 JUMP JUMPDEST PUSH1 0x40 MLOAD DUP1 SWAP2 SUB SWAP1 RETURN JUMPDEST PUSH2 0x273 PUSH2 0x4E1 JUMP JUMPDEST PUSH1 0x40 MLOAD PUSH2 0x286 SWAP8 SWAP7 SWAP6 SWAP5 SWAP4 SWAP3 SWAP2 SWAP1 PUSH2 0x1A42 JUMP JUMPDEST PUSH1 0x40 MLOAD DUP1 SWAP2 SUB SWAP1 RETURN JUMPDEST PUSH2 0x297 PUSH2 0x586 JUMP JUMPDEST PUSH1 0x40 MLOAD PUSH2 0x2A4 SWAP2 SWAP1 PUSH2 0x1AC4 JUMP JUMPDEST PUSH1 0x40 MLOAD DUP1 SWAP2 SUB SWAP1 RETURN JUMPDEST PUSH2 0x2B5 PUSH2 0x5AE JUMP JUMPDEST PUSH1 0x40 MLOAD PUSH2 0x2C2 SWAP2 SWAP1 PUSH2 0x1718 JUMP JUMPDEST PUSH1 0x40 MLOAD DUP1 SWAP2 SUB SWAP1 RETURN JUMPDEST PUSH2 0x2E5 PUSH1 0x4 DUP1 CALLDATASIZE SUB DUP2 ADD SWAP1 PUSH2 0x2E0 SWAP2 SWAP1 PUSH2 0x17C9 JUMP JUMPDEST PUSH2 0x63E JUMP JUMPDEST PUSH1 0x40 MLOAD PUSH2 0x2F2 SWAP2 SWAP1 PUSH2 0x1821 JUMP JUMPDEST PUSH1 0x40 MLOAD DUP1 SWAP2 SUB SWAP1 RETURN JUMPDEST PUSH2 0x315 PUSH1 0x4 DUP1 CALLDATASIZE SUB DUP2 ADD SWAP1 PUSH2 0x310 SWAP2 SWAP1 PUSH2 0x1B31 JUMP JUMPDEST PUSH2 0x660 JUMP JUMPDEST STOP JUMPDEST PUSH2 0x331 PUSH1 0x4 DUP1 CALLDATASIZE SUB DUP2 ADD SWAP1 PUSH2 0x32C SWAP2 SWAP1 PUSH2 0x1BCE JUMP JUMPDEST PUSH2 0x7A5 JUMP JUMPDEST PUSH1 0x40 MLOAD PUSH2 0x33E SWAP2 SWAP1 PUSH2 0x1849 JUMP JUMPDEST PUSH1 0x40 MLOAD DUP1 SWAP2 SUB SWAP1 RETURN JUMPDEST PUSH2 0x361 PUSH1 0x4 DUP1 CALLDATASIZE SUB DUP2 ADD SWAP1 PUSH2 0x35C SWAP2 SWAP1 PUSH2 0x1917 JUMP JUMPDEST PUSH2 0x827 JUMP JUMPDEST STOP JUMPDEST PUSH1 0x60 PUSH1 0x3 DUP1 SLOAD PUSH2 0x372 SWAP1 PUSH2 0x1C39 JUMP JUMPDEST DUP1 PUSH1 0x1F ADD PUSH1 0x20 DUP1 SWAP2 DIV MUL PUSH1 0x20 ADD PUSH1 0x40 MLOAD SWAP1 DUP2 ADD PUSH1 0x40 MSTORE DUP1 SWAP3 SWAP2 SWAP1 DUP2 DUP2 MSTORE PUSH1 0x20 ADD DUP3 DUP1 SLOAD PUSH2 0x39E SWAP1 PUSH2 0x1C39 JUMP JUMPDEST DUP1 ISZERO PUSH2 0x3E9 JUMPI DUP1 PUSH1 0x1F LT PUSH2 0x3C0 JUMPI PUSH2 0x100 DUP1 DUP4 SLOAD DIV MUL DUP4 MSTORE SWAP2 PUSH1 0x20 ADD SWAP2 PUSH2 0x3E9 JUMP JUMPDEST DUP3 ADD SWAP2 SWAP1 PUSH0 MSTORE PUSH1 0x20 PUSH0 KECCAK256 SWAP1 JUMPDEST DUP2 SLOAD DUP2 MSTORE SWAP1 PUSH1 0x1 ADD SWAP1 PUSH1 0x20 ADD DUP1 DUP4 GT PUSH2 0x3CC JUMPI DUP3 SWAP1 SUB PUSH1 0x1F AND DUP3 ADD SWAP2 JUMPDEST POP POP POP POP POP SWAP1 POP SWAP1 JUMP JUMPDEST PUSH0 DUP1 PUSH2 0x3FD PUSH2 0x8AB JUMP JUMPDEST SWAP1 POP PUSH2 0x40A DUP2 DUP6 DUP6 PUSH2 0x8B2 JUMP JUMPDEST PUSH1 0x1 SWAP2 POP POP SWAP3 SWAP2 POP POP JUMP JUMPDEST PUSH0 PUSH1 0x2 SLOAD SWAP1 POP SWAP1 JUMP JUMPDEST PUSH0 DUP1 PUSH2 0x428 PUSH2 0x8AB JUMP JUMPDEST SWAP1 POP PUSH2 0x435 DUP6 DUP3 DUP6 PUSH2 0x8C4 JUMP JUMPDEST PUSH2 0x440 DUP6 DUP6 DUP6 PUSH2 0x956 JUMP JUMPDEST PUSH1 0x1 SWAP2 POP POP SWAP4 SWAP3 POP POP POP JUMP JUMPDEST PUSH0 PUSH1 0x12 SWAP1 POP SWAP1 JUMP JUMPDEST PUSH0 PUSH2 0x45D PUSH2 0xA46 JUMP JUMPDEST SWAP1 POP SWAP1 JUMP JUMPDEST PUSH2 0x46A PUSH2 0xAFC JUMP JUMPDEST PUSH2 0x474 DUP3 DUP3 PUSH2 0xB83 JUMP JUMPDEST POP POP JUMP JUMPDEST PUSH0 DUP1 PUSH0 DUP4 PUSH20 0xFFFFFFFFFFFFFFFFFFFFFFFFFFFFFFFFFFFFFFFF AND PUSH20 0xFFFFFFFFFFFFFFFFFFFFFFFFFFFFFFFFFFFFFFFF AND DUP2 MSTORE PUSH1 0x20 ADD SWAP1 DUP2 MSTORE PUSH1 0x20 ADD PUSH0 KECCAK256 SLOAD SWAP1 POP SWAP2 SWAP1 POP JUMP JUMPDEST PUSH2 0x4C5 PUSH2 0xAFC JUMP JUMPDEST PUSH2 0x4CE PUSH0 PUSH2 0xC02 JUMP JUMPDEST JUMP JUMPDEST PUSH0 PUSH2 0x4DA DUP3 PUSH2 0xCC5 JUMP JUMPDEST SWAP1 POP SWAP2 SWAP1 POP JUMP JUMPDEST PUSH0 PUSH1 0x60 DUP1 PUSH0 DUP1 PUSH0 PUSH1 0x60 PUSH2 0x4F2 PUSH2 0xD0B JUMP JUMPDEST PUSH2 0x4FA PUSH2 0xD46 JUMP JUMPDEST CHAINID ADDRESS PUSH0 DUP1 SHL PUSH0 PUSH8 0xFFFFFFFFFFFFFFFF DUP2 GT ISZERO PUSH2 0x519 JUMPI PUSH2 0x518 PUSH2 0x1C69 JUMP JUMPDEST JUMPDEST PUSH1 0x40 MLOAD SWAP1 DUP1 DUP3 MSTORE DUP1 PUSH1 0x20 MUL PUSH1 0x20 ADD DUP3 ADD PUSH1 0x40 MSTORE DUP1 ISZERO PUSH2 0x547 JUMPI DUP2 PUSH1 0x20 ADD PUSH1 0x20 DUP3 MUL DUP1 CALLDATASIZE DUP4 CALLDATACOPY DUP1 DUP3 ADD SWAP2 POP POP SWAP1 POP JUMPDEST POP PUSH32 0xF00000000000000000000000000000000000000000000000000000000000000 SWAP6 SWAP5 SWAP4 SWAP3 SWAP2 SWAP1 SWAP7 POP SWAP7 POP SWAP7 POP SWAP7 POP SWAP7 POP SWAP7 POP SWAP7 POP SWAP1 SWAP2 SWAP3 SWAP4 SWAP5 SWAP6 SWAP7 JUMP JUMPDEST PUSH0 PUSH1 0x5 PUSH0 SWAP1 SLOAD SWAP1 PUSH2 0x100 EXP SWAP1 DIV PUSH20 0xFFFFFFFFFFFFFFFFFFFFFFFFFFFFFFFFFFFFFFFF AND SWAP1 POP SWAP1 JUMP JUMPDEST PUSH1 0x60 PUSH1 0x4 DUP1 SLOAD PUSH2 0x5BD SWAP1 PUSH2 0x1C39 JUMP JUMPDEST DUP1 PUSH1 0x1F ADD PUSH1 0x20 DUP1 SWAP2 DIV MUL PUSH1 0x20 ADD PUSH1 0x40 MLOAD SWAP1 DUP2 ADD PUSH1 0x40 MSTORE DUP1 SWAP3 SWAP2 SWAP1 DUP2 DUP2 MSTORE PUSH1 0x20 ADD DUP3 DUP1 SLOAD PUSH2 0x5E9 SWAP1 PUSH2 0x1C39 JUMP JUMPDEST DUP1 ISZERO PUSH2 0x634 JUMPI DUP1 PUSH1 0x1F LT PUSH2 0x60B JUMPI PUSH2 0x100 DUP1 DUP4 SLOAD DIV MUL DUP4 MSTORE SWAP2 PUSH1 0x20 ADD SWAP2 PUSH2 0x634 JUMP JUMPDEST DUP3 ADD SWAP2 SWAP1 PUSH0 MSTORE PUSH1 0x20 PUSH0 KECCAK256 SWAP1 JUMPDEST DUP2 SLOAD DUP2 MSTORE SWAP1 PUSH1 0x1 ADD SWAP1 PUSH1 0x20 ADD DUP1 DUP4 GT PUSH2 0x617 JUMPI DUP3 SWAP1 SUB PUSH1 0x1F AND DUP3 ADD SWAP2 JUMPDEST POP POP POP POP POP SWAP1 POP SWAP1 JUMP JUMPDEST PUSH0 DUP1 PUSH2 0x648 PUSH2 0x8AB JUMP JUMPDEST SWAP1 POP PUSH2 0x655 DUP2 DUP6 DUP6 PUSH2 0x956 JUMP JUMPDEST PUSH1 0x1 SWAP2 POP POP SWAP3 SWAP2 POP POP JUMP JUMPDEST DUP4 TIMESTAMP GT ISZERO PUSH2 0x6A5 JUMPI DUP4 PUSH1 0x40 MLOAD PUSH32 0x6279130200000000000000000000000000000000000000000000000000000000 DUP2 MSTORE PUSH1 0x4 ADD PUSH2 0x69C SWAP2 SWAP1 PUSH2 0x1849 JUMP JUMPDEST PUSH1 0x40 MLOAD DUP1 SWAP2 SUB SWAP1 REVERT JUMPDEST PUSH0 PUSH32 0x6E71EDAE12B1B97F4D1F60370FEF10105FA2FAAE0126114A169C64845D6126C9 DUP9 DUP9 DUP9 PUSH2 0x6D3 DUP13 PUSH2 0xD81 JUMP JUMPDEST DUP10 PUSH1 0x40 MLOAD PUSH1 0x20 ADD PUSH2 0x6E9 SWAP7 SWAP6 SWAP5 SWAP4 SWAP3 SWAP2 SWAP1 PUSH2 0x1C96 JUMP JUMPDEST PUSH1 0x40 MLOAD PUSH1 0x20 DUP2 DUP4 SUB SUB DUP2 MSTORE SWAP1 PUSH1 0x40 MSTORE DUP1 MLOAD SWAP1 PUSH1 0x20 ADD KECCAK256 SWAP1 POP PUSH0 PUSH2 0x70B DUP3 PUSH2 0xDD4 JUMP JUMPDEST SWAP1 POP PUSH0 PUSH2 0x71A DUP3 DUP8 DUP8 DUP8 PUSH2 0xDED JUMP JUMPDEST SWAP1 POP DUP10 PUSH20 0xFFFFFFFFFFFFFFFFFFFFFFFFFFFFFFFFFFFFFFFF AND DUP2 PUSH20 0xFFFFFFFFFFFFFFFFFFFFFFFFFFFFFFFFFFFFFFFF AND EQ PUSH2 0x78E JUMPI DUP1 DUP11 PUSH1 0x40 MLOAD PUSH32 0x4B800E4600000000000000000000000000000000000000000000000000000000 DUP2 MSTORE PUSH1 0x4 ADD PUSH2 0x785 SWAP3 SWAP2 SWAP1 PUSH2 0x1CF5 JUMP JUMPDEST PUSH1 0x40 MLOAD DUP1 SWAP2 SUB SWAP1 REVERT JUMPDEST PUSH2 0x799 DUP11 DUP11 DUP11 PUSH2 0x8B2 JUMP JUMPDEST POP POP POP POP POP POP POP POP POP POP JUMP JUMPDEST PUSH0 PUSH1 0x1 PUSH0 DUP5 PUSH20 0xFFFFFFFFFFFFFFFFFFFFFFFFFFFFFFFFFFFFFFFF AND PUSH20 0xFFFFFFFFFFFFFFFFFFFFFFFFFFFFFFFFFFFFFFFF AND DUP2 MSTORE PUSH1 0x20 ADD SWAP1 DUP2 MSTORE PUSH1 0x20 ADD PUSH0 KECCAK256 PUSH0 DUP4 PUSH20 0xFFFFFFFFFFFFFFFFFFFFFFFFFFFFFFFFFFFFFFFF AND PUSH20 0xFFFFFFFFFFFFFFFFFFFFFFFFFFFFFFFFFFFFFFFF AND DUP2 MSTORE PUSH1 0x20 ADD SWAP1 DUP2 MSTORE PUSH1 0x20 ADD PUSH0 KECCAK256 SLOAD SWAP1 POP SWAP3 SWAP2 POP POP JUMP JUMPDEST PUSH2 0x82F PUSH2 0xAFC JUMP JUMPDEST PUSH0 PUSH20 0xFFFFFFFFFFFFFFFFFFFFFFFFFFFFFFFFFFFFFFFF AND DUP2 PUSH20 0xFFFFFFFFFFFFFFFFFFFFFFFFFFFFFFFFFFFFFFFF AND SUB PUSH2 0x89F JUMPI PUSH0 PUSH1 0x40 MLOAD PUSH32 0x1E4FBDF700000000000000000000000000000000000000000000000000000000 DUP2 MSTORE PUSH1 0x4 ADD PUSH2 0x896 SWAP2 SWAP1 PUSH2 0x1AC4 JUMP JUMPDEST PUSH1 0x40 MLOAD DUP1 SWAP2 SUB SWAP1 REVERT JUMPDEST PUSH2 0x8A8 DUP2 PUSH2 0xC02 JUMP JUMPDEST POP JUMP JUMPDEST PUSH0 CALLER SWAP1 POP SWAP1 JUMP JUMPDEST PUSH2 0x8BF DUP4 DUP4 DUP4 PUSH1 0x1 PUSH2 0xE1B JUMP JUMPDEST POP POP POP JUMP JUMPDEST PUSH0 PUSH2 0x8CF DUP5 DUP5 PUSH2 0x7A5 JUMP JUMPDEST SWAP1 POP PUSH32 0xFFFFFFFFFFFFFFFFFFFFFFFFFFFFFFFFFFFFFFFFFFFFFFFFFFFFFFFFFFFFFFFF DUP2 EQ PUSH2 0x950 JUMPI DUP2 DUP2 LT ISZERO PUSH2 0x941 JUMPI DUP3 DUP2 DUP4 PUSH1 0x40 MLOAD PUSH32 0xFB8F41B200000000000000000000000000000000000000000000000000000000 DUP2 MSTORE PUSH1 0x4 ADD PUSH2 0x938 SWAP4 SWAP3 SWAP2 SWAP1 PUSH2 0x1D1C JUMP JUMPDEST PUSH1 0x40 MLOAD DUP1 SWAP2 SUB SWAP1 REVERT JUMPDEST PUSH2 0x94F DUP5 DUP5 DUP5 DUP5 SUB PUSH0 PUSH2 0xE1B JUMP JUMPDEST JUMPDEST POP POP POP POP JUMP JUMPDEST PUSH0 PUSH20 0xFFFFFFFFFFFFFFFFFFFFFFFFFFFFFFFFFFFFFFFF AND DUP4 PUSH20 0xFFFFFFFFFFFFFFFFFFFFFFFFFFFFFFFFFFFFFFFF AND SUB PUSH2 0x9C6 JUMPI PUSH0 PUSH1 0x40 MLOAD PUSH32 0x96C6FD1E00000000000000000000000000000000000000000000000000000000 DUP2 MSTORE PUSH1 0x4 ADD PUSH2 0x9BD SWAP2 SWAP1 PUSH2 0x1AC4 JUMP JUMPDEST PUSH1 0x40 MLOAD DUP1 SWAP2 SUB SWAP1 REVERT JUMPDEST PUSH0 PUSH20 0xFFFFFFFFFFFFFFFFFFFFFFFFFFFFFFFFFFFFFFFF AND DUP3 PUSH20 0xFFFFFFFFFFFFFFFFFFFFFFFFFFFFFFFFFFFFFFFF AND SUB PUSH2 0xA36 JUMPI PUSH0 PUSH1 0x40 MLOAD PUSH32 0xEC442F0500000000000000000000000000000000000000000000000000000000 DUP2 MSTORE PUSH1 0x4 ADD PUSH2 0xA2D SWAP2 SWAP1 PUSH2 0x1AC4 JUMP JUMPDEST PUSH1 0x40 MLOAD DUP1 SWAP2 SUB SWAP1 REVERT JUMPDEST PUSH2 0xA41 DUP4 DUP4 DUP4 PUSH2 0xFEA JUMP JUMPDEST POP POP POP JUMP JUMPDEST PUSH0 PUSH32 0x0 PUSH20 0xFFFFFFFFFFFFFFFFFFFFFFFFFFFFFFFFFFFFFFFF AND ADDRESS PUSH20 0xFFFFFFFFFFFFFFFFFFFFFFFFFFFFFFFFFFFFFFFF AND EQ DUP1 ISZERO PUSH2 0xAC1 JUMPI POP PUSH32 0x0 CHAINID EQ JUMPDEST ISZERO PUSH2 0xAEE JUMPI PUSH32 0x0 SWAP1 POP PUSH2 0xAF9 JUMP JUMPDEST PUSH2 0xAF6 PUSH2 0x1203 JUMP JUMPDEST SWAP1 POP JUMPDEST SWAP1 JUMP JUMPDEST PUSH2 0xB04 PUSH2 0x8AB JUMP JUMPDEST PUSH20 0xFFFFFFFFFFFFFFFFFFFFFFFFFFFFFFFFFFFFFFFF AND PUSH2 0xB22 PUSH2 0x586 JUMP JUMPDEST PUSH20 0xFFFFFFFFFFFFFFFFFFFFFFFFFFFFFFFFFFFFFFFF AND EQ PUSH2 0xB81 JUMPI PUSH2 0xB45 PUSH2 0x8AB JUMP JUMPDEST PUSH1 0x40 MLOAD PUSH32 0x118CDAA700000000000000000000000000000000000000000000000000000000 DUP2 MSTORE PUSH1 0x4 ADD PUSH2 0xB78 SWAP2 SWAP1 PUSH2 0x1AC4 JUMP JUMPDEST PUSH1 0x40 MLOAD DUP1 SWAP2 SUB SWAP1 REVERT JUMPDEST JUMP JUMPDEST PUSH0 PUSH20 0xFFFFFFFFFFFFFFFFFFFFFFFFFFFFFFFFFFFFFFFF AND DUP3 PUSH20 0xFFFFFFFFFFFFFFFFFFFFFFFFFFFFFFFFFFFFFFFF AND SUB PUSH2 0xBF3 JUMPI PUSH0 PUSH1 0x40 MLOAD PUSH32 0xEC442F0500000000000000000000000000000000000000000000000000000000 DUP2 MSTORE PUSH1 0x4 ADD PUSH2 0xBEA SWAP2 SWAP1 PUSH2 0x1AC4 JUMP JUMPDEST PUSH1 0x40 MLOAD DUP1 SWAP2 SUB SWAP1 REVERT JUMPDEST PUSH2 0xBFE PUSH0 DUP4 DUP4 PUSH2 0xFEA JUMP JUMPDEST POP POP JUMP JUMPDEST PUSH0 PUSH1 0x5 PUSH0 SWAP1 SLOAD SWAP1 PUSH2 0x100 EXP SWAP1 DIV PUSH20 0xFFFFFFFFFFFFFFFFFFFFFFFFFFFFFFFFFFFFFFFF AND SWAP1 POP DUP2 PUSH1 0x5 PUSH0 PUSH2 0x100 EXP DUP2 SLOAD DUP2 PUSH20 0xFFFFFFFFFFFFFFFFFFFFFFFFFFFFFFFFFFFFFFFF MUL NOT AND SWAP1 DUP4 PUSH20 0xFFFFFFFFFFFFFFFFFFFFFFFFFFFFFFFFFFFFFFFF AND MUL OR SWAP1 SSTORE POP DUP2 PUSH20 0xFFFFFFFFFFFFFFFFFFFFFFFFFFFFFFFFFFFFFFFF AND DUP2 PUSH20 0xFFFFFFFFFFFFFFFFFFFFFFFFFFFFFFFFFFFFFFFF AND PUSH32 0x8BE0079C531659141344CD1FD0A4F28419497F9722A3DAAFE3B4186F6B6457E0 PUSH1 0x40 MLOAD PUSH1 0x40 MLOAD DUP1 SWAP2 SUB SWAP1 LOG3 POP POP JUMP JUMPDEST PUSH0 PUSH1 0x8 PUSH0 DUP4 PUSH20 0xFFFFFFFFFFFFFFFFFFFFFFFFFFFFFFFFFFFFFFFF AND PUSH20 0xFFFFFFFFFFFFFFFFFFFFFFFFFFFFFFFFFFFFFFFF AND DUP2 MSTORE PUSH1 0x20 ADD SWAP1 DUP2 MSTORE PUSH1 0x20 ADD PUSH0 KECCAK256 SLOAD SWAP1 POP SWAP2 SWAP1 POP JUMP JUMPDEST PUSH1 0x60 PUSH2 0xD41 PUSH1 0x6 PUSH32 0x0 PUSH2 0x1298 SWAP1 SWAP2 SWAP1 PUSH4 0xFFFFFFFF AND JUMP JUMPDEST SWAP1 POP SWAP1 JUMP JUMPDEST PUSH1 0x60 PUSH2 0xD7C PUSH1 0x7 PUSH32 0x0 PUSH2 0x1298 SWAP1 SWAP2 SWAP1 PUSH4 0xFFFFFFFF AND JUMP JUMPDEST SWAP1 POP SWAP1 JUMP JUMPDEST PUSH0 PUSH1 0x8 PUSH0 DUP4 PUSH20 0xFFFFFFFFFFFFFFFFFFFFFFFFFFFFFFFFFFFFFFFF AND PUSH20 0xFFFFFFFFFFFFFFFFFFFFFFFFFFFFFFFFFFFFFFFF AND DUP2 MSTORE PUSH1 0x20 ADD SWAP1 DUP2 MSTORE PUSH1 0x20 ADD PUSH0 KECCAK256 PUSH0 DUP2 SLOAD DUP1 SWAP3 SWAP2 SWAP1 PUSH1 0x1 ADD SWAP2 SWAP1 POP SSTORE SWAP1 POP SWAP2 SWAP1 POP JUMP JUMPDEST PUSH0 PUSH2 0xDE6 PUSH2 0xDE0 PUSH2 0xA46 JUMP JUMPDEST DUP4 PUSH2 0x1345 JUMP JUMPDEST SWAP1 POP SWAP2 SWAP1 POP JUMP JUMPDEST PUSH0 DUP1 PUSH0 DUP1 PUSH2 0xDFD DUP9 DUP9 DUP9 DUP9 PUSH2 0x1385 JUMP JUMPDEST SWAP3 POP SWAP3 POP SWAP3 POP PUSH2 0xE0D DUP3 DUP3 PUSH2 0x146C JUMP JUMPDEST DUP3 SWAP4 POP POP POP POP SWAP5 SWAP4 POP POP POP POP JUMP JUMPDEST PUSH0 PUSH20 0xFFFFFFFFFFFFFFFFFFFFFFFFFFFFFFFFFFFFFFFF AND DUP5 PUSH20 0xFFFFFFFFFFFFFFFFFFFFFFFFFFFFFFFFFFFFFFFF AND SUB PUSH2 0xE8B JUMPI PUSH0 PUSH1 0x40 MLOAD PUSH32 0xE602DF0500000000000000000000000000000000000000000000000000000000 DUP2 MSTORE PUSH1 0x4 ADD PUSH2 0xE82 SWAP2 SWAP1 PUSH2 0x1AC4 JUMP JUMPDEST PUSH1 0x40 MLOAD DUP1 SWAP2 SUB SWAP1 REVERT JUMPDEST PUSH0 PUSH20 0xFFFFFFFFFFFFFFFFFFFFFFFFFFFFFFFFFFFFFFFF AND DUP4 PUSH20 0xFFFFFFFFFFFFFFFFFFFFFFFFFFFFFFFFFFFFFFFF AND SUB PUSH2 0xEFB JUMPI PUSH0 PUSH1 0x40 MLOAD PUSH32 0x94280D6200000000000000000000000000000000000000000000000000000000 DUP2 MSTORE PUSH1 0x4 ADD PUSH2 0xEF2 SWAP2 SWAP1 PUSH2 0x1AC4 JUMP JUMPDEST PUSH1 0x40 MLOAD DUP1 SWAP2 SUB SWAP1 REVERT JUMPDEST DUP2 PUSH1 0x1 PUSH0 DUP7 PUSH20 0xFFFFFFFFFFFFFFFFFFFFFFFFFFFFFFFFFFFFFFFF AND PUSH20 0xFFFFFFFFFFFFFFFFFFFFFFFFFFFFFFFFFFFFFFFF AND DUP2 MSTORE PUSH1 0x20 ADD SWAP1 DUP2 MSTORE PUSH1 0x20 ADD PUSH0 KECCAK256 PUSH0 DUP6 PUSH20 0xFFFFFFFFFFFFFFFFFFFFFFFFFFFFFFFFFFFFFFFF AND PUSH20 0xFFFFFFFFFFFFFFFFFFFFFFFFFFFFFFFFFFFFFFFF AND DUP2 MSTORE PUSH1 0x20 ADD SWAP1 DUP2 MSTORE PUSH1 0x20 ADD PUSH0 KECCAK256 DUP2 SWAP1 SSTORE POP DUP1 ISZERO PUSH2 0xFE4 JUMPI DUP3 PUSH20 0xFFFFFFFFFFFFFFFFFFFFFFFFFFFFFFFFFFFFFFFF AND DUP5 PUSH20 0xFFFFFFFFFFFFFFFFFFFFFFFFFFFFFFFFFFFFFFFF AND PUSH32 0x8C5BE1E5EBEC7D5BD14F71427D1E84F3DD0314C0F7B2291E5B200AC8C7C3B925 DUP5 PUSH1 0x40 MLOAD PUSH2 0xFDB SWAP2 SWAP1 PUSH2 0x1849 JUMP JUMPDEST PUSH1 0x40 MLOAD DUP1 SWAP2 SUB SWAP1 LOG3 JUMPDEST POP POP POP POP JUMP JUMPDEST PUSH0 PUSH20 0xFFFFFFFFFFFFFFFFFFFFFFFFFFFFFFFFFFFFFFFF AND DUP4 PUSH20 0xFFFFFFFFFFFFFFFFFFFFFFFFFFFFFFFFFFFFFFFF AND SUB PUSH2 0x103A JUMPI DUP1 PUSH1 0x2 PUSH0 DUP3 DUP3 SLOAD PUSH2 0x102E SWAP2 SWAP1 PUSH2 0x1D7E JUMP JUMPDEST SWAP3 POP POP DUP2 SWAP1 SSTORE POP PUSH2 0x1108 JUMP JUMPDEST PUSH0 DUP1 PUSH0 DUP6 PUSH20 0xFFFFFFFFFFFFFFFFFFFFFFFFFFFFFFFFFFFFFFFF AND PUSH20 0xFFFFFFFFFFFFFFFFFFFFFFFFFFFFFFFFFFFFFFFF AND DUP2 MSTORE PUSH1 0x20 ADD SWAP1 DUP2 MSTORE PUSH1 0x20 ADD PUSH0 KECCAK256 SLOAD SWAP1 POP DUP2 DUP2 LT ISZERO PUSH2 0x10C3 JUMPI DUP4 DUP2 DUP4 PUSH1 0x40 MLOAD PUSH32 0xE450D38C00000000000000000000000000000000000000000000000000000000 DUP2 MSTORE PUSH1 0x4 ADD PUSH2 0x10BA SWAP4 SWAP3 SWAP2 SWAP1 PUSH2 0x1D1C JUMP JUMPDEST PUSH1 0x40 MLOAD DUP1 SWAP2 SUB SWAP1 REVERT JUMPDEST DUP2 DUP2 SUB PUSH0 DUP1 DUP7 PUSH20 0xFFFFFFFFFFFFFFFFFFFFFFFFFFFFFFFFFFFFFFFF AND PUSH20 0xFFFFFFFFFFFFFFFFFFFFFFFFFFFFFFFFFFFFFFFF AND DUP2 MSTORE PUSH1 0x20 ADD SWAP1 DUP2 MSTORE PUSH1 0x20 ADD PUSH0 KECCAK256 DUP2 SWAP1 SSTORE POP POP JUMPDEST PUSH0 PUSH20 0xFFFFFFFFFFFFFFFFFFFFFFFFFFFFFFFFFFFFFFFF AND DUP3 PUSH20 0xFFFFFFFFFFFFFFFFFFFFFFFFFFFFFFFFFFFFFFFF AND SUB PUSH2 0x114F JUMPI DUP1 PUSH1 0x2 PUSH0 DUP3 DUP3 SLOAD SUB SWAP3 POP POP DUP2 SWAP1 SSTORE POP PUSH2 0x1199 JUMP JUMPDEST DUP1 PUSH0 DUP1 DUP5 PUSH20 0xFFFFFFFFFFFFFFFFFFFFFFFFFFFFFFFFFFFFFFFF AND PUSH20 0xFFFFFFFFFFFFFFFFFFFFFFFFFFFFFFFFFFFFFFFF AND DUP2 MSTORE PUSH1 0x20 ADD SWAP1 DUP2 MSTORE PUSH1 0x20 ADD PUSH0 KECCAK256 PUSH0 DUP3 DUP3 SLOAD ADD SWAP3 POP POP DUP2 SWAP1 SSTORE POP JUMPDEST DUP2 PUSH20 0xFFFFFFFFFFFFFFFFFFFFFFFFFFFFFFFFFFFFFFFF AND DUP4 PUSH20 0xFFFFFFFFFFFFFFFFFFFFFFFFFFFFFFFFFFFFFFFF AND PUSH32 0xDDF252AD1BE2C89B69C2B068FC378DAA952BA7F163C4A11628F55A4DF523B3EF DUP4 PUSH1 0x40 MLOAD PUSH2 0x11F6 SWAP2 SWAP1 PUSH2 0x1849 JUMP JUMPDEST PUSH1 0x40 MLOAD DUP1 SWAP2 SUB SWAP1 LOG3 POP POP POP JUMP JUMPDEST PUSH0 PUSH32 0x8B73C3C69BB8FE3D512ECC4CF759CC79239F7B179B0FFACAA9A75D522B39400F PUSH32 0x0 PUSH32 0x0 CHAINID ADDRESS PUSH1 0x40 MLOAD PUSH1 0x20 ADD PUSH2 0x127D SWAP6 SWAP5 SWAP4 SWAP3 SWAP2 SWAP1 PUSH2 0x1DB1 JUMP JUMPDEST PUSH1 0x40 MLOAD PUSH1 0x20 DUP2 DUP4 SUB SUB DUP2 MSTORE SWAP1 PUSH1 0x40 MSTORE DUP1 MLOAD SWAP1 PUSH1 0x20 ADD KECCAK256 SWAP1 POP SWAP1 JUMP JUMPDEST PUSH1 0x60 PUSH1 0xFF PUSH0 SHL DUP4 EQ PUSH2 0x12B4 JUMPI PUSH2 0x12AD DUP4 PUSH2 0x15CE JUMP JUMPDEST SWAP1 POP PUSH2 0x133F JUMP JUMPDEST DUP2 DUP1 SLOAD PUSH2 0x12C0 SWAP1 PUSH2 0x1C39 JUMP JUMPDEST DUP1 PUSH1 0x1F ADD PUSH1 0x20 DUP1 SWAP2 DIV MUL PUSH1 0x20 ADD PUSH1 0x40 MLOAD SWAP1 DUP2 ADD PUSH1 0x40 MSTORE DUP1 SWAP3 SWAP2 SWAP1 DUP2 DUP2 MSTORE PUSH1 0x20 ADD DUP3 DUP1 SLOAD PUSH2 0x12EC SWAP1 PUSH2 0x1C39 JUMP JUMPDEST DUP1 ISZERO PUSH2 0x1337 JUMPI DUP1 PUSH1 0x1F LT PUSH2 0x130E JUMPI PUSH2 0x100 DUP1 DUP4 SLOAD DIV MUL DUP4 MSTORE SWAP2 PUSH1 0x20 ADD SWAP2 PUSH2 0x1337 JUMP JUMPDEST DUP3 ADD SWAP2 SWAP1 PUSH0 MSTORE PUSH1 0x20 PUSH0 KECCAK256 SWAP1 JUMPDEST DUP2 SLOAD DUP2 MSTORE SWAP1 PUSH1 0x1 ADD SWAP1 PUSH1 0x20 ADD DUP1 DUP4 GT PUSH2 0x131A JUMPI DUP3 SWAP1 SUB PUSH1 0x1F AND DUP3 ADD SWAP2 JUMPDEST POP POP POP POP POP SWAP1 POP JUMPDEST SWAP3 SWAP2 POP POP JUMP JUMPDEST PUSH0 PUSH1 0x40 MLOAD PUSH32 0x1901000000000000000000000000000000000000000000000000000000000000 DUP2 MSTORE DUP4 PUSH1 0x2 DUP3 ADD MSTORE DUP3 PUSH1 0x22 DUP3 ADD MSTORE PUSH1 0x42 DUP2 KECCAK256 SWAP2 POP POP SWAP3 SWAP2 POP POP JUMP JUMPDEST PUSH0 DUP1 PUSH0 PUSH32 0x7FFFFFFFFFFFFFFFFFFFFFFFFFFFFFFF5D576E7357A4501DDFE92F46681B20A0 DUP5 PUSH0 SHR GT ISZERO PUSH2 0x13C1 JUMPI PUSH0 PUSH1 0x3 DUP6 SWAP3 POP SWAP3 POP SWAP3 POP PUSH2 0x1462 JUMP JUMPDEST PUSH0 PUSH1 0x1 DUP9 DUP9 DUP9 DUP9 PUSH1 0x40 MLOAD PUSH0 DUP2 MSTORE PUSH1 0x20 ADD PUSH1 0x40 MSTORE PUSH1 0x40 MLOAD PUSH2 0x13E4 SWAP5 SWAP4 SWAP3 SWAP2 SWAP1 PUSH2 0x1E02 JUMP JUMPDEST PUSH1 0x20 PUSH1 0x40 MLOAD PUSH1 0x20 DUP2 SUB SWAP1 DUP1 DUP5 SUB SWAP1 DUP6 GAS STATICCALL ISZERO DUP1 ISZERO PUSH2 0x1404 JUMPI RETURNDATASIZE PUSH0 DUP1 RETURNDATACOPY RETURNDATASIZE PUSH0 REVERT JUMPDEST POP POP POP PUSH1 0x20 PUSH1 0x40 MLOAD SUB MLOAD SWAP1 POP PUSH0 PUSH20 0xFFFFFFFFFFFFFFFFFFFFFFFFFFFFFFFFFFFFFFFF AND DUP2 PUSH20 0xFFFFFFFFFFFFFFFFFFFFFFFFFFFFFFFFFFFFFFFF AND SUB PUSH2 0x1455 JUMPI PUSH0 PUSH1 0x1 PUSH0 DUP1 SHL SWAP4 POP SWAP4 POP SWAP4 POP POP PUSH2 0x1462 JUMP JUMPDEST DUP1 PUSH0 DUP1 PUSH0 SHL SWAP4 POP SWAP4 POP SWAP4 POP POP JUMPDEST SWAP5 POP SWAP5 POP SWAP5 SWAP2 POP POP JUMP JUMPDEST PUSH0 PUSH1 0x3 DUP2 GT ISZERO PUSH2 0x147F JUMPI PUSH2 0x147E PUSH2 0x1E45 JUMP JUMPDEST JUMPDEST DUP3 PUSH1 0x3 DUP2 GT ISZERO PUSH2 0x1492 JUMPI PUSH2 0x1491 PUSH2 0x1E45 JUMP JUMPDEST JUMPDEST SUB ISZERO PUSH2 0x15CA JUMPI PUSH1 0x1 PUSH1 0x3 DUP2 GT ISZERO PUSH2 0x14AC JUMPI PUSH2 0x14AB PUSH2 0x1E45 JUMP JUMPDEST JUMPDEST DUP3 PUSH1 0x3 DUP2 GT ISZERO PUSH2 0x14BF JUMPI PUSH2 0x14BE PUSH2 0x1E45 JUMP JUMPDEST JUMPDEST SUB PUSH2 0x14F6 JUMPI PUSH1 0x40 MLOAD PUSH32 0xF645EEDF00000000000000000000000000000000000000000000000000000000 DUP2 MSTORE PUSH1 0x4 ADD PUSH1 0x40 MLOAD DUP1 SWAP2 SUB SWAP1 REVERT JUMPDEST PUSH1 0x2 PUSH1 0x3 DUP2 GT ISZERO PUSH2 0x150A JUMPI PUSH2 0x1509 PUSH2 0x1E45 JUMP JUMPDEST JUMPDEST DUP3 PUSH1 0x3 DUP2 GT ISZERO PUSH2 0x151D JUMPI PUSH2 0x151C PUSH2 0x1E45 JUMP JUMPDEST JUMPDEST SUB PUSH2 0x1561 JUMPI DUP1 PUSH0 SHR PUSH1 0x40 MLOAD PUSH32 0xFCE698F700000000000000000000000000000000000000000000000000000000 DUP2 MSTORE PUSH1 0x4 ADD PUSH2 0x1558 SWAP2 SWAP1 PUSH2 0x1849 JUMP JUMPDEST PUSH1 0x40 MLOAD DUP1 SWAP2 SUB SWAP1 REVERT JUMPDEST PUSH1 0x3 DUP1 DUP2 GT ISZERO PUSH2 0x1574 JUMPI PUSH2 0x1573 PUSH2 0x1E45 JUMP JUMPDEST JUMPDEST DUP3 PUSH1 0x3 DUP2 GT ISZERO PUSH2 0x1587 JUMPI PUSH2 0x1586 PUSH2 0x1E45 JUMP JUMPDEST JUMPDEST SUB PUSH2 0x15C9 JUMPI DUP1 PUSH1 0x40 MLOAD PUSH32 0xD78BCE0C00000000000000000000000000000000000000000000000000000000 DUP2 MSTORE PUSH1 0x4 ADD PUSH2 0x15C0 SWAP2 SWAP1 PUSH2 0x18FE JUMP JUMPDEST PUSH1 0x40 MLOAD DUP1 SWAP2 SUB SWAP1 REVERT JUMPDEST JUMPDEST POP POP JUMP JUMPDEST PUSH1 0x60 PUSH0 PUSH2 0x15DA DUP4 PUSH2 0x1640 JUMP JUMPDEST SWAP1 POP PUSH0 PUSH1 0x20 PUSH8 0xFFFFFFFFFFFFFFFF DUP2 GT ISZERO PUSH2 0x15F8 JUMPI PUSH2 0x15F7 PUSH2 0x1C69 JUMP JUMPDEST JUMPDEST PUSH1 0x40 MLOAD SWAP1 DUP1 DUP3 MSTORE DUP1 PUSH1 0x1F ADD PUSH1 0x1F NOT AND PUSH1 0x20 ADD DUP3 ADD PUSH1 0x40 MSTORE DUP1 ISZERO PUSH2 0x162A JUMPI DUP2 PUSH1 0x20 ADD PUSH1 0x1 DUP3 MUL DUP1 CALLDATASIZE DUP4 CALLDATACOPY DUP1 DUP3 ADD SWAP2 POP POP SWAP1 POP JUMPDEST POP SWAP1 POP DUP2 DUP2 MSTORE DUP4 PUSH1 0x20 DUP3 ADD MSTORE DUP1 SWAP3 POP POP POP SWAP2 SWAP1 POP JUMP JUMPDEST PUSH0 DUP1 PUSH1 0xFF DUP4 PUSH0 SHR AND SWAP1 POP PUSH1 0x1F DUP2 GT ISZERO PUSH2 0x1685 JUMPI PUSH1 0x40 MLOAD PUSH32 0xB3512B0C00000000000000000000000000000000000000000000000000000000 DUP2 MSTORE PUSH1 0x4 ADD PUSH1 0x40 MLOAD DUP1 SWAP2 SUB SWAP1 REVERT JUMPDEST DUP1 SWAP2 POP POP SWAP2 SWAP1 POP JUMP JUMPDEST PUSH0 DUP2 MLOAD SWAP1 POP SWAP2 SWAP1 POP JUMP JUMPDEST PUSH0 DUP3 DUP3 MSTORE PUSH1 0x20 DUP3 ADD SWAP1 POP SWAP3 SWAP2 POP POP JUMP JUMPDEST PUSH0 JUMPDEST DUP4 DUP2 LT ISZERO PUSH2 0x16C5 JUMPI DUP1 DUP3 ADD MLOAD DUP2 DUP5 ADD MSTORE PUSH1 0x20 DUP2 ADD SWAP1 POP PUSH2 0x16AA JUMP JUMPDEST PUSH0 DUP5 DUP5 ADD MSTORE POP POP POP POP JUMP JUMPDEST PUSH0 PUSH1 0x1F NOT PUSH1 0x1F DUP4 ADD AND SWAP1 POP SWAP2 SWAP1 POP JUMP JUMPDEST PUSH0 PUSH2 0x16EA DUP3 PUSH2 0x168E JUMP JUMPDEST PUSH2 0x16F4 DUP2 DUP6 PUSH2 0x1698 JUMP JUMPDEST SWAP4 POP PUSH2 0x1704 DUP2 DUP6 PUSH1 0x20 DUP7 ADD PUSH2 0x16A8 JUMP JUMPDEST PUSH2 0x170D DUP2 PUSH2 0x16D0 JUMP JUMPDEST DUP5 ADD SWAP2 POP POP SWAP3 SWAP2 POP POP JUMP JUMPDEST PUSH0 PUSH1 0x20 DUP3 ADD SWAP1 POP DUP2 DUP2 SUB PUSH0 DUP4 ADD MSTORE PUSH2 0x1730 DUP2 DUP5 PUSH2 0x16E0 JUMP JUMPDEST SWAP1 POP SWAP3 SWAP2 POP POP JUMP JUMPDEST PUSH0 DUP1 REVERT JUMPDEST PUSH0 PUSH20 0xFFFFFFFFFFFFFFFFFFFFFFFFFFFFFFFFFFFFFFFF DUP3 AND SWAP1 POP SWAP2 SWAP1 POP JUMP JUMPDEST PUSH0 PUSH2 0x1765 DUP3 PUSH2 0x173C JUMP JUMPDEST SWAP1 POP SWAP2 SWAP1 POP JUMP JUMPDEST PUSH2 0x1775 DUP2 PUSH2 0x175B JUMP JUMPDEST DUP2 EQ PUSH2 0x177F JUMPI PUSH0 DUP1 REVERT JUMPDEST POP JUMP JUMPDEST PUSH0 DUP2 CALLDATALOAD SWAP1 POP PUSH2 0x1790 DUP2 PUSH2 0x176C JUMP JUMPDEST SWAP3 SWAP2 POP POP JUMP JUMPDEST PUSH0 DUP2 SWAP1 POP SWAP2 SWAP1 POP JUMP JUMPDEST PUSH2 0x17A8 DUP2 PUSH2 0x1796 JUMP JUMPDEST DUP2 EQ PUSH2 0x17B2 JUMPI PUSH0 DUP1 REVERT JUMPDEST POP JUMP JUMPDEST PUSH0 DUP2 CALLDATALOAD SWAP1 POP PUSH2 0x17C3 DUP2 PUSH2 0x179F JUMP JUMPDEST SWAP3 SWAP2 POP POP JUMP JUMPDEST PUSH0 DUP1 PUSH1 0x40 DUP4 DUP6 SUB SLT ISZERO PUSH2 0x17DF JUMPI PUSH2 0x17DE PUSH2 0x1738 JUMP JUMPDEST JUMPDEST PUSH0 PUSH2 0x17EC DUP6 DUP3 DUP7 ADD PUSH2 0x1782 JUMP JUMPDEST SWAP3 POP POP PUSH1 0x20 PUSH2 0x17FD DUP6 DUP3 DUP7 ADD PUSH2 0x17B5 JUMP JUMPDEST SWAP2 POP POP SWAP3 POP SWAP3 SWAP1 POP JUMP JUMPDEST PUSH0 DUP2 ISZERO ISZERO SWAP1 POP SWAP2 SWAP1 POP JUMP JUMPDEST PUSH2 0x181B DUP2 PUSH2 0x1807 JUMP JUMPDEST DUP3 MSTORE POP POP JUMP JUMPDEST PUSH0 PUSH1 0x20 DUP3 ADD SWAP1 POP PUSH2 0x1834 PUSH0 DUP4 ADD DUP5 PUSH2 0x1812 JUMP JUMPDEST SWAP3 SWAP2 POP POP JUMP JUMPDEST PUSH2 0x1843 DUP2 PUSH2 0x1796 JUMP JUMPDEST DUP3 MSTORE POP POP JUMP JUMPDEST PUSH0 PUSH1 0x20 DUP3 ADD SWAP1 POP PUSH2 0x185C PUSH0 DUP4 ADD DUP5 PUSH2 0x183A JUMP JUMPDEST SWAP3 SWAP2 POP POP JUMP JUMPDEST PUSH0 DUP1 PUSH0 PUSH1 0x60 DUP5 DUP7 SUB SLT ISZERO PUSH2 0x1879 JUMPI PUSH2 0x1878 PUSH2 0x1738 JUMP JUMPDEST JUMPDEST PUSH0 PUSH2 0x1886 DUP7 DUP3 DUP8 ADD PUSH2 0x1782 JUMP JUMPDEST SWAP4 POP POP PUSH1 0x20 PUSH2 0x1897 DUP7 DUP3 DUP8 ADD PUSH2 0x1782 JUMP JUMPDEST SWAP3 POP POP PUSH1 0x40 PUSH2 0x18A8 DUP7 DUP3 DUP8 ADD PUSH2 0x17B5 JUMP JUMPDEST SWAP2 POP POP SWAP3 POP SWAP3 POP SWAP3 JUMP JUMPDEST PUSH0 PUSH1 0xFF DUP3 AND SWAP1 POP SWAP2 SWAP1 POP JUMP JUMPDEST PUSH2 0x18C7 DUP2 PUSH2 0x18B2 JUMP JUMPDEST DUP3 MSTORE POP POP JUMP JUMPDEST PUSH0 PUSH1 0x20 DUP3 ADD SWAP1 POP PUSH2 0x18E0 PUSH0 DUP4 ADD DUP5 PUSH2 0x18BE JUMP JUMPDEST SWAP3 SWAP2 POP POP JUMP JUMPDEST PUSH0 DUP2 SWAP1 POP SWAP2 SWAP1 POP JUMP JUMPDEST PUSH2 0x18F8 DUP2 PUSH2 0x18E6 JUMP JUMPDEST DUP3 MSTORE POP POP JUMP JUMPDEST PUSH0 PUSH1 0x20 DUP3 ADD SWAP1 POP PUSH2 0x1911 PUSH0 DUP4 ADD DUP5 PUSH2 0x18EF JUMP JUMPDEST SWAP3 SWAP2 POP POP JUMP JUMPDEST PUSH0 PUSH1 0x20 DUP3 DUP5 SUB SLT ISZERO PUSH2 0x192C JUMPI PUSH2 0x192B PUSH2 0x1738 JUMP JUMPDEST JUMPDEST PUSH0 PUSH2 0x1939 DUP5 DUP3 DUP6 ADD PUSH2 0x1782 JUMP JUMPDEST SWAP2 POP POP SWAP3 SWAP2 POP POP JUMP JUMPDEST PUSH0 PUSH32 0xFF00000000000000000000000000000000000000000000000000000000000000 DUP3 AND SWAP1 POP SWAP2 SWAP1 POP JUMP JUMPDEST PUSH2 0x1976 DUP2 PUSH2 0x1942 JUMP JUMPDEST DUP3 MSTORE POP POP JUMP JUMPDEST PUSH2 0x1985 DUP2 PUSH2 0x175B JUMP JUMPDEST DUP3 MSTORE POP POP JUMP JUMPDEST PUSH0 DUP2 MLOAD SWAP1 POP SWAP2 SWAP1 POP JUMP JUMPDEST PUSH0 DUP3 DUP3 MSTORE PUSH1 0x20 DUP3 ADD SWAP1 POP SWAP3 SWAP2 POP POP JUMP JUMPDEST PUSH0 DUP2 SWAP1 POP PUSH1 0x20 DUP3 ADD SWAP1 POP SWAP2 SWAP1 POP JUMP JUMPDEST PUSH2 0x19BD DUP2 PUSH2 0x1796 JUMP JUMPDEST DUP3 MSTORE POP POP JUMP JUMPDEST PUSH0 PUSH2 0x19CE DUP4 DUP4 PUSH2 0x19B4 JUMP JUMPDEST PUSH1 0x20 DUP4 ADD SWAP1 POP SWAP3 SWAP2 POP POP JUMP JUMPDEST PUSH0 PUSH1 0x20 DUP3 ADD SWAP1 POP SWAP2 SWAP1 POP JUMP JUMPDEST PUSH0 PUSH2 0x19F0 DUP3 PUSH2 0x198B JUMP JUMPDEST PUSH2 0x19FA DUP2 DUP6 PUSH2 0x1995 JUMP JUMPDEST SWAP4 POP PUSH2 0x1A05 DUP4 PUSH2 0x19A5 JUMP JUMPDEST DUP1 PUSH0 JUMPDEST DUP4 DUP2 LT ISZERO PUSH2 0x1A35 JUMPI DUP2 MLOAD PUSH2 0x1A1C DUP9 DUP3 PUSH2 0x19C3 JUMP JUMPDEST SWAP8 POP PUSH2 0x1A27 DUP4 PUSH2 0x19DA JUMP JUMPDEST SWAP3 POP POP PUSH1 0x1 DUP2 ADD SWAP1 POP PUSH2 0x1A08 JUMP JUMPDEST POP DUP6 SWAP4 POP POP POP POP SWAP3 SWAP2 POP POP JUMP JUMPDEST PUSH0 PUSH1 0xE0 DUP3 ADD SWAP1 POP PUSH2 0x1A55 PUSH0 DUP4 ADD DUP11 PUSH2 0x196D JUMP JUMPDEST DUP2 DUP2 SUB PUSH1 0x20 DUP4 ADD MSTORE PUSH2 0x1A67 DUP2 DUP10 PUSH2 0x16E0 JUMP JUMPDEST SWAP1 POP DUP2 DUP2 SUB PUSH1 0x40 DUP4 ADD MSTORE PUSH2 0x1A7B DUP2 DUP9 PUSH2 0x16E0 JUMP JUMPDEST SWAP1 POP PUSH2 0x1A8A PUSH1 0x60 DUP4 ADD DUP8 PUSH2 0x183A JUMP JUMPDEST PUSH2 0x1A97 PUSH1 0x80 DUP4 ADD DUP7 PUSH2 0x197C JUMP JUMPDEST PUSH2 0x1AA4 PUSH1 0xA0 DUP4 ADD DUP6 PUSH2 0x18EF JUMP JUMPDEST DUP2 DUP2 SUB PUSH1 0xC0 DUP4 ADD MSTORE PUSH2 0x1AB6 DUP2 DUP5 PUSH2 0x19E6 JUMP JUMPDEST SWAP1 POP SWAP9 SWAP8 POP POP POP POP POP POP POP POP JUMP JUMPDEST PUSH0 PUSH1 0x20 DUP3 ADD SWAP1 POP PUSH2 0x1AD7 PUSH0 DUP4 ADD DUP5 PUSH2 0x197C JUMP JUMPDEST SWAP3 SWAP2 POP POP JUMP JUMPDEST PUSH2 0x1AE6 DUP2 PUSH2 0x18B2 JUMP JUMPDEST DUP2 EQ PUSH2 0x1AF0 JUMPI PUSH0 DUP1 REVERT JUMPDEST POP JUMP JUMPDEST PUSH0 DUP2 CALLDATALOAD SWAP1 POP PUSH2 0x1B01 DUP2 PUSH2 0x1ADD JUMP JUMPDEST SWAP3 SWAP2 POP POP JUMP JUMPDEST PUSH2 0x1B10 DUP2 PUSH2 0x18E6 JUMP JUMPDEST DUP2 EQ PUSH2 0x1B1A JUMPI PUSH0 DUP1 REVERT JUMPDEST POP JUMP JUMPDEST PUSH0 DUP2 CALLDATALOAD SWAP1 POP PUSH2 0x1B2B DUP2 PUSH2 0x1B07 JUMP JUMPDEST SWAP3 SWAP2 POP POP JUMP JUMPDEST PUSH0 DUP1 PUSH0 DUP1 PUSH0 DUP1 PUSH0 PUSH1 0xE0 DUP9 DUP11 SUB SLT ISZERO PUSH2 0x1B4C JUMPI PUSH2 0x1B4B PUSH2 0x1738 JUMP JUMPDEST JUMPDEST PUSH0 PUSH2 0x1B59 DUP11 DUP3 DUP12 ADD PUSH2 0x1782 JUMP JUMPDEST SWAP8 POP POP PUSH1 0x20 PUSH2 0x1B6A DUP11 DUP3 DUP12 ADD PUSH2 0x1782 JUMP JUMPDEST SWAP7 POP POP PUSH1 0x40 PUSH2 0x1B7B DUP11 DUP3 DUP12 ADD PUSH2 0x17B5 JUMP JUMPDEST SWAP6 POP POP PUSH1 0x60 PUSH2 0x1B8C DUP11 DUP3 DUP12 ADD PUSH2 0x17B5 JUMP JUMPDEST SWAP5 POP POP PUSH1 0x80 PUSH2 0x1B9D DUP11 DUP3 DUP12 ADD PUSH2 0x1AF3 JUMP JUMPDEST SWAP4 POP POP PUSH1 0xA0 PUSH2 0x1BAE DUP11 DUP3 DUP12 ADD PUSH2 0x1B1D JUMP JUMPDEST SWAP3 POP POP PUSH1 0xC0 PUSH2 0x1BBF DUP11 DUP3 DUP12 ADD PUSH2 0x1B1D JUMP JUMPDEST SWAP2 POP POP SWAP3 SWAP6 SWAP9 SWAP2 SWAP5 SWAP8 POP SWAP3 SWAP6 POP JUMP JUMPDEST PUSH0 DUP1 PUSH1 0x40 DUP4 DUP6 SUB SLT ISZERO PUSH2 0x1BE4 JUMPI PUSH2 0x1BE3 PUSH2 0x1738 JUMP JUMPDEST JUMPDEST PUSH0 PUSH2 0x1BF1 DUP6 DUP3 DUP7 ADD PUSH2 0x1782 JUMP JUMPDEST SWAP3 POP POP PUSH1 0x20 PUSH2 0x1C02 DUP6 DUP3 DUP7 ADD PUSH2 0x1782 JUMP JUMPDEST SWAP2 POP POP SWAP3 POP SWAP3 SWAP1 POP JUMP JUMPDEST PUSH32 0x4E487B7100000000000000000000000000000000000000000000000000000000 PUSH0 MSTORE PUSH1 0x22 PUSH1 0x4 MSTORE PUSH1 0x24 PUSH0 REVERT JUMPDEST PUSH0 PUSH1 0x2 DUP3 DIV SWAP1 POP PUSH1 0x1 DUP3 AND DUP1 PUSH2 0x1C50 JUMPI PUSH1 0x7F DUP3 AND SWAP2 POP JUMPDEST PUSH1 0x20 DUP3 LT DUP2 SUB PUSH2 0x1C63 JUMPI PUSH2 0x1C62 PUSH2 0x1C0C JUMP JUMPDEST JUMPDEST POP SWAP2 SWAP1 POP JUMP JUMPDEST PUSH32 0x4E487B7100000000000000000000000000000000000000000000000000000000 PUSH0 MSTORE PUSH1 0x41 PUSH1 0x4 MSTORE PUSH1 0x24 PUSH0 REVERT JUMPDEST PUSH0 PUSH1 0xC0 DUP3 ADD SWAP1 POP PUSH2 0x1CA9 PUSH0 DUP4 ADD DUP10 PUSH2 0x18EF JUMP JUMPDEST PUSH2 0x1CB6 PUSH1 0x20 DUP4 ADD DUP9 PUSH2 0x197C JUMP JUMPDEST PUSH2 0x1CC3 PUSH1 0x40 DUP4 ADD DUP8 PUSH2 0x197C JUMP JUMPDEST PUSH2 0x1CD0 PUSH1 0x60 DUP4 ADD DUP7 PUSH2 0x183A JUMP JUMPDEST PUSH2 0x1CDD PUSH1 0x80 DUP4 ADD DUP6 PUSH2 0x183A JUMP JUMPDEST PUSH2 0x1CEA PUSH1 0xA0 DUP4 ADD DUP5 PUSH2 0x183A JUMP JUMPDEST SWAP8 SWAP7 POP POP POP POP POP POP POP JUMP JUMPDEST PUSH0 PUSH1 0x40 DUP3 ADD SWAP1 POP PUSH2 0x1D08 PUSH0 DUP4 ADD DUP6 PUSH2 0x197C JUMP JUMPDEST PUSH2 0x1D15 PUSH1 0x20 DUP4 ADD DUP5 PUSH2 0x197C JUMP JUMPDEST SWAP4 SWAP3 POP POP POP JUMP JUMPDEST PUSH0 PUSH1 0x60 DUP3 ADD SWAP1 POP PUSH2 0x1D2F PUSH0 DUP4 ADD DUP7 PUSH2 0x197C JUMP JUMPDEST PUSH2 0x1D3C PUSH1 0x20 DUP4 ADD DUP6 PUSH2 0x183A JUMP JUMPDEST PUSH2 0x1D49 PUSH1 0x40 DUP4 ADD DUP5 PUSH2 0x183A JUMP JUMPDEST SWAP5 SWAP4 POP POP POP POP JUMP JUMPDEST PUSH32 0x4E487B7100000000000000000000000000000000000000000000000000000000 PUSH0 MSTORE PUSH1 0x11 PUSH1 0x4 MSTORE PUSH1 0x24 PUSH0 REVERT JUMPDEST PUSH0 PUSH2 0x1D88 DUP3 PUSH2 0x1796 JUMP JUMPDEST SWAP2 POP PUSH2 0x1D93 DUP4 PUSH2 0x1796 JUMP JUMPDEST SWAP3 POP DUP3 DUP3 ADD SWAP1 POP DUP1 DUP3 GT ISZERO PUSH2 0x1DAB JUMPI PUSH2 0x1DAA PUSH2 0x1D51 JUMP JUMPDEST JUMPDEST SWAP3 SWAP2 POP POP JUMP JUMPDEST PUSH0 PUSH1 0xA0 DUP3 ADD SWAP1 POP PUSH2 0x1DC4 PUSH0 DUP4 ADD DUP9 PUSH2 0x18EF JUMP JUMPDEST PUSH2 0x1DD1 PUSH1 0x20 DUP4 ADD DUP8 PUSH2 0x18EF JUMP JUMPDEST PUSH2 0x1DDE PUSH1 0x40 DUP4 ADD DUP7 PUSH2 0x18EF JUMP JUMPDEST PUSH2 0x1DEB PUSH1 0x60 DUP4 ADD DUP6 PUSH2 0x183A JUMP JUMPDEST PUSH2 0x1DF8 PUSH1 0x80 DUP4 ADD DUP5 PUSH2 0x197C JUMP JUMPDEST SWAP7 SWAP6 POP POP POP POP POP POP JUMP JUMPDEST PUSH0 PUSH1 0x80 DUP3 ADD SWAP1 POP PUSH2 0x1E15 PUSH0 DUP4 ADD DUP8 PUSH2 0x18EF JUMP JUMPDEST PUSH2 0x1E22 PUSH1 0x20 DUP4 ADD DUP7 PUSH2 0x18BE JUMP JUMPDEST PUSH2 0x1E2F PUSH1 0x40 DUP4 ADD DUP6 PUSH2 0x18EF JUMP JUMPDEST PUSH2 0x1E3C PUSH1 0x60 DUP4 ADD DUP5 PUSH2 0x18EF JUMP JUMPDEST SWAP6 SWAP5 POP POP POP POP POP JUMP JUMPDEST PUSH32 0x4E487B7100000000000000000000000000000000000000000000000000000000 PUSH0 MSTORE PUSH1 0x21 PUSH1 0x4 MSTORE PUSH1 0x24 PUSH0 REVERT INVALID LOG2 PUSH5 0x6970667358 0x22 SLT KECCAK256 0xD3 DUP15 COINBASE DUP15 0xB5 0xA9 DUP15 0xDA 0xE SWAP9 0xC6 CALLDATACOPY 0xA8 PUSH6 0xF7559745E4B3 0xE4 SUB 0xBD 0xCA EQ 0xFB SWAP5 PUSH21 0x1B2559EF64736F6C63430008180033000000000000 "
				},
				"gasEstimates": {
					"creation": {
						"codeDepositCost": "1569600",
						"executionCost": "infinite",
						"totalCost": "infinite"
					},
					"external": {
						"DOMAIN_SEPARATOR()": "infinite",
						"allowance(address,address)": "infinite",
						"approve(address,uint256)": "infinite",
						"balanceOf(address)": "2918",
						"decimals()": "361",
						"eip712Domain()": "infinite",
						"mint(address,uint256)": "infinite",
						"name()": "infinite",
						"nonces(address)": "2916",
						"owner()": "2604",
						"permit(address,address,uint256,uint256,uint8,bytes32,bytes32)": "infinite",
						"renounceOwnership()": "infinite",
						"symbol()": "infinite",
						"totalSupply()": "2500",
						"transfer(address,uint256)": "infinite",
						"transferFrom(address,address,uint256)": "infinite",
						"transferOwnership(address)": "infinite"
					}
				},
				"methodIdentifiers": {
					"DOMAIN_SEPARATOR()": "3644e515",
					"allowance(address,address)": "dd62ed3e",
					"approve(address,uint256)": "095ea7b3",
					"balanceOf(address)": "70a08231",
					"decimals()": "313ce567",
					"eip712Domain()": "84b0196e",
					"mint(address,uint256)": "40c10f19",
					"name()": "06fdde03",
					"nonces(address)": "7ecebe00",
					"owner()": "8da5cb5b",
					"permit(address,address,uint256,uint256,uint8,bytes32,bytes32)": "d505accf",
					"renounceOwnership()": "715018a6",
					"symbol()": "95d89b41",
					"totalSupply()": "18160ddd",
					"transfer(address,uint256)": "a9059cbb",
					"transferFrom(address,address,uint256)": "23b872dd",
					"transferOwnership(address)": "f2fde38b"
				}
			},
			"storageLayout": {
				"storage": [
					{
						"astId": 279,
						"contract": "Token_RY_flattened.sol:Reyes",
						"label": "_balances",
						"offset": 0,
						"slot": "0",
						"type": "t_mapping(t_address,t_uint256)"
					},
					{
						"astId": 285,
						"contract": "Token_RY_flattened.sol:Reyes",
						"label": "_allowances",
						"offset": 0,
						"slot": "1",
						"type": "t_mapping(t_address,t_mapping(t_address,t_uint256))"
					},
					{
						"astId": 287,
						"contract": "Token_RY_flattened.sol:Reyes",
						"label": "_totalSupply",
						"offset": 0,
						"slot": "2",
						"type": "t_uint256"
					},
					{
						"astId": 289,
						"contract": "Token_RY_flattened.sol:Reyes",
						"label": "_name",
						"offset": 0,
						"slot": "3",
						"type": "t_string_storage"
					},
					{
						"astId": 291,
						"contract": "Token_RY_flattened.sol:Reyes",
						"label": "_symbol",
						"offset": 0,
						"slot": "4",
						"type": "t_string_storage"
					},
					{
						"astId": 777,
						"contract": "Token_RY_flattened.sol:Reyes",
						"label": "_owner",
						"offset": 0,
						"slot": "5",
						"type": "t_address"
					},
					{
						"astId": 3152,
						"contract": "Token_RY_flattened.sol:Reyes",
						"label": "_nameFallback",
						"offset": 0,
						"slot": "6",
						"type": "t_string_storage"
					},
					{
						"astId": 3154,
						"contract": "Token_RY_flattened.sol:Reyes",
						"label": "_versionFallback",
						"offset": 0,
						"slot": "7",
						"type": "t_string_storage"
					},
					{
						"astId": 3355,
						"contract": "Token_RY_flattened.sol:Reyes",
						"label": "_nonces",
						"offset": 0,
						"slot": "8",
						"type": "t_mapping(t_address,t_uint256)"
					}
				],
				"types": {
					"t_address": {
						"encoding": "inplace",
						"label": "address",
						"numberOfBytes": "20"
					},
					"t_mapping(t_address,t_mapping(t_address,t_uint256))": {
						"encoding": "mapping",
						"key": "t_address",
						"label": "mapping(address => mapping(address => uint256))",
						"numberOfBytes": "32",
						"value": "t_mapping(t_address,t_uint256)"
					},
					"t_mapping(t_address,t_uint256)": {
						"encoding": "mapping",
						"key": "t_address",
						"label": "mapping(address => uint256)",
						"numberOfBytes": "32",
						"value": "t_uint256"
					},
					"t_string_storage": {
						"encoding": "bytes",
						"label": "string",
						"numberOfBytes": "32"
					},
					"t_uint256": {
						"encoding": "inplace",
						"label": "uint256",
						"numberOfBytes": "32"
					}
				}
			},
			"userdoc": {
				"kind": "user",
				"methods": {},
				"version": 1
			}
		}
	}
}