{
	"data": {
		"bytecode": {
			"linkReferences": {},
			"object": "608060405234801561000f575f80fd5b506102f48061001d5f395ff3fe608060405234801561000f575f80fd5b506004361061003f575f3560e01c80632fdbbb9b1461004357806391f5de3814610061578063ca23f3f11461007f575b5f80fd5b61004b61009b565b60405161005891906101c4565b60405180910390f35b61006961012c565b60405161007691906101fc565b60405180910390f35b61009960048036038101906100949190610243565b610131565b005b606060125f5411156100c7576040518060600160405280602a815260200161026f602a91399050610129565b60125f540361010d576040518060400160405280601781526020017f54616d6269656e2070756564657320696e6772657361720000000000000000008152509050610129565b6040518060600160405280602681526020016102996026913990505b90565b5f5481565b805f8190555050565b5f81519050919050565b5f82825260208201905092915050565b5f5b83811015610171578082015181840152602081019050610156565b5f8484015250505050565b5f601f19601f8301169050919050565b5f6101968261013a565b6101a08185610144565b93506101b0818560208601610154565b6101b98161017c565b840191505092915050565b5f6020820190508181035f8301526101dc818461018c565b905092915050565b5f819050919050565b6101f6816101e4565b82525050565b5f60208201905061020f5f8301846101ed565b92915050565b5f80fd5b610222816101e4565b811461022c575f80fd5b50565b5f8135905061023d81610219565b92915050565b5f6020828403121561025857610257610215565b5b5f6102658482850161022f565b9150509291505056fe2050756564657320696e677265736172207961207175652065726573206d61796f72206465206564616445726573206d656e6f7220646520656461642c206e6f2070756564657320696e677265736172a2646970667358221220b8c20616ec4958b09ce71b0fc3302ad502c3113013ec680e9e3a3b47f63888e664736f6c63430008180033",
			"opcodes": "PUSH1 0x80 PUSH1 0x40 MSTORE CALLVALUE DUP1 ISZERO PUSH2 0xF JUMPI PUSH0 DUP1 REVERT JUMPDEST POP PUSH2 0x2F4 DUP1 PUSH2 0x1D PUSH0 CODECOPY PUSH0 RETURN INVALID PUSH1 0x80 PUSH1 0x40 MSTORE CALLVALUE DUP1 ISZERO PUSH2 0xF JUMPI PUSH0 DUP1 REVERT JUMPDEST POP PUSH1 0x4 CALLDATASIZE LT PUSH2 0x3F JUMPI PUSH0 CALLDATALOAD PUSH1 0xE0 SHR DUP1 PUSH4 0x2FDBBB9B EQ PUSH2 0x43 JUMPI DUP1 PUSH4 0x91F5DE38 EQ PUSH2 0x61 JUMPI DUP1 PUSH4 0xCA23F3F1 EQ PUSH2 0x7F JUMPI JUMPDEST PUSH0 DUP1 REVERT JUMPDEST PUSH2 0x4B PUSH2 0x9B JUMP JUMPDEST PUSH1 0x40 MLOAD PUSH2 0x58 SWAP2 SWAP1 PUSH2 0x1C4 JUMP JUMPDEST PUSH1 0x40 MLOAD DUP1 SWAP2 SUB SWAP1 RETURN JUMPDEST PUSH2 0x69 PUSH2 0x12C JUMP JUMPDEST PUSH1 0x40 MLOAD PUSH2 0x76 SWAP2 SWAP1 PUSH2 0x1FC JUMP JUMPDEST PUSH1 0x40 MLOAD DUP1 SWAP2 SUB SWAP1 RETURN JUMPDEST PUSH2 0x99 PUSH1 0x4 DUP1 CALLDATASIZE SUB DUP2 ADD SWAP1 PUSH2 0x94 SWAP2 SWAP1 PUSH2 0x243 JUMP JUMPDEST PUSH2 0x131 JUMP JUMPDEST STOP JUMPDEST PUSH1 0x60 PUSH1 0x12 PUSH0 SLOAD GT ISZERO PUSH2 0xC7 JUMPI PUSH1 0x40 MLOAD DUP1 PUSH1 0x60 ADD PUSH1 0x40 MSTORE DUP1 PUSH1 0x2A DUP2 MSTORE PUSH1 0x20 ADD PUSH2 0x26F PUSH1 0x2A SWAP2 CODECOPY SWAP1 POP PUSH2 0x129 JUMP JUMPDEST PUSH1 0x12 PUSH0 SLOAD SUB PUSH2 0x10D JUMPI PUSH1 0x40 MLOAD DUP1 PUSH1 0x40 ADD PUSH1 0x40 MSTORE DUP1 PUSH1 0x17 DUP2 MSTORE PUSH1 0x20 ADD PUSH32 0x54616D6269656E2070756564657320696E677265736172000000000000000000 DUP2 MSTORE POP SWAP1 POP PUSH2 0x129 JUMP JUMPDEST PUSH1 0x40 MLOAD DUP1 PUSH1 0x60 ADD PUSH1 0x40 MSTORE DUP1 PUSH1 0x26 DUP2 MSTORE PUSH1 0x20 ADD PUSH2 0x299 PUSH1 0x26 SWAP2 CODECOPY SWAP1 POP JUMPDEST SWAP1 JUMP JUMPDEST PUSH0 SLOAD DUP2 JUMP JUMPDEST DUP1 PUSH0 DUP2 SWAP1 SSTORE POP POP JUMP JUMPDEST PUSH0 DUP2 MLOAD SWAP1 POP SWAP2 SWAP1 POP JUMP JUMPDEST PUSH0 DUP3 DUP3 MSTORE PUSH1 0x20 DUP3 ADD SWAP1 POP SWAP3 SWAP2 POP POP JUMP JUMPDEST PUSH0 JUMPDEST DUP4 DUP2 LT ISZERO PUSH2 0x171 JUMPI DUP1 DUP3 ADD MLOAD DUP2 DUP5 ADD MSTORE PUSH1 0x20 DUP2 ADD SWAP1 POP PUSH2 0x156 JUMP JUMPDEST PUSH0 DUP5 DUP5 ADD MSTORE POP POP POP POP JUMP JUMPDEST PUSH0 PUSH1 0x1F NOT PUSH1 0x1F DUP4 ADD AND SWAP1 POP SWAP2 SWAP1 POP JUMP JUMPDEST PUSH0 PUSH2 0x196 DUP3 PUSH2 0x13A JUMP JUMPDEST PUSH2 0x1A0 DUP2 DUP6 PUSH2 0x144 JUMP JUMPDEST SWAP4 POP PUSH2 0x1B0 DUP2 DUP6 PUSH1 0x20 DUP7 ADD PUSH2 0x154 JUMP JUMPDEST PUSH2 0x1B9 DUP2 PUSH2 0x17C JUMP JUMPDEST DUP5 ADD SWAP2 POP POP SWAP3 SWAP2 POP POP JUMP JUMPDEST PUSH0 PUSH1 0x20 DUP3 ADD SWAP1 POP DUP2 DUP2 SUB PUSH0 DUP4 ADD MSTORE PUSH2 0x1DC DUP2 DUP5 PUSH2 0x18C JUMP JUMPDEST SWAP1 POP SWAP3 SWAP2 POP POP JUMP JUMPDEST PUSH0 DUP2 SWAP1 POP SWAP2 SWAP1 POP JUMP JUMPDEST PUSH2 0x1F6 DUP2 PUSH2 0x1E4 JUMP JUMPDEST DUP3 MSTORE POP POP JUMP JUMPDEST PUSH0 PUSH1 0x20 DUP3 ADD SWAP1 POP PUSH2 0x20F PUSH0 DUP4 ADD DUP5 PUSH2 0x1ED JUMP JUMPDEST SWAP3 SWAP2 POP POP JUMP JUMPDEST PUSH0 DUP1 REVERT JUMPDEST PUSH2 0x222 DUP2 PUSH2 0x1E4 JUMP JUMPDEST DUP2 EQ PUSH2 0x22C JUMPI PUSH0 DUP1 REVERT JUMPDEST POP JUMP JUMPDEST PUSH0 DUP2 CALLDATALOAD SWAP1 POP PUSH2 0x23D DUP2 PUSH2 0x219 JUMP JUMPDEST SWAP3 SWAP2 POP POP JUMP JUMPDEST PUSH0 PUSH1 0x20 DUP3 DUP5 SUB SLT ISZERO PUSH2 0x258 JUMPI PUSH2 0x257 PUSH2 0x215 JUMP JUMPDEST JUMPDEST PUSH0 PUSH2 0x265 DUP5 DUP3 DUP6 ADD PUSH2 0x22F JUMP JUMPDEST SWAP2 POP POP SWAP3 SWAP2 POP POP JUMP INVALID KECCAK256 POP PUSH22 0x6564657320696E677265736172207961207175652065 PUSH19 0x6573206D61796F722064652065646164457265 PUSH20 0x206D656E6F7220646520656461642C206E6F2070 PUSH22 0x6564657320696E677265736172A26469706673582212 KECCAK256 0xB8 0xC2 MOD AND 0xEC BLOBHASH PC 0xB0 SWAP13 0xE7 SHL 0xF 0xC3 ADDRESS 0x2A 0xD5 MUL 0xC3 GT ADDRESS SGT 0xEC PUSH9 0xE9E3A3B47F63888E6 PUSH5 0x736F6C6343 STOP ADDMOD XOR STOP CALLER "
		},
		"gasEstimates": {
			"creation": {
				"codeDepositCost": "151200",
				"executionCost": "194",
				"totalCost": "151394"
			},
			"external": {
				"establecer_numero(uint256)": "22536",
				"mensaje()": "infinite",
				"numero()": "2424"
			}
		},
		"methodIdentifiers": {
			"establecer_numero(uint256)": "ca23f3f1",
			"mensaje()": "2fdbbb9b",
			"numero()": "91f5de38"
		}
	},
	"abi": [
		{
			"inputs": [
				{
					"internalType": "uint256",
					"name": "_numero",
					"type": "uint256"
				}
			],
			"name": "establecer_numero",
			"outputs": [],
			"stateMutability": "nonpayable",
			"type": "function"
		},
		{
			"inputs": [],
			"name": "mensaje",
			"outputs": [
				{
					"internalType": "string",
					"name": "",
					"type": "string"
				}
			],
			"stateMutability": "view",
			"type": "function"
		},
		{
			"inputs": [],
			"name": "numero",
			"outputs": [
				{
					"internalType": "uint256",
					"name": "",
					"type": "uint256"
				}
			],
			"stateMutability": "view",
			"type": "function"
		}
	]
}