{
	"data": {
		"bytecode": {
			"linkReferences": {},
			"object": "608060405234801561000f575f80fd5b50335f806101000a81548173ffffffffffffffffffffffffffffffffffffffff021916908373ffffffffffffffffffffffffffffffffffffffff1602179055506111108061005c5f395ff3fe608060405260043610610049575f3560e01c80630fdb1c101461004d57806373d4a13a14610063578063782154df146100945780638da5cb5b146100b0578063f8f8a912146100da575b5f80fd5b348015610058575f80fd5b50610061610104565b005b34801561006e575f80fd5b5061007761023d565b60405161008b9897969594939291906108ab565b60405180910390f35b6100ae60048036038101906100a99190610ab8565b6105c1565b005b3480156100bb575f80fd5b506100c461079e565b6040516100d19190610c1d565b60405180910390f35b3480156100e5575f80fd5b506100ee6107c1565b6040516100fb9190610c4e565b60405180910390f35b5f8054906101000a900473ffffffffffffffffffffffffffffffffffffffff1673ffffffffffffffffffffffffffffffffffffffff163373ffffffffffffffffffffffffffffffffffffffff1614610191576040517f08c379a000000000000000000000000000000000000000000000000000000000815260040161018890610cd7565b60405180910390fd5b5f4790505f81116101d7576040517f08c379a00000000000000000000000000000000000000000000000000000000081526004016101ce90610d65565b60405180910390fd5b5f8054906101000a900473ffffffffffffffffffffffffffffffffffffffff1673ffffffffffffffffffffffffffffffffffffffff166108fc8290811502906040515f60405180830381858888f19350505050158015610239573d5f803e3d5ffd5b5050565b6001805f01805461024d90610db0565b80601f016020809104026020016040519081016040528092919081815260200182805461027990610db0565b80156102c45780601f1061029b576101008083540402835291602001916102c4565b820191905f5260205f20905b8154815290600101906020018083116102a757829003601f168201915b5050505050908060010180546102d990610db0565b80601f016020809104026020016040519081016040528092919081815260200182805461030590610db0565b80156103505780601f1061032757610100808354040283529160200191610350565b820191905f5260205f20905b81548152906001019060200180831161033357829003601f168201915b50505050509080600201805461036590610db0565b80601f016020809104026020016040519081016040528092919081815260200182805461039190610db0565b80156103dc5780601f106103b3576101008083540402835291602001916103dc565b820191905f5260205f20905b8154815290600101906020018083116103bf57829003601f168201915b5050505050908060030180546103f190610db0565b80601f016020809104026020016040519081016040528092919081815260200182805461041d90610db0565b80156104685780601f1061043f57610100808354040283529160200191610468565b820191905f5260205f20905b81548152906001019060200180831161044b57829003601f168201915b50505050509080600401805461047d90610db0565b80601f01602080910402602001604051908101604052809291908181526020018280546104a990610db0565b80156104f45780601f106104cb576101008083540402835291602001916104f4565b820191905f5260205f20905b8154815290600101906020018083116104d757829003601f168201915b50505050509080600501805461050990610db0565b80601f016020809104026020016040519081016040528092919081815260200182805461053590610db0565b80156105805780601f1061055757610100808354040283529160200191610580565b820191905f5260205f20905b81548152906001019060200180831161056357829003601f168201915b505050505090806006015f9054906101000a90045f0b908060060160019054906101000a900473ffffffffffffffffffffffffffffffffffffffff16905088565b67016345785d8a00008034101561060d576040517f08c379a000000000000000000000000000000000000000000000000000000000815260040161060490610e50565b60405180910390fd5b604051806101000160405280898152602001888152602001878152602001868152602001858152602001848152602001835f0b81526020013373ffffffffffffffffffffffffffffffffffffffff1681525060015f820151815f019081610674919061100b565b50602082015181600101908161068a919061100b565b5060408201518160020190816106a0919061100b565b5060608201518160030190816106b6919061100b565b5060808201518160040190816106cc919061100b565b5060a08201518160050190816106e2919061100b565b5060c0820151816006015f6101000a81548160ff02191690835f0b60ff16021790555060e08201518160060160016101000a81548173ffffffffffffffffffffffffffffffffffffffff021916908373ffffffffffffffffffffffffffffffffffffffff1602179055509050507f870247eb151fd35c4907322d059c22cbe7eb7930b7b7116d4a107cbbb5378d12888888888888883360405161078c9897969594939291906108ab565b60405180910390a15050505050505050565b5f8054906101000a900473ffffffffffffffffffffffffffffffffffffffff1681565b5f47905090565b5f81519050919050565b5f82825260208201905092915050565b5f5b838110156107ff5780820151818401526020810190506107e4565b5f8484015250505050565b5f601f19601f8301169050919050565b5f610824826107c8565b61082e81856107d2565b935061083e8185602086016107e2565b6108478161080a565b840191505092915050565b5f815f0b9050919050565b61086681610852565b82525050565b5f73ffffffffffffffffffffffffffffffffffffffff82169050919050565b5f6108958261086c565b9050919050565b6108a58161088b565b82525050565b5f610100820190508181035f8301526108c4818b61081a565b905081810360208301526108d8818a61081a565b905081810360408301526108ec818961081a565b90508181036060830152610900818861081a565b90508181036080830152610914818761081a565b905081810360a0830152610928818661081a565b905061093760c083018561085d565b61094460e083018461089c565b9998505050505050505050565b5f604051905090565b5f80fd5b5f80fd5b5f80fd5b5f80fd5b7f4e487b71000000000000000000000000000000000000000000000000000000005f52604160045260245ffd5b6109a08261080a565b810181811067ffffffffffffffff821117156109bf576109be61096a565b5b80604052505050565b5f6109d1610951565b90506109dd8282610997565b919050565b5f67ffffffffffffffff8211156109fc576109fb61096a565b5b610a058261080a565b9050602081019050919050565b828183375f83830152505050565b5f610a32610a2d846109e2565b6109c8565b905082815260208101848484011115610a4e57610a4d610966565b5b610a59848285610a12565b509392505050565b5f82601f830112610a7557610a74610962565b5b8135610a85848260208601610a20565b91505092915050565b610a9781610852565b8114610aa1575f80fd5b50565b5f81359050610ab281610a8e565b92915050565b5f805f805f805f60e0888a031215610ad357610ad261095a565b5b5f88013567ffffffffffffffff811115610af057610aef61095e565b5b610afc8a828b01610a61565b975050602088013567ffffffffffffffff811115610b1d57610b1c61095e565b5b610b298a828b01610a61565b965050604088013567ffffffffffffffff811115610b4a57610b4961095e565b5b610b568a828b01610a61565b955050606088013567ffffffffffffffff811115610b7757610b7661095e565b5b610b838a828b01610a61565b945050608088013567ffffffffffffffff811115610ba457610ba361095e565b5b610bb08a828b01610a61565b93505060a088013567ffffffffffffffff811115610bd157610bd061095e565b5b610bdd8a828b01610a61565b92505060c0610bee8a828b01610aa4565b91505092959891949750929550565b5f610c078261086c565b9050919050565b610c1781610bfd565b82525050565b5f602082019050610c305f830184610c0e565b92915050565b5f819050919050565b610c4881610c36565b82525050565b5f602082019050610c615f830184610c3f565b92915050565b7f536f6c6f20656c2070726f706965746172696f207075656465207265746972615f8201527f72206c6f7320666f6e646f730000000000000000000000000000000000000000602082015250565b5f610cc1602c836107d2565b9150610ccc82610c67565b604082019050919050565b5f6020820190508181035f830152610cee81610cb5565b9050919050565b7f4e6f207365207469656e6520666f6e646f7320656e20656c20636f6e747261745f8201527f6f00000000000000000000000000000000000000000000000000000000000000602082015250565b5f610d4f6021836107d2565b9150610d5a82610cf5565b604082019050919050565b5f6020820190508181035f830152610d7c81610d43565b9050919050565b7f4e487b71000000000000000000000000000000000000000000000000000000005f52602260045260245ffd5b5f6002820490506001821680610dc757607f821691505b602082108103610dda57610dd9610d83565b5b50919050565b7f4e6f207469656e652073616c646f2064652061766178207061726120656a65635f8201527f7574617200000000000000000000000000000000000000000000000000000000602082015250565b5f610e3a6024836107d2565b9150610e4582610de0565b604082019050919050565b5f6020820190508181035f830152610e6781610e2e565b9050919050565b5f819050815f5260205f209050919050565b5f6020601f8301049050919050565b5f82821b905092915050565b5f60088302610eca7fffffffffffffffffffffffffffffffffffffffffffffffffffffffffffffffff82610e8f565b610ed48683610e8f565b95508019841693508086168417925050509392505050565b5f819050919050565b5f610f0f610f0a610f0584610c36565b610eec565b610c36565b9050919050565b5f819050919050565b610f2883610ef5565b610f3c610f3482610f16565b848454610e9b565b825550505050565b5f90565b610f50610f44565b610f5b818484610f1f565b505050565b5b81811015610f7e57610f735f82610f48565b600181019050610f61565b5050565b601f821115610fc357610f9481610e6e565b610f9d84610e80565b81016020851015610fac578190505b610fc0610fb885610e80565b830182610f60565b50505b505050565b5f82821c905092915050565b5f610fe35f1984600802610fc8565b1980831691505092915050565b5f610ffb8383610fd4565b9150826002028217905092915050565b611014826107c8565b67ffffffffffffffff81111561102d5761102c61096a565b5b6110378254610db0565b611042828285610f82565b5f60209050601f831160018114611073575f8415611061578287015190505b61106b8582610ff0565b8655506110d2565b601f19841661108186610e6e565b5f5b828110156110a857848901518255600182019150602085019450602081019050611083565b868310156110c557848901516110c1601f891682610fd4565b8355505b6001600288020188555050505b50505050505056fea2646970667358221220cac60ec62f1981813a4197394847d29e32d2a462fba409eb0fc5f8d57aea4cb264736f6c63430008180033",
			"opcodes": "PUSH1 0x80 PUSH1 0x40 MSTORE CALLVALUE DUP1 ISZERO PUSH2 0xF JUMPI PUSH0 DUP1 REVERT JUMPDEST POP CALLER PUSH0 DUP1 PUSH2 0x100 EXP DUP2 SLOAD DUP2 PUSH20 0xFFFFFFFFFFFFFFFFFFFFFFFFFFFFFFFFFFFFFFFF MUL NOT AND SWAP1 DUP4 PUSH20 0xFFFFFFFFFFFFFFFFFFFFFFFFFFFFFFFFFFFFFFFF AND MUL OR SWAP1 SSTORE POP PUSH2 0x1110 DUP1 PUSH2 0x5C PUSH0 CODECOPY PUSH0 RETURN INVALID PUSH1 0x80 PUSH1 0x40 MSTORE PUSH1 0x4 CALLDATASIZE LT PUSH2 0x49 JUMPI PUSH0 CALLDATALOAD PUSH1 0xE0 SHR DUP1 PUSH4 0xFDB1C10 EQ PUSH2 0x4D JUMPI DUP1 PUSH4 0x73D4A13A EQ PUSH2 0x63 JUMPI DUP1 PUSH4 0x782154DF EQ PUSH2 0x94 JUMPI DUP1 PUSH4 0x8DA5CB5B EQ PUSH2 0xB0 JUMPI DUP1 PUSH4 0xF8F8A912 EQ PUSH2 0xDA JUMPI JUMPDEST PUSH0 DUP1 REVERT JUMPDEST CALLVALUE DUP1 ISZERO PUSH2 0x58 JUMPI PUSH0 DUP1 REVERT JUMPDEST POP PUSH2 0x61 PUSH2 0x104 JUMP JUMPDEST STOP JUMPDEST CALLVALUE DUP1 ISZERO PUSH2 0x6E JUMPI PUSH0 DUP1 REVERT JUMPDEST POP PUSH2 0x77 PUSH2 0x23D JUMP JUMPDEST PUSH1 0x40 MLOAD PUSH2 0x8B SWAP9 SWAP8 SWAP7 SWAP6 SWAP5 SWAP4 SWAP3 SWAP2 SWAP1 PUSH2 0x8AB JUMP JUMPDEST PUSH1 0x40 MLOAD DUP1 SWAP2 SUB SWAP1 RETURN JUMPDEST PUSH2 0xAE PUSH1 0x4 DUP1 CALLDATASIZE SUB DUP2 ADD SWAP1 PUSH2 0xA9 SWAP2 SWAP1 PUSH2 0xAB8 JUMP JUMPDEST PUSH2 0x5C1 JUMP JUMPDEST STOP JUMPDEST CALLVALUE DUP1 ISZERO PUSH2 0xBB JUMPI PUSH0 DUP1 REVERT JUMPDEST POP PUSH2 0xC4 PUSH2 0x79E JUMP JUMPDEST PUSH1 0x40 MLOAD PUSH2 0xD1 SWAP2 SWAP1 PUSH2 0xC1D JUMP JUMPDEST PUSH1 0x40 MLOAD DUP1 SWAP2 SUB SWAP1 RETURN JUMPDEST CALLVALUE DUP1 ISZERO PUSH2 0xE5 JUMPI PUSH0 DUP1 REVERT JUMPDEST POP PUSH2 0xEE PUSH2 0x7C1 JUMP JUMPDEST PUSH1 0x40 MLOAD PUSH2 0xFB SWAP2 SWAP1 PUSH2 0xC4E JUMP JUMPDEST PUSH1 0x40 MLOAD DUP1 SWAP2 SUB SWAP1 RETURN JUMPDEST PUSH0 DUP1 SLOAD SWAP1 PUSH2 0x100 EXP SWAP1 DIV PUSH20 0xFFFFFFFFFFFFFFFFFFFFFFFFFFFFFFFFFFFFFFFF AND PUSH20 0xFFFFFFFFFFFFFFFFFFFFFFFFFFFFFFFFFFFFFFFF AND CALLER PUSH20 0xFFFFFFFFFFFFFFFFFFFFFFFFFFFFFFFFFFFFFFFF AND EQ PUSH2 0x191 JUMPI PUSH1 0x40 MLOAD PUSH32 0x8C379A000000000000000000000000000000000000000000000000000000000 DUP2 MSTORE PUSH1 0x4 ADD PUSH2 0x188 SWAP1 PUSH2 0xCD7 JUMP JUMPDEST PUSH1 0x40 MLOAD DUP1 SWAP2 SUB SWAP1 REVERT JUMPDEST PUSH0 SELFBALANCE SWAP1 POP PUSH0 DUP2 GT PUSH2 0x1D7 JUMPI PUSH1 0x40 MLOAD PUSH32 0x8C379A000000000000000000000000000000000000000000000000000000000 DUP2 MSTORE PUSH1 0x4 ADD PUSH2 0x1CE SWAP1 PUSH2 0xD65 JUMP JUMPDEST PUSH1 0x40 MLOAD DUP1 SWAP2 SUB SWAP1 REVERT JUMPDEST PUSH0 DUP1 SLOAD SWAP1 PUSH2 0x100 EXP SWAP1 DIV PUSH20 0xFFFFFFFFFFFFFFFFFFFFFFFFFFFFFFFFFFFFFFFF AND PUSH20 0xFFFFFFFFFFFFFFFFFFFFFFFFFFFFFFFFFFFFFFFF AND PUSH2 0x8FC DUP3 SWAP1 DUP2 ISZERO MUL SWAP1 PUSH1 0x40 MLOAD PUSH0 PUSH1 0x40 MLOAD DUP1 DUP4 SUB DUP2 DUP6 DUP9 DUP9 CALL SWAP4 POP POP POP POP ISZERO DUP1 ISZERO PUSH2 0x239 JUMPI RETURNDATASIZE PUSH0 DUP1 RETURNDATACOPY RETURNDATASIZE PUSH0 REVERT JUMPDEST POP POP JUMP JUMPDEST PUSH1 0x1 DUP1 PUSH0 ADD DUP1 SLOAD PUSH2 0x24D SWAP1 PUSH2 0xDB0 JUMP JUMPDEST DUP1 PUSH1 0x1F ADD PUSH1 0x20 DUP1 SWAP2 DIV MUL PUSH1 0x20 ADD PUSH1 0x40 MLOAD SWAP1 DUP2 ADD PUSH1 0x40 MSTORE DUP1 SWAP3 SWAP2 SWAP1 DUP2 DUP2 MSTORE PUSH1 0x20 ADD DUP3 DUP1 SLOAD PUSH2 0x279 SWAP1 PUSH2 0xDB0 JUMP JUMPDEST DUP1 ISZERO PUSH2 0x2C4 JUMPI DUP1 PUSH1 0x1F LT PUSH2 0x29B JUMPI PUSH2 0x100 DUP1 DUP4 SLOAD DIV MUL DUP4 MSTORE SWAP2 PUSH1 0x20 ADD SWAP2 PUSH2 0x2C4 JUMP JUMPDEST DUP3 ADD SWAP2 SWAP1 PUSH0 MSTORE PUSH1 0x20 PUSH0 KECCAK256 SWAP1 JUMPDEST DUP2 SLOAD DUP2 MSTORE SWAP1 PUSH1 0x1 ADD SWAP1 PUSH1 0x20 ADD DUP1 DUP4 GT PUSH2 0x2A7 JUMPI DUP3 SWAP1 SUB PUSH1 0x1F AND DUP3 ADD SWAP2 JUMPDEST POP POP POP POP POP SWAP1 DUP1 PUSH1 0x1 ADD DUP1 SLOAD PUSH2 0x2D9 SWAP1 PUSH2 0xDB0 JUMP JUMPDEST DUP1 PUSH1 0x1F ADD PUSH1 0x20 DUP1 SWAP2 DIV MUL PUSH1 0x20 ADD PUSH1 0x40 MLOAD SWAP1 DUP2 ADD PUSH1 0x40 MSTORE DUP1 SWAP3 SWAP2 SWAP1 DUP2 DUP2 MSTORE PUSH1 0x20 ADD DUP3 DUP1 SLOAD PUSH2 0x305 SWAP1 PUSH2 0xDB0 JUMP JUMPDEST DUP1 ISZERO PUSH2 0x350 JUMPI DUP1 PUSH1 0x1F LT PUSH2 0x327 JUMPI PUSH2 0x100 DUP1 DUP4 SLOAD DIV MUL DUP4 MSTORE SWAP2 PUSH1 0x20 ADD SWAP2 PUSH2 0x350 JUMP JUMPDEST DUP3 ADD SWAP2 SWAP1 PUSH0 MSTORE PUSH1 0x20 PUSH0 KECCAK256 SWAP1 JUMPDEST DUP2 SLOAD DUP2 MSTORE SWAP1 PUSH1 0x1 ADD SWAP1 PUSH1 0x20 ADD DUP1 DUP4 GT PUSH2 0x333 JUMPI DUP3 SWAP1 SUB PUSH1 0x1F AND DUP3 ADD SWAP2 JUMPDEST POP POP POP POP POP SWAP1 DUP1 PUSH1 0x2 ADD DUP1 SLOAD PUSH2 0x365 SWAP1 PUSH2 0xDB0 JUMP JUMPDEST DUP1 PUSH1 0x1F ADD PUSH1 0x20 DUP1 SWAP2 DIV MUL PUSH1 0x20 ADD PUSH1 0x40 MLOAD SWAP1 DUP2 ADD PUSH1 0x40 MSTORE DUP1 SWAP3 SWAP2 SWAP1 DUP2 DUP2 MSTORE PUSH1 0x20 ADD DUP3 DUP1 SLOAD PUSH2 0x391 SWAP1 PUSH2 0xDB0 JUMP JUMPDEST DUP1 ISZERO PUSH2 0x3DC JUMPI DUP1 PUSH1 0x1F LT PUSH2 0x3B3 JUMPI PUSH2 0x100 DUP1 DUP4 SLOAD DIV MUL DUP4 MSTORE SWAP2 PUSH1 0x20 ADD SWAP2 PUSH2 0x3DC JUMP JUMPDEST DUP3 ADD SWAP2 SWAP1 PUSH0 MSTORE PUSH1 0x20 PUSH0 KECCAK256 SWAP1 JUMPDEST DUP2 SLOAD DUP2 MSTORE SWAP1 PUSH1 0x1 ADD SWAP1 PUSH1 0x20 ADD DUP1 DUP4 GT PUSH2 0x3BF JUMPI DUP3 SWAP1 SUB PUSH1 0x1F AND DUP3 ADD SWAP2 JUMPDEST POP POP POP POP POP SWAP1 DUP1 PUSH1 0x3 ADD DUP1 SLOAD PUSH2 0x3F1 SWAP1 PUSH2 0xDB0 JUMP JUMPDEST DUP1 PUSH1 0x1F ADD PUSH1 0x20 DUP1 SWAP2 DIV MUL PUSH1 0x20 ADD PUSH1 0x40 MLOAD SWAP1 DUP2 ADD PUSH1 0x40 MSTORE DUP1 SWAP3 SWAP2 SWAP1 DUP2 DUP2 MSTORE PUSH1 0x20 ADD DUP3 DUP1 SLOAD PUSH2 0x41D SWAP1 PUSH2 0xDB0 JUMP JUMPDEST DUP1 ISZERO PUSH2 0x468 JUMPI DUP1 PUSH1 0x1F LT PUSH2 0x43F JUMPI PUSH2 0x100 DUP1 DUP4 SLOAD DIV MUL DUP4 MSTORE SWAP2 PUSH1 0x20 ADD SWAP2 PUSH2 0x468 JUMP JUMPDEST DUP3 ADD SWAP2 SWAP1 PUSH0 MSTORE PUSH1 0x20 PUSH0 KECCAK256 SWAP1 JUMPDEST DUP2 SLOAD DUP2 MSTORE SWAP1 PUSH1 0x1 ADD SWAP1 PUSH1 0x20 ADD DUP1 DUP4 GT PUSH2 0x44B JUMPI DUP3 SWAP1 SUB PUSH1 0x1F AND DUP3 ADD SWAP2 JUMPDEST POP POP POP POP POP SWAP1 DUP1 PUSH1 0x4 ADD DUP1 SLOAD PUSH2 0x47D SWAP1 PUSH2 0xDB0 JUMP JUMPDEST DUP1 PUSH1 0x1F ADD PUSH1 0x20 DUP1 SWAP2 DIV MUL PUSH1 0x20 ADD PUSH1 0x40 MLOAD SWAP1 DUP2 ADD PUSH1 0x40 MSTORE DUP1 SWAP3 SWAP2 SWAP1 DUP2 DUP2 MSTORE PUSH1 0x20 ADD DUP3 DUP1 SLOAD PUSH2 0x4A9 SWAP1 PUSH2 0xDB0 JUMP JUMPDEST DUP1 ISZERO PUSH2 0x4F4 JUMPI DUP1 PUSH1 0x1F LT PUSH2 0x4CB JUMPI PUSH2 0x100 DUP1 DUP4 SLOAD DIV MUL DUP4 MSTORE SWAP2 PUSH1 0x20 ADD SWAP2 PUSH2 0x4F4 JUMP JUMPDEST DUP3 ADD SWAP2 SWAP1 PUSH0 MSTORE PUSH1 0x20 PUSH0 KECCAK256 SWAP1 JUMPDEST DUP2 SLOAD DUP2 MSTORE SWAP1 PUSH1 0x1 ADD SWAP1 PUSH1 0x20 ADD DUP1 DUP4 GT PUSH2 0x4D7 JUMPI DUP3 SWAP1 SUB PUSH1 0x1F AND DUP3 ADD SWAP2 JUMPDEST POP POP POP POP POP SWAP1 DUP1 PUSH1 0x5 ADD DUP1 SLOAD PUSH2 0x509 SWAP1 PUSH2 0xDB0 JUMP JUMPDEST DUP1 PUSH1 0x1F ADD PUSH1 0x20 DUP1 SWAP2 DIV MUL PUSH1 0x20 ADD PUSH1 0x40 MLOAD SWAP1 DUP2 ADD PUSH1 0x40 MSTORE DUP1 SWAP3 SWAP2 SWAP1 DUP2 DUP2 MSTORE PUSH1 0x20 ADD DUP3 DUP1 SLOAD PUSH2 0x535 SWAP1 PUSH2 0xDB0 JUMP JUMPDEST DUP1 ISZERO PUSH2 0x580 JUMPI DUP1 PUSH1 0x1F LT PUSH2 0x557 JUMPI PUSH2 0x100 DUP1 DUP4 SLOAD DIV MUL DUP4 MSTORE SWAP2 PUSH1 0x20 ADD SWAP2 PUSH2 0x580 JUMP JUMPDEST DUP3 ADD SWAP2 SWAP1 PUSH0 MSTORE PUSH1 0x20 PUSH0 KECCAK256 SWAP1 JUMPDEST DUP2 SLOAD DUP2 MSTORE SWAP1 PUSH1 0x1 ADD SWAP1 PUSH1 0x20 ADD DUP1 DUP4 GT PUSH2 0x563 JUMPI DUP3 SWAP1 SUB PUSH1 0x1F AND DUP3 ADD SWAP2 JUMPDEST POP POP POP POP POP SWAP1 DUP1 PUSH1 0x6 ADD PUSH0 SWAP1 SLOAD SWAP1 PUSH2 0x100 EXP SWAP1 DIV PUSH0 SIGNEXTEND SWAP1 DUP1 PUSH1 0x6 ADD PUSH1 0x1 SWAP1 SLOAD SWAP1 PUSH2 0x100 EXP SWAP1 DIV PUSH20 0xFFFFFFFFFFFFFFFFFFFFFFFFFFFFFFFFFFFFFFFF AND SWAP1 POP DUP9 JUMP JUMPDEST PUSH8 0x16345785D8A0000 DUP1 CALLVALUE LT ISZERO PUSH2 0x60D JUMPI PUSH1 0x40 MLOAD PUSH32 0x8C379A000000000000000000000000000000000000000000000000000000000 DUP2 MSTORE PUSH1 0x4 ADD PUSH2 0x604 SWAP1 PUSH2 0xE50 JUMP JUMPDEST PUSH1 0x40 MLOAD DUP1 SWAP2 SUB SWAP1 REVERT JUMPDEST PUSH1 0x40 MLOAD DUP1 PUSH2 0x100 ADD PUSH1 0x40 MSTORE DUP1 DUP10 DUP2 MSTORE PUSH1 0x20 ADD DUP9 DUP2 MSTORE PUSH1 0x20 ADD DUP8 DUP2 MSTORE PUSH1 0x20 ADD DUP7 DUP2 MSTORE PUSH1 0x20 ADD DUP6 DUP2 MSTORE PUSH1 0x20 ADD DUP5 DUP2 MSTORE PUSH1 0x20 ADD DUP4 PUSH0 SIGNEXTEND DUP2 MSTORE PUSH1 0x20 ADD CALLER PUSH20 0xFFFFFFFFFFFFFFFFFFFFFFFFFFFFFFFFFFFFFFFF AND DUP2 MSTORE POP PUSH1 0x1 PUSH0 DUP3 ADD MLOAD DUP2 PUSH0 ADD SWAP1 DUP2 PUSH2 0x674 SWAP2 SWAP1 PUSH2 0x100B JUMP JUMPDEST POP PUSH1 0x20 DUP3 ADD MLOAD DUP2 PUSH1 0x1 ADD SWAP1 DUP2 PUSH2 0x68A SWAP2 SWAP1 PUSH2 0x100B JUMP JUMPDEST POP PUSH1 0x40 DUP3 ADD MLOAD DUP2 PUSH1 0x2 ADD SWAP1 DUP2 PUSH2 0x6A0 SWAP2 SWAP1 PUSH2 0x100B JUMP JUMPDEST POP PUSH1 0x60 DUP3 ADD MLOAD DUP2 PUSH1 0x3 ADD SWAP1 DUP2 PUSH2 0x6B6 SWAP2 SWAP1 PUSH2 0x100B JUMP JUMPDEST POP PUSH1 0x80 DUP3 ADD MLOAD DUP2 PUSH1 0x4 ADD SWAP1 DUP2 PUSH2 0x6CC SWAP2 SWAP1 PUSH2 0x100B JUMP JUMPDEST POP PUSH1 0xA0 DUP3 ADD MLOAD DUP2 PUSH1 0x5 ADD SWAP1 DUP2 PUSH2 0x6E2 SWAP2 SWAP1 PUSH2 0x100B JUMP JUMPDEST POP PUSH1 0xC0 DUP3 ADD MLOAD DUP2 PUSH1 0x6 ADD PUSH0 PUSH2 0x100 EXP DUP2 SLOAD DUP2 PUSH1 0xFF MUL NOT AND SWAP1 DUP4 PUSH0 SIGNEXTEND PUSH1 0xFF AND MUL OR SWAP1 SSTORE POP PUSH1 0xE0 DUP3 ADD MLOAD DUP2 PUSH1 0x6 ADD PUSH1 0x1 PUSH2 0x100 EXP DUP2 SLOAD DUP2 PUSH20 0xFFFFFFFFFFFFFFFFFFFFFFFFFFFFFFFFFFFFFFFF MUL NOT AND SWAP1 DUP4 PUSH20 0xFFFFFFFFFFFFFFFFFFFFFFFFFFFFFFFFFFFFFFFF AND MUL OR SWAP1 SSTORE POP SWAP1 POP POP PUSH32 0x870247EB151FD35C4907322D059C22CBE7EB7930B7B7116D4A107CBBB5378D12 DUP9 DUP9 DUP9 DUP9 DUP9 DUP9 DUP9 CALLER PUSH1 0x40 MLOAD PUSH2 0x78C SWAP9 SWAP8 SWAP7 SWAP6 SWAP5 SWAP4 SWAP3 SWAP2 SWAP1 PUSH2 0x8AB JUMP JUMPDEST PUSH1 0x40 MLOAD DUP1 SWAP2 SUB SWAP1 LOG1 POP POP POP POP POP POP POP POP JUMP JUMPDEST PUSH0 DUP1 SLOAD SWAP1 PUSH2 0x100 EXP SWAP1 DIV PUSH20 0xFFFFFFFFFFFFFFFFFFFFFFFFFFFFFFFFFFFFFFFF AND DUP2 JUMP JUMPDEST PUSH0 SELFBALANCE SWAP1 POP SWAP1 JUMP JUMPDEST PUSH0 DUP2 MLOAD SWAP1 POP SWAP2 SWAP1 POP JUMP JUMPDEST PUSH0 DUP3 DUP3 MSTORE PUSH1 0x20 DUP3 ADD SWAP1 POP SWAP3 SWAP2 POP POP JUMP JUMPDEST PUSH0 JUMPDEST DUP4 DUP2 LT ISZERO PUSH2 0x7FF JUMPI DUP1 DUP3 ADD MLOAD DUP2 DUP5 ADD MSTORE PUSH1 0x20 DUP2 ADD SWAP1 POP PUSH2 0x7E4 JUMP JUMPDEST PUSH0 DUP5 DUP5 ADD MSTORE POP POP POP POP JUMP JUMPDEST PUSH0 PUSH1 0x1F NOT PUSH1 0x1F DUP4 ADD AND SWAP1 POP SWAP2 SWAP1 POP JUMP JUMPDEST PUSH0 PUSH2 0x824 DUP3 PUSH2 0x7C8 JUMP JUMPDEST PUSH2 0x82E DUP2 DUP6 PUSH2 0x7D2 JUMP JUMPDEST SWAP4 POP PUSH2 0x83E DUP2 DUP6 PUSH1 0x20 DUP7 ADD PUSH2 0x7E2 JUMP JUMPDEST PUSH2 0x847 DUP2 PUSH2 0x80A JUMP JUMPDEST DUP5 ADD SWAP2 POP POP SWAP3 SWAP2 POP POP JUMP JUMPDEST PUSH0 DUP2 PUSH0 SIGNEXTEND SWAP1 POP SWAP2 SWAP1 POP JUMP JUMPDEST PUSH2 0x866 DUP2 PUSH2 0x852 JUMP JUMPDEST DUP3 MSTORE POP POP JUMP JUMPDEST PUSH0 PUSH20 0xFFFFFFFFFFFFFFFFFFFFFFFFFFFFFFFFFFFFFFFF DUP3 AND SWAP1 POP SWAP2 SWAP1 POP JUMP JUMPDEST PUSH0 PUSH2 0x895 DUP3 PUSH2 0x86C JUMP JUMPDEST SWAP1 POP SWAP2 SWAP1 POP JUMP JUMPDEST PUSH2 0x8A5 DUP2 PUSH2 0x88B JUMP JUMPDEST DUP3 MSTORE POP POP JUMP JUMPDEST PUSH0 PUSH2 0x100 DUP3 ADD SWAP1 POP DUP2 DUP2 SUB PUSH0 DUP4 ADD MSTORE PUSH2 0x8C4 DUP2 DUP12 PUSH2 0x81A JUMP JUMPDEST SWAP1 POP DUP2 DUP2 SUB PUSH1 0x20 DUP4 ADD MSTORE PUSH2 0x8D8 DUP2 DUP11 PUSH2 0x81A JUMP JUMPDEST SWAP1 POP DUP2 DUP2 SUB PUSH1 0x40 DUP4 ADD MSTORE PUSH2 0x8EC DUP2 DUP10 PUSH2 0x81A JUMP JUMPDEST SWAP1 POP DUP2 DUP2 SUB PUSH1 0x60 DUP4 ADD MSTORE PUSH2 0x900 DUP2 DUP9 PUSH2 0x81A JUMP JUMPDEST SWAP1 POP DUP2 DUP2 SUB PUSH1 0x80 DUP4 ADD MSTORE PUSH2 0x914 DUP2 DUP8 PUSH2 0x81A JUMP JUMPDEST SWAP1 POP DUP2 DUP2 SUB PUSH1 0xA0 DUP4 ADD MSTORE PUSH2 0x928 DUP2 DUP7 PUSH2 0x81A JUMP JUMPDEST SWAP1 POP PUSH2 0x937 PUSH1 0xC0 DUP4 ADD DUP6 PUSH2 0x85D JUMP JUMPDEST PUSH2 0x944 PUSH1 0xE0 DUP4 ADD DUP5 PUSH2 0x89C JUMP JUMPDEST SWAP10 SWAP9 POP POP POP POP POP POP POP POP POP JUMP JUMPDEST PUSH0 PUSH1 0x40 MLOAD SWAP1 POP SWAP1 JUMP JUMPDEST PUSH0 DUP1 REVERT JUMPDEST PUSH0 DUP1 REVERT JUMPDEST PUSH0 DUP1 REVERT JUMPDEST PUSH0 DUP1 REVERT JUMPDEST PUSH32 0x4E487B7100000000000000000000000000000000000000000000000000000000 PUSH0 MSTORE PUSH1 0x41 PUSH1 0x4 MSTORE PUSH1 0x24 PUSH0 REVERT JUMPDEST PUSH2 0x9A0 DUP3 PUSH2 0x80A JUMP JUMPDEST DUP2 ADD DUP2 DUP2 LT PUSH8 0xFFFFFFFFFFFFFFFF DUP3 GT OR ISZERO PUSH2 0x9BF JUMPI PUSH2 0x9BE PUSH2 0x96A JUMP JUMPDEST JUMPDEST DUP1 PUSH1 0x40 MSTORE POP POP POP JUMP JUMPDEST PUSH0 PUSH2 0x9D1 PUSH2 0x951 JUMP JUMPDEST SWAP1 POP PUSH2 0x9DD DUP3 DUP3 PUSH2 0x997 JUMP JUMPDEST SWAP2 SWAP1 POP JUMP JUMPDEST PUSH0 PUSH8 0xFFFFFFFFFFFFFFFF DUP3 GT ISZERO PUSH2 0x9FC JUMPI PUSH2 0x9FB PUSH2 0x96A JUMP JUMPDEST JUMPDEST PUSH2 0xA05 DUP3 PUSH2 0x80A JUMP JUMPDEST SWAP1 POP PUSH1 0x20 DUP2 ADD SWAP1 POP SWAP2 SWAP1 POP JUMP JUMPDEST DUP3 DUP2 DUP4 CALLDATACOPY PUSH0 DUP4 DUP4 ADD MSTORE POP POP POP JUMP JUMPDEST PUSH0 PUSH2 0xA32 PUSH2 0xA2D DUP5 PUSH2 0x9E2 JUMP JUMPDEST PUSH2 0x9C8 JUMP JUMPDEST SWAP1 POP DUP3 DUP2 MSTORE PUSH1 0x20 DUP2 ADD DUP5 DUP5 DUP5 ADD GT ISZERO PUSH2 0xA4E JUMPI PUSH2 0xA4D PUSH2 0x966 JUMP JUMPDEST JUMPDEST PUSH2 0xA59 DUP5 DUP3 DUP6 PUSH2 0xA12 JUMP JUMPDEST POP SWAP4 SWAP3 POP POP POP JUMP JUMPDEST PUSH0 DUP3 PUSH1 0x1F DUP4 ADD SLT PUSH2 0xA75 JUMPI PUSH2 0xA74 PUSH2 0x962 JUMP JUMPDEST JUMPDEST DUP2 CALLDATALOAD PUSH2 0xA85 DUP5 DUP3 PUSH1 0x20 DUP7 ADD PUSH2 0xA20 JUMP JUMPDEST SWAP2 POP POP SWAP3 SWAP2 POP POP JUMP JUMPDEST PUSH2 0xA97 DUP2 PUSH2 0x852 JUMP JUMPDEST DUP2 EQ PUSH2 0xAA1 JUMPI PUSH0 DUP1 REVERT JUMPDEST POP JUMP JUMPDEST PUSH0 DUP2 CALLDATALOAD SWAP1 POP PUSH2 0xAB2 DUP2 PUSH2 0xA8E JUMP JUMPDEST SWAP3 SWAP2 POP POP JUMP JUMPDEST PUSH0 DUP1 PUSH0 DUP1 PUSH0 DUP1 PUSH0 PUSH1 0xE0 DUP9 DUP11 SUB SLT ISZERO PUSH2 0xAD3 JUMPI PUSH2 0xAD2 PUSH2 0x95A JUMP JUMPDEST JUMPDEST PUSH0 DUP9 ADD CALLDATALOAD PUSH8 0xFFFFFFFFFFFFFFFF DUP2 GT ISZERO PUSH2 0xAF0 JUMPI PUSH2 0xAEF PUSH2 0x95E JUMP JUMPDEST JUMPDEST PUSH2 0xAFC DUP11 DUP3 DUP12 ADD PUSH2 0xA61 JUMP JUMPDEST SWAP8 POP POP PUSH1 0x20 DUP9 ADD CALLDATALOAD PUSH8 0xFFFFFFFFFFFFFFFF DUP2 GT ISZERO PUSH2 0xB1D JUMPI PUSH2 0xB1C PUSH2 0x95E JUMP JUMPDEST JUMPDEST PUSH2 0xB29 DUP11 DUP3 DUP12 ADD PUSH2 0xA61 JUMP JUMPDEST SWAP7 POP POP PUSH1 0x40 DUP9 ADD CALLDATALOAD PUSH8 0xFFFFFFFFFFFFFFFF DUP2 GT ISZERO PUSH2 0xB4A JUMPI PUSH2 0xB49 PUSH2 0x95E JUMP JUMPDEST JUMPDEST PUSH2 0xB56 DUP11 DUP3 DUP12 ADD PUSH2 0xA61 JUMP JUMPDEST SWAP6 POP POP PUSH1 0x60 DUP9 ADD CALLDATALOAD PUSH8 0xFFFFFFFFFFFFFFFF DUP2 GT ISZERO PUSH2 0xB77 JUMPI PUSH2 0xB76 PUSH2 0x95E JUMP JUMPDEST JUMPDEST PUSH2 0xB83 DUP11 DUP3 DUP12 ADD PUSH2 0xA61 JUMP JUMPDEST SWAP5 POP POP PUSH1 0x80 DUP9 ADD CALLDATALOAD PUSH8 0xFFFFFFFFFFFFFFFF DUP2 GT ISZERO PUSH2 0xBA4 JUMPI PUSH2 0xBA3 PUSH2 0x95E JUMP JUMPDEST JUMPDEST PUSH2 0xBB0 DUP11 DUP3 DUP12 ADD PUSH2 0xA61 JUMP JUMPDEST SWAP4 POP POP PUSH1 0xA0 DUP9 ADD CALLDATALOAD PUSH8 0xFFFFFFFFFFFFFFFF DUP2 GT ISZERO PUSH2 0xBD1 JUMPI PUSH2 0xBD0 PUSH2 0x95E JUMP JUMPDEST JUMPDEST PUSH2 0xBDD DUP11 DUP3 DUP12 ADD PUSH2 0xA61 JUMP JUMPDEST SWAP3 POP POP PUSH1 0xC0 PUSH2 0xBEE DUP11 DUP3 DUP12 ADD PUSH2 0xAA4 JUMP JUMPDEST SWAP2 POP POP SWAP3 SWAP6 SWAP9 SWAP2 SWAP5 SWAP8 POP SWAP3 SWAP6 POP JUMP JUMPDEST PUSH0 PUSH2 0xC07 DUP3 PUSH2 0x86C JUMP JUMPDEST SWAP1 POP SWAP2 SWAP1 POP JUMP JUMPDEST PUSH2 0xC17 DUP2 PUSH2 0xBFD JUMP JUMPDEST DUP3 MSTORE POP POP JUMP JUMPDEST PUSH0 PUSH1 0x20 DUP3 ADD SWAP1 POP PUSH2 0xC30 PUSH0 DUP4 ADD DUP5 PUSH2 0xC0E JUMP JUMPDEST SWAP3 SWAP2 POP POP JUMP JUMPDEST PUSH0 DUP2 SWAP1 POP SWAP2 SWAP1 POP JUMP JUMPDEST PUSH2 0xC48 DUP2 PUSH2 0xC36 JUMP JUMPDEST DUP3 MSTORE POP POP JUMP JUMPDEST PUSH0 PUSH1 0x20 DUP3 ADD SWAP1 POP PUSH2 0xC61 PUSH0 DUP4 ADD DUP5 PUSH2 0xC3F JUMP JUMPDEST SWAP3 SWAP2 POP POP JUMP JUMPDEST PUSH32 0x536F6C6F20656C2070726F706965746172696F20707565646520726574697261 PUSH0 DUP3 ADD MSTORE PUSH32 0x72206C6F7320666F6E646F730000000000000000000000000000000000000000 PUSH1 0x20 DUP3 ADD MSTORE POP JUMP JUMPDEST PUSH0 PUSH2 0xCC1 PUSH1 0x2C DUP4 PUSH2 0x7D2 JUMP JUMPDEST SWAP2 POP PUSH2 0xCCC DUP3 PUSH2 0xC67 JUMP JUMPDEST PUSH1 0x40 DUP3 ADD SWAP1 POP SWAP2 SWAP1 POP JUMP JUMPDEST PUSH0 PUSH1 0x20 DUP3 ADD SWAP1 POP DUP2 DUP2 SUB PUSH0 DUP4 ADD MSTORE PUSH2 0xCEE DUP2 PUSH2 0xCB5 JUMP JUMPDEST SWAP1 POP SWAP2 SWAP1 POP JUMP JUMPDEST PUSH32 0x4E6F207365207469656E6520666F6E646F7320656E20656C20636F6E74726174 PUSH0 DUP3 ADD MSTORE PUSH32 0x6F00000000000000000000000000000000000000000000000000000000000000 PUSH1 0x20 DUP3 ADD MSTORE POP JUMP JUMPDEST PUSH0 PUSH2 0xD4F PUSH1 0x21 DUP4 PUSH2 0x7D2 JUMP JUMPDEST SWAP2 POP PUSH2 0xD5A DUP3 PUSH2 0xCF5 JUMP JUMPDEST PUSH1 0x40 DUP3 ADD SWAP1 POP SWAP2 SWAP1 POP JUMP JUMPDEST PUSH0 PUSH1 0x20 DUP3 ADD SWAP1 POP DUP2 DUP2 SUB PUSH0 DUP4 ADD MSTORE PUSH2 0xD7C DUP2 PUSH2 0xD43 JUMP JUMPDEST SWAP1 POP SWAP2 SWAP1 POP JUMP JUMPDEST PUSH32 0x4E487B7100000000000000000000000000000000000000000000000000000000 PUSH0 MSTORE PUSH1 0x22 PUSH1 0x4 MSTORE PUSH1 0x24 PUSH0 REVERT JUMPDEST PUSH0 PUSH1 0x2 DUP3 DIV SWAP1 POP PUSH1 0x1 DUP3 AND DUP1 PUSH2 0xDC7 JUMPI PUSH1 0x7F DUP3 AND SWAP2 POP JUMPDEST PUSH1 0x20 DUP3 LT DUP2 SUB PUSH2 0xDDA JUMPI PUSH2 0xDD9 PUSH2 0xD83 JUMP JUMPDEST JUMPDEST POP SWAP2 SWAP1 POP JUMP JUMPDEST PUSH32 0x4E6F207469656E652073616C646F2064652061766178207061726120656A6563 PUSH0 DUP3 ADD MSTORE PUSH32 0x7574617200000000000000000000000000000000000000000000000000000000 PUSH1 0x20 DUP3 ADD MSTORE POP JUMP JUMPDEST PUSH0 PUSH2 0xE3A PUSH1 0x24 DUP4 PUSH2 0x7D2 JUMP JUMPDEST SWAP2 POP PUSH2 0xE45 DUP3 PUSH2 0xDE0 JUMP JUMPDEST PUSH1 0x40 DUP3 ADD SWAP1 POP SWAP2 SWAP1 POP JUMP JUMPDEST PUSH0 PUSH1 0x20 DUP3 ADD SWAP1 POP DUP2 DUP2 SUB PUSH0 DUP4 ADD MSTORE PUSH2 0xE67 DUP2 PUSH2 0xE2E JUMP JUMPDEST SWAP1 POP SWAP2 SWAP1 POP JUMP JUMPDEST PUSH0 DUP2 SWAP1 POP DUP2 PUSH0 MSTORE PUSH1 0x20 PUSH0 KECCAK256 SWAP1 POP SWAP2 SWAP1 POP JUMP JUMPDEST PUSH0 PUSH1 0x20 PUSH1 0x1F DUP4 ADD DIV SWAP1 POP SWAP2 SWAP1 POP JUMP JUMPDEST PUSH0 DUP3 DUP3 SHL SWAP1 POP SWAP3 SWAP2 POP POP JUMP JUMPDEST PUSH0 PUSH1 0x8 DUP4 MUL PUSH2 0xECA PUSH32 0xFFFFFFFFFFFFFFFFFFFFFFFFFFFFFFFFFFFFFFFFFFFFFFFFFFFFFFFFFFFFFFFF DUP3 PUSH2 0xE8F JUMP JUMPDEST PUSH2 0xED4 DUP7 DUP4 PUSH2 0xE8F JUMP JUMPDEST SWAP6 POP DUP1 NOT DUP5 AND SWAP4 POP DUP1 DUP7 AND DUP5 OR SWAP3 POP POP POP SWAP4 SWAP3 POP POP POP JUMP JUMPDEST PUSH0 DUP2 SWAP1 POP SWAP2 SWAP1 POP JUMP JUMPDEST PUSH0 PUSH2 0xF0F PUSH2 0xF0A PUSH2 0xF05 DUP5 PUSH2 0xC36 JUMP JUMPDEST PUSH2 0xEEC JUMP JUMPDEST PUSH2 0xC36 JUMP JUMPDEST SWAP1 POP SWAP2 SWAP1 POP JUMP JUMPDEST PUSH0 DUP2 SWAP1 POP SWAP2 SWAP1 POP JUMP JUMPDEST PUSH2 0xF28 DUP4 PUSH2 0xEF5 JUMP JUMPDEST PUSH2 0xF3C PUSH2 0xF34 DUP3 PUSH2 0xF16 JUMP JUMPDEST DUP5 DUP5 SLOAD PUSH2 0xE9B JUMP JUMPDEST DUP3 SSTORE POP POP POP POP JUMP JUMPDEST PUSH0 SWAP1 JUMP JUMPDEST PUSH2 0xF50 PUSH2 0xF44 JUMP JUMPDEST PUSH2 0xF5B DUP2 DUP5 DUP5 PUSH2 0xF1F JUMP JUMPDEST POP POP POP JUMP JUMPDEST JUMPDEST DUP2 DUP2 LT ISZERO PUSH2 0xF7E JUMPI PUSH2 0xF73 PUSH0 DUP3 PUSH2 0xF48 JUMP JUMPDEST PUSH1 0x1 DUP2 ADD SWAP1 POP PUSH2 0xF61 JUMP JUMPDEST POP POP JUMP JUMPDEST PUSH1 0x1F DUP3 GT ISZERO PUSH2 0xFC3 JUMPI PUSH2 0xF94 DUP2 PUSH2 0xE6E JUMP JUMPDEST PUSH2 0xF9D DUP5 PUSH2 0xE80 JUMP JUMPDEST DUP2 ADD PUSH1 0x20 DUP6 LT ISZERO PUSH2 0xFAC JUMPI DUP2 SWAP1 POP JUMPDEST PUSH2 0xFC0 PUSH2 0xFB8 DUP6 PUSH2 0xE80 JUMP JUMPDEST DUP4 ADD DUP3 PUSH2 0xF60 JUMP JUMPDEST POP POP JUMPDEST POP POP POP JUMP JUMPDEST PUSH0 DUP3 DUP3 SHR SWAP1 POP SWAP3 SWAP2 POP POP JUMP JUMPDEST PUSH0 PUSH2 0xFE3 PUSH0 NOT DUP5 PUSH1 0x8 MUL PUSH2 0xFC8 JUMP JUMPDEST NOT DUP1 DUP4 AND SWAP2 POP POP SWAP3 SWAP2 POP POP JUMP JUMPDEST PUSH0 PUSH2 0xFFB DUP4 DUP4 PUSH2 0xFD4 JUMP JUMPDEST SWAP2 POP DUP3 PUSH1 0x2 MUL DUP3 OR SWAP1 POP SWAP3 SWAP2 POP POP JUMP JUMPDEST PUSH2 0x1014 DUP3 PUSH2 0x7C8 JUMP JUMPDEST PUSH8 0xFFFFFFFFFFFFFFFF DUP2 GT ISZERO PUSH2 0x102D JUMPI PUSH2 0x102C PUSH2 0x96A JUMP JUMPDEST JUMPDEST PUSH2 0x1037 DUP3 SLOAD PUSH2 0xDB0 JUMP JUMPDEST PUSH2 0x1042 DUP3 DUP3 DUP6 PUSH2 0xF82 JUMP JUMPDEST PUSH0 PUSH1 0x20 SWAP1 POP PUSH1 0x1F DUP4 GT PUSH1 0x1 DUP2 EQ PUSH2 0x1073 JUMPI PUSH0 DUP5 ISZERO PUSH2 0x1061 JUMPI DUP3 DUP8 ADD MLOAD SWAP1 POP JUMPDEST PUSH2 0x106B DUP6 DUP3 PUSH2 0xFF0 JUMP JUMPDEST DUP7 SSTORE POP PUSH2 0x10D2 JUMP JUMPDEST PUSH1 0x1F NOT DUP5 AND PUSH2 0x1081 DUP7 PUSH2 0xE6E JUMP JUMPDEST PUSH0 JUMPDEST DUP3 DUP2 LT ISZERO PUSH2 0x10A8 JUMPI DUP5 DUP10 ADD MLOAD DUP3 SSTORE PUSH1 0x1 DUP3 ADD SWAP2 POP PUSH1 0x20 DUP6 ADD SWAP5 POP PUSH1 0x20 DUP2 ADD SWAP1 POP PUSH2 0x1083 JUMP JUMPDEST DUP7 DUP4 LT ISZERO PUSH2 0x10C5 JUMPI DUP5 DUP10 ADD MLOAD PUSH2 0x10C1 PUSH1 0x1F DUP10 AND DUP3 PUSH2 0xFD4 JUMP JUMPDEST DUP4 SSTORE POP JUMPDEST PUSH1 0x1 PUSH1 0x2 DUP9 MUL ADD DUP9 SSTORE POP POP POP JUMPDEST POP POP POP POP POP POP JUMP INVALID LOG2 PUSH5 0x6970667358 0x22 SLT KECCAK256 0xCA 0xC6 0xE 0xC6 0x2F NOT DUP2 DUP2 GASPRICE COINBASE SWAP8 CODECOPY BASEFEE SELFBALANCE 0xD2 SWAP15 ORIGIN 0xD2 LOG4 PUSH3 0xFBA409 0xEB 0xF 0xC5 0xF8 0xD5 PUSH27 0xEA4CB264736F6C6343000818003300000000000000000000000000 "
		},
		"gasEstimates": {
			"creation": {
				"codeDepositCost": "873600",
				"executionCost": "25172",
				"totalCost": "898772"
			},
			"external": {
				"GetBalance()": "400",
				"data()": "infinite",
				"owner()": "2549",
				"pushData(string,string,string,string,string,string,int8)": "infinite",
				"withDraw()": "infinite"
			}
		},
		"methodIdentifiers": {
			"GetBalance()": "f8f8a912",
			"data()": "73d4a13a",
			"owner()": "8da5cb5b",
			"pushData(string,string,string,string,string,string,int8)": "782154df",
			"withDraw()": "0fdb1c10"
		}
	},
	"abi": [
		{
			"inputs": [],
			"stateMutability": "nonpayable",
			"type": "constructor"
		},
		{
			"anonymous": false,
			"inputs": [
				{
					"indexed": false,
					"internalType": "string",
					"name": "date",
					"type": "string"
				},
				{
					"indexed": false,
					"internalType": "string",
					"name": "delivery_date",
					"type": "string"
				},
				{
					"indexed": false,
					"internalType": "string",
					"name": "product",
					"type": "string"
				},
				{
					"indexed": false,
					"internalType": "string",
					"name": "price",
					"type": "string"
				},
				{
					"indexed": false,
					"internalType": "string",
					"name": "code",
					"type": "string"
				},
				{
					"indexed": false,
					"internalType": "string",
					"name": "cel_number",
					"type": "string"
				},
				{
					"indexed": false,
					"internalType": "int8",
					"name": "status",
					"type": "int8"
				},
				{
					"indexed": false,
					"internalType": "address",
					"name": "wallet",
					"type": "address"
				}
			],
			"name": "newData",
			"type": "event"
		},
		{
			"inputs": [],
			"name": "GetBalance",
			"outputs": [
				{
					"internalType": "uint256",
					"name": "",
					"type": "uint256"
				}
			],
			"stateMutability": "view",
			"type": "function"
		},
		{
			"inputs": [],
			"name": "data",
			"outputs": [
				{
					"internalType": "string",
					"name": "date",
					"type": "string"
				},
				{
					"internalType": "string",
					"name": "delivery_date",
					"type": "string"
				},
				{
					"internalType": "string",
					"name": "product",
					"type": "string"
				},
				{
					"internalType": "string",
					"name": "price",
					"type": "string"
				},
				{
					"internalType": "string",
					"name": "code",
					"type": "string"
				},
				{
					"internalType": "string",
					"name": "cel_number",
					"type": "string"
				},
				{
					"internalType": "int8",
					"name": "status",
					"type": "int8"
				},
				{
					"internalType": "address",
					"name": "wallet",
					"type": "address"
				}
			],
			"stateMutability": "view",
			"type": "function"
		},
		{
			"inputs": [],
			"name": "owner",
			"outputs": [
				{
					"internalType": "address payable",
					"name": "",
					"type": "address"
				}
			],
			"stateMutability": "view",
			"type": "function"
		},
		{
			"inputs": [
				{
					"internalType": "string",
					"name": "_date",
					"type": "string"
				},
				{
					"internalType": "string",
					"name": "_delivery_date",
					"type": "string"
				},
				{
					"internalType": "string",
					"name": "_product",
					"type": "string"
				},
				{
					"internalType": "string",
					"name": "_price",
					"type": "string"
				},
				{
					"internalType": "string",
					"name": "_code",
					"type": "string"
				},
				{
					"internalType": "string",
					"name": "_cel_number",
					"type": "string"
				},
				{
					"internalType": "int8",
					"name": "_status",
					"type": "int8"
				}
			],
			"name": "pushData",
			"outputs": [],
			"stateMutability": "payable",
			"type": "function"
		},
		{
			"inputs": [],
			"name": "withDraw",
			"outputs": [],
			"stateMutability": "nonpayable",
			"type": "function"
		}
	]
}